{
	"contracts/CampaignManager.sol": {
		"CampaignManager": {
			"abi": [
				{
					"anonymous": false,
					"inputs": [
						{
							"indexed": true,
							"internalType": "uint256",
							"name": "campaignId",
							"type": "uint256"
						},
						{
							"indexed": true,
							"internalType": "address",
							"name": "owner",
							"type": "address"
						},
						{
							"indexed": false,
							"internalType": "address",
							"name": "tokenAddress",
							"type": "address"
						}
					],
					"name": "CampaignCreated",
					"type": "event"
				},
				{
					"anonymous": false,
					"inputs": [
						{
							"indexed": true,
							"internalType": "uint256",
							"name": "campaignId",
							"type": "uint256"
						},
						{
							"indexed": true,
							"internalType": "address",
							"name": "investor",
							"type": "address"
						},
						{
							"indexed": false,
							"internalType": "uint256",
							"name": "amount",
							"type": "uint256"
						}
					],
					"name": "InvestmentMade",
					"type": "event"
				},
				{
					"anonymous": false,
					"inputs": [
						{
							"indexed": true,
							"internalType": "uint256",
							"name": "campaignId",
							"type": "uint256"
						},
						{
							"indexed": false,
							"internalType": "uint256",
							"name": "stage",
							"type": "uint256"
						},
						{
							"indexed": false,
							"internalType": "uint256",
							"name": "amount",
							"type": "uint256"
						}
					],
					"name": "StageCompleted",
					"type": "event"
				},
				{
					"inputs": [],
					"name": "campaignIdCounter",
					"outputs": [
						{
							"internalType": "uint256",
							"name": "",
							"type": "uint256"
						}
					],
					"stateMutability": "view",
					"type": "function"
				},
				{
					"inputs": [
						{
							"internalType": "uint256",
							"name": "",
							"type": "uint256"
						}
					],
					"name": "campaigns",
					"outputs": [
						{
							"internalType": "string",
							"name": "projectName",
							"type": "string"
						},
						{
							"internalType": "string",
							"name": "projectDescription",
							"type": "string"
						},
						{
							"internalType": "string",
							"name": "projectTag",
							"type": "string"
						},
						{
							"internalType": "string",
							"name": "projectTokenTicker",
							"type": "string"
						},
						{
							"internalType": "uint256",
							"name": "totalAmountToRaise",
							"type": "uint256"
						},
						{
							"internalType": "uint256",
							"name": "timePeriod",
							"type": "uint256"
						},
						{
							"internalType": "address",
							"name": "owner",
							"type": "address"
						},
						{
							"internalType": "bool",
							"name": "isActive",
							"type": "bool"
						},
						{
							"internalType": "uint256",
							"name": "raisedAmount",
							"type": "uint256"
						},
						{
							"internalType": "uint256",
							"name": "currentStage",
							"type": "uint256"
						},
						{
							"internalType": "address",
							"name": "tokenAddress",
							"type": "address"
						}
					],
					"stateMutability": "view",
					"type": "function"
				},
				{
					"inputs": [
						{
							"internalType": "string",
							"name": "_projectName",
							"type": "string"
						},
						{
							"internalType": "string",
							"name": "_projectDescription",
							"type": "string"
						},
						{
							"internalType": "string",
							"name": "_projectTag",
							"type": "string"
						},
						{
							"internalType": "string",
							"name": "_projectTokenTicker",
							"type": "string"
						},
						{
							"internalType": "string[]",
							"name": "_socialLinks",
							"type": "string[]"
						},
						{
							"internalType": "string[]",
							"name": "_websiteLinks",
							"type": "string[]"
						},
						{
							"internalType": "uint256",
							"name": "_totalAmountToRaise",
							"type": "uint256"
						},
						{
							"internalType": "uint256",
							"name": "_timePeriod",
							"type": "uint256"
						},
						{
							"internalType": "uint256[]",
							"name": "_stageAmounts",
							"type": "uint256[]"
						},
						{
							"internalType": "string[]",
							"name": "_prompts",
							"type": "string[]"
						}
					],
					"name": "createCampaign",
					"outputs": [
						{
							"internalType": "uint256",
							"name": "",
							"type": "uint256"
						}
					],
					"stateMutability": "nonpayable",
					"type": "function"
				},
				{
					"inputs": [
						{
							"internalType": "uint256",
							"name": "_campaignId",
							"type": "uint256"
						}
					],
					"name": "getNextPrompt",
					"outputs": [
						{
							"internalType": "string",
							"name": "",
							"type": "string"
						}
					],
					"stateMutability": "view",
					"type": "function"
				},
				{
					"inputs": [
						{
							"internalType": "uint256",
							"name": "_campaignId",
							"type": "uint256"
						},
						{
							"internalType": "uint256",
							"name": "_amount",
							"type": "uint256"
						}
					],
					"name": "investInCampaign",
					"outputs": [],
					"stateMutability": "payable",
					"type": "function"
				},
				{
					"inputs": [
						{
							"internalType": "address",
							"name": "",
							"type": "address"
						},
						{
							"internalType": "uint256",
							"name": "",
							"type": "uint256"
						}
					],
					"name": "ownerCampaigns",
					"outputs": [
						{
							"internalType": "uint256",
							"name": "",
							"type": "uint256"
						}
					],
					"stateMutability": "view",
					"type": "function"
				},
				{
					"inputs": [
						{
							"internalType": "uint256",
							"name": "_campaignId",
							"type": "uint256"
						}
					],
					"name": "requestNextStage",
					"outputs": [],
					"stateMutability": "nonpayable",
					"type": "function"
				},
				{
					"inputs": [
						{
							"internalType": "uint256",
							"name": "_campaignId",
							"type": "uint256"
						}
					],
					"name": "withdrawFunds",
					"outputs": [],
					"stateMutability": "nonpayable",
					"type": "function"
				}
			],
			"devdoc": {
				"kind": "dev",
				"methods": {},
				"version": 1
			},
			"evm": {
				"assembly": "    /* \"contracts/CampaignManager.sol\":145:6912  contract CampaignManager {... */\n  mstore(0x40, 0x80)\n  callvalue\n  dup1\n  iszero\n  tag_1\n  jumpi\n  0x00\n  dup1\n  revert\ntag_1:\n  pop\n  dataSize(sub_0)\n  dup1\n  dataOffset(sub_0)\n  0x00\n  codecopy\n  0x00\n  return\nstop\n\nsub_0: assembly {\n        /* \"contracts/CampaignManager.sol\":145:6912  contract CampaignManager {... */\n      mstore(0x40, 0x80)\n      jumpi(tag_1, lt(calldatasize, 0x04))\n      shr(0xe0, calldataload(0x00))\n      dup1\n      0x7355729a\n      gt\n      tag_10\n      jumpi\n      dup1\n      0x7355729a\n      eq\n      tag_6\n      jumpi\n      dup1\n      0x854b78a3\n      eq\n      tag_7\n      jumpi\n      dup1\n      0xa56a2759\n      eq\n      tag_8\n      jumpi\n      dup1\n      0xb6201a87\n      eq\n      tag_9\n      jumpi\n      jump(tag_1)\n    tag_10:\n      dup1\n      0x141961bc\n      eq\n      tag_2\n      jumpi\n      dup1\n      0x155dd5ee\n      eq\n      tag_3\n      jumpi\n      dup1\n      0x2e618676\n      eq\n      tag_4\n      jumpi\n      dup1\n      0x2ee4811f\n      eq\n      tag_5\n      jumpi\n    tag_1:\n      0x00\n      dup1\n      revert\n        /* \"contracts/CampaignManager.sol\":1141:1186  mapping(uint256 => Campaign) public campaigns */\n    tag_2:\n      callvalue\n      dup1\n      iszero\n      tag_11\n      jumpi\n      0x00\n      dup1\n      revert\n    tag_11:\n      pop\n      tag_12\n      0x04\n      dup1\n      calldatasize\n      sub\n      dup2\n      add\n      swap1\n      tag_13\n      swap2\n      swap1\n      tag_14\n      jump\t// in\n    tag_13:\n      tag_15\n      jump\t// in\n    tag_12:\n      mload(0x40)\n      tag_16\n      swap12\n      swap11\n      swap10\n      swap9\n      swap8\n      swap7\n      swap6\n      swap5\n      swap4\n      swap3\n      swap2\n      swap1\n      tag_17\n      jump\t// in\n    tag_16:\n      mload(0x40)\n      dup1\n      swap2\n      sub\n      swap1\n      return\n        /* \"contracts/CampaignManager.sol\":6433:6910  function withdrawFunds(uint256 _campaignId) public {... */\n    tag_3:\n      callvalue\n      dup1\n      iszero\n      tag_18\n      jumpi\n      0x00\n      dup1\n      revert\n    tag_18:\n      pop\n      tag_19\n      0x04\n      dup1\n      calldatasize\n      sub\n      dup2\n      add\n      swap1\n      tag_20\n      swap2\n      swap1\n      tag_14\n      jump\t// in\n    tag_20:\n      tag_21\n      jump\t// in\n    tag_19:\n      stop\n        /* \"contracts/CampaignManager.sol\":1342:1374  uint256 public campaignIdCounter */\n    tag_4:\n      callvalue\n      dup1\n      iszero\n      tag_22\n      jumpi\n      0x00\n      dup1\n      revert\n    tag_22:\n      pop\n      tag_23\n      tag_24\n      jump\t// in\n    tag_23:\n      mload(0x40)\n      tag_25\n      swap2\n      swap1\n      tag_26\n      jump\t// in\n    tag_25:\n      mload(0x40)\n      dup1\n      swap2\n      sub\n      swap1\n      return\n        /* \"contracts/CampaignManager.sol\":3846:4684  function investInCampaign(... */\n    tag_5:\n      tag_27\n      0x04\n      dup1\n      calldatasize\n      sub\n      dup2\n      add\n      swap1\n      tag_28\n      swap2\n      swap1\n      tag_29\n      jump\t// in\n    tag_28:\n      tag_30\n      jump\t// in\n    tag_27:\n      stop\n        /* \"contracts/CampaignManager.sol\":5159:6371  function requestNextStage(uint256 _campaignId) public {... */\n    tag_6:\n      callvalue\n      dup1\n      iszero\n      tag_31\n      jumpi\n      0x00\n      dup1\n      revert\n    tag_31:\n      pop\n      tag_32\n      0x04\n      dup1\n      calldatasize\n      sub\n      dup2\n      add\n      swap1\n      tag_33\n      swap2\n      swap1\n      tag_14\n      jump\t// in\n    tag_33:\n      tag_34\n      jump\t// in\n    tag_32:\n      stop\n        /* \"contracts/CampaignManager.sol\":1968:3840  function createCampaign(... */\n    tag_7:\n      callvalue\n      dup1\n      iszero\n      tag_35\n      jumpi\n      0x00\n      dup1\n      revert\n    tag_35:\n      pop\n      tag_36\n      0x04\n      dup1\n      calldatasize\n      sub\n      dup2\n      add\n      swap1\n      tag_37\n      swap2\n      swap1\n      tag_38\n      jump\t// in\n    tag_37:\n      tag_39\n      jump\t// in\n    tag_36:\n      mload(0x40)\n      tag_40\n      swap2\n      swap1\n      tag_26\n      jump\t// in\n    tag_40:\n      mload(0x40)\n      dup1\n      swap2\n      sub\n      swap1\n      return\n        /* \"contracts/CampaignManager.sol\":1252:1303  mapping(address => uint256[]) public ownerCampaigns */\n    tag_8:\n      callvalue\n      dup1\n      iszero\n      tag_41\n      jumpi\n      0x00\n      dup1\n      revert\n    tag_41:\n      pop\n      tag_42\n      0x04\n      dup1\n      calldatasize\n      sub\n      dup2\n      add\n      swap1\n      tag_43\n      swap2\n      swap1\n      tag_44\n      jump\t// in\n    tag_43:\n      tag_45\n      jump\t// in\n    tag_42:\n      mload(0x40)\n      tag_46\n      swap2\n      swap1\n      tag_26\n      jump\t// in\n    tag_46:\n      mload(0x40)\n      dup1\n      swap2\n      sub\n      swap1\n      return\n        /* \"contracts/CampaignManager.sol\":4750:5102  function getNextPrompt(... */\n    tag_9:\n      callvalue\n      dup1\n      iszero\n      tag_47\n      jumpi\n      0x00\n      dup1\n      revert\n    tag_47:\n      pop\n      tag_48\n      0x04\n      dup1\n      calldatasize\n      sub\n      dup2\n      add\n      swap1\n      tag_49\n      swap2\n      swap1\n      tag_14\n      jump\t// in\n    tag_49:\n      tag_50\n      jump\t// in\n    tag_48:\n      mload(0x40)\n      tag_51\n      swap2\n      swap1\n      tag_52\n      jump\t// in\n    tag_51:\n      mload(0x40)\n      dup1\n      swap2\n      sub\n      swap1\n      return\n        /* \"contracts/CampaignManager.sol\":1141:1186  mapping(uint256 => Campaign) public campaigns */\n    tag_15:\n      mstore(0x20, 0x00)\n      dup1\n      0x00\n      mstore\n      keccak256(0x00, 0x40)\n      0x00\n      swap2\n      pop\n      swap1\n      pop\n      dup1\n      0x00\n      add\n      dup1\n      sload\n      tag_53\n      swap1\n      tag_54\n      jump\t// in\n    tag_53:\n      dup1\n      0x1f\n      add\n      0x20\n      dup1\n      swap2\n      div\n      mul\n      0x20\n      add\n      mload(0x40)\n      swap1\n      dup2\n      add\n      0x40\n      mstore\n      dup1\n      swap3\n      swap2\n      swap1\n      dup2\n      dup2\n      mstore\n      0x20\n      add\n      dup3\n      dup1\n      sload\n      tag_55\n      swap1\n      tag_54\n      jump\t// in\n    tag_55:\n      dup1\n      iszero\n      tag_56\n      jumpi\n      dup1\n      0x1f\n      lt\n      tag_57\n      jumpi\n      0x0100\n      dup1\n      dup4\n      sload\n      div\n      mul\n      dup4\n      mstore\n      swap2\n      0x20\n      add\n      swap2\n      jump(tag_56)\n    tag_57:\n      dup3\n      add\n      swap2\n      swap1\n      0x00\n      mstore\n      keccak256(0x00, 0x20)\n      swap1\n    tag_58:\n      dup2\n      sload\n      dup2\n      mstore\n      swap1\n      0x01\n      add\n      swap1\n      0x20\n      add\n      dup1\n      dup4\n      gt\n      tag_58\n      jumpi\n      dup3\n      swap1\n      sub\n      0x1f\n      and\n      dup3\n      add\n      swap2\n    tag_56:\n      pop\n      pop\n      pop\n      pop\n      pop\n      swap1\n      dup1\n      0x01\n      add\n      dup1\n      sload\n      tag_59\n      swap1\n      tag_54\n      jump\t// in\n    tag_59:\n      dup1\n      0x1f\n      add\n      0x20\n      dup1\n      swap2\n      div\n      mul\n      0x20\n      add\n      mload(0x40)\n      swap1\n      dup2\n      add\n      0x40\n      mstore\n      dup1\n      swap3\n      swap2\n      swap1\n      dup2\n      dup2\n      mstore\n      0x20\n      add\n      dup3\n      dup1\n      sload\n      tag_60\n      swap1\n      tag_54\n      jump\t// in\n    tag_60:\n      dup1\n      iszero\n      tag_61\n      jumpi\n      dup1\n      0x1f\n      lt\n      tag_62\n      jumpi\n      0x0100\n      dup1\n      dup4\n      sload\n      div\n      mul\n      dup4\n      mstore\n      swap2\n      0x20\n      add\n      swap2\n      jump(tag_61)\n    tag_62:\n      dup3\n      add\n      swap2\n      swap1\n      0x00\n      mstore\n      keccak256(0x00, 0x20)\n      swap1\n    tag_63:\n      dup2\n      sload\n      dup2\n      mstore\n      swap1\n      0x01\n      add\n      swap1\n      0x20\n      add\n      dup1\n      dup4\n      gt\n      tag_63\n      jumpi\n      dup3\n      swap1\n      sub\n      0x1f\n      and\n      dup3\n      add\n      swap2\n    tag_61:\n      pop\n      pop\n      pop\n      pop\n      pop\n      swap1\n      dup1\n      0x02\n      add\n      dup1\n      sload\n      tag_64\n      swap1\n      tag_54\n      jump\t// in\n    tag_64:\n      dup1\n      0x1f\n      add\n      0x20\n      dup1\n      swap2\n      div\n      mul\n      0x20\n      add\n      mload(0x40)\n      swap1\n      dup2\n      add\n      0x40\n      mstore\n      dup1\n      swap3\n      swap2\n      swap1\n      dup2\n      dup2\n      mstore\n      0x20\n      add\n      dup3\n      dup1\n      sload\n      tag_65\n      swap1\n      tag_54\n      jump\t// in\n    tag_65:\n      dup1\n      iszero\n      tag_66\n      jumpi\n      dup1\n      0x1f\n      lt\n      tag_67\n      jumpi\n      0x0100\n      dup1\n      dup4\n      sload\n      div\n      mul\n      dup4\n      mstore\n      swap2\n      0x20\n      add\n      swap2\n      jump(tag_66)\n    tag_67:\n      dup3\n      add\n      swap2\n      swap1\n      0x00\n      mstore\n      keccak256(0x00, 0x20)\n      swap1\n    tag_68:\n      dup2\n      sload\n      dup2\n      mstore\n      swap1\n      0x01\n      add\n      swap1\n      0x20\n      add\n      dup1\n      dup4\n      gt\n      tag_68\n      jumpi\n      dup3\n      swap1\n      sub\n      0x1f\n      and\n      dup3\n      add\n      swap2\n    tag_66:\n      pop\n      pop\n      pop\n      pop\n      pop\n      swap1\n      dup1\n      0x03\n      add\n      dup1\n      sload\n      tag_69\n      swap1\n      tag_54\n      jump\t// in\n    tag_69:\n      dup1\n      0x1f\n      add\n      0x20\n      dup1\n      swap2\n      div\n      mul\n      0x20\n      add\n      mload(0x40)\n      swap1\n      dup2\n      add\n      0x40\n      mstore\n      dup1\n      swap3\n      swap2\n      swap1\n      dup2\n      dup2\n      mstore\n      0x20\n      add\n      dup3\n      dup1\n      sload\n      tag_70\n      swap1\n      tag_54\n      jump\t// in\n    tag_70:\n      dup1\n      iszero\n      tag_71\n      jumpi\n      dup1\n      0x1f\n      lt\n      tag_72\n      jumpi\n      0x0100\n      dup1\n      dup4\n      sload\n      div\n      mul\n      dup4\n      mstore\n      swap2\n      0x20\n      add\n      swap2\n      jump(tag_71)\n    tag_72:\n      dup3\n      add\n      swap2\n      swap1\n      0x00\n      mstore\n      keccak256(0x00, 0x20)\n      swap1\n    tag_73:\n      dup2\n      sload\n      dup2\n      mstore\n      swap1\n      0x01\n      add\n      swap1\n      0x20\n      add\n      dup1\n      dup4\n      gt\n      tag_73\n      jumpi\n      dup3\n      swap1\n      sub\n      0x1f\n      and\n      dup3\n      add\n      swap2\n    tag_71:\n      pop\n      pop\n      pop\n      pop\n      pop\n      swap1\n      dup1\n      0x06\n      add\n      sload\n      swap1\n      dup1\n      0x07\n      add\n      sload\n      swap1\n      dup1\n      0x0a\n      add\n      0x00\n      swap1\n      sload\n      swap1\n      0x0100\n      exp\n      swap1\n      div\n      0xffffffffffffffffffffffffffffffffffffffff\n      and\n      swap1\n      dup1\n      0x0a\n      add\n      0x14\n      swap1\n      sload\n      swap1\n      0x0100\n      exp\n      swap1\n      div\n      0xff\n      and\n      swap1\n      dup1\n      0x0b\n      add\n      sload\n      swap1\n      dup1\n      0x0c\n      add\n      sload\n      swap1\n      dup1\n      0x0d\n      add\n      0x00\n      swap1\n      sload\n      swap1\n      0x0100\n      exp\n      swap1\n      div\n      0xffffffffffffffffffffffffffffffffffffffff\n      and\n      swap1\n      pop\n      dup12\n      jump\t// out\n        /* \"contracts/CampaignManager.sol\":6433:6910  function withdrawFunds(uint256 _campaignId) public {... */\n    tag_21:\n        /* \"contracts/CampaignManager.sol\":6494:6519  Campaign storage campaign */\n      0x00\n        /* \"contracts/CampaignManager.sol\":6522:6531  campaigns */\n      dup1\n        /* \"contracts/CampaignManager.sol\":6522:6544  campaigns[_campaignId] */\n      0x00\n        /* \"contracts/CampaignManager.sol\":6532:6543  _campaignId */\n      dup4\n        /* \"contracts/CampaignManager.sol\":6522:6544  campaigns[_campaignId] */\n      dup2\n      mstore\n      0x20\n      add\n      swap1\n      dup2\n      mstore\n      0x20\n      add\n      0x00\n      keccak256\n        /* \"contracts/CampaignManager.sol\":6494:6544  Campaign storage campaign = campaigns[_campaignId] */\n      swap1\n      pop\n        /* \"contracts/CampaignManager.sol\":6589:6597  campaign */\n      dup1\n        /* \"contracts/CampaignManager.sol\":6589:6603  campaign.owner */\n      0x0a\n      add\n      0x00\n      swap1\n      sload\n      swap1\n      0x0100\n      exp\n      swap1\n      div\n      0xffffffffffffffffffffffffffffffffffffffff\n      and\n        /* \"contracts/CampaignManager.sol\":6575:6603  msg.sender == campaign.owner */\n      0xffffffffffffffffffffffffffffffffffffffff\n      and\n        /* \"contracts/CampaignManager.sol\":6575:6585  msg.sender */\n      caller\n        /* \"contracts/CampaignManager.sol\":6575:6603  msg.sender == campaign.owner */\n      0xffffffffffffffffffffffffffffffffffffffff\n      and\n      eq\n        /* \"contracts/CampaignManager.sol\":6554:6662  require(... */\n      tag_75\n      jumpi\n      mload(0x40)\n      0x08c379a000000000000000000000000000000000000000000000000000000000\n      dup2\n      mstore\n      0x04\n      add\n      tag_76\n      swap1\n      tag_77\n      jump\t// in\n    tag_76:\n      mload(0x40)\n      dup1\n      swap2\n      sub\n      swap1\n      revert\n    tag_75:\n        /* \"contracts/CampaignManager.sol\":6780:6794  uint256 amount */\n      0x00\n        /* \"contracts/CampaignManager.sol\":6797:6805  campaign */\n      dup2\n        /* \"contracts/CampaignManager.sol\":6797:6818  campaign.raisedAmount */\n      0x0b\n      add\n      sload\n        /* \"contracts/CampaignManager.sol\":6780:6818  uint256 amount = campaign.raisedAmount */\n      swap1\n      pop\n        /* \"contracts/CampaignManager.sol\":6852:6853  0 */\n      0x00\n        /* \"contracts/CampaignManager.sol\":6828:6836  campaign */\n      dup3\n        /* \"contracts/CampaignManager.sol\":6828:6849  campaign.raisedAmount */\n      0x0b\n      add\n        /* \"contracts/CampaignManager.sol\":6828:6853  campaign.raisedAmount = 0 */\n      dup2\n      swap1\n      sstore\n      pop\n        /* \"contracts/CampaignManager.sol\":6871:6879  campaign */\n      dup2\n        /* \"contracts/CampaignManager.sol\":6871:6885  campaign.owner */\n      0x0a\n      add\n      0x00\n      swap1\n      sload\n      swap1\n      0x0100\n      exp\n      swap1\n      div\n      0xffffffffffffffffffffffffffffffffffffffff\n      and\n        /* \"contracts/CampaignManager.sol\":6863:6895  payable(campaign.owner).transfer */\n      0xffffffffffffffffffffffffffffffffffffffff\n      and\n        /* \"contracts/CampaignManager.sol\":6863:6903  payable(campaign.owner).transfer(amount) */\n      0x08fc\n        /* \"contracts/CampaignManager.sol\":6896:6902  amount */\n      dup3\n        /* \"contracts/CampaignManager.sol\":6863:6903  payable(campaign.owner).transfer(amount) */\n      swap1\n      dup2\n      iszero\n      mul\n      swap1\n      mload(0x40)\n      0x00\n      mload(0x40)\n      dup1\n      dup4\n      sub\n      dup2\n      dup6\n      dup9\n      dup9\n      call\n      swap4\n      pop\n      pop\n      pop\n      pop\n      iszero\n      dup1\n      iszero\n      tag_79\n      jumpi\n      returndatasize\n      0x00\n      dup1\n      returndatacopy\n      revert(0x00, returndatasize)\n    tag_79:\n      pop\n        /* \"contracts/CampaignManager.sol\":6484:6910  {... */\n      pop\n      pop\n        /* \"contracts/CampaignManager.sol\":6433:6910  function withdrawFunds(uint256 _campaignId) public {... */\n      pop\n      jump\t// out\n        /* \"contracts/CampaignManager.sol\":1342:1374  uint256 public campaignIdCounter */\n    tag_24:\n      sload(0x02)\n      dup2\n      jump\t// out\n        /* \"contracts/CampaignManager.sol\":3846:4684  function investInCampaign(... */\n    tag_30:\n        /* \"contracts/CampaignManager.sol\":3957:3982  Campaign storage campaign */\n      0x00\n        /* \"contracts/CampaignManager.sol\":3985:3994  campaigns */\n      dup1\n        /* \"contracts/CampaignManager.sol\":3985:4007  campaigns[_campaignId] */\n      0x00\n        /* \"contracts/CampaignManager.sol\":3995:4006  _campaignId */\n      dup5\n        /* \"contracts/CampaignManager.sol\":3985:4007  campaigns[_campaignId] */\n      dup2\n      mstore\n      0x20\n      add\n      swap1\n      dup2\n      mstore\n      0x20\n      add\n      0x00\n      keccak256\n        /* \"contracts/CampaignManager.sol\":3957:4007  Campaign storage campaign = campaigns[_campaignId] */\n      swap1\n      pop\n        /* \"contracts/CampaignManager.sol\":4025:4033  campaign */\n      dup1\n        /* \"contracts/CampaignManager.sol\":4025:4042  campaign.isActive */\n      0x0a\n      add\n      0x14\n      swap1\n      sload\n      swap1\n      0x0100\n      exp\n      swap1\n      div\n      0xff\n      and\n        /* \"contracts/CampaignManager.sol\":4017:4069  require(campaign.isActive, \"Campaign is not active\") */\n      tag_81\n      jumpi\n      mload(0x40)\n      0x08c379a000000000000000000000000000000000000000000000000000000000\n      dup2\n      mstore\n      0x04\n      add\n      tag_82\n      swap1\n      tag_83\n      jump\t// in\n    tag_82:\n      mload(0x40)\n      dup1\n      swap2\n      sub\n      swap1\n      revert\n    tag_81:\n        /* \"contracts/CampaignManager.sol\":4097:4098  0 */\n      0x00\n        /* \"contracts/CampaignManager.sol\":4087:4094  _amount */\n      dup3\n        /* \"contracts/CampaignManager.sol\":4087:4098  _amount > 0 */\n      gt\n        /* \"contracts/CampaignManager.sol\":4079:4136  require(_amount > 0, \"Investment must be greater than 0\") */\n      tag_84\n      jumpi\n      mload(0x40)\n      0x08c379a000000000000000000000000000000000000000000000000000000000\n      dup2\n      mstore\n      0x04\n      add\n      tag_85\n      swap1\n      tag_86\n      jump\t// in\n    tag_85:\n      mload(0x40)\n      dup1\n      swap2\n      sub\n      swap1\n      revert\n    tag_84:\n        /* \"contracts/CampaignManager.sol\":4180:4187  _amount */\n      dup2\n        /* \"contracts/CampaignManager.sol\":4167:4176  msg.value */\n      callvalue\n        /* \"contracts/CampaignManager.sol\":4167:4187  msg.value == _amount */\n      eq\n        /* \"contracts/CampaignManager.sol\":4146:4256  require(... */\n      tag_87\n      jumpi\n      mload(0x40)\n      0x08c379a000000000000000000000000000000000000000000000000000000000\n      dup2\n      mstore\n      0x04\n      add\n      tag_88\n      swap1\n      tag_89\n      jump\t// in\n    tag_88:\n      mload(0x40)\n      dup1\n      swap2\n      sub\n      swap1\n      revert\n    tag_87:\n        /* \"contracts/CampaignManager.sol\":4303:4304  0 */\n      0x00\n        /* \"contracts/CampaignManager.sol\":4271:4279  campaign */\n      dup2\n        /* \"contracts/CampaignManager.sol\":4271:4287  campaign.backers */\n      0x0e\n      add\n        /* \"contracts/CampaignManager.sol\":4271:4299  campaign.backers[msg.sender] */\n      0x00\n        /* \"contracts/CampaignManager.sol\":4288:4298  msg.sender */\n      caller\n        /* \"contracts/CampaignManager.sol\":4271:4299  campaign.backers[msg.sender] */\n      0xffffffffffffffffffffffffffffffffffffffff\n      and\n      0xffffffffffffffffffffffffffffffffffffffff\n      and\n      dup2\n      mstore\n      0x20\n      add\n      swap1\n      dup2\n      mstore\n      0x20\n      add\n      0x00\n      keccak256\n      sload\n        /* \"contracts/CampaignManager.sol\":4271:4304  campaign.backers[msg.sender] == 0 */\n      sub\n        /* \"contracts/CampaignManager.sol\":4267:4372  if (campaign.backers[msg.sender] == 0) {... */\n      tag_90\n      jumpi\n        /* \"contracts/CampaignManager.sol\":4320:4328  campaign */\n      dup1\n        /* \"contracts/CampaignManager.sol\":4320:4344  campaign.backerAddresses */\n      0x0f\n      add\n        /* \"contracts/CampaignManager.sol\":4350:4360  msg.sender */\n      caller\n        /* \"contracts/CampaignManager.sol\":4320:4361  campaign.backerAddresses.push(msg.sender) */\n      swap1\n      dup1\n      0x01\n      dup2\n      sload\n      add\n      dup1\n      dup3\n      sstore\n      dup1\n      swap2\n      pop\n      pop\n      0x01\n      swap1\n      sub\n      swap1\n      0x00\n      mstore\n      keccak256(0x00, 0x20)\n      add\n      0x00\n      swap1\n      swap2\n      swap1\n      swap2\n      swap1\n      swap2\n      0x0100\n      exp\n      dup2\n      sload\n      dup2\n      0xffffffffffffffffffffffffffffffffffffffff\n      mul\n      not\n      and\n      swap1\n      dup4\n      0xffffffffffffffffffffffffffffffffffffffff\n      and\n      mul\n      or\n      swap1\n      sstore\n      pop\n        /* \"contracts/CampaignManager.sol\":4267:4372  if (campaign.backers[msg.sender] == 0) {... */\n    tag_90:\n        /* \"contracts/CampaignManager.sol\":4414:4421  _amount */\n      dup2\n        /* \"contracts/CampaignManager.sol\":4382:4390  campaign */\n      dup2\n        /* \"contracts/CampaignManager.sol\":4382:4398  campaign.backers */\n      0x0e\n      add\n        /* \"contracts/CampaignManager.sol\":4382:4410  campaign.backers[msg.sender] */\n      0x00\n        /* \"contracts/CampaignManager.sol\":4399:4409  msg.sender */\n      caller\n        /* \"contracts/CampaignManager.sol\":4382:4410  campaign.backers[msg.sender] */\n      0xffffffffffffffffffffffffffffffffffffffff\n      and\n      0xffffffffffffffffffffffffffffffffffffffff\n      and\n      dup2\n      mstore\n      0x20\n      add\n      swap1\n      dup2\n      mstore\n      0x20\n      add\n      0x00\n      keccak256\n      0x00\n        /* \"contracts/CampaignManager.sol\":4382:4421  campaign.backers[msg.sender] += _amount */\n      dup3\n      dup3\n      sload\n      tag_92\n      swap2\n      swap1\n      tag_93\n      jump\t// in\n    tag_92:\n      swap3\n      pop\n      pop\n      dup2\n      swap1\n      sstore\n      pop\n        /* \"contracts/CampaignManager.sol\":4456:4463  _amount */\n      dup2\n        /* \"contracts/CampaignManager.sol\":4431:4439  campaign */\n      dup2\n        /* \"contracts/CampaignManager.sol\":4431:4452  campaign.raisedAmount */\n      0x0b\n      add\n      0x00\n        /* \"contracts/CampaignManager.sol\":4431:4463  campaign.raisedAmount += _amount */\n      dup3\n      dup3\n      sload\n      tag_94\n      swap2\n      swap1\n      tag_93\n      jump\t// in\n    tag_94:\n      swap3\n      pop\n      pop\n      dup2\n      swap1\n      sstore\n      pop\n        /* \"contracts/CampaignManager.sol\":4520:4528  campaign */\n      dup1\n        /* \"contracts/CampaignManager.sol\":4520:4547  campaign.totalAmountToRaise */\n      0x06\n      add\n      sload\n        /* \"contracts/CampaignManager.sol\":4495:4503  campaign */\n      dup2\n        /* \"contracts/CampaignManager.sol\":4495:4516  campaign.raisedAmount */\n      0x0b\n      add\n      sload\n        /* \"contracts/CampaignManager.sol\":4495:4547  campaign.raisedAmount <= campaign.totalAmountToRaise */\n      gt\n      iszero\n        /* \"contracts/CampaignManager.sol\":4474:4613  require(... */\n      tag_95\n      jumpi\n      mload(0x40)\n      0x08c379a000000000000000000000000000000000000000000000000000000000\n      dup2\n      mstore\n      0x04\n      add\n      tag_96\n      swap1\n      tag_97\n      jump\t// in\n    tag_96:\n      mload(0x40)\n      dup1\n      swap2\n      sub\n      swap1\n      revert\n    tag_95:\n        /* \"contracts/CampaignManager.sol\":4657:4667  msg.sender */\n      caller\n        /* \"contracts/CampaignManager.sol\":4629:4677  InvestmentMade(_campaignId, msg.sender, _amount) */\n      0xffffffffffffffffffffffffffffffffffffffff\n      and\n        /* \"contracts/CampaignManager.sol\":4644:4655  _campaignId */\n      dup4\n        /* \"contracts/CampaignManager.sol\":4629:4677  InvestmentMade(_campaignId, msg.sender, _amount) */\n      0x89728d542d77fad9fe42c7d1f032c2b85f64cf938d754183b0e95359fbfac8a1\n        /* \"contracts/CampaignManager.sol\":4669:4676  _amount */\n      dup5\n        /* \"contracts/CampaignManager.sol\":4629:4677  InvestmentMade(_campaignId, msg.sender, _amount) */\n      mload(0x40)\n      tag_98\n      swap2\n      swap1\n      tag_26\n      jump\t// in\n    tag_98:\n      mload(0x40)\n      dup1\n      swap2\n      sub\n      swap1\n      log3\n        /* \"contracts/CampaignManager.sol\":3947:4684  {... */\n      pop\n        /* \"contracts/CampaignManager.sol\":3846:4684  function investInCampaign(... */\n      pop\n      pop\n      jump\t// out\n        /* \"contracts/CampaignManager.sol\":5159:6371  function requestNextStage(uint256 _campaignId) public {... */\n    tag_34:\n        /* \"contracts/CampaignManager.sol\":5223:5248  Campaign storage campaign */\n      0x00\n        /* \"contracts/CampaignManager.sol\":5251:5260  campaigns */\n      dup1\n        /* \"contracts/CampaignManager.sol\":5251:5273  campaigns[_campaignId] */\n      0x00\n        /* \"contracts/CampaignManager.sol\":5261:5272  _campaignId */\n      dup4\n        /* \"contracts/CampaignManager.sol\":5251:5273  campaigns[_campaignId] */\n      dup2\n      mstore\n      0x20\n      add\n      swap1\n      dup2\n      mstore\n      0x20\n      add\n      0x00\n      keccak256\n        /* \"contracts/CampaignManager.sol\":5223:5273  Campaign storage campaign = campaigns[_campaignId] */\n      swap1\n      pop\n        /* \"contracts/CampaignManager.sol\":5322:5332  msg.sender */\n      caller\n        /* \"contracts/CampaignManager.sol\":5304:5332  campaign.owner == msg.sender */\n      0xffffffffffffffffffffffffffffffffffffffff\n      and\n        /* \"contracts/CampaignManager.sol\":5304:5312  campaign */\n      dup2\n        /* \"contracts/CampaignManager.sol\":5304:5318  campaign.owner */\n      0x0a\n      add\n      0x00\n      swap1\n      sload\n      swap1\n      0x0100\n      exp\n      swap1\n      div\n      0xffffffffffffffffffffffffffffffffffffffff\n      and\n        /* \"contracts/CampaignManager.sol\":5304:5332  campaign.owner == msg.sender */\n      0xffffffffffffffffffffffffffffffffffffffff\n      and\n      eq\n        /* \"contracts/CampaignManager.sol\":5283:5395  require(... */\n      tag_100\n      jumpi\n      mload(0x40)\n      0x08c379a000000000000000000000000000000000000000000000000000000000\n      dup2\n      mstore\n      0x04\n      add\n      tag_101\n      swap1\n      tag_102\n      jump\t// in\n    tag_101:\n      mload(0x40)\n      dup1\n      swap2\n      sub\n      swap1\n      revert\n    tag_100:\n        /* \"contracts/CampaignManager.sol\":5450:5458  campaign */\n      dup1\n        /* \"contracts/CampaignManager.sol\":5450:5471  campaign.stageAmounts */\n      0x08\n      add\n        /* \"contracts/CampaignManager.sol\":5450:5478  campaign.stageAmounts.length */\n      dup1\n      sload\n      swap1\n      pop\n        /* \"contracts/CampaignManager.sol\":5426:5434  campaign */\n      dup2\n        /* \"contracts/CampaignManager.sol\":5426:5447  campaign.currentStage */\n      0x0c\n      add\n      sload\n        /* \"contracts/CampaignManager.sol\":5426:5478  campaign.currentStage < campaign.stageAmounts.length */\n      lt\n        /* \"contracts/CampaignManager.sol\":5405:5529  require(... */\n      tag_103\n      jumpi\n      mload(0x40)\n      0x08c379a000000000000000000000000000000000000000000000000000000000\n      dup2\n      mstore\n      0x04\n      add\n      tag_104\n      swap1\n      tag_105\n      jump\t// in\n    tag_104:\n      mload(0x40)\n      dup1\n      swap2\n      sub\n      swap1\n      revert\n    tag_103:\n        /* \"contracts/CampaignManager.sol\":5540:5559  uint256 stageAmount */\n      0x00\n        /* \"contracts/CampaignManager.sol\":5562:5570  campaign */\n      dup2\n        /* \"contracts/CampaignManager.sol\":5562:5583  campaign.stageAmounts */\n      0x08\n      add\n        /* \"contracts/CampaignManager.sol\":5584:5592  campaign */\n      dup3\n        /* \"contracts/CampaignManager.sol\":5584:5605  campaign.currentStage */\n      0x0c\n      add\n      sload\n        /* \"contracts/CampaignManager.sol\":5562:5606  campaign.stageAmounts[campaign.currentStage] */\n      dup2\n      sload\n      dup2\n      lt\n      tag_106\n      jumpi\n      tag_107\n      tag_108\n      jump\t// in\n    tag_107:\n    tag_106:\n      swap1\n      0x00\n      mstore\n      keccak256(0x00, 0x20)\n      add\n      sload\n        /* \"contracts/CampaignManager.sol\":5540:5606  uint256 stageAmount = campaign.stageAmounts[campaign.currentStage] */\n      swap1\n      pop\n        /* \"contracts/CampaignManager.sol\":5662:5673  stageAmount */\n      dup1\n        /* \"contracts/CampaignManager.sol\":5637:5645  campaign */\n      dup3\n        /* \"contracts/CampaignManager.sol\":5637:5658  campaign.raisedAmount */\n      0x0b\n      add\n      sload\n        /* \"contracts/CampaignManager.sol\":5637:5673  campaign.raisedAmount >= stageAmount */\n      lt\n      iszero\n        /* \"contracts/CampaignManager.sol\":5616:5739  require(... */\n      tag_110\n      jumpi\n      mload(0x40)\n      0x08c379a000000000000000000000000000000000000000000000000000000000\n      dup2\n      mstore\n      0x04\n      add\n      tag_111\n      swap1\n      tag_112\n      jump\t// in\n    tag_111:\n      mload(0x40)\n      dup1\n      swap2\n      sub\n      swap1\n      revert\n    tag_110:\n        /* \"contracts/CampaignManager.sol\":5790:5809  CampaignToken token */\n      0x00\n        /* \"contracts/CampaignManager.sol\":5826:5834  campaign */\n      dup3\n        /* \"contracts/CampaignManager.sol\":5826:5847  campaign.tokenAddress */\n      0x0d\n      add\n      0x00\n      swap1\n      sload\n      swap1\n      0x0100\n      exp\n      swap1\n      div\n      0xffffffffffffffffffffffffffffffffffffffff\n      and\n        /* \"contracts/CampaignManager.sol\":5790:5848  CampaignToken token = CampaignToken(campaign.tokenAddress) */\n      swap1\n      pop\n        /* \"contracts/CampaignManager.sol\":5863:5872  uint256 i */\n      0x00\n        /* \"contracts/CampaignManager.sol\":5858:6167  for (uint256 i = 0; i < campaign.backerAddresses.length; i++) {... */\n    tag_113:\n        /* \"contracts/CampaignManager.sol\":5882:5890  campaign */\n      dup4\n        /* \"contracts/CampaignManager.sol\":5882:5906  campaign.backerAddresses */\n      0x0f\n      add\n        /* \"contracts/CampaignManager.sol\":5882:5913  campaign.backerAddresses.length */\n      dup1\n      sload\n      swap1\n      pop\n        /* \"contracts/CampaignManager.sol\":5878:5879  i */\n      dup2\n        /* \"contracts/CampaignManager.sol\":5878:5913  i < campaign.backerAddresses.length */\n      lt\n        /* \"contracts/CampaignManager.sol\":5858:6167  for (uint256 i = 0; i < campaign.backerAddresses.length; i++) {... */\n      iszero\n      tag_114\n      jumpi\n        /* \"contracts/CampaignManager.sol\":5934:5948  address backer */\n      0x00\n        /* \"contracts/CampaignManager.sol\":5951:5959  campaign */\n      dup5\n        /* \"contracts/CampaignManager.sol\":5951:5975  campaign.backerAddresses */\n      0x0f\n      add\n        /* \"contracts/CampaignManager.sol\":5976:5977  i */\n      dup3\n        /* \"contracts/CampaignManager.sol\":5951:5978  campaign.backerAddresses[i] */\n      dup2\n      sload\n      dup2\n      lt\n      tag_116\n      jumpi\n      tag_117\n      tag_108\n      jump\t// in\n    tag_117:\n    tag_116:\n      swap1\n      0x00\n      mstore\n      keccak256(0x00, 0x20)\n      add\n      0x00\n      swap1\n      sload\n      swap1\n      0x0100\n      exp\n      swap1\n      div\n      0xffffffffffffffffffffffffffffffffffffffff\n      and\n        /* \"contracts/CampaignManager.sol\":5934:5978  address backer = campaign.backerAddresses[i] */\n      swap1\n      pop\n        /* \"contracts/CampaignManager.sol\":5992:6014  uint256 amountInvested */\n      0x00\n        /* \"contracts/CampaignManager.sol\":6017:6025  campaign */\n      dup6\n        /* \"contracts/CampaignManager.sol\":6017:6033  campaign.backers */\n      0x0e\n      add\n        /* \"contracts/CampaignManager.sol\":6017:6041  campaign.backers[backer] */\n      0x00\n        /* \"contracts/CampaignManager.sol\":6034:6040  backer */\n      dup4\n        /* \"contracts/CampaignManager.sol\":6017:6041  campaign.backers[backer] */\n      0xffffffffffffffffffffffffffffffffffffffff\n      and\n      0xffffffffffffffffffffffffffffffffffffffff\n      and\n      dup2\n      mstore\n      0x20\n      add\n      swap1\n      dup2\n      mstore\n      0x20\n      add\n      0x00\n      keccak256\n      sload\n        /* \"contracts/CampaignManager.sol\":5992:6041  uint256 amountInvested = campaign.backers[backer] */\n      swap1\n      pop\n        /* \"contracts/CampaignManager.sol\":6055:6074  uint256 tokenAmount */\n      0x00\n        /* \"contracts/CampaignManager.sol\":6077:6091  amountInvested */\n      dup2\n        /* \"contracts/CampaignManager.sol\":6055:6091  uint256 tokenAmount = amountInvested */\n      swap1\n      pop\n        /* \"contracts/CampaignManager.sol\":6125:6130  token */\n      dup5\n        /* \"contracts/CampaignManager.sol\":6125:6135  token.mint */\n      0xffffffffffffffffffffffffffffffffffffffff\n      and\n      0x40c10f19\n        /* \"contracts/CampaignManager.sol\":6136:6142  backer */\n      dup5\n        /* \"contracts/CampaignManager.sol\":6144:6155  tokenAmount */\n      dup4\n        /* \"contracts/CampaignManager.sol\":6125:6156  token.mint(backer, tokenAmount) */\n      mload(0x40)\n      dup4\n      0xffffffff\n      and\n      0xe0\n      shl\n      dup2\n      mstore\n      0x04\n      add\n      tag_119\n      swap3\n      swap2\n      swap1\n      tag_120\n      jump\t// in\n    tag_119:\n      0x00\n      mload(0x40)\n      dup1\n      dup4\n      sub\n      dup2\n      0x00\n      dup8\n      dup1\n      extcodesize\n      iszero\n      dup1\n      iszero\n      tag_121\n      jumpi\n      0x00\n      dup1\n      revert\n    tag_121:\n      pop\n      gas\n      call\n      iszero\n      dup1\n      iszero\n      tag_123\n      jumpi\n      returndatasize\n      0x00\n      dup1\n      returndatacopy\n      revert(0x00, returndatasize)\n    tag_123:\n      pop\n      pop\n      pop\n      pop\n        /* \"contracts/CampaignManager.sol\":5920:6167  {... */\n      pop\n      pop\n      pop\n        /* \"contracts/CampaignManager.sol\":5915:5918  i++ */\n      dup1\n      dup1\n      0x01\n      add\n      swap2\n      pop\n      pop\n        /* \"contracts/CampaignManager.sol\":5858:6167  for (uint256 i = 0; i < campaign.backerAddresses.length; i++) {... */\n      jump(tag_113)\n    tag_114:\n      pop\n        /* \"contracts/CampaignManager.sol\":6177:6185  campaign */\n      dup3\n        /* \"contracts/CampaignManager.sol\":6177:6198  campaign.currentStage */\n      0x0c\n      add\n      0x00\n        /* \"contracts/CampaignManager.sol\":6177:6200  campaign.currentStage++ */\n      dup2\n      sload\n      dup1\n      swap3\n      swap2\n      swap1\n      tag_124\n      swap1\n      tag_125\n      jump\t// in\n    tag_124:\n      swap2\n      swap1\n      pop\n      sstore\n      pop\n        /* \"contracts/CampaignManager.sol\":6210:6236  withdrawFunds(_campaignId) */\n      tag_126\n        /* \"contracts/CampaignManager.sol\":6224:6235  _campaignId */\n      dup5\n        /* \"contracts/CampaignManager.sol\":6210:6223  withdrawFunds */\n      tag_21\n        /* \"contracts/CampaignManager.sol\":6210:6236  withdrawFunds(_campaignId) */\n      jump\t// in\n    tag_126:\n        /* \"contracts/CampaignManager.sol\":6279:6290  _campaignId */\n      dup4\n        /* \"contracts/CampaignManager.sol\":6251:6364  StageCompleted(... */\n      0xf2c6aa1869e2b78837827508a071dd6030476bb3d9e3d851cc681054121949c7\n        /* \"contracts/CampaignManager.sol\":6328:6329  1 */\n      0x01\n        /* \"contracts/CampaignManager.sol\":6304:6312  campaign */\n      dup6\n        /* \"contracts/CampaignManager.sol\":6304:6325  campaign.currentStage */\n      0x0c\n      add\n      sload\n        /* \"contracts/CampaignManager.sol\":6304:6329  campaign.currentStage - 1 */\n      tag_127\n      swap2\n      swap1\n      tag_128\n      jump\t// in\n    tag_127:\n        /* \"contracts/CampaignManager.sol\":6343:6354  stageAmount */\n      dup5\n        /* \"contracts/CampaignManager.sol\":6251:6364  StageCompleted(... */\n      mload(0x40)\n      tag_129\n      swap3\n      swap2\n      swap1\n      tag_130\n      jump\t// in\n    tag_129:\n      mload(0x40)\n      dup1\n      swap2\n      sub\n      swap1\n      log2\n        /* \"contracts/CampaignManager.sol\":5213:6371  {... */\n      pop\n      pop\n      pop\n        /* \"contracts/CampaignManager.sol\":5159:6371  function requestNextStage(uint256 _campaignId) public {... */\n      pop\n      jump\t// out\n        /* \"contracts/CampaignManager.sol\":1968:3840  function createCampaign(... */\n    tag_39:\n        /* \"contracts/CampaignManager.sol\":2456:2463  uint256 */\n      0x00\n        /* \"contracts/CampaignManager.sol\":2519:2520  0 */\n      dup1\n        /* \"contracts/CampaignManager.sol\":2496:2509  _stageAmounts */\n      dup4\n        /* \"contracts/CampaignManager.sol\":2496:2516  _stageAmounts.length */\n      mload\n        /* \"contracts/CampaignManager.sol\":2496:2520  _stageAmounts.length > 0 */\n      gt\n        /* \"contracts/CampaignManager.sol\":2496:2549  _stageAmounts.length > 0 && _stageAmounts.length <= 5 */\n      dup1\n      iszero\n      tag_132\n      jumpi\n      pop\n        /* \"contracts/CampaignManager.sol\":2548:2549  5 */\n      0x05\n        /* \"contracts/CampaignManager.sol\":2524:2537  _stageAmounts */\n      dup4\n        /* \"contracts/CampaignManager.sol\":2524:2544  _stageAmounts.length */\n      mload\n        /* \"contracts/CampaignManager.sol\":2524:2549  _stageAmounts.length <= 5 */\n      gt\n      iszero\n        /* \"contracts/CampaignManager.sol\":2496:2549  _stageAmounts.length > 0 && _stageAmounts.length <= 5 */\n    tag_132:\n        /* \"contracts/CampaignManager.sol\":2475:2611  require(... */\n      tag_133\n      jumpi\n      mload(0x40)\n      0x08c379a000000000000000000000000000000000000000000000000000000000\n      dup2\n      mstore\n      0x04\n      add\n      tag_134\n      swap1\n      tag_135\n      jump\t// in\n    tag_134:\n      mload(0x40)\n      dup1\n      swap2\n      sub\n      swap1\n      revert\n    tag_133:\n        /* \"contracts/CampaignManager.sol\":2622:2639  campaignIdCounter */\n      0x02\n      0x00\n        /* \"contracts/CampaignManager.sol\":2622:2641  campaignIdCounter++ */\n      dup2\n      sload\n      dup1\n      swap3\n      swap2\n      swap1\n      tag_136\n      swap1\n      tag_125\n      jump\t// in\n    tag_136:\n      swap2\n      swap1\n      pop\n      sstore\n      pop\n        /* \"contracts/CampaignManager.sol\":2682:2701  CampaignToken token */\n      0x00\n        /* \"contracts/CampaignManager.sol\":2735:2754  _projectTokenTicker */\n      dup9\n        /* \"contracts/CampaignManager.sol\":2768:2787  _projectTokenTicker */\n      dup10\n        /* \"contracts/CampaignManager.sol\":2704:2797  new CampaignToken(... */\n      mload(0x40)\n      tag_137\n      swap1\n      tag_138\n      jump\t// in\n    tag_137:\n      tag_139\n      swap3\n      swap2\n      swap1\n      tag_140\n      jump\t// in\n    tag_139:\n      mload(0x40)\n      dup1\n      swap2\n      sub\n      swap1\n      0x00\n      create\n      dup1\n      iszero\n      dup1\n      iszero\n      tag_141\n      jumpi\n      returndatasize\n      0x00\n      dup1\n      returndatacopy\n      revert(0x00, returndatasize)\n    tag_141:\n      pop\n        /* \"contracts/CampaignManager.sol\":2682:2797  CampaignToken token = new CampaignToken(... */\n      swap1\n      pop\n        /* \"contracts/CampaignManager.sol\":2808:2836  Campaign storage newCampaign */\n      0x00\n        /* \"contracts/CampaignManager.sol\":2839:2848  campaigns */\n      dup1\n        /* \"contracts/CampaignManager.sol\":2839:2867  campaigns[campaignIdCounter] */\n      0x00\n        /* \"contracts/CampaignManager.sol\":2849:2866  campaignIdCounter */\n      sload(0x02)\n        /* \"contracts/CampaignManager.sol\":2839:2867  campaigns[campaignIdCounter] */\n      dup2\n      mstore\n      0x20\n      add\n      swap1\n      dup2\n      mstore\n      0x20\n      add\n      0x00\n      keccak256\n        /* \"contracts/CampaignManager.sol\":2808:2867  Campaign storage newCampaign = campaigns[campaignIdCounter] */\n      swap1\n      pop\n        /* \"contracts/CampaignManager.sol\":2903:2915  _projectName */\n      dup13\n        /* \"contracts/CampaignManager.sol\":2877:2888  newCampaign */\n      dup2\n        /* \"contracts/CampaignManager.sol\":2877:2900  newCampaign.projectName */\n      0x00\n      add\n        /* \"contracts/CampaignManager.sol\":2877:2915  newCampaign.projectName = _projectName */\n      swap1\n      dup2\n      tag_142\n      swap2\n      swap1\n      tag_143\n      jump\t// in\n    tag_142:\n      pop\n        /* \"contracts/CampaignManager.sol\":2958:2977  _projectDescription */\n      dup12\n        /* \"contracts/CampaignManager.sol\":2925:2936  newCampaign */\n      dup2\n        /* \"contracts/CampaignManager.sol\":2925:2955  newCampaign.projectDescription */\n      0x01\n      add\n        /* \"contracts/CampaignManager.sol\":2925:2977  newCampaign.projectDescription = _projectDescription */\n      swap1\n      dup2\n      tag_144\n      swap2\n      swap1\n      tag_143\n      jump\t// in\n    tag_144:\n      pop\n        /* \"contracts/CampaignManager.sol\":3012:3023  _projectTag */\n      dup11\n        /* \"contracts/CampaignManager.sol\":2987:2998  newCampaign */\n      dup2\n        /* \"contracts/CampaignManager.sol\":2987:3009  newCampaign.projectTag */\n      0x02\n      add\n        /* \"contracts/CampaignManager.sol\":2987:3023  newCampaign.projectTag = _projectTag */\n      swap1\n      dup2\n      tag_145\n      swap2\n      swap1\n      tag_143\n      jump\t// in\n    tag_145:\n      pop\n        /* \"contracts/CampaignManager.sol\":3066:3085  _projectTokenTicker */\n      dup10\n        /* \"contracts/CampaignManager.sol\":3033:3044  newCampaign */\n      dup2\n        /* \"contracts/CampaignManager.sol\":3033:3063  newCampaign.projectTokenTicker */\n      0x03\n      add\n        /* \"contracts/CampaignManager.sol\":3033:3085  newCampaign.projectTokenTicker = _projectTokenTicker */\n      swap1\n      dup2\n      tag_146\n      swap2\n      swap1\n      tag_143\n      jump\t// in\n    tag_146:\n      pop\n        /* \"contracts/CampaignManager.sol\":3164:3176  _socialLinks */\n      dup9\n        /* \"contracts/CampaignManager.sol\":3138:3149  newCampaign */\n      dup2\n        /* \"contracts/CampaignManager.sol\":3138:3161  newCampaign.socialLinks */\n      0x04\n      add\n        /* \"contracts/CampaignManager.sol\":3138:3176  newCampaign.socialLinks = _socialLinks */\n      swap1\n      dup1\n      mload\n      swap1\n      0x20\n      add\n      swap1\n      tag_147\n      swap3\n      swap2\n      swap1\n      tag_148\n      jump\t// in\n    tag_147:\n      pop\n        /* \"contracts/CampaignManager.sol\":3213:3226  _websiteLinks */\n      dup8\n        /* \"contracts/CampaignManager.sol\":3186:3197  newCampaign */\n      dup2\n        /* \"contracts/CampaignManager.sol\":3186:3210  newCampaign.websiteLinks */\n      0x05\n      add\n        /* \"contracts/CampaignManager.sol\":3186:3226  newCampaign.websiteLinks = _websiteLinks */\n      swap1\n      dup1\n      mload\n      swap1\n      0x20\n      add\n      swap1\n      tag_149\n      swap3\n      swap2\n      swap1\n      tag_148\n      jump\t// in\n    tag_149:\n      pop\n        /* \"contracts/CampaignManager.sol\":3269:3288  _totalAmountToRaise */\n      dup7\n        /* \"contracts/CampaignManager.sol\":3236:3247  newCampaign */\n      dup2\n        /* \"contracts/CampaignManager.sol\":3236:3266  newCampaign.totalAmountToRaise */\n      0x06\n      add\n        /* \"contracts/CampaignManager.sol\":3236:3288  newCampaign.totalAmountToRaise = _totalAmountToRaise */\n      dup2\n      swap1\n      sstore\n      pop\n        /* \"contracts/CampaignManager.sol\":3323:3334  _timePeriod */\n      dup6\n        /* \"contracts/CampaignManager.sol\":3298:3309  newCampaign */\n      dup2\n        /* \"contracts/CampaignManager.sol\":3298:3320  newCampaign.timePeriod */\n      0x07\n      add\n        /* \"contracts/CampaignManager.sol\":3298:3334  newCampaign.timePeriod = _timePeriod */\n      dup2\n      swap1\n      sstore\n      pop\n        /* \"contracts/CampaignManager.sol\":3422:3435  _stageAmounts */\n      dup5\n        /* \"contracts/CampaignManager.sol\":3395:3406  newCampaign */\n      dup2\n        /* \"contracts/CampaignManager.sol\":3395:3419  newCampaign.stageAmounts */\n      0x08\n      add\n        /* \"contracts/CampaignManager.sol\":3395:3435  newCampaign.stageAmounts = _stageAmounts */\n      swap1\n      dup1\n      mload\n      swap1\n      0x20\n      add\n      swap1\n      tag_150\n      swap3\n      swap2\n      swap1\n      tag_151\n      jump\t// in\n    tag_150:\n      pop\n        /* \"contracts/CampaignManager.sol\":3467:3475  _prompts */\n      dup4\n        /* \"contracts/CampaignManager.sol\":3445:3456  newCampaign */\n      dup2\n        /* \"contracts/CampaignManager.sol\":3445:3464  newCampaign.prompts */\n      0x09\n      add\n        /* \"contracts/CampaignManager.sol\":3445:3475  newCampaign.prompts = _prompts */\n      swap1\n      dup1\n      mload\n      swap1\n      0x20\n      add\n      swap1\n      tag_152\n      swap3\n      swap2\n      swap1\n      tag_148\n      jump\t// in\n    tag_152:\n      pop\n        /* \"contracts/CampaignManager.sol\":3505:3515  msg.sender */\n      caller\n        /* \"contracts/CampaignManager.sol\":3485:3496  newCampaign */\n      dup2\n        /* \"contracts/CampaignManager.sol\":3485:3502  newCampaign.owner */\n      0x0a\n      add\n      0x00\n        /* \"contracts/CampaignManager.sol\":3485:3515  newCampaign.owner = msg.sender */\n      0x0100\n      exp\n      dup2\n      sload\n      dup2\n      0xffffffffffffffffffffffffffffffffffffffff\n      mul\n      not\n      and\n      swap1\n      dup4\n      0xffffffffffffffffffffffffffffffffffffffff\n      and\n      mul\n      or\n      swap1\n      sstore\n      pop\n        /* \"contracts/CampaignManager.sol\":3548:3552  true */\n      0x01\n        /* \"contracts/CampaignManager.sol\":3525:3536  newCampaign */\n      dup2\n        /* \"contracts/CampaignManager.sol\":3525:3545  newCampaign.isActive */\n      0x0a\n      add\n      0x14\n        /* \"contracts/CampaignManager.sol\":3525:3552  newCampaign.isActive = true */\n      0x0100\n      exp\n      dup2\n      sload\n      dup2\n      0xff\n      mul\n      not\n      and\n      swap1\n      dup4\n      iszero\n      iszero\n      mul\n      or\n      swap1\n      sstore\n      pop\n        /* \"contracts/CampaignManager.sol\":3597:3602  token */\n      dup2\n        /* \"contracts/CampaignManager.sol\":3562:3573  newCampaign */\n      dup2\n        /* \"contracts/CampaignManager.sol\":3562:3586  newCampaign.tokenAddress */\n      0x0d\n      add\n      0x00\n        /* \"contracts/CampaignManager.sol\":3562:3603  newCampaign.tokenAddress = address(token) */\n      0x0100\n      exp\n      dup2\n      sload\n      dup2\n      0xffffffffffffffffffffffffffffffffffffffff\n      mul\n      not\n      and\n      swap1\n      dup4\n      0xffffffffffffffffffffffffffffffffffffffff\n      and\n      mul\n      or\n      swap1\n      sstore\n      pop\n        /* \"contracts/CampaignManager.sol\":3670:3684  ownerCampaigns */\n      0x01\n        /* \"contracts/CampaignManager.sol\":3670:3696  ownerCampaigns[msg.sender] */\n      0x00\n        /* \"contracts/CampaignManager.sol\":3685:3695  msg.sender */\n      caller\n        /* \"contracts/CampaignManager.sol\":3670:3696  ownerCampaigns[msg.sender] */\n      0xffffffffffffffffffffffffffffffffffffffff\n      and\n      0xffffffffffffffffffffffffffffffffffffffff\n      and\n      dup2\n      mstore\n      0x20\n      add\n      swap1\n      dup2\n      mstore\n      0x20\n      add\n      0x00\n      keccak256\n        /* \"contracts/CampaignManager.sol\":3702:3719  campaignIdCounter */\n      sload(0x02)\n        /* \"contracts/CampaignManager.sol\":3670:3720  ownerCampaigns[msg.sender].push(campaignIdCounter) */\n      swap1\n      dup1\n      0x01\n      dup2\n      sload\n      add\n      dup1\n      dup3\n      sstore\n      dup1\n      swap2\n      pop\n      pop\n      0x01\n      swap1\n      sub\n      swap1\n      0x00\n      mstore\n      keccak256(0x00, 0x20)\n      add\n      0x00\n      swap1\n      swap2\n      swap1\n      swap2\n      swap1\n      swap2\n      pop\n      sstore\n        /* \"contracts/CampaignManager.sol\":3771:3781  msg.sender */\n      caller\n        /* \"contracts/CampaignManager.sol\":3736:3798  CampaignCreated(campaignIdCounter, msg.sender, address(token)) */\n      0xffffffffffffffffffffffffffffffffffffffff\n      and\n        /* \"contracts/CampaignManager.sol\":3752:3769  campaignIdCounter */\n      sload(0x02)\n        /* \"contracts/CampaignManager.sol\":3736:3798  CampaignCreated(campaignIdCounter, msg.sender, address(token)) */\n      0x0ef2bf7802c393948d08caf4d04a02be072741662e1757a4b7c941f583cdf9f7\n        /* \"contracts/CampaignManager.sol\":3791:3796  token */\n      dup5\n        /* \"contracts/CampaignManager.sol\":3736:3798  CampaignCreated(campaignIdCounter, msg.sender, address(token)) */\n      mload(0x40)\n      tag_154\n      swap2\n      swap1\n      tag_155\n      jump\t// in\n    tag_154:\n      mload(0x40)\n      dup1\n      swap2\n      sub\n      swap1\n      log3\n        /* \"contracts/CampaignManager.sol\":3816:3833  campaignIdCounter */\n      sload(0x02)\n        /* \"contracts/CampaignManager.sol\":3809:3833  return campaignIdCounter */\n      swap3\n      pop\n      pop\n      pop\n        /* \"contracts/CampaignManager.sol\":1968:3840  function createCampaign(... */\n      swap11\n      swap10\n      pop\n      pop\n      pop\n      pop\n      pop\n      pop\n      pop\n      pop\n      pop\n      pop\n      jump\t// out\n        /* \"contracts/CampaignManager.sol\":1252:1303  mapping(address => uint256[]) public ownerCampaigns */\n    tag_45:\n      mstore(0x20, 0x01)\n      dup2\n      0x00\n      mstore\n      keccak256(0x00, 0x40)\n      dup2\n      dup2\n      sload\n      dup2\n      lt\n      tag_156\n      jumpi\n      0x00\n      dup1\n      revert\n    tag_156:\n      swap1\n      0x00\n      mstore\n      keccak256(0x00, 0x20)\n      add\n      0x00\n      swap2\n      pop\n      swap2\n      pop\n      pop\n      sload\n      dup2\n      jump\t// out\n        /* \"contracts/CampaignManager.sol\":4750:5102  function getNextPrompt(... */\n    tag_50:\n        /* \"contracts/CampaignManager.sol\":4829:4842  string memory */\n      0x60\n        /* \"contracts/CampaignManager.sol\":4854:4879  Campaign storage campaign */\n      0x00\n        /* \"contracts/CampaignManager.sol\":4882:4891  campaigns */\n      dup1\n        /* \"contracts/CampaignManager.sol\":4882:4904  campaigns[_campaignId] */\n      0x00\n        /* \"contracts/CampaignManager.sol\":4892:4903  _campaignId */\n      dup5\n        /* \"contracts/CampaignManager.sol\":4882:4904  campaigns[_campaignId] */\n      dup2\n      mstore\n      0x20\n      add\n      swap1\n      dup2\n      mstore\n      0x20\n      add\n      0x00\n      keccak256\n        /* \"contracts/CampaignManager.sol\":4854:4904  Campaign storage campaign = campaigns[_campaignId] */\n      swap1\n      pop\n        /* \"contracts/CampaignManager.sol\":4959:4967  campaign */\n      dup1\n        /* \"contracts/CampaignManager.sol\":4959:4980  campaign.stageAmounts */\n      0x08\n      add\n        /* \"contracts/CampaignManager.sol\":4959:4987  campaign.stageAmounts.length */\n      dup1\n      sload\n      swap1\n      pop\n        /* \"contracts/CampaignManager.sol\":4935:4943  campaign */\n      dup2\n        /* \"contracts/CampaignManager.sol\":4935:4956  campaign.currentStage */\n      0x0c\n      add\n      sload\n        /* \"contracts/CampaignManager.sol\":4935:4987  campaign.currentStage < campaign.stageAmounts.length */\n      lt\n        /* \"contracts/CampaignManager.sol\":4914:5038  require(... */\n      tag_159\n      jumpi\n      mload(0x40)\n      0x08c379a000000000000000000000000000000000000000000000000000000000\n      dup2\n      mstore\n      0x04\n      add\n      tag_160\n      swap1\n      tag_105\n      jump\t// in\n    tag_160:\n      mload(0x40)\n      dup1\n      swap2\n      sub\n      swap1\n      revert\n    tag_159:\n        /* \"contracts/CampaignManager.sol\":5056:5064  campaign */\n      dup1\n        /* \"contracts/CampaignManager.sol\":5056:5072  campaign.prompts */\n      0x09\n      add\n        /* \"contracts/CampaignManager.sol\":5073:5081  campaign */\n      dup2\n        /* \"contracts/CampaignManager.sol\":5073:5094  campaign.currentStage */\n      0x0c\n      add\n      sload\n        /* \"contracts/CampaignManager.sol\":5056:5095  campaign.prompts[campaign.currentStage] */\n      dup2\n      sload\n      dup2\n      lt\n      tag_161\n      jumpi\n      tag_162\n      tag_108\n      jump\t// in\n    tag_162:\n    tag_161:\n      swap1\n      0x00\n      mstore\n      keccak256(0x00, 0x20)\n      add\n        /* \"contracts/CampaignManager.sol\":5049:5095  return campaign.prompts[campaign.currentStage] */\n      dup1\n      sload\n      tag_164\n      swap1\n      tag_54\n      jump\t// in\n    tag_164:\n      dup1\n      0x1f\n      add\n      0x20\n      dup1\n      swap2\n      div\n      mul\n      0x20\n      add\n      mload(0x40)\n      swap1\n      dup2\n      add\n      0x40\n      mstore\n      dup1\n      swap3\n      swap2\n      swap1\n      dup2\n      dup2\n      mstore\n      0x20\n      add\n      dup3\n      dup1\n      sload\n      tag_165\n      swap1\n      tag_54\n      jump\t// in\n    tag_165:\n      dup1\n      iszero\n      tag_166\n      jumpi\n      dup1\n      0x1f\n      lt\n      tag_167\n      jumpi\n      0x0100\n      dup1\n      dup4\n      sload\n      div\n      mul\n      dup4\n      mstore\n      swap2\n      0x20\n      add\n      swap2\n      jump(tag_166)\n    tag_167:\n      dup3\n      add\n      swap2\n      swap1\n      0x00\n      mstore\n      keccak256(0x00, 0x20)\n      swap1\n    tag_168:\n      dup2\n      sload\n      dup2\n      mstore\n      swap1\n      0x01\n      add\n      swap1\n      0x20\n      add\n      dup1\n      dup4\n      gt\n      tag_168\n      jumpi\n      dup3\n      swap1\n      sub\n      0x1f\n      and\n      dup3\n      add\n      swap2\n    tag_166:\n      pop\n      pop\n      pop\n      pop\n      pop\n      swap2\n      pop\n      pop\n        /* \"contracts/CampaignManager.sol\":4750:5102  function getNextPrompt(... */\n      swap2\n      swap1\n      pop\n      jump\t// out\n    tag_138:\n      dataSize(sub_0)\n      dup1\n      dataOffset(sub_0)\n      dup4\n      codecopy\n      add\n      swap1\n      jump\t// out\n    tag_148:\n      dup3\n      dup1\n      sload\n      dup3\n      dup3\n      sstore\n      swap1\n      0x00\n      mstore\n      keccak256(0x00, 0x20)\n      swap1\n      dup2\n      add\n      swap3\n      dup3\n      iszero\n      tag_169\n      jumpi\n      swap2\n      0x20\n      mul\n      dup3\n      add\n    tag_170:\n      dup3\n      dup2\n      gt\n      iszero\n      tag_171\n      jumpi\n      dup3\n      mload\n      dup3\n      swap1\n      dup2\n      tag_172\n      swap2\n      swap1\n      tag_143\n      jump\t// in\n    tag_172:\n      pop\n      swap2\n      0x20\n      add\n      swap2\n      swap1\n      0x01\n      add\n      swap1\n      jump(tag_170)\n    tag_171:\n    tag_169:\n      pop\n      swap1\n      pop\n      tag_173\n      swap2\n      swap1\n      tag_174\n      jump\t// in\n    tag_173:\n      pop\n      swap1\n      jump\t// out\n    tag_151:\n      dup3\n      dup1\n      sload\n      dup3\n      dup3\n      sstore\n      swap1\n      0x00\n      mstore\n      keccak256(0x00, 0x20)\n      swap1\n      dup2\n      add\n      swap3\n      dup3\n      iszero\n      tag_175\n      jumpi\n      swap2\n      0x20\n      mul\n      dup3\n      add\n    tag_176:\n      dup3\n      dup2\n      gt\n      iszero\n      tag_177\n      jumpi\n      dup3\n      mload\n      dup3\n      sstore\n      swap2\n      0x20\n      add\n      swap2\n      swap1\n      0x01\n      add\n      swap1\n      jump(tag_176)\n    tag_177:\n    tag_175:\n      pop\n      swap1\n      pop\n      tag_178\n      swap2\n      swap1\n      tag_179\n      jump\t// in\n    tag_178:\n      pop\n      swap1\n      jump\t// out\n    tag_174:\n    tag_180:\n      dup1\n      dup3\n      gt\n      iszero\n      tag_181\n      jumpi\n      0x00\n      dup2\n      dup2\n      tag_182\n      swap2\n      swap1\n      tag_183\n      jump\t// in\n    tag_182:\n      pop\n      0x01\n      add\n      jump(tag_180)\n    tag_181:\n      pop\n      swap1\n      jump\t// out\n    tag_179:\n    tag_184:\n      dup1\n      dup3\n      gt\n      iszero\n      tag_185\n      jumpi\n      0x00\n      dup2\n      0x00\n      swap1\n      sstore\n      pop\n      0x01\n      add\n      jump(tag_184)\n    tag_185:\n      pop\n      swap1\n      jump\t// out\n    tag_183:\n      pop\n      dup1\n      sload\n      tag_186\n      swap1\n      tag_54\n      jump\t// in\n    tag_186:\n      0x00\n      dup3\n      sstore\n      dup1\n      0x1f\n      lt\n      tag_188\n      jumpi\n      pop\n      jump(tag_187)\n    tag_188:\n      0x1f\n      add\n      0x20\n      swap1\n      div\n      swap1\n      0x00\n      mstore\n      keccak256(0x00, 0x20)\n      swap1\n      dup2\n      add\n      swap1\n      tag_189\n      swap2\n      swap1\n      tag_179\n      jump\t// in\n    tag_189:\n    tag_187:\n      pop\n      jump\t// out\n        /* \"#utility.yul\":7:82   */\n    tag_190:\n        /* \"#utility.yul\":40:46   */\n      0x00\n        /* \"#utility.yul\":73:75   */\n      0x40\n        /* \"#utility.yul\":67:76   */\n      mload\n        /* \"#utility.yul\":57:76   */\n      swap1\n      pop\n        /* \"#utility.yul\":7:82   */\n      swap1\n      jump\t// out\n        /* \"#utility.yul\":88:205   */\n    tag_191:\n        /* \"#utility.yul\":197:198   */\n      0x00\n        /* \"#utility.yul\":194:195   */\n      dup1\n        /* \"#utility.yul\":187:199   */\n      revert\n        /* \"#utility.yul\":211:328   */\n    tag_192:\n        /* \"#utility.yul\":320:321   */\n      0x00\n        /* \"#utility.yul\":317:318   */\n      dup1\n        /* \"#utility.yul\":310:322   */\n      revert\n        /* \"#utility.yul\":334:411   */\n    tag_193:\n        /* \"#utility.yul\":371:378   */\n      0x00\n        /* \"#utility.yul\":400:405   */\n      dup2\n        /* \"#utility.yul\":389:405   */\n      swap1\n      pop\n        /* \"#utility.yul\":334:411   */\n      swap2\n      swap1\n      pop\n      jump\t// out\n        /* \"#utility.yul\":417:539   */\n    tag_194:\n        /* \"#utility.yul\":490:514   */\n      tag_266\n        /* \"#utility.yul\":508:513   */\n      dup2\n        /* \"#utility.yul\":490:514   */\n      tag_193\n      jump\t// in\n    tag_266:\n        /* \"#utility.yul\":483:488   */\n      dup2\n        /* \"#utility.yul\":480:515   */\n      eq\n        /* \"#utility.yul\":470:533   */\n      tag_267\n      jumpi\n        /* \"#utility.yul\":529:530   */\n      0x00\n        /* \"#utility.yul\":526:527   */\n      dup1\n        /* \"#utility.yul\":519:531   */\n      revert\n        /* \"#utility.yul\":470:533   */\n    tag_267:\n        /* \"#utility.yul\":417:539   */\n      pop\n      jump\t// out\n        /* \"#utility.yul\":545:684   */\n    tag_195:\n        /* \"#utility.yul\":591:596   */\n      0x00\n        /* \"#utility.yul\":629:635   */\n      dup2\n        /* \"#utility.yul\":616:636   */\n      calldataload\n        /* \"#utility.yul\":607:636   */\n      swap1\n      pop\n        /* \"#utility.yul\":645:678   */\n      tag_269\n        /* \"#utility.yul\":672:677   */\n      dup2\n        /* \"#utility.yul\":645:678   */\n      tag_194\n      jump\t// in\n    tag_269:\n        /* \"#utility.yul\":545:684   */\n      swap3\n      swap2\n      pop\n      pop\n      jump\t// out\n        /* \"#utility.yul\":690:1019   */\n    tag_14:\n        /* \"#utility.yul\":749:755   */\n      0x00\n        /* \"#utility.yul\":798:800   */\n      0x20\n        /* \"#utility.yul\":786:795   */\n      dup3\n        /* \"#utility.yul\":777:784   */\n      dup5\n        /* \"#utility.yul\":773:796   */\n      sub\n        /* \"#utility.yul\":769:801   */\n      slt\n        /* \"#utility.yul\":766:885   */\n      iszero\n      tag_271\n      jumpi\n        /* \"#utility.yul\":804:883   */\n      tag_272\n      tag_191\n      jump\t// in\n    tag_272:\n        /* \"#utility.yul\":766:885   */\n    tag_271:\n        /* \"#utility.yul\":924:925   */\n      0x00\n        /* \"#utility.yul\":949:1002   */\n      tag_273\n        /* \"#utility.yul\":994:1001   */\n      dup5\n        /* \"#utility.yul\":985:991   */\n      dup3\n        /* \"#utility.yul\":974:983   */\n      dup6\n        /* \"#utility.yul\":970:992   */\n      add\n        /* \"#utility.yul\":949:1002   */\n      tag_195\n      jump\t// in\n    tag_273:\n        /* \"#utility.yul\":939:1002   */\n      swap2\n      pop\n        /* \"#utility.yul\":895:1012   */\n      pop\n        /* \"#utility.yul\":690:1019   */\n      swap3\n      swap2\n      pop\n      pop\n      jump\t// out\n        /* \"#utility.yul\":1025:1124   */\n    tag_196:\n        /* \"#utility.yul\":1077:1083   */\n      0x00\n        /* \"#utility.yul\":1111:1116   */\n      dup2\n        /* \"#utility.yul\":1105:1117   */\n      mload\n        /* \"#utility.yul\":1095:1117   */\n      swap1\n      pop\n        /* \"#utility.yul\":1025:1124   */\n      swap2\n      swap1\n      pop\n      jump\t// out\n        /* \"#utility.yul\":1130:1299   */\n    tag_197:\n        /* \"#utility.yul\":1214:1225   */\n      0x00\n        /* \"#utility.yul\":1248:1254   */\n      dup3\n        /* \"#utility.yul\":1243:1246   */\n      dup3\n        /* \"#utility.yul\":1236:1255   */\n      mstore\n        /* \"#utility.yul\":1288:1292   */\n      0x20\n        /* \"#utility.yul\":1283:1286   */\n      dup3\n        /* \"#utility.yul\":1279:1293   */\n      add\n        /* \"#utility.yul\":1264:1293   */\n      swap1\n      pop\n        /* \"#utility.yul\":1130:1299   */\n      swap3\n      swap2\n      pop\n      pop\n      jump\t// out\n        /* \"#utility.yul\":1305:1444   */\n    tag_198:\n        /* \"#utility.yul\":1394:1400   */\n      dup3\n        /* \"#utility.yul\":1389:1392   */\n      dup2\n        /* \"#utility.yul\":1384:1387   */\n      dup4\n        /* \"#utility.yul\":1378:1401   */\n      mcopy\n        /* \"#utility.yul\":1435:1436   */\n      0x00\n        /* \"#utility.yul\":1426:1432   */\n      dup4\n        /* \"#utility.yul\":1421:1424   */\n      dup4\n        /* \"#utility.yul\":1417:1433   */\n      add\n        /* \"#utility.yul\":1410:1437   */\n      mstore\n        /* \"#utility.yul\":1305:1444   */\n      pop\n      pop\n      pop\n      jump\t// out\n        /* \"#utility.yul\":1450:1552   */\n    tag_199:\n        /* \"#utility.yul\":1491:1497   */\n      0x00\n        /* \"#utility.yul\":1542:1544   */\n      0x1f\n        /* \"#utility.yul\":1538:1545   */\n      not\n        /* \"#utility.yul\":1533:1535   */\n      0x1f\n        /* \"#utility.yul\":1526:1531   */\n      dup4\n        /* \"#utility.yul\":1522:1536   */\n      add\n        /* \"#utility.yul\":1518:1546   */\n      and\n        /* \"#utility.yul\":1508:1546   */\n      swap1\n      pop\n        /* \"#utility.yul\":1450:1552   */\n      swap2\n      swap1\n      pop\n      jump\t// out\n        /* \"#utility.yul\":1558:1935   */\n    tag_200:\n        /* \"#utility.yul\":1646:1649   */\n      0x00\n        /* \"#utility.yul\":1674:1713   */\n      tag_279\n        /* \"#utility.yul\":1707:1712   */\n      dup3\n        /* \"#utility.yul\":1674:1713   */\n      tag_196\n      jump\t// in\n    tag_279:\n        /* \"#utility.yul\":1729:1800   */\n      tag_280\n        /* \"#utility.yul\":1793:1799   */\n      dup2\n        /* \"#utility.yul\":1788:1791   */\n      dup6\n        /* \"#utility.yul\":1729:1800   */\n      tag_197\n      jump\t// in\n    tag_280:\n        /* \"#utility.yul\":1722:1800   */\n      swap4\n      pop\n        /* \"#utility.yul\":1809:1874   */\n      tag_281\n        /* \"#utility.yul\":1867:1873   */\n      dup2\n        /* \"#utility.yul\":1862:1865   */\n      dup6\n        /* \"#utility.yul\":1855:1859   */\n      0x20\n        /* \"#utility.yul\":1848:1853   */\n      dup7\n        /* \"#utility.yul\":1844:1860   */\n      add\n        /* \"#utility.yul\":1809:1874   */\n      tag_198\n      jump\t// in\n    tag_281:\n        /* \"#utility.yul\":1899:1928   */\n      tag_282\n        /* \"#utility.yul\":1921:1927   */\n      dup2\n        /* \"#utility.yul\":1899:1928   */\n      tag_199\n      jump\t// in\n    tag_282:\n        /* \"#utility.yul\":1894:1897   */\n      dup5\n        /* \"#utility.yul\":1890:1929   */\n      add\n        /* \"#utility.yul\":1883:1929   */\n      swap2\n      pop\n        /* \"#utility.yul\":1650:1935   */\n      pop\n        /* \"#utility.yul\":1558:1935   */\n      swap3\n      swap2\n      pop\n      pop\n      jump\t// out\n        /* \"#utility.yul\":1941:2059   */\n    tag_201:\n        /* \"#utility.yul\":2028:2052   */\n      tag_284\n        /* \"#utility.yul\":2046:2051   */\n      dup2\n        /* \"#utility.yul\":2028:2052   */\n      tag_193\n      jump\t// in\n    tag_284:\n        /* \"#utility.yul\":2023:2026   */\n      dup3\n        /* \"#utility.yul\":2016:2053   */\n      mstore\n        /* \"#utility.yul\":1941:2059   */\n      pop\n      pop\n      jump\t// out\n        /* \"#utility.yul\":2065:2191   */\n    tag_202:\n        /* \"#utility.yul\":2102:2109   */\n      0x00\n        /* \"#utility.yul\":2142:2184   */\n      0xffffffffffffffffffffffffffffffffffffffff\n        /* \"#utility.yul\":2135:2140   */\n      dup3\n        /* \"#utility.yul\":2131:2185   */\n      and\n        /* \"#utility.yul\":2120:2185   */\n      swap1\n      pop\n        /* \"#utility.yul\":2065:2191   */\n      swap2\n      swap1\n      pop\n      jump\t// out\n        /* \"#utility.yul\":2197:2293   */\n    tag_203:\n        /* \"#utility.yul\":2234:2241   */\n      0x00\n        /* \"#utility.yul\":2263:2287   */\n      tag_287\n        /* \"#utility.yul\":2281:2286   */\n      dup3\n        /* \"#utility.yul\":2263:2287   */\n      tag_202\n      jump\t// in\n    tag_287:\n        /* \"#utility.yul\":2252:2287   */\n      swap1\n      pop\n        /* \"#utility.yul\":2197:2293   */\n      swap2\n      swap1\n      pop\n      jump\t// out\n        /* \"#utility.yul\":2299:2417   */\n    tag_204:\n        /* \"#utility.yul\":2386:2410   */\n      tag_289\n        /* \"#utility.yul\":2404:2409   */\n      dup2\n        /* \"#utility.yul\":2386:2410   */\n      tag_203\n      jump\t// in\n    tag_289:\n        /* \"#utility.yul\":2381:2384   */\n      dup3\n        /* \"#utility.yul\":2374:2411   */\n      mstore\n        /* \"#utility.yul\":2299:2417   */\n      pop\n      pop\n      jump\t// out\n        /* \"#utility.yul\":2423:2513   */\n    tag_205:\n        /* \"#utility.yul\":2457:2464   */\n      0x00\n        /* \"#utility.yul\":2500:2505   */\n      dup2\n        /* \"#utility.yul\":2493:2506   */\n      iszero\n        /* \"#utility.yul\":2486:2507   */\n      iszero\n        /* \"#utility.yul\":2475:2507   */\n      swap1\n      pop\n        /* \"#utility.yul\":2423:2513   */\n      swap2\n      swap1\n      pop\n      jump\t// out\n        /* \"#utility.yul\":2519:2628   */\n    tag_206:\n        /* \"#utility.yul\":2600:2621   */\n      tag_292\n        /* \"#utility.yul\":2615:2620   */\n      dup2\n        /* \"#utility.yul\":2600:2621   */\n      tag_205\n      jump\t// in\n    tag_292:\n        /* \"#utility.yul\":2595:2598   */\n      dup3\n        /* \"#utility.yul\":2588:2622   */\n      mstore\n        /* \"#utility.yul\":2519:2628   */\n      pop\n      pop\n      jump\t// out\n        /* \"#utility.yul\":2634:4318   */\n    tag_17:\n        /* \"#utility.yul\":3082:3086   */\n      0x00\n        /* \"#utility.yul\":3120:3123   */\n      0x0160\n        /* \"#utility.yul\":3109:3118   */\n      dup3\n        /* \"#utility.yul\":3105:3124   */\n      add\n        /* \"#utility.yul\":3097:3124   */\n      swap1\n      pop\n        /* \"#utility.yul\":3170:3179   */\n      dup2\n        /* \"#utility.yul\":3164:3168   */\n      dup2\n        /* \"#utility.yul\":3160:3180   */\n      sub\n        /* \"#utility.yul\":3156:3157   */\n      0x00\n        /* \"#utility.yul\":3145:3154   */\n      dup4\n        /* \"#utility.yul\":3141:3158   */\n      add\n        /* \"#utility.yul\":3134:3181   */\n      mstore\n        /* \"#utility.yul\":3198:3276   */\n      tag_294\n        /* \"#utility.yul\":3271:3275   */\n      dup2\n        /* \"#utility.yul\":3262:3268   */\n      dup15\n        /* \"#utility.yul\":3198:3276   */\n      tag_200\n      jump\t// in\n    tag_294:\n        /* \"#utility.yul\":3190:3276   */\n      swap1\n      pop\n        /* \"#utility.yul\":3323:3332   */\n      dup2\n        /* \"#utility.yul\":3317:3321   */\n      dup2\n        /* \"#utility.yul\":3313:3333   */\n      sub\n        /* \"#utility.yul\":3308:3310   */\n      0x20\n        /* \"#utility.yul\":3297:3306   */\n      dup4\n        /* \"#utility.yul\":3293:3311   */\n      add\n        /* \"#utility.yul\":3286:3334   */\n      mstore\n        /* \"#utility.yul\":3351:3429   */\n      tag_295\n        /* \"#utility.yul\":3424:3428   */\n      dup2\n        /* \"#utility.yul\":3415:3421   */\n      dup14\n        /* \"#utility.yul\":3351:3429   */\n      tag_200\n      jump\t// in\n    tag_295:\n        /* \"#utility.yul\":3343:3429   */\n      swap1\n      pop\n        /* \"#utility.yul\":3476:3485   */\n      dup2\n        /* \"#utility.yul\":3470:3474   */\n      dup2\n        /* \"#utility.yul\":3466:3486   */\n      sub\n        /* \"#utility.yul\":3461:3463   */\n      0x40\n        /* \"#utility.yul\":3450:3459   */\n      dup4\n        /* \"#utility.yul\":3446:3464   */\n      add\n        /* \"#utility.yul\":3439:3487   */\n      mstore\n        /* \"#utility.yul\":3504:3582   */\n      tag_296\n        /* \"#utility.yul\":3577:3581   */\n      dup2\n        /* \"#utility.yul\":3568:3574   */\n      dup13\n        /* \"#utility.yul\":3504:3582   */\n      tag_200\n      jump\t// in\n    tag_296:\n        /* \"#utility.yul\":3496:3582   */\n      swap1\n      pop\n        /* \"#utility.yul\":3629:3638   */\n      dup2\n        /* \"#utility.yul\":3623:3627   */\n      dup2\n        /* \"#utility.yul\":3619:3639   */\n      sub\n        /* \"#utility.yul\":3614:3616   */\n      0x60\n        /* \"#utility.yul\":3603:3612   */\n      dup4\n        /* \"#utility.yul\":3599:3617   */\n      add\n        /* \"#utility.yul\":3592:3640   */\n      mstore\n        /* \"#utility.yul\":3657:3735   */\n      tag_297\n        /* \"#utility.yul\":3730:3734   */\n      dup2\n        /* \"#utility.yul\":3721:3727   */\n      dup12\n        /* \"#utility.yul\":3657:3735   */\n      tag_200\n      jump\t// in\n    tag_297:\n        /* \"#utility.yul\":3649:3735   */\n      swap1\n      pop\n        /* \"#utility.yul\":3745:3818   */\n      tag_298\n        /* \"#utility.yul\":3813:3816   */\n      0x80\n        /* \"#utility.yul\":3802:3811   */\n      dup4\n        /* \"#utility.yul\":3798:3817   */\n      add\n        /* \"#utility.yul\":3789:3795   */\n      dup11\n        /* \"#utility.yul\":3745:3818   */\n      tag_201\n      jump\t// in\n    tag_298:\n        /* \"#utility.yul\":3828:3901   */\n      tag_299\n        /* \"#utility.yul\":3896:3899   */\n      0xa0\n        /* \"#utility.yul\":3885:3894   */\n      dup4\n        /* \"#utility.yul\":3881:3900   */\n      add\n        /* \"#utility.yul\":3872:3878   */\n      dup10\n        /* \"#utility.yul\":3828:3901   */\n      tag_201\n      jump\t// in\n    tag_299:\n        /* \"#utility.yul\":3911:3984   */\n      tag_300\n        /* \"#utility.yul\":3979:3982   */\n      0xc0\n        /* \"#utility.yul\":3968:3977   */\n      dup4\n        /* \"#utility.yul\":3964:3983   */\n      add\n        /* \"#utility.yul\":3955:3961   */\n      dup9\n        /* \"#utility.yul\":3911:3984   */\n      tag_204\n      jump\t// in\n    tag_300:\n        /* \"#utility.yul\":3994:4061   */\n      tag_301\n        /* \"#utility.yul\":4056:4059   */\n      0xe0\n        /* \"#utility.yul\":4045:4054   */\n      dup4\n        /* \"#utility.yul\":4041:4060   */\n      add\n        /* \"#utility.yul\":4032:4038   */\n      dup8\n        /* \"#utility.yul\":3994:4061   */\n      tag_206\n      jump\t// in\n    tag_301:\n        /* \"#utility.yul\":4071:4144   */\n      tag_302\n        /* \"#utility.yul\":4139:4142   */\n      0x0100\n        /* \"#utility.yul\":4128:4137   */\n      dup4\n        /* \"#utility.yul\":4124:4143   */\n      add\n        /* \"#utility.yul\":4115:4121   */\n      dup7\n        /* \"#utility.yul\":4071:4144   */\n      tag_201\n      jump\t// in\n    tag_302:\n        /* \"#utility.yul\":4154:4227   */\n      tag_303\n        /* \"#utility.yul\":4222:4225   */\n      0x0120\n        /* \"#utility.yul\":4211:4220   */\n      dup4\n        /* \"#utility.yul\":4207:4226   */\n      add\n        /* \"#utility.yul\":4198:4204   */\n      dup6\n        /* \"#utility.yul\":4154:4227   */\n      tag_201\n      jump\t// in\n    tag_303:\n        /* \"#utility.yul\":4237:4311   */\n      tag_304\n        /* \"#utility.yul\":4306:4309   */\n      0x0140\n        /* \"#utility.yul\":4295:4304   */\n      dup4\n        /* \"#utility.yul\":4291:4310   */\n      add\n        /* \"#utility.yul\":4281:4288   */\n      dup5\n        /* \"#utility.yul\":4237:4311   */\n      tag_204\n      jump\t// in\n    tag_304:\n        /* \"#utility.yul\":2634:4318   */\n      swap13\n      swap12\n      pop\n      pop\n      pop\n      pop\n      pop\n      pop\n      pop\n      pop\n      pop\n      pop\n      pop\n      pop\n      jump\t// out\n        /* \"#utility.yul\":4324:4546   */\n    tag_26:\n        /* \"#utility.yul\":4417:4421   */\n      0x00\n        /* \"#utility.yul\":4455:4457   */\n      0x20\n        /* \"#utility.yul\":4444:4453   */\n      dup3\n        /* \"#utility.yul\":4440:4458   */\n      add\n        /* \"#utility.yul\":4432:4458   */\n      swap1\n      pop\n        /* \"#utility.yul\":4468:4539   */\n      tag_306\n        /* \"#utility.yul\":4536:4537   */\n      0x00\n        /* \"#utility.yul\":4525:4534   */\n      dup4\n        /* \"#utility.yul\":4521:4538   */\n      add\n        /* \"#utility.yul\":4512:4518   */\n      dup5\n        /* \"#utility.yul\":4468:4539   */\n      tag_201\n      jump\t// in\n    tag_306:\n        /* \"#utility.yul\":4324:4546   */\n      swap3\n      swap2\n      pop\n      pop\n      jump\t// out\n        /* \"#utility.yul\":4552:5026   */\n    tag_29:\n        /* \"#utility.yul\":4620:4626   */\n      0x00\n        /* \"#utility.yul\":4628:4634   */\n      dup1\n        /* \"#utility.yul\":4677:4679   */\n      0x40\n        /* \"#utility.yul\":4665:4674   */\n      dup4\n        /* \"#utility.yul\":4656:4663   */\n      dup6\n        /* \"#utility.yul\":4652:4675   */\n      sub\n        /* \"#utility.yul\":4648:4680   */\n      slt\n        /* \"#utility.yul\":4645:4764   */\n      iszero\n      tag_308\n      jumpi\n        /* \"#utility.yul\":4683:4762   */\n      tag_309\n      tag_191\n      jump\t// in\n    tag_309:\n        /* \"#utility.yul\":4645:4764   */\n    tag_308:\n        /* \"#utility.yul\":4803:4804   */\n      0x00\n        /* \"#utility.yul\":4828:4881   */\n      tag_310\n        /* \"#utility.yul\":4873:4880   */\n      dup6\n        /* \"#utility.yul\":4864:4870   */\n      dup3\n        /* \"#utility.yul\":4853:4862   */\n      dup7\n        /* \"#utility.yul\":4849:4871   */\n      add\n        /* \"#utility.yul\":4828:4881   */\n      tag_195\n      jump\t// in\n    tag_310:\n        /* \"#utility.yul\":4818:4881   */\n      swap3\n      pop\n        /* \"#utility.yul\":4774:4891   */\n      pop\n        /* \"#utility.yul\":4930:4932   */\n      0x20\n        /* \"#utility.yul\":4956:5009   */\n      tag_311\n        /* \"#utility.yul\":5001:5008   */\n      dup6\n        /* \"#utility.yul\":4992:4998   */\n      dup3\n        /* \"#utility.yul\":4981:4990   */\n      dup7\n        /* \"#utility.yul\":4977:4999   */\n      add\n        /* \"#utility.yul\":4956:5009   */\n      tag_195\n      jump\t// in\n    tag_311:\n        /* \"#utility.yul\":4946:5009   */\n      swap2\n      pop\n        /* \"#utility.yul\":4901:5019   */\n      pop\n        /* \"#utility.yul\":4552:5026   */\n      swap3\n      pop\n      swap3\n      swap1\n      pop\n      jump\t// out\n        /* \"#utility.yul\":5032:5149   */\n    tag_207:\n        /* \"#utility.yul\":5141:5142   */\n      0x00\n        /* \"#utility.yul\":5138:5139   */\n      dup1\n        /* \"#utility.yul\":5131:5143   */\n      revert\n        /* \"#utility.yul\":5155:5272   */\n    tag_208:\n        /* \"#utility.yul\":5264:5265   */\n      0x00\n        /* \"#utility.yul\":5261:5262   */\n      dup1\n        /* \"#utility.yul\":5254:5266   */\n      revert\n        /* \"#utility.yul\":5278:5458   */\n    tag_209:\n        /* \"#utility.yul\":5326:5403   */\n      0x4e487b7100000000000000000000000000000000000000000000000000000000\n        /* \"#utility.yul\":5323:5324   */\n      0x00\n        /* \"#utility.yul\":5316:5404   */\n      mstore\n        /* \"#utility.yul\":5423:5427   */\n      0x41\n        /* \"#utility.yul\":5420:5421   */\n      0x04\n        /* \"#utility.yul\":5413:5428   */\n      mstore\n        /* \"#utility.yul\":5447:5451   */\n      0x24\n        /* \"#utility.yul\":5444:5445   */\n      0x00\n        /* \"#utility.yul\":5437:5452   */\n      revert\n        /* \"#utility.yul\":5464:5745   */\n    tag_210:\n        /* \"#utility.yul\":5547:5574   */\n      tag_316\n        /* \"#utility.yul\":5569:5573   */\n      dup3\n        /* \"#utility.yul\":5547:5574   */\n      tag_199\n      jump\t// in\n    tag_316:\n        /* \"#utility.yul\":5539:5545   */\n      dup2\n        /* \"#utility.yul\":5535:5575   */\n      add\n        /* \"#utility.yul\":5677:5683   */\n      dup2\n        /* \"#utility.yul\":5665:5675   */\n      dup2\n        /* \"#utility.yul\":5662:5684   */\n      lt\n        /* \"#utility.yul\":5641:5659   */\n      0xffffffffffffffff\n        /* \"#utility.yul\":5629:5639   */\n      dup3\n        /* \"#utility.yul\":5626:5660   */\n      gt\n        /* \"#utility.yul\":5623:5685   */\n      or\n        /* \"#utility.yul\":5620:5708   */\n      iszero\n      tag_317\n      jumpi\n        /* \"#utility.yul\":5688:5706   */\n      tag_318\n      tag_209\n      jump\t// in\n    tag_318:\n        /* \"#utility.yul\":5620:5708   */\n    tag_317:\n        /* \"#utility.yul\":5728:5738   */\n      dup1\n        /* \"#utility.yul\":5724:5726   */\n      0x40\n        /* \"#utility.yul\":5717:5739   */\n      mstore\n        /* \"#utility.yul\":5507:5745   */\n      pop\n        /* \"#utility.yul\":5464:5745   */\n      pop\n      pop\n      jump\t// out\n        /* \"#utility.yul\":5751:5880   */\n    tag_211:\n        /* \"#utility.yul\":5785:5791   */\n      0x00\n        /* \"#utility.yul\":5812:5832   */\n      tag_320\n      tag_190\n      jump\t// in\n    tag_320:\n        /* \"#utility.yul\":5802:5832   */\n      swap1\n      pop\n        /* \"#utility.yul\":5841:5874   */\n      tag_321\n        /* \"#utility.yul\":5869:5873   */\n      dup3\n        /* \"#utility.yul\":5861:5867   */\n      dup3\n        /* \"#utility.yul\":5841:5874   */\n      tag_210\n      jump\t// in\n    tag_321:\n        /* \"#utility.yul\":5751:5880   */\n      swap2\n      swap1\n      pop\n      jump\t// out\n        /* \"#utility.yul\":5886:6194   */\n    tag_212:\n        /* \"#utility.yul\":5948:5952   */\n      0x00\n        /* \"#utility.yul\":6038:6056   */\n      0xffffffffffffffff\n        /* \"#utility.yul\":6030:6036   */\n      dup3\n        /* \"#utility.yul\":6027:6057   */\n      gt\n        /* \"#utility.yul\":6024:6080   */\n      iszero\n      tag_323\n      jumpi\n        /* \"#utility.yul\":6060:6078   */\n      tag_324\n      tag_209\n      jump\t// in\n    tag_324:\n        /* \"#utility.yul\":6024:6080   */\n    tag_323:\n        /* \"#utility.yul\":6098:6127   */\n      tag_325\n        /* \"#utility.yul\":6120:6126   */\n      dup3\n        /* \"#utility.yul\":6098:6127   */\n      tag_199\n      jump\t// in\n    tag_325:\n        /* \"#utility.yul\":6090:6127   */\n      swap1\n      pop\n        /* \"#utility.yul\":6182:6186   */\n      0x20\n        /* \"#utility.yul\":6176:6180   */\n      dup2\n        /* \"#utility.yul\":6172:6187   */\n      add\n        /* \"#utility.yul\":6164:6187   */\n      swap1\n      pop\n        /* \"#utility.yul\":5886:6194   */\n      swap2\n      swap1\n      pop\n      jump\t// out\n        /* \"#utility.yul\":6200:6348   */\n    tag_213:\n        /* \"#utility.yul\":6298:6304   */\n      dup3\n        /* \"#utility.yul\":6293:6296   */\n      dup2\n        /* \"#utility.yul\":6288:6291   */\n      dup4\n        /* \"#utility.yul\":6275:6305   */\n      calldatacopy\n        /* \"#utility.yul\":6339:6340   */\n      0x00\n        /* \"#utility.yul\":6330:6336   */\n      dup4\n        /* \"#utility.yul\":6325:6328   */\n      dup4\n        /* \"#utility.yul\":6321:6337   */\n      add\n        /* \"#utility.yul\":6314:6341   */\n      mstore\n        /* \"#utility.yul\":6200:6348   */\n      pop\n      pop\n      pop\n      jump\t// out\n        /* \"#utility.yul\":6354:6779   */\n    tag_214:\n        /* \"#utility.yul\":6432:6437   */\n      0x00\n        /* \"#utility.yul\":6457:6523   */\n      tag_328\n        /* \"#utility.yul\":6473:6522   */\n      tag_329\n        /* \"#utility.yul\":6515:6521   */\n      dup5\n        /* \"#utility.yul\":6473:6522   */\n      tag_212\n      jump\t// in\n    tag_329:\n        /* \"#utility.yul\":6457:6523   */\n      tag_211\n      jump\t// in\n    tag_328:\n        /* \"#utility.yul\":6448:6523   */\n      swap1\n      pop\n        /* \"#utility.yul\":6546:6552   */\n      dup3\n        /* \"#utility.yul\":6539:6544   */\n      dup2\n        /* \"#utility.yul\":6532:6553   */\n      mstore\n        /* \"#utility.yul\":6584:6588   */\n      0x20\n        /* \"#utility.yul\":6577:6582   */\n      dup2\n        /* \"#utility.yul\":6573:6589   */\n      add\n        /* \"#utility.yul\":6622:6625   */\n      dup5\n        /* \"#utility.yul\":6613:6619   */\n      dup5\n        /* \"#utility.yul\":6608:6611   */\n      dup5\n        /* \"#utility.yul\":6604:6620   */\n      add\n        /* \"#utility.yul\":6601:6626   */\n      gt\n        /* \"#utility.yul\":6598:6710   */\n      iszero\n      tag_330\n      jumpi\n        /* \"#utility.yul\":6629:6708   */\n      tag_331\n      tag_208\n      jump\t// in\n    tag_331:\n        /* \"#utility.yul\":6598:6710   */\n    tag_330:\n        /* \"#utility.yul\":6719:6773   */\n      tag_332\n        /* \"#utility.yul\":6766:6772   */\n      dup5\n        /* \"#utility.yul\":6761:6764   */\n      dup3\n        /* \"#utility.yul\":6756:6759   */\n      dup6\n        /* \"#utility.yul\":6719:6773   */\n      tag_213\n      jump\t// in\n    tag_332:\n        /* \"#utility.yul\":6438:6779   */\n      pop\n        /* \"#utility.yul\":6354:6779   */\n      swap4\n      swap3\n      pop\n      pop\n      pop\n      jump\t// out\n        /* \"#utility.yul\":6799:7139   */\n    tag_215:\n        /* \"#utility.yul\":6855:6860   */\n      0x00\n        /* \"#utility.yul\":6904:6907   */\n      dup3\n        /* \"#utility.yul\":6897:6901   */\n      0x1f\n        /* \"#utility.yul\":6889:6895   */\n      dup4\n        /* \"#utility.yul\":6885:6902   */\n      add\n        /* \"#utility.yul\":6881:6908   */\n      slt\n        /* \"#utility.yul\":6871:6993   */\n      tag_334\n      jumpi\n        /* \"#utility.yul\":6912:6991   */\n      tag_335\n      tag_207\n      jump\t// in\n    tag_335:\n        /* \"#utility.yul\":6871:6993   */\n    tag_334:\n        /* \"#utility.yul\":7029:7035   */\n      dup2\n        /* \"#utility.yul\":7016:7036   */\n      calldataload\n        /* \"#utility.yul\":7054:7133   */\n      tag_336\n        /* \"#utility.yul\":7129:7132   */\n      dup5\n        /* \"#utility.yul\":7121:7127   */\n      dup3\n        /* \"#utility.yul\":7114:7118   */\n      0x20\n        /* \"#utility.yul\":7106:7112   */\n      dup7\n        /* \"#utility.yul\":7102:7119   */\n      add\n        /* \"#utility.yul\":7054:7133   */\n      tag_214\n      jump\t// in\n    tag_336:\n        /* \"#utility.yul\":7045:7133   */\n      swap2\n      pop\n        /* \"#utility.yul\":6861:7139   */\n      pop\n        /* \"#utility.yul\":6799:7139   */\n      swap3\n      swap2\n      pop\n      pop\n      jump\t// out\n        /* \"#utility.yul\":7145:7466   */\n    tag_216:\n        /* \"#utility.yul\":7232:7236   */\n      0x00\n        /* \"#utility.yul\":7322:7340   */\n      0xffffffffffffffff\n        /* \"#utility.yul\":7314:7320   */\n      dup3\n        /* \"#utility.yul\":7311:7341   */\n      gt\n        /* \"#utility.yul\":7308:7364   */\n      iszero\n      tag_338\n      jumpi\n        /* \"#utility.yul\":7344:7362   */\n      tag_339\n      tag_209\n      jump\t// in\n    tag_339:\n        /* \"#utility.yul\":7308:7364   */\n    tag_338:\n        /* \"#utility.yul\":7394:7398   */\n      0x20\n        /* \"#utility.yul\":7386:7392   */\n      dup3\n        /* \"#utility.yul\":7382:7399   */\n      mul\n        /* \"#utility.yul\":7374:7399   */\n      swap1\n      pop\n        /* \"#utility.yul\":7454:7458   */\n      0x20\n        /* \"#utility.yul\":7448:7452   */\n      dup2\n        /* \"#utility.yul\":7444:7459   */\n      add\n        /* \"#utility.yul\":7436:7459   */\n      swap1\n      pop\n        /* \"#utility.yul\":7145:7466   */\n      swap2\n      swap1\n      pop\n      jump\t// out\n        /* \"#utility.yul\":7472:7589   */\n    tag_217:\n        /* \"#utility.yul\":7581:7582   */\n      0x00\n        /* \"#utility.yul\":7578:7579   */\n      dup1\n        /* \"#utility.yul\":7571:7583   */\n      revert\n        /* \"#utility.yul\":7611:8556   */\n    tag_218:\n        /* \"#utility.yul\":7717:7722   */\n      0x00\n        /* \"#utility.yul\":7742:7833   */\n      tag_342\n        /* \"#utility.yul\":7758:7832   */\n      tag_343\n        /* \"#utility.yul\":7825:7831   */\n      dup5\n        /* \"#utility.yul\":7758:7832   */\n      tag_216\n      jump\t// in\n    tag_343:\n        /* \"#utility.yul\":7742:7833   */\n      tag_211\n      jump\t// in\n    tag_342:\n        /* \"#utility.yul\":7733:7833   */\n      swap1\n      pop\n        /* \"#utility.yul\":7853:7858   */\n      dup1\n        /* \"#utility.yul\":7882:7888   */\n      dup4\n        /* \"#utility.yul\":7875:7880   */\n      dup3\n        /* \"#utility.yul\":7868:7889   */\n      mstore\n        /* \"#utility.yul\":7916:7920   */\n      0x20\n        /* \"#utility.yul\":7909:7914   */\n      dup3\n        /* \"#utility.yul\":7905:7921   */\n      add\n        /* \"#utility.yul\":7898:7921   */\n      swap1\n      pop\n        /* \"#utility.yul\":7969:7973   */\n      0x20\n        /* \"#utility.yul\":7961:7967   */\n      dup5\n        /* \"#utility.yul\":7957:7974   */\n      mul\n        /* \"#utility.yul\":7949:7955   */\n      dup4\n        /* \"#utility.yul\":7945:7975   */\n      add\n        /* \"#utility.yul\":7998:8001   */\n      dup6\n        /* \"#utility.yul\":7990:7996   */\n      dup2\n        /* \"#utility.yul\":7987:8002   */\n      gt\n        /* \"#utility.yul\":7984:8106   */\n      iszero\n      tag_344\n      jumpi\n        /* \"#utility.yul\":8017:8096   */\n      tag_345\n      tag_217\n      jump\t// in\n    tag_345:\n        /* \"#utility.yul\":7984:8106   */\n    tag_344:\n        /* \"#utility.yul\":8132:8138   */\n      dup4\n        /* \"#utility.yul\":8115:8550   */\n    tag_346:\n        /* \"#utility.yul\":8149:8155   */\n      dup2\n        /* \"#utility.yul\":8144:8147   */\n      dup2\n        /* \"#utility.yul\":8141:8156   */\n      lt\n        /* \"#utility.yul\":8115:8550   */\n      iszero\n      tag_348\n      jumpi\n        /* \"#utility.yul\":8238:8241   */\n      dup1\n        /* \"#utility.yul\":8225:8242   */\n      calldataload\n        /* \"#utility.yul\":8274:8292   */\n      0xffffffffffffffff\n        /* \"#utility.yul\":8261:8272   */\n      dup2\n        /* \"#utility.yul\":8258:8293   */\n      gt\n        /* \"#utility.yul\":8255:8377   */\n      iszero\n      tag_349\n      jumpi\n        /* \"#utility.yul\":8296:8375   */\n      tag_350\n      tag_207\n      jump\t// in\n    tag_350:\n        /* \"#utility.yul\":8255:8377   */\n    tag_349:\n        /* \"#utility.yul\":8420:8431   */\n      dup1\n        /* \"#utility.yul\":8412:8418   */\n      dup7\n        /* \"#utility.yul\":8408:8432   */\n      add\n        /* \"#utility.yul\":8458:8505   */\n      tag_351\n        /* \"#utility.yul\":8501:8504   */\n      dup10\n        /* \"#utility.yul\":8489:8499   */\n      dup3\n        /* \"#utility.yul\":8458:8505   */\n      tag_215\n      jump\t// in\n    tag_351:\n        /* \"#utility.yul\":8453:8456   */\n      dup6\n        /* \"#utility.yul\":8446:8506   */\n      mstore\n        /* \"#utility.yul\":8535:8539   */\n      0x20\n        /* \"#utility.yul\":8530:8533   */\n      dup6\n        /* \"#utility.yul\":8526:8540   */\n      add\n        /* \"#utility.yul\":8519:8540   */\n      swap5\n      pop\n        /* \"#utility.yul\":8191:8550   */\n      pop\n      pop\n        /* \"#utility.yul\":8175:8179   */\n      0x20\n        /* \"#utility.yul\":8170:8173   */\n      dup2\n        /* \"#utility.yul\":8166:8180   */\n      add\n        /* \"#utility.yul\":8159:8180   */\n      swap1\n      pop\n        /* \"#utility.yul\":8115:8550   */\n      jump(tag_346)\n    tag_348:\n        /* \"#utility.yul\":8119:8140   */\n      pop\n        /* \"#utility.yul\":7723:8556   */\n      pop\n      pop\n        /* \"#utility.yul\":7611:8556   */\n      swap4\n      swap3\n      pop\n      pop\n      pop\n      jump\t// out\n        /* \"#utility.yul\":8578:8968   */\n    tag_219:\n        /* \"#utility.yul\":8659:8664   */\n      0x00\n        /* \"#utility.yul\":8708:8711   */\n      dup3\n        /* \"#utility.yul\":8701:8705   */\n      0x1f\n        /* \"#utility.yul\":8693:8699   */\n      dup4\n        /* \"#utility.yul\":8689:8706   */\n      add\n        /* \"#utility.yul\":8685:8712   */\n      slt\n        /* \"#utility.yul\":8675:8797   */\n      tag_353\n      jumpi\n        /* \"#utility.yul\":8716:8795   */\n      tag_354\n      tag_207\n      jump\t// in\n    tag_354:\n        /* \"#utility.yul\":8675:8797   */\n    tag_353:\n        /* \"#utility.yul\":8833:8839   */\n      dup2\n        /* \"#utility.yul\":8820:8840   */\n      calldataload\n        /* \"#utility.yul\":8858:8962   */\n      tag_355\n        /* \"#utility.yul\":8958:8961   */\n      dup5\n        /* \"#utility.yul\":8950:8956   */\n      dup3\n        /* \"#utility.yul\":8943:8947   */\n      0x20\n        /* \"#utility.yul\":8935:8941   */\n      dup7\n        /* \"#utility.yul\":8931:8948   */\n      add\n        /* \"#utility.yul\":8858:8962   */\n      tag_218\n      jump\t// in\n    tag_355:\n        /* \"#utility.yul\":8849:8962   */\n      swap2\n      pop\n        /* \"#utility.yul\":8665:8968   */\n      pop\n        /* \"#utility.yul\":8578:8968   */\n      swap3\n      swap2\n      pop\n      pop\n      jump\t// out\n        /* \"#utility.yul\":8974:9285   */\n    tag_220:\n        /* \"#utility.yul\":9051:9055   */\n      0x00\n        /* \"#utility.yul\":9141:9159   */\n      0xffffffffffffffff\n        /* \"#utility.yul\":9133:9139   */\n      dup3\n        /* \"#utility.yul\":9130:9160   */\n      gt\n        /* \"#utility.yul\":9127:9183   */\n      iszero\n      tag_357\n      jumpi\n        /* \"#utility.yul\":9163:9181   */\n      tag_358\n      tag_209\n      jump\t// in\n    tag_358:\n        /* \"#utility.yul\":9127:9183   */\n    tag_357:\n        /* \"#utility.yul\":9213:9217   */\n      0x20\n        /* \"#utility.yul\":9205:9211   */\n      dup3\n        /* \"#utility.yul\":9201:9218   */\n      mul\n        /* \"#utility.yul\":9193:9218   */\n      swap1\n      pop\n        /* \"#utility.yul\":9273:9277   */\n      0x20\n        /* \"#utility.yul\":9267:9271   */\n      dup2\n        /* \"#utility.yul\":9263:9278   */\n      add\n        /* \"#utility.yul\":9255:9278   */\n      swap1\n      pop\n        /* \"#utility.yul\":8974:9285   */\n      swap2\n      swap1\n      pop\n      jump\t// out\n        /* \"#utility.yul\":9308:10018   */\n    tag_221:\n        /* \"#utility.yul\":9404:9409   */\n      0x00\n        /* \"#utility.yul\":9429:9510   */\n      tag_360\n        /* \"#utility.yul\":9445:9509   */\n      tag_361\n        /* \"#utility.yul\":9502:9508   */\n      dup5\n        /* \"#utility.yul\":9445:9509   */\n      tag_220\n      jump\t// in\n    tag_361:\n        /* \"#utility.yul\":9429:9510   */\n      tag_211\n      jump\t// in\n    tag_360:\n        /* \"#utility.yul\":9420:9510   */\n      swap1\n      pop\n        /* \"#utility.yul\":9530:9535   */\n      dup1\n        /* \"#utility.yul\":9559:9565   */\n      dup4\n        /* \"#utility.yul\":9552:9557   */\n      dup3\n        /* \"#utility.yul\":9545:9566   */\n      mstore\n        /* \"#utility.yul\":9593:9597   */\n      0x20\n        /* \"#utility.yul\":9586:9591   */\n      dup3\n        /* \"#utility.yul\":9582:9598   */\n      add\n        /* \"#utility.yul\":9575:9598   */\n      swap1\n      pop\n        /* \"#utility.yul\":9646:9650   */\n      0x20\n        /* \"#utility.yul\":9638:9644   */\n      dup5\n        /* \"#utility.yul\":9634:9651   */\n      mul\n        /* \"#utility.yul\":9626:9632   */\n      dup4\n        /* \"#utility.yul\":9622:9652   */\n      add\n        /* \"#utility.yul\":9675:9678   */\n      dup6\n        /* \"#utility.yul\":9667:9673   */\n      dup2\n        /* \"#utility.yul\":9664:9679   */\n      gt\n        /* \"#utility.yul\":9661:9783   */\n      iszero\n      tag_362\n      jumpi\n        /* \"#utility.yul\":9694:9773   */\n      tag_363\n      tag_217\n      jump\t// in\n    tag_363:\n        /* \"#utility.yul\":9661:9783   */\n    tag_362:\n        /* \"#utility.yul\":9809:9815   */\n      dup4\n        /* \"#utility.yul\":9792:10012   */\n    tag_364:\n        /* \"#utility.yul\":9826:9832   */\n      dup2\n        /* \"#utility.yul\":9821:9824   */\n      dup2\n        /* \"#utility.yul\":9818:9833   */\n      lt\n        /* \"#utility.yul\":9792:10012   */\n      iszero\n      tag_366\n      jumpi\n        /* \"#utility.yul\":9901:9904   */\n      dup1\n        /* \"#utility.yul\":9930:9967   */\n      tag_367\n        /* \"#utility.yul\":9963:9966   */\n      dup9\n        /* \"#utility.yul\":9951:9961   */\n      dup3\n        /* \"#utility.yul\":9930:9967   */\n      tag_195\n      jump\t// in\n    tag_367:\n        /* \"#utility.yul\":9925:9928   */\n      dup5\n        /* \"#utility.yul\":9918:9968   */\n      mstore\n        /* \"#utility.yul\":9997:10001   */\n      0x20\n        /* \"#utility.yul\":9992:9995   */\n      dup5\n        /* \"#utility.yul\":9988:10002   */\n      add\n        /* \"#utility.yul\":9981:10002   */\n      swap4\n      pop\n        /* \"#utility.yul\":9868:10012   */\n      pop\n        /* \"#utility.yul\":9852:9856   */\n      0x20\n        /* \"#utility.yul\":9847:9850   */\n      dup2\n        /* \"#utility.yul\":9843:9857   */\n      add\n        /* \"#utility.yul\":9836:9857   */\n      swap1\n      pop\n        /* \"#utility.yul\":9792:10012   */\n      jump(tag_364)\n    tag_366:\n        /* \"#utility.yul\":9796:9817   */\n      pop\n        /* \"#utility.yul\":9410:10018   */\n      pop\n      pop\n        /* \"#utility.yul\":9308:10018   */\n      swap4\n      swap3\n      pop\n      pop\n      pop\n      jump\t// out\n        /* \"#utility.yul\":10041:10411   */\n    tag_222:\n        /* \"#utility.yul\":10112:10117   */\n      0x00\n        /* \"#utility.yul\":10161:10164   */\n      dup3\n        /* \"#utility.yul\":10154:10158   */\n      0x1f\n        /* \"#utility.yul\":10146:10152   */\n      dup4\n        /* \"#utility.yul\":10142:10159   */\n      add\n        /* \"#utility.yul\":10138:10165   */\n      slt\n        /* \"#utility.yul\":10128:10250   */\n      tag_369\n      jumpi\n        /* \"#utility.yul\":10169:10248   */\n      tag_370\n      tag_207\n      jump\t// in\n    tag_370:\n        /* \"#utility.yul\":10128:10250   */\n    tag_369:\n        /* \"#utility.yul\":10286:10292   */\n      dup2\n        /* \"#utility.yul\":10273:10293   */\n      calldataload\n        /* \"#utility.yul\":10311:10405   */\n      tag_371\n        /* \"#utility.yul\":10401:10404   */\n      dup5\n        /* \"#utility.yul\":10393:10399   */\n      dup3\n        /* \"#utility.yul\":10386:10390   */\n      0x20\n        /* \"#utility.yul\":10378:10384   */\n      dup7\n        /* \"#utility.yul\":10374:10391   */\n      add\n        /* \"#utility.yul\":10311:10405   */\n      tag_221\n      jump\t// in\n    tag_371:\n        /* \"#utility.yul\":10302:10405   */\n      swap2\n      pop\n        /* \"#utility.yul\":10118:10411   */\n      pop\n        /* \"#utility.yul\":10041:10411   */\n      swap3\n      swap2\n      pop\n      pop\n      jump\t// out\n        /* \"#utility.yul\":10417:13678   */\n    tag_38:\n        /* \"#utility.yul\":10727:10733   */\n      0x00\n        /* \"#utility.yul\":10735:10741   */\n      dup1\n        /* \"#utility.yul\":10743:10749   */\n      0x00\n        /* \"#utility.yul\":10751:10757   */\n      dup1\n        /* \"#utility.yul\":10759:10765   */\n      0x00\n        /* \"#utility.yul\":10767:10773   */\n      dup1\n        /* \"#utility.yul\":10775:10781   */\n      0x00\n        /* \"#utility.yul\":10783:10789   */\n      dup1\n        /* \"#utility.yul\":10791:10797   */\n      0x00\n        /* \"#utility.yul\":10799:10805   */\n      dup1\n        /* \"#utility.yul\":10848:10851   */\n      0x0140\n        /* \"#utility.yul\":10836:10845   */\n      dup12\n        /* \"#utility.yul\":10827:10834   */\n      dup14\n        /* \"#utility.yul\":10823:10846   */\n      sub\n        /* \"#utility.yul\":10819:10852   */\n      slt\n        /* \"#utility.yul\":10816:10936   */\n      iszero\n      tag_373\n      jumpi\n        /* \"#utility.yul\":10855:10934   */\n      tag_374\n      tag_191\n      jump\t// in\n    tag_374:\n        /* \"#utility.yul\":10816:10936   */\n    tag_373:\n        /* \"#utility.yul\":11003:11004   */\n      0x00\n        /* \"#utility.yul\":10992:11001   */\n      dup12\n        /* \"#utility.yul\":10988:11005   */\n      add\n        /* \"#utility.yul\":10975:11006   */\n      calldataload\n        /* \"#utility.yul\":11033:11051   */\n      0xffffffffffffffff\n        /* \"#utility.yul\":11025:11031   */\n      dup2\n        /* \"#utility.yul\":11022:11052   */\n      gt\n        /* \"#utility.yul\":11019:11136   */\n      iszero\n      tag_375\n      jumpi\n        /* \"#utility.yul\":11055:11134   */\n      tag_376\n      tag_192\n      jump\t// in\n    tag_376:\n        /* \"#utility.yul\":11019:11136   */\n    tag_375:\n        /* \"#utility.yul\":11160:11223   */\n      tag_377\n        /* \"#utility.yul\":11215:11222   */\n      dup14\n        /* \"#utility.yul\":11206:11212   */\n      dup3\n        /* \"#utility.yul\":11195:11204   */\n      dup15\n        /* \"#utility.yul\":11191:11213   */\n      add\n        /* \"#utility.yul\":11160:11223   */\n      tag_215\n      jump\t// in\n    tag_377:\n        /* \"#utility.yul\":11150:11223   */\n      swap11\n      pop\n        /* \"#utility.yul\":10946:11233   */\n      pop\n        /* \"#utility.yul\":11300:11302   */\n      0x20\n        /* \"#utility.yul\":11289:11298   */\n      dup12\n        /* \"#utility.yul\":11285:11303   */\n      add\n        /* \"#utility.yul\":11272:11304   */\n      calldataload\n        /* \"#utility.yul\":11331:11349   */\n      0xffffffffffffffff\n        /* \"#utility.yul\":11323:11329   */\n      dup2\n        /* \"#utility.yul\":11320:11350   */\n      gt\n        /* \"#utility.yul\":11317:11434   */\n      iszero\n      tag_378\n      jumpi\n        /* \"#utility.yul\":11353:11432   */\n      tag_379\n      tag_192\n      jump\t// in\n    tag_379:\n        /* \"#utility.yul\":11317:11434   */\n    tag_378:\n        /* \"#utility.yul\":11458:11521   */\n      tag_380\n        /* \"#utility.yul\":11513:11520   */\n      dup14\n        /* \"#utility.yul\":11504:11510   */\n      dup3\n        /* \"#utility.yul\":11493:11502   */\n      dup15\n        /* \"#utility.yul\":11489:11511   */\n      add\n        /* \"#utility.yul\":11458:11521   */\n      tag_215\n      jump\t// in\n    tag_380:\n        /* \"#utility.yul\":11448:11521   */\n      swap10\n      pop\n        /* \"#utility.yul\":11243:11531   */\n      pop\n        /* \"#utility.yul\":11598:11600   */\n      0x40\n        /* \"#utility.yul\":11587:11596   */\n      dup12\n        /* \"#utility.yul\":11583:11601   */\n      add\n        /* \"#utility.yul\":11570:11602   */\n      calldataload\n        /* \"#utility.yul\":11629:11647   */\n      0xffffffffffffffff\n        /* \"#utility.yul\":11621:11627   */\n      dup2\n        /* \"#utility.yul\":11618:11648   */\n      gt\n        /* \"#utility.yul\":11615:11732   */\n      iszero\n      tag_381\n      jumpi\n        /* \"#utility.yul\":11651:11730   */\n      tag_382\n      tag_192\n      jump\t// in\n    tag_382:\n        /* \"#utility.yul\":11615:11732   */\n    tag_381:\n        /* \"#utility.yul\":11756:11819   */\n      tag_383\n        /* \"#utility.yul\":11811:11818   */\n      dup14\n        /* \"#utility.yul\":11802:11808   */\n      dup3\n        /* \"#utility.yul\":11791:11800   */\n      dup15\n        /* \"#utility.yul\":11787:11809   */\n      add\n        /* \"#utility.yul\":11756:11819   */\n      tag_215\n      jump\t// in\n    tag_383:\n        /* \"#utility.yul\":11746:11819   */\n      swap9\n      pop\n        /* \"#utility.yul\":11541:11829   */\n      pop\n        /* \"#utility.yul\":11896:11898   */\n      0x60\n        /* \"#utility.yul\":11885:11894   */\n      dup12\n        /* \"#utility.yul\":11881:11899   */\n      add\n        /* \"#utility.yul\":11868:11900   */\n      calldataload\n        /* \"#utility.yul\":11927:11945   */\n      0xffffffffffffffff\n        /* \"#utility.yul\":11919:11925   */\n      dup2\n        /* \"#utility.yul\":11916:11946   */\n      gt\n        /* \"#utility.yul\":11913:12030   */\n      iszero\n      tag_384\n      jumpi\n        /* \"#utility.yul\":11949:12028   */\n      tag_385\n      tag_192\n      jump\t// in\n    tag_385:\n        /* \"#utility.yul\":11913:12030   */\n    tag_384:\n        /* \"#utility.yul\":12054:12117   */\n      tag_386\n        /* \"#utility.yul\":12109:12116   */\n      dup14\n        /* \"#utility.yul\":12100:12106   */\n      dup3\n        /* \"#utility.yul\":12089:12098   */\n      dup15\n        /* \"#utility.yul\":12085:12107   */\n      add\n        /* \"#utility.yul\":12054:12117   */\n      tag_215\n      jump\t// in\n    tag_386:\n        /* \"#utility.yul\":12044:12117   */\n      swap8\n      pop\n        /* \"#utility.yul\":11839:12127   */\n      pop\n        /* \"#utility.yul\":12194:12197   */\n      0x80\n        /* \"#utility.yul\":12183:12192   */\n      dup12\n        /* \"#utility.yul\":12179:12198   */\n      add\n        /* \"#utility.yul\":12166:12199   */\n      calldataload\n        /* \"#utility.yul\":12226:12244   */\n      0xffffffffffffffff\n        /* \"#utility.yul\":12218:12224   */\n      dup2\n        /* \"#utility.yul\":12215:12245   */\n      gt\n        /* \"#utility.yul\":12212:12329   */\n      iszero\n      tag_387\n      jumpi\n        /* \"#utility.yul\":12248:12327   */\n      tag_388\n      tag_192\n      jump\t// in\n    tag_388:\n        /* \"#utility.yul\":12212:12329   */\n    tag_387:\n        /* \"#utility.yul\":12353:12441   */\n      tag_389\n        /* \"#utility.yul\":12433:12440   */\n      dup14\n        /* \"#utility.yul\":12424:12430   */\n      dup3\n        /* \"#utility.yul\":12413:12422   */\n      dup15\n        /* \"#utility.yul\":12409:12431   */\n      add\n        /* \"#utility.yul\":12353:12441   */\n      tag_219\n      jump\t// in\n    tag_389:\n        /* \"#utility.yul\":12343:12441   */\n      swap7\n      pop\n        /* \"#utility.yul\":12137:12451   */\n      pop\n        /* \"#utility.yul\":12518:12521   */\n      0xa0\n        /* \"#utility.yul\":12507:12516   */\n      dup12\n        /* \"#utility.yul\":12503:12522   */\n      add\n        /* \"#utility.yul\":12490:12523   */\n      calldataload\n        /* \"#utility.yul\":12550:12568   */\n      0xffffffffffffffff\n        /* \"#utility.yul\":12542:12548   */\n      dup2\n        /* \"#utility.yul\":12539:12569   */\n      gt\n        /* \"#utility.yul\":12536:12653   */\n      iszero\n      tag_390\n      jumpi\n        /* \"#utility.yul\":12572:12651   */\n      tag_391\n      tag_192\n      jump\t// in\n    tag_391:\n        /* \"#utility.yul\":12536:12653   */\n    tag_390:\n        /* \"#utility.yul\":12677:12765   */\n      tag_392\n        /* \"#utility.yul\":12757:12764   */\n      dup14\n        /* \"#utility.yul\":12748:12754   */\n      dup3\n        /* \"#utility.yul\":12737:12746   */\n      dup15\n        /* \"#utility.yul\":12733:12755   */\n      add\n        /* \"#utility.yul\":12677:12765   */\n      tag_219\n      jump\t// in\n    tag_392:\n        /* \"#utility.yul\":12667:12765   */\n      swap6\n      pop\n        /* \"#utility.yul\":12461:12775   */\n      pop\n        /* \"#utility.yul\":12814:12817   */\n      0xc0\n        /* \"#utility.yul\":12841:12894   */\n      tag_393\n        /* \"#utility.yul\":12886:12893   */\n      dup14\n        /* \"#utility.yul\":12877:12883   */\n      dup3\n        /* \"#utility.yul\":12866:12875   */\n      dup15\n        /* \"#utility.yul\":12862:12884   */\n      add\n        /* \"#utility.yul\":12841:12894   */\n      tag_195\n      jump\t// in\n    tag_393:\n        /* \"#utility.yul\":12831:12894   */\n      swap5\n      pop\n        /* \"#utility.yul\":12785:12904   */\n      pop\n        /* \"#utility.yul\":12943:12946   */\n      0xe0\n        /* \"#utility.yul\":12970:13023   */\n      tag_394\n        /* \"#utility.yul\":13015:13022   */\n      dup14\n        /* \"#utility.yul\":13006:13012   */\n      dup3\n        /* \"#utility.yul\":12995:13004   */\n      dup15\n        /* \"#utility.yul\":12991:13013   */\n      add\n        /* \"#utility.yul\":12970:13023   */\n      tag_195\n      jump\t// in\n    tag_394:\n        /* \"#utility.yul\":12960:13023   */\n      swap4\n      pop\n        /* \"#utility.yul\":12914:13033   */\n      pop\n        /* \"#utility.yul\":13100:13103   */\n      0x0100\n        /* \"#utility.yul\":13089:13098   */\n      dup12\n        /* \"#utility.yul\":13085:13104   */\n      add\n        /* \"#utility.yul\":13072:13105   */\n      calldataload\n        /* \"#utility.yul\":13132:13150   */\n      0xffffffffffffffff\n        /* \"#utility.yul\":13124:13130   */\n      dup2\n        /* \"#utility.yul\":13121:13151   */\n      gt\n        /* \"#utility.yul\":13118:13235   */\n      iszero\n      tag_395\n      jumpi\n        /* \"#utility.yul\":13154:13233   */\n      tag_396\n      tag_192\n      jump\t// in\n    tag_396:\n        /* \"#utility.yul\":13118:13235   */\n    tag_395:\n        /* \"#utility.yul\":13259:13337   */\n      tag_397\n        /* \"#utility.yul\":13329:13336   */\n      dup14\n        /* \"#utility.yul\":13320:13326   */\n      dup3\n        /* \"#utility.yul\":13309:13318   */\n      dup15\n        /* \"#utility.yul\":13305:13327   */\n      add\n        /* \"#utility.yul\":13259:13337   */\n      tag_222\n      jump\t// in\n    tag_397:\n        /* \"#utility.yul\":13249:13337   */\n      swap3\n      pop\n        /* \"#utility.yul\":13043:13347   */\n      pop\n        /* \"#utility.yul\":13414:13417   */\n      0x0120\n        /* \"#utility.yul\":13403:13412   */\n      dup12\n        /* \"#utility.yul\":13399:13418   */\n      add\n        /* \"#utility.yul\":13386:13419   */\n      calldataload\n        /* \"#utility.yul\":13446:13464   */\n      0xffffffffffffffff\n        /* \"#utility.yul\":13438:13444   */\n      dup2\n        /* \"#utility.yul\":13435:13465   */\n      gt\n        /* \"#utility.yul\":13432:13549   */\n      iszero\n      tag_398\n      jumpi\n        /* \"#utility.yul\":13468:13547   */\n      tag_399\n      tag_192\n      jump\t// in\n    tag_399:\n        /* \"#utility.yul\":13432:13549   */\n    tag_398:\n        /* \"#utility.yul\":13573:13661   */\n      tag_400\n        /* \"#utility.yul\":13653:13660   */\n      dup14\n        /* \"#utility.yul\":13644:13650   */\n      dup3\n        /* \"#utility.yul\":13633:13642   */\n      dup15\n        /* \"#utility.yul\":13629:13651   */\n      add\n        /* \"#utility.yul\":13573:13661   */\n      tag_219\n      jump\t// in\n    tag_400:\n        /* \"#utility.yul\":13563:13661   */\n      swap2\n      pop\n        /* \"#utility.yul\":13357:13671   */\n      pop\n        /* \"#utility.yul\":10417:13678   */\n      swap3\n      swap6\n      swap9\n      swap12\n      swap2\n      swap5\n      swap8\n      swap11\n      pop\n      swap3\n      swap6\n      swap9\n      pop\n      jump\t// out\n        /* \"#utility.yul\":13684:13806   */\n    tag_223:\n        /* \"#utility.yul\":13757:13781   */\n      tag_402\n        /* \"#utility.yul\":13775:13780   */\n      dup2\n        /* \"#utility.yul\":13757:13781   */\n      tag_203\n      jump\t// in\n    tag_402:\n        /* \"#utility.yul\":13750:13755   */\n      dup2\n        /* \"#utility.yul\":13747:13782   */\n      eq\n        /* \"#utility.yul\":13737:13800   */\n      tag_403\n      jumpi\n        /* \"#utility.yul\":13796:13797   */\n      0x00\n        /* \"#utility.yul\":13793:13794   */\n      dup1\n        /* \"#utility.yul\":13786:13798   */\n      revert\n        /* \"#utility.yul\":13737:13800   */\n    tag_403:\n        /* \"#utility.yul\":13684:13806   */\n      pop\n      jump\t// out\n        /* \"#utility.yul\":13812:13951   */\n    tag_224:\n        /* \"#utility.yul\":13858:13863   */\n      0x00\n        /* \"#utility.yul\":13896:13902   */\n      dup2\n        /* \"#utility.yul\":13883:13903   */\n      calldataload\n        /* \"#utility.yul\":13874:13903   */\n      swap1\n      pop\n        /* \"#utility.yul\":13912:13945   */\n      tag_405\n        /* \"#utility.yul\":13939:13944   */\n      dup2\n        /* \"#utility.yul\":13912:13945   */\n      tag_223\n      jump\t// in\n    tag_405:\n        /* \"#utility.yul\":13812:13951   */\n      swap3\n      swap2\n      pop\n      pop\n      jump\t// out\n        /* \"#utility.yul\":13957:14431   */\n    tag_44:\n        /* \"#utility.yul\":14025:14031   */\n      0x00\n        /* \"#utility.yul\":14033:14039   */\n      dup1\n        /* \"#utility.yul\":14082:14084   */\n      0x40\n        /* \"#utility.yul\":14070:14079   */\n      dup4\n        /* \"#utility.yul\":14061:14068   */\n      dup6\n        /* \"#utility.yul\":14057:14080   */\n      sub\n        /* \"#utility.yul\":14053:14085   */\n      slt\n        /* \"#utility.yul\":14050:14169   */\n      iszero\n      tag_407\n      jumpi\n        /* \"#utility.yul\":14088:14167   */\n      tag_408\n      tag_191\n      jump\t// in\n    tag_408:\n        /* \"#utility.yul\":14050:14169   */\n    tag_407:\n        /* \"#utility.yul\":14208:14209   */\n      0x00\n        /* \"#utility.yul\":14233:14286   */\n      tag_409\n        /* \"#utility.yul\":14278:14285   */\n      dup6\n        /* \"#utility.yul\":14269:14275   */\n      dup3\n        /* \"#utility.yul\":14258:14267   */\n      dup7\n        /* \"#utility.yul\":14254:14276   */\n      add\n        /* \"#utility.yul\":14233:14286   */\n      tag_224\n      jump\t// in\n    tag_409:\n        /* \"#utility.yul\":14223:14286   */\n      swap3\n      pop\n        /* \"#utility.yul\":14179:14296   */\n      pop\n        /* \"#utility.yul\":14335:14337   */\n      0x20\n        /* \"#utility.yul\":14361:14414   */\n      tag_410\n        /* \"#utility.yul\":14406:14413   */\n      dup6\n        /* \"#utility.yul\":14397:14403   */\n      dup3\n        /* \"#utility.yul\":14386:14395   */\n      dup7\n        /* \"#utility.yul\":14382:14404   */\n      add\n        /* \"#utility.yul\":14361:14414   */\n      tag_195\n      jump\t// in\n    tag_410:\n        /* \"#utility.yul\":14351:14414   */\n      swap2\n      pop\n        /* \"#utility.yul\":14306:14424   */\n      pop\n        /* \"#utility.yul\":13957:14431   */\n      swap3\n      pop\n      swap3\n      swap1\n      pop\n      jump\t// out\n        /* \"#utility.yul\":14437:14750   */\n    tag_52:\n        /* \"#utility.yul\":14550:14554   */\n      0x00\n        /* \"#utility.yul\":14588:14590   */\n      0x20\n        /* \"#utility.yul\":14577:14586   */\n      dup3\n        /* \"#utility.yul\":14573:14591   */\n      add\n        /* \"#utility.yul\":14565:14591   */\n      swap1\n      pop\n        /* \"#utility.yul\":14637:14646   */\n      dup2\n        /* \"#utility.yul\":14631:14635   */\n      dup2\n        /* \"#utility.yul\":14627:14647   */\n      sub\n        /* \"#utility.yul\":14623:14624   */\n      0x00\n        /* \"#utility.yul\":14612:14621   */\n      dup4\n        /* \"#utility.yul\":14608:14625   */\n      add\n        /* \"#utility.yul\":14601:14648   */\n      mstore\n        /* \"#utility.yul\":14665:14743   */\n      tag_412\n        /* \"#utility.yul\":14738:14742   */\n      dup2\n        /* \"#utility.yul\":14729:14735   */\n      dup5\n        /* \"#utility.yul\":14665:14743   */\n      tag_200\n      jump\t// in\n    tag_412:\n        /* \"#utility.yul\":14657:14743   */\n      swap1\n      pop\n        /* \"#utility.yul\":14437:14750   */\n      swap3\n      swap2\n      pop\n      pop\n      jump\t// out\n        /* \"#utility.yul\":14756:14936   */\n    tag_225:\n        /* \"#utility.yul\":14804:14881   */\n      0x4e487b7100000000000000000000000000000000000000000000000000000000\n        /* \"#utility.yul\":14801:14802   */\n      0x00\n        /* \"#utility.yul\":14794:14882   */\n      mstore\n        /* \"#utility.yul\":14901:14905   */\n      0x22\n        /* \"#utility.yul\":14898:14899   */\n      0x04\n        /* \"#utility.yul\":14891:14906   */\n      mstore\n        /* \"#utility.yul\":14925:14929   */\n      0x24\n        /* \"#utility.yul\":14922:14923   */\n      0x00\n        /* \"#utility.yul\":14915:14930   */\n      revert\n        /* \"#utility.yul\":14942:15262   */\n    tag_54:\n        /* \"#utility.yul\":14986:14992   */\n      0x00\n        /* \"#utility.yul\":15023:15024   */\n      0x02\n        /* \"#utility.yul\":15017:15021   */\n      dup3\n        /* \"#utility.yul\":15013:15025   */\n      div\n        /* \"#utility.yul\":15003:15025   */\n      swap1\n      pop\n        /* \"#utility.yul\":15070:15071   */\n      0x01\n        /* \"#utility.yul\":15064:15068   */\n      dup3\n        /* \"#utility.yul\":15060:15072   */\n      and\n        /* \"#utility.yul\":15091:15109   */\n      dup1\n        /* \"#utility.yul\":15081:15162   */\n      tag_415\n      jumpi\n        /* \"#utility.yul\":15147:15151   */\n      0x7f\n        /* \"#utility.yul\":15139:15145   */\n      dup3\n        /* \"#utility.yul\":15135:15152   */\n      and\n        /* \"#utility.yul\":15125:15152   */\n      swap2\n      pop\n        /* \"#utility.yul\":15081:15162   */\n    tag_415:\n        /* \"#utility.yul\":15209:15211   */\n      0x20\n        /* \"#utility.yul\":15201:15207   */\n      dup3\n        /* \"#utility.yul\":15198:15212   */\n      lt\n        /* \"#utility.yul\":15178:15196   */\n      dup2\n        /* \"#utility.yul\":15175:15213   */\n      sub\n        /* \"#utility.yul\":15172:15256   */\n      tag_416\n      jumpi\n        /* \"#utility.yul\":15228:15246   */\n      tag_417\n      tag_225\n      jump\t// in\n    tag_417:\n        /* \"#utility.yul\":15172:15256   */\n    tag_416:\n        /* \"#utility.yul\":14993:15262   */\n      pop\n        /* \"#utility.yul\":14942:15262   */\n      swap2\n      swap1\n      pop\n      jump\t// out\n        /* \"#utility.yul\":15268:15488   */\n    tag_226:\n        /* \"#utility.yul\":15408:15442   */\n      0x4f6e6c7920746865206f776e65722063616e2077697468647261772066756e64\n        /* \"#utility.yul\":15404:15405   */\n      0x00\n        /* \"#utility.yul\":15396:15402   */\n      dup3\n        /* \"#utility.yul\":15392:15406   */\n      add\n        /* \"#utility.yul\":15385:15443   */\n      mstore\n        /* \"#utility.yul\":15477:15480   */\n      0x7300000000000000000000000000000000000000000000000000000000000000\n        /* \"#utility.yul\":15472:15474   */\n      0x20\n        /* \"#utility.yul\":15464:15470   */\n      dup3\n        /* \"#utility.yul\":15460:15475   */\n      add\n        /* \"#utility.yul\":15453:15481   */\n      mstore\n        /* \"#utility.yul\":15268:15488   */\n      pop\n      jump\t// out\n        /* \"#utility.yul\":15494:15860   */\n    tag_227:\n        /* \"#utility.yul\":15636:15639   */\n      0x00\n        /* \"#utility.yul\":15657:15724   */\n      tag_420\n        /* \"#utility.yul\":15721:15723   */\n      0x21\n        /* \"#utility.yul\":15716:15719   */\n      dup4\n        /* \"#utility.yul\":15657:15724   */\n      tag_197\n      jump\t// in\n    tag_420:\n        /* \"#utility.yul\":15650:15724   */\n      swap2\n      pop\n        /* \"#utility.yul\":15733:15826   */\n      tag_421\n        /* \"#utility.yul\":15822:15825   */\n      dup3\n        /* \"#utility.yul\":15733:15826   */\n      tag_226\n      jump\t// in\n    tag_421:\n        /* \"#utility.yul\":15851:15853   */\n      0x40\n        /* \"#utility.yul\":15846:15849   */\n      dup3\n        /* \"#utility.yul\":15842:15854   */\n      add\n        /* \"#utility.yul\":15835:15854   */\n      swap1\n      pop\n        /* \"#utility.yul\":15494:15860   */\n      swap2\n      swap1\n      pop\n      jump\t// out\n        /* \"#utility.yul\":15866:16285   */\n    tag_77:\n        /* \"#utility.yul\":16032:16036   */\n      0x00\n        /* \"#utility.yul\":16070:16072   */\n      0x20\n        /* \"#utility.yul\":16059:16068   */\n      dup3\n        /* \"#utility.yul\":16055:16073   */\n      add\n        /* \"#utility.yul\":16047:16073   */\n      swap1\n      pop\n        /* \"#utility.yul\":16119:16128   */\n      dup2\n        /* \"#utility.yul\":16113:16117   */\n      dup2\n        /* \"#utility.yul\":16109:16129   */\n      sub\n        /* \"#utility.yul\":16105:16106   */\n      0x00\n        /* \"#utility.yul\":16094:16103   */\n      dup4\n        /* \"#utility.yul\":16090:16107   */\n      add\n        /* \"#utility.yul\":16083:16130   */\n      mstore\n        /* \"#utility.yul\":16147:16278   */\n      tag_423\n        /* \"#utility.yul\":16273:16277   */\n      dup2\n        /* \"#utility.yul\":16147:16278   */\n      tag_227\n      jump\t// in\n    tag_423:\n        /* \"#utility.yul\":16139:16278   */\n      swap1\n      pop\n        /* \"#utility.yul\":15866:16285   */\n      swap2\n      swap1\n      pop\n      jump\t// out\n        /* \"#utility.yul\":16291:16463   */\n    tag_228:\n        /* \"#utility.yul\":16431:16455   */\n      0x43616d706169676e206973206e6f742061637469766500000000000000000000\n        /* \"#utility.yul\":16427:16428   */\n      0x00\n        /* \"#utility.yul\":16419:16425   */\n      dup3\n        /* \"#utility.yul\":16415:16429   */\n      add\n        /* \"#utility.yul\":16408:16456   */\n      mstore\n        /* \"#utility.yul\":16291:16463   */\n      pop\n      jump\t// out\n        /* \"#utility.yul\":16469:16835   */\n    tag_229:\n        /* \"#utility.yul\":16611:16614   */\n      0x00\n        /* \"#utility.yul\":16632:16699   */\n      tag_426\n        /* \"#utility.yul\":16696:16698   */\n      0x16\n        /* \"#utility.yul\":16691:16694   */\n      dup4\n        /* \"#utility.yul\":16632:16699   */\n      tag_197\n      jump\t// in\n    tag_426:\n        /* \"#utility.yul\":16625:16699   */\n      swap2\n      pop\n        /* \"#utility.yul\":16708:16801   */\n      tag_427\n        /* \"#utility.yul\":16797:16800   */\n      dup3\n        /* \"#utility.yul\":16708:16801   */\n      tag_228\n      jump\t// in\n    tag_427:\n        /* \"#utility.yul\":16826:16828   */\n      0x20\n        /* \"#utility.yul\":16821:16824   */\n      dup3\n        /* \"#utility.yul\":16817:16829   */\n      add\n        /* \"#utility.yul\":16810:16829   */\n      swap1\n      pop\n        /* \"#utility.yul\":16469:16835   */\n      swap2\n      swap1\n      pop\n      jump\t// out\n        /* \"#utility.yul\":16841:17260   */\n    tag_83:\n        /* \"#utility.yul\":17007:17011   */\n      0x00\n        /* \"#utility.yul\":17045:17047   */\n      0x20\n        /* \"#utility.yul\":17034:17043   */\n      dup3\n        /* \"#utility.yul\":17030:17048   */\n      add\n        /* \"#utility.yul\":17022:17048   */\n      swap1\n      pop\n        /* \"#utility.yul\":17094:17103   */\n      dup2\n        /* \"#utility.yul\":17088:17092   */\n      dup2\n        /* \"#utility.yul\":17084:17104   */\n      sub\n        /* \"#utility.yul\":17080:17081   */\n      0x00\n        /* \"#utility.yul\":17069:17078   */\n      dup4\n        /* \"#utility.yul\":17065:17082   */\n      add\n        /* \"#utility.yul\":17058:17105   */\n      mstore\n        /* \"#utility.yul\":17122:17253   */\n      tag_429\n        /* \"#utility.yul\":17248:17252   */\n      dup2\n        /* \"#utility.yul\":17122:17253   */\n      tag_229\n      jump\t// in\n    tag_429:\n        /* \"#utility.yul\":17114:17253   */\n      swap1\n      pop\n        /* \"#utility.yul\":16841:17260   */\n      swap2\n      swap1\n      pop\n      jump\t// out\n        /* \"#utility.yul\":17266:17486   */\n    tag_230:\n        /* \"#utility.yul\":17406:17440   */\n      0x496e766573746d656e74206d7573742062652067726561746572207468616e20\n        /* \"#utility.yul\":17402:17403   */\n      0x00\n        /* \"#utility.yul\":17394:17400   */\n      dup3\n        /* \"#utility.yul\":17390:17404   */\n      add\n        /* \"#utility.yul\":17383:17441   */\n      mstore\n        /* \"#utility.yul\":17475:17478   */\n      0x3000000000000000000000000000000000000000000000000000000000000000\n        /* \"#utility.yul\":17470:17472   */\n      0x20\n        /* \"#utility.yul\":17462:17468   */\n      dup3\n        /* \"#utility.yul\":17458:17473   */\n      add\n        /* \"#utility.yul\":17451:17479   */\n      mstore\n        /* \"#utility.yul\":17266:17486   */\n      pop\n      jump\t// out\n        /* \"#utility.yul\":17492:17858   */\n    tag_231:\n        /* \"#utility.yul\":17634:17637   */\n      0x00\n        /* \"#utility.yul\":17655:17722   */\n      tag_432\n        /* \"#utility.yul\":17719:17721   */\n      0x21\n        /* \"#utility.yul\":17714:17717   */\n      dup4\n        /* \"#utility.yul\":17655:17722   */\n      tag_197\n      jump\t// in\n    tag_432:\n        /* \"#utility.yul\":17648:17722   */\n      swap2\n      pop\n        /* \"#utility.yul\":17731:17824   */\n      tag_433\n        /* \"#utility.yul\":17820:17823   */\n      dup3\n        /* \"#utility.yul\":17731:17824   */\n      tag_230\n      jump\t// in\n    tag_433:\n        /* \"#utility.yul\":17849:17851   */\n      0x40\n        /* \"#utility.yul\":17844:17847   */\n      dup3\n        /* \"#utility.yul\":17840:17852   */\n      add\n        /* \"#utility.yul\":17833:17852   */\n      swap1\n      pop\n        /* \"#utility.yul\":17492:17858   */\n      swap2\n      swap1\n      pop\n      jump\t// out\n        /* \"#utility.yul\":17864:18283   */\n    tag_86:\n        /* \"#utility.yul\":18030:18034   */\n      0x00\n        /* \"#utility.yul\":18068:18070   */\n      0x20\n        /* \"#utility.yul\":18057:18066   */\n      dup3\n        /* \"#utility.yul\":18053:18071   */\n      add\n        /* \"#utility.yul\":18045:18071   */\n      swap1\n      pop\n        /* \"#utility.yul\":18117:18126   */\n      dup2\n        /* \"#utility.yul\":18111:18115   */\n      dup2\n        /* \"#utility.yul\":18107:18127   */\n      sub\n        /* \"#utility.yul\":18103:18104   */\n      0x00\n        /* \"#utility.yul\":18092:18101   */\n      dup4\n        /* \"#utility.yul\":18088:18105   */\n      add\n        /* \"#utility.yul\":18081:18128   */\n      mstore\n        /* \"#utility.yul\":18145:18276   */\n      tag_435\n        /* \"#utility.yul\":18271:18275   */\n      dup2\n        /* \"#utility.yul\":18145:18276   */\n      tag_231\n      jump\t// in\n    tag_435:\n        /* \"#utility.yul\":18137:18276   */\n      swap1\n      pop\n        /* \"#utility.yul\":17864:18283   */\n      swap2\n      swap1\n      pop\n      jump\t// out\n        /* \"#utility.yul\":18289:18519   */\n    tag_232:\n        /* \"#utility.yul\":18429:18463   */\n      0x53656e742076616c756520646f6573206e6f74206d6174636820696e76657374\n        /* \"#utility.yul\":18425:18426   */\n      0x00\n        /* \"#utility.yul\":18417:18423   */\n      dup3\n        /* \"#utility.yul\":18413:18427   */\n      add\n        /* \"#utility.yul\":18406:18464   */\n      mstore\n        /* \"#utility.yul\":18498:18511   */\n      0x6d656e7420616d6f756e74000000000000000000000000000000000000000000\n        /* \"#utility.yul\":18493:18495   */\n      0x20\n        /* \"#utility.yul\":18485:18491   */\n      dup3\n        /* \"#utility.yul\":18481:18496   */\n      add\n        /* \"#utility.yul\":18474:18512   */\n      mstore\n        /* \"#utility.yul\":18289:18519   */\n      pop\n      jump\t// out\n        /* \"#utility.yul\":18525:18891   */\n    tag_233:\n        /* \"#utility.yul\":18667:18670   */\n      0x00\n        /* \"#utility.yul\":18688:18755   */\n      tag_438\n        /* \"#utility.yul\":18752:18754   */\n      0x2b\n        /* \"#utility.yul\":18747:18750   */\n      dup4\n        /* \"#utility.yul\":18688:18755   */\n      tag_197\n      jump\t// in\n    tag_438:\n        /* \"#utility.yul\":18681:18755   */\n      swap2\n      pop\n        /* \"#utility.yul\":18764:18857   */\n      tag_439\n        /* \"#utility.yul\":18853:18856   */\n      dup3\n        /* \"#utility.yul\":18764:18857   */\n      tag_232\n      jump\t// in\n    tag_439:\n        /* \"#utility.yul\":18882:18884   */\n      0x40\n        /* \"#utility.yul\":18877:18880   */\n      dup3\n        /* \"#utility.yul\":18873:18885   */\n      add\n        /* \"#utility.yul\":18866:18885   */\n      swap1\n      pop\n        /* \"#utility.yul\":18525:18891   */\n      swap2\n      swap1\n      pop\n      jump\t// out\n        /* \"#utility.yul\":18897:19316   */\n    tag_89:\n        /* \"#utility.yul\":19063:19067   */\n      0x00\n        /* \"#utility.yul\":19101:19103   */\n      0x20\n        /* \"#utility.yul\":19090:19099   */\n      dup3\n        /* \"#utility.yul\":19086:19104   */\n      add\n        /* \"#utility.yul\":19078:19104   */\n      swap1\n      pop\n        /* \"#utility.yul\":19150:19159   */\n      dup2\n        /* \"#utility.yul\":19144:19148   */\n      dup2\n        /* \"#utility.yul\":19140:19160   */\n      sub\n        /* \"#utility.yul\":19136:19137   */\n      0x00\n        /* \"#utility.yul\":19125:19134   */\n      dup4\n        /* \"#utility.yul\":19121:19138   */\n      add\n        /* \"#utility.yul\":19114:19161   */\n      mstore\n        /* \"#utility.yul\":19178:19309   */\n      tag_441\n        /* \"#utility.yul\":19304:19308   */\n      dup2\n        /* \"#utility.yul\":19178:19309   */\n      tag_233\n      jump\t// in\n    tag_441:\n        /* \"#utility.yul\":19170:19309   */\n      swap1\n      pop\n        /* \"#utility.yul\":18897:19316   */\n      swap2\n      swap1\n      pop\n      jump\t// out\n        /* \"#utility.yul\":19322:19502   */\n    tag_234:\n        /* \"#utility.yul\":19370:19447   */\n      0x4e487b7100000000000000000000000000000000000000000000000000000000\n        /* \"#utility.yul\":19367:19368   */\n      0x00\n        /* \"#utility.yul\":19360:19448   */\n      mstore\n        /* \"#utility.yul\":19467:19471   */\n      0x11\n        /* \"#utility.yul\":19464:19465   */\n      0x04\n        /* \"#utility.yul\":19457:19472   */\n      mstore\n        /* \"#utility.yul\":19491:19495   */\n      0x24\n        /* \"#utility.yul\":19488:19489   */\n      0x00\n        /* \"#utility.yul\":19481:19496   */\n      revert\n        /* \"#utility.yul\":19508:19699   */\n    tag_93:\n        /* \"#utility.yul\":19548:19551   */\n      0x00\n        /* \"#utility.yul\":19567:19587   */\n      tag_444\n        /* \"#utility.yul\":19585:19586   */\n      dup3\n        /* \"#utility.yul\":19567:19587   */\n      tag_193\n      jump\t// in\n    tag_444:\n        /* \"#utility.yul\":19562:19587   */\n      swap2\n      pop\n        /* \"#utility.yul\":19601:19621   */\n      tag_445\n        /* \"#utility.yul\":19619:19620   */\n      dup4\n        /* \"#utility.yul\":19601:19621   */\n      tag_193\n      jump\t// in\n    tag_445:\n        /* \"#utility.yul\":19596:19621   */\n      swap3\n      pop\n        /* \"#utility.yul\":19644:19645   */\n      dup3\n        /* \"#utility.yul\":19641:19642   */\n      dup3\n        /* \"#utility.yul\":19637:19646   */\n      add\n        /* \"#utility.yul\":19630:19646   */\n      swap1\n      pop\n        /* \"#utility.yul\":19665:19668   */\n      dup1\n        /* \"#utility.yul\":19662:19663   */\n      dup3\n        /* \"#utility.yul\":19659:19669   */\n      gt\n        /* \"#utility.yul\":19656:19692   */\n      iszero\n      tag_446\n      jumpi\n        /* \"#utility.yul\":19672:19690   */\n      tag_447\n      tag_234\n      jump\t// in\n    tag_447:\n        /* \"#utility.yul\":19656:19692   */\n    tag_446:\n        /* \"#utility.yul\":19508:19699   */\n      swap3\n      swap2\n      pop\n      pop\n      jump\t// out\n        /* \"#utility.yul\":19705:19932   */\n    tag_235:\n        /* \"#utility.yul\":19845:19879   */\n      0x496e766573746d656e74206578636565647320746f74616c20616d6f756e7420\n        /* \"#utility.yul\":19841:19842   */\n      0x00\n        /* \"#utility.yul\":19833:19839   */\n      dup3\n        /* \"#utility.yul\":19829:19843   */\n      add\n        /* \"#utility.yul\":19822:19880   */\n      mstore\n        /* \"#utility.yul\":19914:19924   */\n      0x746f207261697365000000000000000000000000000000000000000000000000\n        /* \"#utility.yul\":19909:19911   */\n      0x20\n        /* \"#utility.yul\":19901:19907   */\n      dup3\n        /* \"#utility.yul\":19897:19912   */\n      add\n        /* \"#utility.yul\":19890:19925   */\n      mstore\n        /* \"#utility.yul\":19705:19932   */\n      pop\n      jump\t// out\n        /* \"#utility.yul\":19938:20304   */\n    tag_236:\n        /* \"#utility.yul\":20080:20083   */\n      0x00\n        /* \"#utility.yul\":20101:20168   */\n      tag_450\n        /* \"#utility.yul\":20165:20167   */\n      0x28\n        /* \"#utility.yul\":20160:20163   */\n      dup4\n        /* \"#utility.yul\":20101:20168   */\n      tag_197\n      jump\t// in\n    tag_450:\n        /* \"#utility.yul\":20094:20168   */\n      swap2\n      pop\n        /* \"#utility.yul\":20177:20270   */\n      tag_451\n        /* \"#utility.yul\":20266:20269   */\n      dup3\n        /* \"#utility.yul\":20177:20270   */\n      tag_235\n      jump\t// in\n    tag_451:\n        /* \"#utility.yul\":20295:20297   */\n      0x40\n        /* \"#utility.yul\":20290:20293   */\n      dup3\n        /* \"#utility.yul\":20286:20298   */\n      add\n        /* \"#utility.yul\":20279:20298   */\n      swap1\n      pop\n        /* \"#utility.yul\":19938:20304   */\n      swap2\n      swap1\n      pop\n      jump\t// out\n        /* \"#utility.yul\":20310:20729   */\n    tag_97:\n        /* \"#utility.yul\":20476:20480   */\n      0x00\n        /* \"#utility.yul\":20514:20516   */\n      0x20\n        /* \"#utility.yul\":20503:20512   */\n      dup3\n        /* \"#utility.yul\":20499:20517   */\n      add\n        /* \"#utility.yul\":20491:20517   */\n      swap1\n      pop\n        /* \"#utility.yul\":20563:20572   */\n      dup2\n        /* \"#utility.yul\":20557:20561   */\n      dup2\n        /* \"#utility.yul\":20553:20573   */\n      sub\n        /* \"#utility.yul\":20549:20550   */\n      0x00\n        /* \"#utility.yul\":20538:20547   */\n      dup4\n        /* \"#utility.yul\":20534:20551   */\n      add\n        /* \"#utility.yul\":20527:20574   */\n      mstore\n        /* \"#utility.yul\":20591:20722   */\n      tag_453\n        /* \"#utility.yul\":20717:20721   */\n      dup2\n        /* \"#utility.yul\":20591:20722   */\n      tag_236\n      jump\t// in\n    tag_453:\n        /* \"#utility.yul\":20583:20722   */\n      swap1\n      pop\n        /* \"#utility.yul\":20310:20729   */\n      swap2\n      swap1\n      pop\n      jump\t// out\n        /* \"#utility.yul\":20735:20959   */\n    tag_237:\n        /* \"#utility.yul\":20875:20909   */\n      0x4f6e6c7920746865206f776e65722063616e2072657175657374206e65787420\n        /* \"#utility.yul\":20871:20872   */\n      0x00\n        /* \"#utility.yul\":20863:20869   */\n      dup3\n        /* \"#utility.yul\":20859:20873   */\n      add\n        /* \"#utility.yul\":20852:20910   */\n      mstore\n        /* \"#utility.yul\":20944:20951   */\n      0x7374616765000000000000000000000000000000000000000000000000000000\n        /* \"#utility.yul\":20939:20941   */\n      0x20\n        /* \"#utility.yul\":20931:20937   */\n      dup3\n        /* \"#utility.yul\":20927:20942   */\n      add\n        /* \"#utility.yul\":20920:20952   */\n      mstore\n        /* \"#utility.yul\":20735:20959   */\n      pop\n      jump\t// out\n        /* \"#utility.yul\":20965:21331   */\n    tag_238:\n        /* \"#utility.yul\":21107:21110   */\n      0x00\n        /* \"#utility.yul\":21128:21195   */\n      tag_456\n        /* \"#utility.yul\":21192:21194   */\n      0x25\n        /* \"#utility.yul\":21187:21190   */\n      dup4\n        /* \"#utility.yul\":21128:21195   */\n      tag_197\n      jump\t// in\n    tag_456:\n        /* \"#utility.yul\":21121:21195   */\n      swap2\n      pop\n        /* \"#utility.yul\":21204:21297   */\n      tag_457\n        /* \"#utility.yul\":21293:21296   */\n      dup3\n        /* \"#utility.yul\":21204:21297   */\n      tag_237\n      jump\t// in\n    tag_457:\n        /* \"#utility.yul\":21322:21324   */\n      0x40\n        /* \"#utility.yul\":21317:21320   */\n      dup3\n        /* \"#utility.yul\":21313:21325   */\n      add\n        /* \"#utility.yul\":21306:21325   */\n      swap1\n      pop\n        /* \"#utility.yul\":20965:21331   */\n      swap2\n      swap1\n      pop\n      jump\t// out\n        /* \"#utility.yul\":21337:21756   */\n    tag_102:\n        /* \"#utility.yul\":21503:21507   */\n      0x00\n        /* \"#utility.yul\":21541:21543   */\n      0x20\n        /* \"#utility.yul\":21530:21539   */\n      dup3\n        /* \"#utility.yul\":21526:21544   */\n      add\n        /* \"#utility.yul\":21518:21544   */\n      swap1\n      pop\n        /* \"#utility.yul\":21590:21599   */\n      dup2\n        /* \"#utility.yul\":21584:21588   */\n      dup2\n        /* \"#utility.yul\":21580:21600   */\n      sub\n        /* \"#utility.yul\":21576:21577   */\n      0x00\n        /* \"#utility.yul\":21565:21574   */\n      dup4\n        /* \"#utility.yul\":21561:21578   */\n      add\n        /* \"#utility.yul\":21554:21601   */\n      mstore\n        /* \"#utility.yul\":21618:21749   */\n      tag_459\n        /* \"#utility.yul\":21744:21748   */\n      dup2\n        /* \"#utility.yul\":21618:21749   */\n      tag_238\n      jump\t// in\n    tag_459:\n        /* \"#utility.yul\":21610:21749   */\n      swap1\n      pop\n        /* \"#utility.yul\":21337:21756   */\n      swap2\n      swap1\n      pop\n      jump\t// out\n        /* \"#utility.yul\":21762:21937   */\n    tag_239:\n        /* \"#utility.yul\":21902:21929   */\n      0x4e6f206d6f72652073746167657320746f207265717565737400000000000000\n        /* \"#utility.yul\":21898:21899   */\n      0x00\n        /* \"#utility.yul\":21890:21896   */\n      dup3\n        /* \"#utility.yul\":21886:21900   */\n      add\n        /* \"#utility.yul\":21879:21930   */\n      mstore\n        /* \"#utility.yul\":21762:21937   */\n      pop\n      jump\t// out\n        /* \"#utility.yul\":21943:22309   */\n    tag_240:\n        /* \"#utility.yul\":22085:22088   */\n      0x00\n        /* \"#utility.yul\":22106:22173   */\n      tag_462\n        /* \"#utility.yul\":22170:22172   */\n      0x19\n        /* \"#utility.yul\":22165:22168   */\n      dup4\n        /* \"#utility.yul\":22106:22173   */\n      tag_197\n      jump\t// in\n    tag_462:\n        /* \"#utility.yul\":22099:22173   */\n      swap2\n      pop\n        /* \"#utility.yul\":22182:22275   */\n      tag_463\n        /* \"#utility.yul\":22271:22274   */\n      dup3\n        /* \"#utility.yul\":22182:22275   */\n      tag_239\n      jump\t// in\n    tag_463:\n        /* \"#utility.yul\":22300:22302   */\n      0x20\n        /* \"#utility.yul\":22295:22298   */\n      dup3\n        /* \"#utility.yul\":22291:22303   */\n      add\n        /* \"#utility.yul\":22284:22303   */\n      swap1\n      pop\n        /* \"#utility.yul\":21943:22309   */\n      swap2\n      swap1\n      pop\n      jump\t// out\n        /* \"#utility.yul\":22315:22734   */\n    tag_105:\n        /* \"#utility.yul\":22481:22485   */\n      0x00\n        /* \"#utility.yul\":22519:22521   */\n      0x20\n        /* \"#utility.yul\":22508:22517   */\n      dup3\n        /* \"#utility.yul\":22504:22522   */\n      add\n        /* \"#utility.yul\":22496:22522   */\n      swap1\n      pop\n        /* \"#utility.yul\":22568:22577   */\n      dup2\n        /* \"#utility.yul\":22562:22566   */\n      dup2\n        /* \"#utility.yul\":22558:22578   */\n      sub\n        /* \"#utility.yul\":22554:22555   */\n      0x00\n        /* \"#utility.yul\":22543:22552   */\n      dup4\n        /* \"#utility.yul\":22539:22556   */\n      add\n        /* \"#utility.yul\":22532:22579   */\n      mstore\n        /* \"#utility.yul\":22596:22727   */\n      tag_465\n        /* \"#utility.yul\":22722:22726   */\n      dup2\n        /* \"#utility.yul\":22596:22727   */\n      tag_240\n      jump\t// in\n    tag_465:\n        /* \"#utility.yul\":22588:22727   */\n      swap1\n      pop\n        /* \"#utility.yul\":22315:22734   */\n      swap2\n      swap1\n      pop\n      jump\t// out\n        /* \"#utility.yul\":22740:22920   */\n    tag_108:\n        /* \"#utility.yul\":22788:22865   */\n      0x4e487b7100000000000000000000000000000000000000000000000000000000\n        /* \"#utility.yul\":22785:22786   */\n      0x00\n        /* \"#utility.yul\":22778:22866   */\n      mstore\n        /* \"#utility.yul\":22885:22889   */\n      0x32\n        /* \"#utility.yul\":22882:22883   */\n      0x04\n        /* \"#utility.yul\":22875:22890   */\n      mstore\n        /* \"#utility.yul\":22909:22913   */\n      0x24\n        /* \"#utility.yul\":22906:22907   */\n      0x00\n        /* \"#utility.yul\":22899:22914   */\n      revert\n        /* \"#utility.yul\":22926:23153   */\n    tag_241:\n        /* \"#utility.yul\":23066:23100   */\n      0x496e73756666696369656e742066756e64732072616973656420666f72207468\n        /* \"#utility.yul\":23062:23063   */\n      0x00\n        /* \"#utility.yul\":23054:23060   */\n      dup3\n        /* \"#utility.yul\":23050:23064   */\n      add\n        /* \"#utility.yul\":23043:23101   */\n      mstore\n        /* \"#utility.yul\":23135:23145   */\n      0x6973207374616765000000000000000000000000000000000000000000000000\n        /* \"#utility.yul\":23130:23132   */\n      0x20\n        /* \"#utility.yul\":23122:23128   */\n      dup3\n        /* \"#utility.yul\":23118:23133   */\n      add\n        /* \"#utility.yul\":23111:23146   */\n      mstore\n        /* \"#utility.yul\":22926:23153   */\n      pop\n      jump\t// out\n        /* \"#utility.yul\":23159:23525   */\n    tag_242:\n        /* \"#utility.yul\":23301:23304   */\n      0x00\n        /* \"#utility.yul\":23322:23389   */\n      tag_469\n        /* \"#utility.yul\":23386:23388   */\n      0x28\n        /* \"#utility.yul\":23381:23384   */\n      dup4\n        /* \"#utility.yul\":23322:23389   */\n      tag_197\n      jump\t// in\n    tag_469:\n        /* \"#utility.yul\":23315:23389   */\n      swap2\n      pop\n        /* \"#utility.yul\":23398:23491   */\n      tag_470\n        /* \"#utility.yul\":23487:23490   */\n      dup3\n        /* \"#utility.yul\":23398:23491   */\n      tag_241\n      jump\t// in\n    tag_470:\n        /* \"#utility.yul\":23516:23518   */\n      0x40\n        /* \"#utility.yul\":23511:23514   */\n      dup3\n        /* \"#utility.yul\":23507:23519   */\n      add\n        /* \"#utility.yul\":23500:23519   */\n      swap1\n      pop\n        /* \"#utility.yul\":23159:23525   */\n      swap2\n      swap1\n      pop\n      jump\t// out\n        /* \"#utility.yul\":23531:23950   */\n    tag_112:\n        /* \"#utility.yul\":23697:23701   */\n      0x00\n        /* \"#utility.yul\":23735:23737   */\n      0x20\n        /* \"#utility.yul\":23724:23733   */\n      dup3\n        /* \"#utility.yul\":23720:23738   */\n      add\n        /* \"#utility.yul\":23712:23738   */\n      swap1\n      pop\n        /* \"#utility.yul\":23784:23793   */\n      dup2\n        /* \"#utility.yul\":23778:23782   */\n      dup2\n        /* \"#utility.yul\":23774:23794   */\n      sub\n        /* \"#utility.yul\":23770:23771   */\n      0x00\n        /* \"#utility.yul\":23759:23768   */\n      dup4\n        /* \"#utility.yul\":23755:23772   */\n      add\n        /* \"#utility.yul\":23748:23795   */\n      mstore\n        /* \"#utility.yul\":23812:23943   */\n      tag_472\n        /* \"#utility.yul\":23938:23942   */\n      dup2\n        /* \"#utility.yul\":23812:23943   */\n      tag_242\n      jump\t// in\n    tag_472:\n        /* \"#utility.yul\":23804:23943   */\n      swap1\n      pop\n        /* \"#utility.yul\":23531:23950   */\n      swap2\n      swap1\n      pop\n      jump\t// out\n        /* \"#utility.yul\":23956:24288   */\n    tag_120:\n        /* \"#utility.yul\":24077:24081   */\n      0x00\n        /* \"#utility.yul\":24115:24117   */\n      0x40\n        /* \"#utility.yul\":24104:24113   */\n      dup3\n        /* \"#utility.yul\":24100:24118   */\n      add\n        /* \"#utility.yul\":24092:24118   */\n      swap1\n      pop\n        /* \"#utility.yul\":24128:24199   */\n      tag_474\n        /* \"#utility.yul\":24196:24197   */\n      0x00\n        /* \"#utility.yul\":24185:24194   */\n      dup4\n        /* \"#utility.yul\":24181:24198   */\n      add\n        /* \"#utility.yul\":24172:24178   */\n      dup6\n        /* \"#utility.yul\":24128:24199   */\n      tag_204\n      jump\t// in\n    tag_474:\n        /* \"#utility.yul\":24209:24281   */\n      tag_475\n        /* \"#utility.yul\":24277:24279   */\n      0x20\n        /* \"#utility.yul\":24266:24275   */\n      dup4\n        /* \"#utility.yul\":24262:24280   */\n      add\n        /* \"#utility.yul\":24253:24259   */\n      dup5\n        /* \"#utility.yul\":24209:24281   */\n      tag_201\n      jump\t// in\n    tag_475:\n        /* \"#utility.yul\":23956:24288   */\n      swap4\n      swap3\n      pop\n      pop\n      pop\n      jump\t// out\n        /* \"#utility.yul\":24294:24527   */\n    tag_125:\n        /* \"#utility.yul\":24333:24336   */\n      0x00\n        /* \"#utility.yul\":24356:24380   */\n      tag_477\n        /* \"#utility.yul\":24374:24379   */\n      dup3\n        /* \"#utility.yul\":24356:24380   */\n      tag_193\n      jump\t// in\n    tag_477:\n        /* \"#utility.yul\":24347:24380   */\n      swap2\n      pop\n        /* \"#utility.yul\":24402:24468   */\n      0xffffffffffffffffffffffffffffffffffffffffffffffffffffffffffffffff\n        /* \"#utility.yul\":24395:24400   */\n      dup3\n        /* \"#utility.yul\":24392:24469   */\n      sub\n        /* \"#utility.yul\":24389:24492   */\n      tag_478\n      jumpi\n        /* \"#utility.yul\":24472:24490   */\n      tag_479\n      tag_234\n      jump\t// in\n    tag_479:\n        /* \"#utility.yul\":24389:24492   */\n    tag_478:\n        /* \"#utility.yul\":24519:24520   */\n      0x01\n        /* \"#utility.yul\":24512:24517   */\n      dup3\n        /* \"#utility.yul\":24508:24521   */\n      add\n        /* \"#utility.yul\":24501:24521   */\n      swap1\n      pop\n        /* \"#utility.yul\":24294:24527   */\n      swap2\n      swap1\n      pop\n      jump\t// out\n        /* \"#utility.yul\":24533:24727   */\n    tag_128:\n        /* \"#utility.yul\":24573:24577   */\n      0x00\n        /* \"#utility.yul\":24593:24613   */\n      tag_481\n        /* \"#utility.yul\":24611:24612   */\n      dup3\n        /* \"#utility.yul\":24593:24613   */\n      tag_193\n      jump\t// in\n    tag_481:\n        /* \"#utility.yul\":24588:24613   */\n      swap2\n      pop\n        /* \"#utility.yul\":24627:24647   */\n      tag_482\n        /* \"#utility.yul\":24645:24646   */\n      dup4\n        /* \"#utility.yul\":24627:24647   */\n      tag_193\n      jump\t// in\n    tag_482:\n        /* \"#utility.yul\":24622:24647   */\n      swap3\n      pop\n        /* \"#utility.yul\":24671:24672   */\n      dup3\n        /* \"#utility.yul\":24668:24669   */\n      dup3\n        /* \"#utility.yul\":24664:24673   */\n      sub\n        /* \"#utility.yul\":24656:24673   */\n      swap1\n      pop\n        /* \"#utility.yul\":24695:24696   */\n      dup2\n        /* \"#utility.yul\":24689:24693   */\n      dup2\n        /* \"#utility.yul\":24686:24697   */\n      gt\n        /* \"#utility.yul\":24683:24720   */\n      iszero\n      tag_483\n      jumpi\n        /* \"#utility.yul\":24700:24718   */\n      tag_484\n      tag_234\n      jump\t// in\n    tag_484:\n        /* \"#utility.yul\":24683:24720   */\n    tag_483:\n        /* \"#utility.yul\":24533:24727   */\n      swap3\n      swap2\n      pop\n      pop\n      jump\t// out\n        /* \"#utility.yul\":24733:25065   */\n    tag_130:\n        /* \"#utility.yul\":24854:24858   */\n      0x00\n        /* \"#utility.yul\":24892:24894   */\n      0x40\n        /* \"#utility.yul\":24881:24890   */\n      dup3\n        /* \"#utility.yul\":24877:24895   */\n      add\n        /* \"#utility.yul\":24869:24895   */\n      swap1\n      pop\n        /* \"#utility.yul\":24905:24976   */\n      tag_486\n        /* \"#utility.yul\":24973:24974   */\n      0x00\n        /* \"#utility.yul\":24962:24971   */\n      dup4\n        /* \"#utility.yul\":24958:24975   */\n      add\n        /* \"#utility.yul\":24949:24955   */\n      dup6\n        /* \"#utility.yul\":24905:24976   */\n      tag_201\n      jump\t// in\n    tag_486:\n        /* \"#utility.yul\":24986:25058   */\n      tag_487\n        /* \"#utility.yul\":25054:25056   */\n      0x20\n        /* \"#utility.yul\":25043:25052   */\n      dup4\n        /* \"#utility.yul\":25039:25057   */\n      add\n        /* \"#utility.yul\":25030:25036   */\n      dup5\n        /* \"#utility.yul\":24986:25058   */\n      tag_201\n      jump\t// in\n    tag_487:\n        /* \"#utility.yul\":24733:25065   */\n      swap4\n      swap3\n      pop\n      pop\n      pop\n      jump\t// out\n        /* \"#utility.yul\":25071:25294   */\n    tag_243:\n        /* \"#utility.yul\":25211:25245   */\n      0x53746167657320636f756e74206d757374206265206265747765656e20312061\n        /* \"#utility.yul\":25207:25208   */\n      0x00\n        /* \"#utility.yul\":25199:25205   */\n      dup3\n        /* \"#utility.yul\":25195:25209   */\n      add\n        /* \"#utility.yul\":25188:25246   */\n      mstore\n        /* \"#utility.yul\":25280:25286   */\n      0x6e64203500000000000000000000000000000000000000000000000000000000\n        /* \"#utility.yul\":25275:25277   */\n      0x20\n        /* \"#utility.yul\":25267:25273   */\n      dup3\n        /* \"#utility.yul\":25263:25278   */\n      add\n        /* \"#utility.yul\":25256:25287   */\n      mstore\n        /* \"#utility.yul\":25071:25294   */\n      pop\n      jump\t// out\n        /* \"#utility.yul\":25300:25666   */\n    tag_244:\n        /* \"#utility.yul\":25442:25445   */\n      0x00\n        /* \"#utility.yul\":25463:25530   */\n      tag_490\n        /* \"#utility.yul\":25527:25529   */\n      0x24\n        /* \"#utility.yul\":25522:25525   */\n      dup4\n        /* \"#utility.yul\":25463:25530   */\n      tag_197\n      jump\t// in\n    tag_490:\n        /* \"#utility.yul\":25456:25530   */\n      swap2\n      pop\n        /* \"#utility.yul\":25539:25632   */\n      tag_491\n        /* \"#utility.yul\":25628:25631   */\n      dup3\n        /* \"#utility.yul\":25539:25632   */\n      tag_243\n      jump\t// in\n    tag_491:\n        /* \"#utility.yul\":25657:25659   */\n      0x40\n        /* \"#utility.yul\":25652:25655   */\n      dup3\n        /* \"#utility.yul\":25648:25660   */\n      add\n        /* \"#utility.yul\":25641:25660   */\n      swap1\n      pop\n        /* \"#utility.yul\":25300:25666   */\n      swap2\n      swap1\n      pop\n      jump\t// out\n        /* \"#utility.yul\":25672:26091   */\n    tag_135:\n        /* \"#utility.yul\":25838:25842   */\n      0x00\n        /* \"#utility.yul\":25876:25878   */\n      0x20\n        /* \"#utility.yul\":25865:25874   */\n      dup3\n        /* \"#utility.yul\":25861:25879   */\n      add\n        /* \"#utility.yul\":25853:25879   */\n      swap1\n      pop\n        /* \"#utility.yul\":25925:25934   */\n      dup2\n        /* \"#utility.yul\":25919:25923   */\n      dup2\n        /* \"#utility.yul\":25915:25935   */\n      sub\n        /* \"#utility.yul\":25911:25912   */\n      0x00\n        /* \"#utility.yul\":25900:25909   */\n      dup4\n        /* \"#utility.yul\":25896:25913   */\n      add\n        /* \"#utility.yul\":25889:25936   */\n      mstore\n        /* \"#utility.yul\":25953:26084   */\n      tag_493\n        /* \"#utility.yul\":26079:26083   */\n      dup2\n        /* \"#utility.yul\":25953:26084   */\n      tag_244\n      jump\t// in\n    tag_493:\n        /* \"#utility.yul\":25945:26084   */\n      swap1\n      pop\n        /* \"#utility.yul\":25672:26091   */\n      swap2\n      swap1\n      pop\n      jump\t// out\n        /* \"#utility.yul\":26097:26611   */\n    tag_140:\n        /* \"#utility.yul\":26258:26262   */\n      0x00\n        /* \"#utility.yul\":26296:26298   */\n      0x40\n        /* \"#utility.yul\":26285:26294   */\n      dup3\n        /* \"#utility.yul\":26281:26299   */\n      add\n        /* \"#utility.yul\":26273:26299   */\n      swap1\n      pop\n        /* \"#utility.yul\":26345:26354   */\n      dup2\n        /* \"#utility.yul\":26339:26343   */\n      dup2\n        /* \"#utility.yul\":26335:26355   */\n      sub\n        /* \"#utility.yul\":26331:26332   */\n      0x00\n        /* \"#utility.yul\":26320:26329   */\n      dup4\n        /* \"#utility.yul\":26316:26333   */\n      add\n        /* \"#utility.yul\":26309:26356   */\n      mstore\n        /* \"#utility.yul\":26373:26451   */\n      tag_495\n        /* \"#utility.yul\":26446:26450   */\n      dup2\n        /* \"#utility.yul\":26437:26443   */\n      dup6\n        /* \"#utility.yul\":26373:26451   */\n      tag_200\n      jump\t// in\n    tag_495:\n        /* \"#utility.yul\":26365:26451   */\n      swap1\n      pop\n        /* \"#utility.yul\":26498:26507   */\n      dup2\n        /* \"#utility.yul\":26492:26496   */\n      dup2\n        /* \"#utility.yul\":26488:26508   */\n      sub\n        /* \"#utility.yul\":26483:26485   */\n      0x20\n        /* \"#utility.yul\":26472:26481   */\n      dup4\n        /* \"#utility.yul\":26468:26486   */\n      add\n        /* \"#utility.yul\":26461:26509   */\n      mstore\n        /* \"#utility.yul\":26526:26604   */\n      tag_496\n        /* \"#utility.yul\":26599:26603   */\n      dup2\n        /* \"#utility.yul\":26590:26596   */\n      dup5\n        /* \"#utility.yul\":26526:26604   */\n      tag_200\n      jump\t// in\n    tag_496:\n        /* \"#utility.yul\":26518:26604   */\n      swap1\n      pop\n        /* \"#utility.yul\":26097:26611   */\n      swap4\n      swap3\n      pop\n      pop\n      pop\n      jump\t// out\n        /* \"#utility.yul\":26617:26758   */\n    tag_245:\n        /* \"#utility.yul\":26666:26670   */\n      0x00\n        /* \"#utility.yul\":26689:26692   */\n      dup2\n        /* \"#utility.yul\":26681:26692   */\n      swap1\n      pop\n        /* \"#utility.yul\":26712:26715   */\n      dup2\n        /* \"#utility.yul\":26709:26710   */\n      0x00\n        /* \"#utility.yul\":26702:26716   */\n      mstore\n        /* \"#utility.yul\":26746:26750   */\n      0x20\n        /* \"#utility.yul\":26743:26744   */\n      0x00\n        /* \"#utility.yul\":26733:26751   */\n      keccak256\n        /* \"#utility.yul\":26725:26751   */\n      swap1\n      pop\n        /* \"#utility.yul\":26617:26758   */\n      swap2\n      swap1\n      pop\n      jump\t// out\n        /* \"#utility.yul\":26764:26857   */\n    tag_246:\n        /* \"#utility.yul\":26801:26807   */\n      0x00\n        /* \"#utility.yul\":26848:26850   */\n      0x20\n        /* \"#utility.yul\":26843:26845   */\n      0x1f\n        /* \"#utility.yul\":26836:26841   */\n      dup4\n        /* \"#utility.yul\":26832:26846   */\n      add\n        /* \"#utility.yul\":26828:26851   */\n      div\n        /* \"#utility.yul\":26818:26851   */\n      swap1\n      pop\n        /* \"#utility.yul\":26764:26857   */\n      swap2\n      swap1\n      pop\n      jump\t// out\n        /* \"#utility.yul\":26863:26970   */\n    tag_247:\n        /* \"#utility.yul\":26907:26915   */\n      0x00\n        /* \"#utility.yul\":26957:26962   */\n      dup3\n        /* \"#utility.yul\":26951:26955   */\n      dup3\n        /* \"#utility.yul\":26947:26963   */\n      shl\n        /* \"#utility.yul\":26926:26963   */\n      swap1\n      pop\n        /* \"#utility.yul\":26863:26970   */\n      swap3\n      swap2\n      pop\n      pop\n      jump\t// out\n        /* \"#utility.yul\":26976:27369   */\n    tag_248:\n        /* \"#utility.yul\":27045:27051   */\n      0x00\n        /* \"#utility.yul\":27095:27096   */\n      0x08\n        /* \"#utility.yul\":27083:27093   */\n      dup4\n        /* \"#utility.yul\":27079:27097   */\n      mul\n        /* \"#utility.yul\":27118:27215   */\n      tag_501\n        /* \"#utility.yul\":27148:27214   */\n      0xffffffffffffffffffffffffffffffffffffffffffffffffffffffffffffffff\n        /* \"#utility.yul\":27137:27146   */\n      dup3\n        /* \"#utility.yul\":27118:27215   */\n      tag_247\n      jump\t// in\n    tag_501:\n        /* \"#utility.yul\":27236:27275   */\n      tag_502\n        /* \"#utility.yul\":27266:27274   */\n      dup7\n        /* \"#utility.yul\":27255:27264   */\n      dup4\n        /* \"#utility.yul\":27236:27275   */\n      tag_247\n      jump\t// in\n    tag_502:\n        /* \"#utility.yul\":27224:27275   */\n      swap6\n      pop\n        /* \"#utility.yul\":27308:27312   */\n      dup1\n        /* \"#utility.yul\":27304:27313   */\n      not\n        /* \"#utility.yul\":27297:27302   */\n      dup5\n        /* \"#utility.yul\":27293:27314   */\n      and\n        /* \"#utility.yul\":27284:27314   */\n      swap4\n      pop\n        /* \"#utility.yul\":27357:27361   */\n      dup1\n        /* \"#utility.yul\":27347:27355   */\n      dup7\n        /* \"#utility.yul\":27343:27362   */\n      and\n        /* \"#utility.yul\":27336:27341   */\n      dup5\n        /* \"#utility.yul\":27333:27363   */\n      or\n        /* \"#utility.yul\":27323:27363   */\n      swap3\n      pop\n        /* \"#utility.yul\":27052:27369   */\n      pop\n      pop\n        /* \"#utility.yul\":26976:27369   */\n      swap4\n      swap3\n      pop\n      pop\n      pop\n      jump\t// out\n        /* \"#utility.yul\":27375:27435   */\n    tag_249:\n        /* \"#utility.yul\":27403:27406   */\n      0x00\n        /* \"#utility.yul\":27424:27429   */\n      dup2\n        /* \"#utility.yul\":27417:27429   */\n      swap1\n      pop\n        /* \"#utility.yul\":27375:27435   */\n      swap2\n      swap1\n      pop\n      jump\t// out\n        /* \"#utility.yul\":27441:27583   */\n    tag_250:\n        /* \"#utility.yul\":27491:27500   */\n      0x00\n        /* \"#utility.yul\":27524:27577   */\n      tag_505\n        /* \"#utility.yul\":27542:27576   */\n      tag_506\n        /* \"#utility.yul\":27551:27575   */\n      tag_507\n        /* \"#utility.yul\":27569:27574   */\n      dup5\n        /* \"#utility.yul\":27551:27575   */\n      tag_193\n      jump\t// in\n    tag_507:\n        /* \"#utility.yul\":27542:27576   */\n      tag_249\n      jump\t// in\n    tag_506:\n        /* \"#utility.yul\":27524:27577   */\n      tag_193\n      jump\t// in\n    tag_505:\n        /* \"#utility.yul\":27511:27577   */\n      swap1\n      pop\n        /* \"#utility.yul\":27441:27583   */\n      swap2\n      swap1\n      pop\n      jump\t// out\n        /* \"#utility.yul\":27589:27664   */\n    tag_251:\n        /* \"#utility.yul\":27632:27635   */\n      0x00\n        /* \"#utility.yul\":27653:27658   */\n      dup2\n        /* \"#utility.yul\":27646:27658   */\n      swap1\n      pop\n        /* \"#utility.yul\":27589:27664   */\n      swap2\n      swap1\n      pop\n      jump\t// out\n        /* \"#utility.yul\":27670:27939   */\n    tag_252:\n        /* \"#utility.yul\":27780:27819   */\n      tag_510\n        /* \"#utility.yul\":27811:27818   */\n      dup4\n        /* \"#utility.yul\":27780:27819   */\n      tag_250\n      jump\t// in\n    tag_510:\n        /* \"#utility.yul\":27841:27932   */\n      tag_511\n        /* \"#utility.yul\":27890:27931   */\n      tag_512\n        /* \"#utility.yul\":27914:27930   */\n      dup3\n        /* \"#utility.yul\":27890:27931   */\n      tag_251\n      jump\t// in\n    tag_512:\n        /* \"#utility.yul\":27882:27888   */\n      dup5\n        /* \"#utility.yul\":27875:27879   */\n      dup5\n        /* \"#utility.yul\":27869:27880   */\n      sload\n        /* \"#utility.yul\":27841:27932   */\n      tag_248\n      jump\t// in\n    tag_511:\n        /* \"#utility.yul\":27835:27839   */\n      dup3\n        /* \"#utility.yul\":27828:27933   */\n      sstore\n        /* \"#utility.yul\":27746:27939   */\n      pop\n        /* \"#utility.yul\":27670:27939   */\n      pop\n      pop\n      pop\n      jump\t// out\n        /* \"#utility.yul\":27945:28018   */\n    tag_253:\n        /* \"#utility.yul\":27990:27993   */\n      0x00\n        /* \"#utility.yul\":27945:28018   */\n      swap1\n      jump\t// out\n        /* \"#utility.yul\":28024:28213   */\n    tag_254:\n        /* \"#utility.yul\":28101:28133   */\n      tag_515\n      tag_253\n      jump\t// in\n    tag_515:\n        /* \"#utility.yul\":28142:28207   */\n      tag_516\n        /* \"#utility.yul\":28200:28206   */\n      dup2\n        /* \"#utility.yul\":28192:28198   */\n      dup5\n        /* \"#utility.yul\":28186:28190   */\n      dup5\n        /* \"#utility.yul\":28142:28207   */\n      tag_252\n      jump\t// in\n    tag_516:\n        /* \"#utility.yul\":28077:28213   */\n      pop\n        /* \"#utility.yul\":28024:28213   */\n      pop\n      pop\n      jump\t// out\n        /* \"#utility.yul\":28219:28405   */\n    tag_255:\n        /* \"#utility.yul\":28279:28399   */\n    tag_518:\n        /* \"#utility.yul\":28296:28299   */\n      dup2\n        /* \"#utility.yul\":28289:28294   */\n      dup2\n        /* \"#utility.yul\":28286:28300   */\n      lt\n        /* \"#utility.yul\":28279:28399   */\n      iszero\n      tag_520\n      jumpi\n        /* \"#utility.yul\":28350:28389   */\n      tag_521\n        /* \"#utility.yul\":28387:28388   */\n      0x00\n        /* \"#utility.yul\":28380:28385   */\n      dup3\n        /* \"#utility.yul\":28350:28389   */\n      tag_254\n      jump\t// in\n    tag_521:\n        /* \"#utility.yul\":28323:28324   */\n      0x01\n        /* \"#utility.yul\":28316:28321   */\n      dup2\n        /* \"#utility.yul\":28312:28325   */\n      add\n        /* \"#utility.yul\":28303:28325   */\n      swap1\n      pop\n        /* \"#utility.yul\":28279:28399   */\n      jump(tag_518)\n    tag_520:\n        /* \"#utility.yul\":28219:28405   */\n      pop\n      pop\n      jump\t// out\n        /* \"#utility.yul\":28411:28954   */\n    tag_256:\n        /* \"#utility.yul\":28512:28514   */\n      0x1f\n        /* \"#utility.yul\":28507:28510   */\n      dup3\n        /* \"#utility.yul\":28504:28515   */\n      gt\n        /* \"#utility.yul\":28501:28947   */\n      iszero\n      tag_523\n      jumpi\n        /* \"#utility.yul\":28546:28584   */\n      tag_524\n        /* \"#utility.yul\":28578:28583   */\n      dup2\n        /* \"#utility.yul\":28546:28584   */\n      tag_245\n      jump\t// in\n    tag_524:\n        /* \"#utility.yul\":28630:28659   */\n      tag_525\n        /* \"#utility.yul\":28648:28658   */\n      dup5\n        /* \"#utility.yul\":28630:28659   */\n      tag_246\n      jump\t// in\n    tag_525:\n        /* \"#utility.yul\":28620:28628   */\n      dup2\n        /* \"#utility.yul\":28616:28660   */\n      add\n        /* \"#utility.yul\":28813:28815   */\n      0x20\n        /* \"#utility.yul\":28801:28811   */\n      dup6\n        /* \"#utility.yul\":28798:28816   */\n      lt\n        /* \"#utility.yul\":28795:28844   */\n      iszero\n      tag_526\n      jumpi\n        /* \"#utility.yul\":28834:28842   */\n      dup2\n        /* \"#utility.yul\":28819:28842   */\n      swap1\n      pop\n        /* \"#utility.yul\":28795:28844   */\n    tag_526:\n        /* \"#utility.yul\":28857:28937   */\n      tag_527\n        /* \"#utility.yul\":28913:28935   */\n      tag_528\n        /* \"#utility.yul\":28931:28934   */\n      dup6\n        /* \"#utility.yul\":28913:28935   */\n      tag_246\n      jump\t// in\n    tag_528:\n        /* \"#utility.yul\":28903:28911   */\n      dup4\n        /* \"#utility.yul\":28899:28936   */\n      add\n        /* \"#utility.yul\":28886:28897   */\n      dup3\n        /* \"#utility.yul\":28857:28937   */\n      tag_255\n      jump\t// in\n    tag_527:\n        /* \"#utility.yul\":28516:28947   */\n      pop\n      pop\n        /* \"#utility.yul\":28501:28947   */\n    tag_523:\n        /* \"#utility.yul\":28411:28954   */\n      pop\n      pop\n      pop\n      jump\t// out\n        /* \"#utility.yul\":28960:29077   */\n    tag_257:\n        /* \"#utility.yul\":29014:29022   */\n      0x00\n        /* \"#utility.yul\":29064:29069   */\n      dup3\n        /* \"#utility.yul\":29058:29062   */\n      dup3\n        /* \"#utility.yul\":29054:29070   */\n      shr\n        /* \"#utility.yul\":29033:29070   */\n      swap1\n      pop\n        /* \"#utility.yul\":28960:29077   */\n      swap3\n      swap2\n      pop\n      pop\n      jump\t// out\n        /* \"#utility.yul\":29083:29252   */\n    tag_258:\n        /* \"#utility.yul\":29127:29133   */\n      0x00\n        /* \"#utility.yul\":29160:29211   */\n      tag_531\n        /* \"#utility.yul\":29208:29209   */\n      0x00\n        /* \"#utility.yul\":29204:29210   */\n      not\n        /* \"#utility.yul\":29196:29201   */\n      dup5\n        /* \"#utility.yul\":29193:29194   */\n      0x08\n        /* \"#utility.yul\":29189:29202   */\n      mul\n        /* \"#utility.yul\":29160:29211   */\n      tag_257\n      jump\t// in\n    tag_531:\n        /* \"#utility.yul\":29156:29212   */\n      not\n        /* \"#utility.yul\":29241:29245   */\n      dup1\n        /* \"#utility.yul\":29235:29239   */\n      dup4\n        /* \"#utility.yul\":29231:29246   */\n      and\n        /* \"#utility.yul\":29221:29246   */\n      swap2\n      pop\n        /* \"#utility.yul\":29134:29252   */\n      pop\n        /* \"#utility.yul\":29083:29252   */\n      swap3\n      swap2\n      pop\n      pop\n      jump\t// out\n        /* \"#utility.yul\":29257:29552   */\n    tag_259:\n        /* \"#utility.yul\":29333:29337   */\n      0x00\n        /* \"#utility.yul\":29479:29508   */\n      tag_533\n        /* \"#utility.yul\":29504:29507   */\n      dup4\n        /* \"#utility.yul\":29498:29502   */\n      dup4\n        /* \"#utility.yul\":29479:29508   */\n      tag_258\n      jump\t// in\n    tag_533:\n        /* \"#utility.yul\":29471:29508   */\n      swap2\n      pop\n        /* \"#utility.yul\":29541:29544   */\n      dup3\n        /* \"#utility.yul\":29538:29539   */\n      0x02\n        /* \"#utility.yul\":29534:29545   */\n      mul\n        /* \"#utility.yul\":29528:29532   */\n      dup3\n        /* \"#utility.yul\":29525:29546   */\n      or\n        /* \"#utility.yul\":29517:29546   */\n      swap1\n      pop\n        /* \"#utility.yul\":29257:29552   */\n      swap3\n      swap2\n      pop\n      pop\n      jump\t// out\n        /* \"#utility.yul\":29557:30952   */\n    tag_143:\n        /* \"#utility.yul\":29674:29711   */\n      tag_535\n        /* \"#utility.yul\":29707:29710   */\n      dup3\n        /* \"#utility.yul\":29674:29711   */\n      tag_196\n      jump\t// in\n    tag_535:\n        /* \"#utility.yul\":29776:29794   */\n      0xffffffffffffffff\n        /* \"#utility.yul\":29768:29774   */\n      dup2\n        /* \"#utility.yul\":29765:29795   */\n      gt\n        /* \"#utility.yul\":29762:29818   */\n      iszero\n      tag_536\n      jumpi\n        /* \"#utility.yul\":29798:29816   */\n      tag_537\n      tag_209\n      jump\t// in\n    tag_537:\n        /* \"#utility.yul\":29762:29818   */\n    tag_536:\n        /* \"#utility.yul\":29842:29880   */\n      tag_538\n        /* \"#utility.yul\":29874:29878   */\n      dup3\n        /* \"#utility.yul\":29868:29879   */\n      sload\n        /* \"#utility.yul\":29842:29880   */\n      tag_54\n      jump\t// in\n    tag_538:\n        /* \"#utility.yul\":29927:29994   */\n      tag_539\n        /* \"#utility.yul\":29987:29993   */\n      dup3\n        /* \"#utility.yul\":29979:29985   */\n      dup3\n        /* \"#utility.yul\":29973:29977   */\n      dup6\n        /* \"#utility.yul\":29927:29994   */\n      tag_256\n      jump\t// in\n    tag_539:\n        /* \"#utility.yul\":30021:30022   */\n      0x00\n        /* \"#utility.yul\":30045:30049   */\n      0x20\n        /* \"#utility.yul\":30032:30049   */\n      swap1\n      pop\n        /* \"#utility.yul\":30077:30079   */\n      0x1f\n        /* \"#utility.yul\":30069:30075   */\n      dup4\n        /* \"#utility.yul\":30066:30080   */\n      gt\n        /* \"#utility.yul\":30094:30095   */\n      0x01\n        /* \"#utility.yul\":30089:30707   */\n      dup2\n      eq\n      tag_541\n      jumpi\n        /* \"#utility.yul\":30751:30752   */\n      0x00\n        /* \"#utility.yul\":30768:30774   */\n      dup5\n        /* \"#utility.yul\":30765:30842   */\n      iszero\n      tag_542\n      jumpi\n        /* \"#utility.yul\":30817:30826   */\n      dup3\n        /* \"#utility.yul\":30812:30815   */\n      dup8\n        /* \"#utility.yul\":30808:30827   */\n      add\n        /* \"#utility.yul\":30802:30828   */\n      mload\n        /* \"#utility.yul\":30793:30828   */\n      swap1\n      pop\n        /* \"#utility.yul\":30765:30842   */\n    tag_542:\n        /* \"#utility.yul\":30868:30935   */\n      tag_543\n        /* \"#utility.yul\":30928:30934   */\n      dup6\n        /* \"#utility.yul\":30921:30926   */\n      dup3\n        /* \"#utility.yul\":30868:30935   */\n      tag_259\n      jump\t// in\n    tag_543:\n        /* \"#utility.yul\":30862:30866   */\n      dup7\n        /* \"#utility.yul\":30855:30936   */\n      sstore\n        /* \"#utility.yul\":30724:30946   */\n      pop\n        /* \"#utility.yul\":30059:30946   */\n      jump(tag_540)\n        /* \"#utility.yul\":30089:30707   */\n    tag_541:\n        /* \"#utility.yul\":30141:30145   */\n      0x1f\n        /* \"#utility.yul\":30137:30146   */\n      not\n        /* \"#utility.yul\":30129:30135   */\n      dup5\n        /* \"#utility.yul\":30125:30147   */\n      and\n        /* \"#utility.yul\":30175:30212   */\n      tag_544\n        /* \"#utility.yul\":30207:30211   */\n      dup7\n        /* \"#utility.yul\":30175:30212   */\n      tag_245\n      jump\t// in\n    tag_544:\n        /* \"#utility.yul\":30234:30235   */\n      0x00\n        /* \"#utility.yul\":30248:30456   */\n    tag_545:\n        /* \"#utility.yul\":30262:30269   */\n      dup3\n        /* \"#utility.yul\":30259:30260   */\n      dup2\n        /* \"#utility.yul\":30256:30270   */\n      lt\n        /* \"#utility.yul\":30248:30456   */\n      iszero\n      tag_547\n      jumpi\n        /* \"#utility.yul\":30341:30350   */\n      dup5\n        /* \"#utility.yul\":30336:30339   */\n      dup10\n        /* \"#utility.yul\":30332:30351   */\n      add\n        /* \"#utility.yul\":30326:30352   */\n      mload\n        /* \"#utility.yul\":30318:30324   */\n      dup3\n        /* \"#utility.yul\":30311:30353   */\n      sstore\n        /* \"#utility.yul\":30392:30393   */\n      0x01\n        /* \"#utility.yul\":30384:30390   */\n      dup3\n        /* \"#utility.yul\":30380:30394   */\n      add\n        /* \"#utility.yul\":30370:30394   */\n      swap2\n      pop\n        /* \"#utility.yul\":30439:30441   */\n      0x20\n        /* \"#utility.yul\":30428:30437   */\n      dup6\n        /* \"#utility.yul\":30424:30442   */\n      add\n        /* \"#utility.yul\":30411:30442   */\n      swap5\n      pop\n        /* \"#utility.yul\":30285:30289   */\n      0x20\n        /* \"#utility.yul\":30282:30283   */\n      dup2\n        /* \"#utility.yul\":30278:30290   */\n      add\n        /* \"#utility.yul\":30273:30290   */\n      swap1\n      pop\n        /* \"#utility.yul\":30248:30456   */\n      jump(tag_545)\n    tag_547:\n        /* \"#utility.yul\":30484:30490   */\n      dup7\n        /* \"#utility.yul\":30475:30482   */\n      dup4\n        /* \"#utility.yul\":30472:30491   */\n      lt\n        /* \"#utility.yul\":30469:30648   */\n      iszero\n      tag_548\n      jumpi\n        /* \"#utility.yul\":30542:30551   */\n      dup5\n        /* \"#utility.yul\":30537:30540   */\n      dup10\n        /* \"#utility.yul\":30533:30552   */\n      add\n        /* \"#utility.yul\":30527:30553   */\n      mload\n        /* \"#utility.yul\":30585:30633   */\n      tag_549\n        /* \"#utility.yul\":30627:30631   */\n      0x1f\n        /* \"#utility.yul\":30619:30625   */\n      dup10\n        /* \"#utility.yul\":30615:30632   */\n      and\n        /* \"#utility.yul\":30604:30613   */\n      dup3\n        /* \"#utility.yul\":30585:30633   */\n      tag_258\n      jump\t// in\n    tag_549:\n        /* \"#utility.yul\":30577:30583   */\n      dup4\n        /* \"#utility.yul\":30570:30634   */\n      sstore\n        /* \"#utility.yul\":30492:30648   */\n      pop\n        /* \"#utility.yul\":30469:30648   */\n    tag_548:\n        /* \"#utility.yul\":30694:30695   */\n      0x01\n        /* \"#utility.yul\":30690:30691   */\n      0x02\n        /* \"#utility.yul\":30682:30688   */\n      dup9\n        /* \"#utility.yul\":30678:30692   */\n      mul\n        /* \"#utility.yul\":30674:30696   */\n      add\n        /* \"#utility.yul\":30668:30672   */\n      dup9\n        /* \"#utility.yul\":30661:30697   */\n      sstore\n        /* \"#utility.yul\":30096:30707   */\n      pop\n      pop\n      pop\n        /* \"#utility.yul\":30059:30946   */\n    tag_540:\n      pop\n        /* \"#utility.yul\":29649:30952   */\n      pop\n      pop\n      pop\n        /* \"#utility.yul\":29557:30952   */\n      pop\n      pop\n      jump\t// out\n        /* \"#utility.yul\":30958:31180   */\n    tag_155:\n        /* \"#utility.yul\":31051:31055   */\n      0x00\n        /* \"#utility.yul\":31089:31091   */\n      0x20\n        /* \"#utility.yul\":31078:31087   */\n      dup3\n        /* \"#utility.yul\":31074:31092   */\n      add\n        /* \"#utility.yul\":31066:31092   */\n      swap1\n      pop\n        /* \"#utility.yul\":31102:31173   */\n      tag_551\n        /* \"#utility.yul\":31170:31171   */\n      0x00\n        /* \"#utility.yul\":31159:31168   */\n      dup4\n        /* \"#utility.yul\":31155:31172   */\n      add\n        /* \"#utility.yul\":31146:31152   */\n      dup5\n        /* \"#utility.yul\":31102:31173   */\n      tag_204\n      jump\t// in\n    tag_551:\n        /* \"#utility.yul\":30958:31180   */\n      swap3\n      swap2\n      pop\n      pop\n      jump\t// out\n    stop\n\n    sub_0: assembly {\n            /* \"contracts/CampaignToken.sol\":115:382  contract CampaignToken is ERC20 {... */\n          mstore(0x40, 0x80)\n            /* \"contracts/CampaignToken.sol\":153:229  constructor(string memory name, string memory symbol) ERC20(name, symbol) {} */\n          callvalue\n          dup1\n          iszero\n          tag_1\n          jumpi\n          0x00\n          dup1\n          revert\n        tag_1:\n          pop\n          mload(0x40)\n          sub(codesize, bytecodeSize)\n          dup1\n          bytecodeSize\n          dup4\n          codecopy\n          dup2\n          dup2\n          add\n          0x40\n          mstore\n          dup2\n          add\n          swap1\n          tag_2\n          swap2\n          swap1\n          tag_3\n          jump\t// in\n        tag_2:\n            /* \"contracts/CampaignToken.sol\":213:217  name */\n          dup2\n            /* \"contracts/CampaignToken.sol\":219:225  symbol */\n          dup2\n            /* \"@openzeppelin/contracts/token/ERC20/ERC20.sol\":1970:1975  name_ */\n          dup2\n            /* \"@openzeppelin/contracts/token/ERC20/ERC20.sol\":1962:1967  _name */\n          0x03\n            /* \"@openzeppelin/contracts/token/ERC20/ERC20.sol\":1962:1975  _name = name_ */\n          swap1\n          dup2\n          tag_7\n          swap2\n          swap1\n          tag_8\n          jump\t// in\n        tag_7:\n          pop\n            /* \"@openzeppelin/contracts/token/ERC20/ERC20.sol\":1995:2002  symbol_ */\n          dup1\n            /* \"@openzeppelin/contracts/token/ERC20/ERC20.sol\":1985:1992  _symbol */\n          0x04\n            /* \"@openzeppelin/contracts/token/ERC20/ERC20.sol\":1985:2002  _symbol = symbol_ */\n          swap1\n          dup2\n          tag_9\n          swap2\n          swap1\n          tag_8\n          jump\t// in\n        tag_9:\n          pop\n            /* \"@openzeppelin/contracts/token/ERC20/ERC20.sol\":1896:2009  constructor(string memory name_, string memory symbol_) {... */\n          pop\n          pop\n            /* \"contracts/CampaignToken.sol\":153:229  constructor(string memory name, string memory symbol) ERC20(name, symbol) {} */\n          pop\n          pop\n            /* \"contracts/CampaignToken.sol\":115:382  contract CampaignToken is ERC20 {... */\n          jump(tag_11)\n            /* \"#utility.yul\":7:82   */\n        tag_12:\n            /* \"#utility.yul\":40:46   */\n          0x00\n            /* \"#utility.yul\":73:75   */\n          0x40\n            /* \"#utility.yul\":67:76   */\n          mload\n            /* \"#utility.yul\":57:76   */\n          swap1\n          pop\n            /* \"#utility.yul\":7:82   */\n          swap1\n          jump\t// out\n            /* \"#utility.yul\":88:205   */\n        tag_13:\n            /* \"#utility.yul\":197:198   */\n          0x00\n            /* \"#utility.yul\":194:195   */\n          dup1\n            /* \"#utility.yul\":187:199   */\n          revert\n            /* \"#utility.yul\":211:328   */\n        tag_14:\n            /* \"#utility.yul\":320:321   */\n          0x00\n            /* \"#utility.yul\":317:318   */\n          dup1\n            /* \"#utility.yul\":310:322   */\n          revert\n            /* \"#utility.yul\":334:451   */\n        tag_15:\n            /* \"#utility.yul\":443:444   */\n          0x00\n            /* \"#utility.yul\":440:441   */\n          dup1\n            /* \"#utility.yul\":433:445   */\n          revert\n            /* \"#utility.yul\":457:574   */\n        tag_16:\n            /* \"#utility.yul\":566:567   */\n          0x00\n            /* \"#utility.yul\":563:564   */\n          dup1\n            /* \"#utility.yul\":556:568   */\n          revert\n            /* \"#utility.yul\":580:682   */\n        tag_17:\n            /* \"#utility.yul\":621:627   */\n          0x00\n            /* \"#utility.yul\":672:674   */\n          0x1f\n            /* \"#utility.yul\":668:675   */\n          not\n            /* \"#utility.yul\":663:665   */\n          0x1f\n            /* \"#utility.yul\":656:661   */\n          dup4\n            /* \"#utility.yul\":652:666   */\n          add\n            /* \"#utility.yul\":648:676   */\n          and\n            /* \"#utility.yul\":638:676   */\n          swap1\n          pop\n            /* \"#utility.yul\":580:682   */\n          swap2\n          swap1\n          pop\n          jump\t// out\n            /* \"#utility.yul\":688:868   */\n        tag_18:\n            /* \"#utility.yul\":736:813   */\n          0x4e487b7100000000000000000000000000000000000000000000000000000000\n            /* \"#utility.yul\":733:734   */\n          0x00\n            /* \"#utility.yul\":726:814   */\n          mstore\n            /* \"#utility.yul\":833:837   */\n          0x41\n            /* \"#utility.yul\":830:831   */\n          0x04\n            /* \"#utility.yul\":823:838   */\n          mstore\n            /* \"#utility.yul\":857:861   */\n          0x24\n            /* \"#utility.yul\":854:855   */\n          0x00\n            /* \"#utility.yul\":847:862   */\n          revert\n            /* \"#utility.yul\":874:1155   */\n        tag_19:\n            /* \"#utility.yul\":957:984   */\n          tag_53\n            /* \"#utility.yul\":979:983   */\n          dup3\n            /* \"#utility.yul\":957:984   */\n          tag_17\n          jump\t// in\n        tag_53:\n            /* \"#utility.yul\":949:955   */\n          dup2\n            /* \"#utility.yul\":945:985   */\n          add\n            /* \"#utility.yul\":1087:1093   */\n          dup2\n            /* \"#utility.yul\":1075:1085   */\n          dup2\n            /* \"#utility.yul\":1072:1094   */\n          lt\n            /* \"#utility.yul\":1051:1069   */\n          0xffffffffffffffff\n            /* \"#utility.yul\":1039:1049   */\n          dup3\n            /* \"#utility.yul\":1036:1070   */\n          gt\n            /* \"#utility.yul\":1033:1095   */\n          or\n            /* \"#utility.yul\":1030:1118   */\n          iszero\n          tag_54\n          jumpi\n            /* \"#utility.yul\":1098:1116   */\n          tag_55\n          tag_18\n          jump\t// in\n        tag_55:\n            /* \"#utility.yul\":1030:1118   */\n        tag_54:\n            /* \"#utility.yul\":1138:1148   */\n          dup1\n            /* \"#utility.yul\":1134:1136   */\n          0x40\n            /* \"#utility.yul\":1127:1149   */\n          mstore\n            /* \"#utility.yul\":917:1155   */\n          pop\n            /* \"#utility.yul\":874:1155   */\n          pop\n          pop\n          jump\t// out\n            /* \"#utility.yul\":1161:1290   */\n        tag_20:\n            /* \"#utility.yul\":1195:1201   */\n          0x00\n            /* \"#utility.yul\":1222:1242   */\n          tag_57\n          tag_12\n          jump\t// in\n        tag_57:\n            /* \"#utility.yul\":1212:1242   */\n          swap1\n          pop\n            /* \"#utility.yul\":1251:1284   */\n          tag_58\n            /* \"#utility.yul\":1279:1283   */\n          dup3\n            /* \"#utility.yul\":1271:1277   */\n          dup3\n            /* \"#utility.yul\":1251:1284   */\n          tag_19\n          jump\t// in\n        tag_58:\n            /* \"#utility.yul\":1161:1290   */\n          swap2\n          swap1\n          pop\n          jump\t// out\n            /* \"#utility.yul\":1296:1604   */\n        tag_21:\n            /* \"#utility.yul\":1358:1362   */\n          0x00\n            /* \"#utility.yul\":1448:1466   */\n          0xffffffffffffffff\n            /* \"#utility.yul\":1440:1446   */\n          dup3\n            /* \"#utility.yul\":1437:1467   */\n          gt\n            /* \"#utility.yul\":1434:1490   */\n          iszero\n          tag_60\n          jumpi\n            /* \"#utility.yul\":1470:1488   */\n          tag_61\n          tag_18\n          jump\t// in\n        tag_61:\n            /* \"#utility.yul\":1434:1490   */\n        tag_60:\n            /* \"#utility.yul\":1508:1537   */\n          tag_62\n            /* \"#utility.yul\":1530:1536   */\n          dup3\n            /* \"#utility.yul\":1508:1537   */\n          tag_17\n          jump\t// in\n        tag_62:\n            /* \"#utility.yul\":1500:1537   */\n          swap1\n          pop\n            /* \"#utility.yul\":1592:1596   */\n          0x20\n            /* \"#utility.yul\":1586:1590   */\n          dup2\n            /* \"#utility.yul\":1582:1597   */\n          add\n            /* \"#utility.yul\":1574:1597   */\n          swap1\n          pop\n            /* \"#utility.yul\":1296:1604   */\n          swap2\n          swap1\n          pop\n          jump\t// out\n            /* \"#utility.yul\":1610:1749   */\n        tag_22:\n            /* \"#utility.yul\":1699:1705   */\n          dup3\n            /* \"#utility.yul\":1694:1697   */\n          dup2\n            /* \"#utility.yul\":1689:1692   */\n          dup4\n            /* \"#utility.yul\":1683:1706   */\n          mcopy\n            /* \"#utility.yul\":1740:1741   */\n          0x00\n            /* \"#utility.yul\":1731:1737   */\n          dup4\n            /* \"#utility.yul\":1726:1729   */\n          dup4\n            /* \"#utility.yul\":1722:1738   */\n          add\n            /* \"#utility.yul\":1715:1742   */\n          mstore\n            /* \"#utility.yul\":1610:1749   */\n          pop\n          pop\n          pop\n          jump\t// out\n            /* \"#utility.yul\":1755:2189   */\n        tag_23:\n            /* \"#utility.yul\":1844:1849   */\n          0x00\n            /* \"#utility.yul\":1869:1935   */\n          tag_65\n            /* \"#utility.yul\":1885:1934   */\n          tag_66\n            /* \"#utility.yul\":1927:1933   */\n          dup5\n            /* \"#utility.yul\":1885:1934   */\n          tag_21\n          jump\t// in\n        tag_66:\n            /* \"#utility.yul\":1869:1935   */\n          tag_20\n          jump\t// in\n        tag_65:\n            /* \"#utility.yul\":1860:1935   */\n          swap1\n          pop\n            /* \"#utility.yul\":1958:1964   */\n          dup3\n            /* \"#utility.yul\":1951:1956   */\n          dup2\n            /* \"#utility.yul\":1944:1965   */\n          mstore\n            /* \"#utility.yul\":1996:2000   */\n          0x20\n            /* \"#utility.yul\":1989:1994   */\n          dup2\n            /* \"#utility.yul\":1985:2001   */\n          add\n            /* \"#utility.yul\":2034:2037   */\n          dup5\n            /* \"#utility.yul\":2025:2031   */\n          dup5\n            /* \"#utility.yul\":2020:2023   */\n          dup5\n            /* \"#utility.yul\":2016:2032   */\n          add\n            /* \"#utility.yul\":2013:2038   */\n          gt\n            /* \"#utility.yul\":2010:2122   */\n          iszero\n          tag_67\n          jumpi\n            /* \"#utility.yul\":2041:2120   */\n          tag_68\n          tag_16\n          jump\t// in\n        tag_68:\n            /* \"#utility.yul\":2010:2122   */\n        tag_67:\n            /* \"#utility.yul\":2131:2183   */\n          tag_69\n            /* \"#utility.yul\":2176:2182   */\n          dup5\n            /* \"#utility.yul\":2171:2174   */\n          dup3\n            /* \"#utility.yul\":2166:2169   */\n          dup6\n            /* \"#utility.yul\":2131:2183   */\n          tag_22\n          jump\t// in\n        tag_69:\n            /* \"#utility.yul\":1850:2189   */\n          pop\n            /* \"#utility.yul\":1755:2189   */\n          swap4\n          swap3\n          pop\n          pop\n          pop\n          jump\t// out\n            /* \"#utility.yul\":2209:2564   */\n        tag_24:\n            /* \"#utility.yul\":2276:2281   */\n          0x00\n            /* \"#utility.yul\":2325:2328   */\n          dup3\n            /* \"#utility.yul\":2318:2322   */\n          0x1f\n            /* \"#utility.yul\":2310:2316   */\n          dup4\n            /* \"#utility.yul\":2306:2323   */\n          add\n            /* \"#utility.yul\":2302:2329   */\n          slt\n            /* \"#utility.yul\":2292:2414   */\n          tag_71\n          jumpi\n            /* \"#utility.yul\":2333:2412   */\n          tag_72\n          tag_15\n          jump\t// in\n        tag_72:\n            /* \"#utility.yul\":2292:2414   */\n        tag_71:\n            /* \"#utility.yul\":2443:2449   */\n          dup2\n            /* \"#utility.yul\":2437:2450   */\n          mload\n            /* \"#utility.yul\":2468:2558   */\n          tag_73\n            /* \"#utility.yul\":2554:2557   */\n          dup5\n            /* \"#utility.yul\":2546:2552   */\n          dup3\n            /* \"#utility.yul\":2539:2543   */\n          0x20\n            /* \"#utility.yul\":2531:2537   */\n          dup7\n            /* \"#utility.yul\":2527:2544   */\n          add\n            /* \"#utility.yul\":2468:2558   */\n          tag_23\n          jump\t// in\n        tag_73:\n            /* \"#utility.yul\":2459:2558   */\n          swap2\n          pop\n            /* \"#utility.yul\":2282:2564   */\n          pop\n            /* \"#utility.yul\":2209:2564   */\n          swap3\n          swap2\n          pop\n          pop\n          jump\t// out\n            /* \"#utility.yul\":2570:3423   */\n        tag_3:\n            /* \"#utility.yul\":2669:2675   */\n          0x00\n            /* \"#utility.yul\":2677:2683   */\n          dup1\n            /* \"#utility.yul\":2726:2728   */\n          0x40\n            /* \"#utility.yul\":2714:2723   */\n          dup4\n            /* \"#utility.yul\":2705:2712   */\n          dup6\n            /* \"#utility.yul\":2701:2724   */\n          sub\n            /* \"#utility.yul\":2697:2729   */\n          slt\n            /* \"#utility.yul\":2694:2813   */\n          iszero\n          tag_75\n          jumpi\n            /* \"#utility.yul\":2732:2811   */\n          tag_76\n          tag_13\n          jump\t// in\n        tag_76:\n            /* \"#utility.yul\":2694:2813   */\n        tag_75:\n            /* \"#utility.yul\":2873:2874   */\n          0x00\n            /* \"#utility.yul\":2862:2871   */\n          dup4\n            /* \"#utility.yul\":2858:2875   */\n          add\n            /* \"#utility.yul\":2852:2876   */\n          mload\n            /* \"#utility.yul\":2903:2921   */\n          0xffffffffffffffff\n            /* \"#utility.yul\":2895:2901   */\n          dup2\n            /* \"#utility.yul\":2892:2922   */\n          gt\n            /* \"#utility.yul\":2889:3006   */\n          iszero\n          tag_77\n          jumpi\n            /* \"#utility.yul\":2925:3004   */\n          tag_78\n          tag_14\n          jump\t// in\n        tag_78:\n            /* \"#utility.yul\":2889:3006   */\n        tag_77:\n            /* \"#utility.yul\":3030:3104   */\n          tag_79\n            /* \"#utility.yul\":3096:3103   */\n          dup6\n            /* \"#utility.yul\":3087:3093   */\n          dup3\n            /* \"#utility.yul\":3076:3085   */\n          dup7\n            /* \"#utility.yul\":3072:3094   */\n          add\n            /* \"#utility.yul\":3030:3104   */\n          tag_24\n          jump\t// in\n        tag_79:\n            /* \"#utility.yul\":3020:3104   */\n          swap3\n          pop\n            /* \"#utility.yul\":2823:3114   */\n          pop\n            /* \"#utility.yul\":3174:3176   */\n          0x20\n            /* \"#utility.yul\":3163:3172   */\n          dup4\n            /* \"#utility.yul\":3159:3177   */\n          add\n            /* \"#utility.yul\":3153:3178   */\n          mload\n            /* \"#utility.yul\":3205:3223   */\n          0xffffffffffffffff\n            /* \"#utility.yul\":3197:3203   */\n          dup2\n            /* \"#utility.yul\":3194:3224   */\n          gt\n            /* \"#utility.yul\":3191:3308   */\n          iszero\n          tag_80\n          jumpi\n            /* \"#utility.yul\":3227:3306   */\n          tag_81\n          tag_14\n          jump\t// in\n        tag_81:\n            /* \"#utility.yul\":3191:3308   */\n        tag_80:\n            /* \"#utility.yul\":3332:3406   */\n          tag_82\n            /* \"#utility.yul\":3398:3405   */\n          dup6\n            /* \"#utility.yul\":3389:3395   */\n          dup3\n            /* \"#utility.yul\":3378:3387   */\n          dup7\n            /* \"#utility.yul\":3374:3396   */\n          add\n            /* \"#utility.yul\":3332:3406   */\n          tag_24\n          jump\t// in\n        tag_82:\n            /* \"#utility.yul\":3322:3406   */\n          swap2\n          pop\n            /* \"#utility.yul\":3124:3416   */\n          pop\n            /* \"#utility.yul\":2570:3423   */\n          swap3\n          pop\n          swap3\n          swap1\n          pop\n          jump\t// out\n            /* \"#utility.yul\":3429:3528   */\n        tag_25:\n            /* \"#utility.yul\":3481:3487   */\n          0x00\n            /* \"#utility.yul\":3515:3520   */\n          dup2\n            /* \"#utility.yul\":3509:3521   */\n          mload\n            /* \"#utility.yul\":3499:3521   */\n          swap1\n          pop\n            /* \"#utility.yul\":3429:3528   */\n          swap2\n          swap1\n          pop\n          jump\t// out\n            /* \"#utility.yul\":3534:3714   */\n        tag_26:\n            /* \"#utility.yul\":3582:3659   */\n          0x4e487b7100000000000000000000000000000000000000000000000000000000\n            /* \"#utility.yul\":3579:3580   */\n          0x00\n            /* \"#utility.yul\":3572:3660   */\n          mstore\n            /* \"#utility.yul\":3679:3683   */\n          0x22\n            /* \"#utility.yul\":3676:3677   */\n          0x04\n            /* \"#utility.yul\":3669:3684   */\n          mstore\n            /* \"#utility.yul\":3703:3707   */\n          0x24\n            /* \"#utility.yul\":3700:3701   */\n          0x00\n            /* \"#utility.yul\":3693:3708   */\n          revert\n            /* \"#utility.yul\":3720:4040   */\n        tag_27:\n            /* \"#utility.yul\":3764:3770   */\n          0x00\n            /* \"#utility.yul\":3801:3802   */\n          0x02\n            /* \"#utility.yul\":3795:3799   */\n          dup3\n            /* \"#utility.yul\":3791:3803   */\n          div\n            /* \"#utility.yul\":3781:3803   */\n          swap1\n          pop\n            /* \"#utility.yul\":3848:3849   */\n          0x01\n            /* \"#utility.yul\":3842:3846   */\n          dup3\n            /* \"#utility.yul\":3838:3850   */\n          and\n            /* \"#utility.yul\":3869:3887   */\n          dup1\n            /* \"#utility.yul\":3859:3940   */\n          tag_86\n          jumpi\n            /* \"#utility.yul\":3925:3929   */\n          0x7f\n            /* \"#utility.yul\":3917:3923   */\n          dup3\n            /* \"#utility.yul\":3913:3930   */\n          and\n            /* \"#utility.yul\":3903:3930   */\n          swap2\n          pop\n            /* \"#utility.yul\":3859:3940   */\n        tag_86:\n            /* \"#utility.yul\":3987:3989   */\n          0x20\n            /* \"#utility.yul\":3979:3985   */\n          dup3\n            /* \"#utility.yul\":3976:3990   */\n          lt\n            /* \"#utility.yul\":3956:3974   */\n          dup2\n            /* \"#utility.yul\":3953:3991   */\n          sub\n            /* \"#utility.yul\":3950:4034   */\n          tag_87\n          jumpi\n            /* \"#utility.yul\":4006:4024   */\n          tag_88\n          tag_26\n          jump\t// in\n        tag_88:\n            /* \"#utility.yul\":3950:4034   */\n        tag_87:\n            /* \"#utility.yul\":3771:4040   */\n          pop\n            /* \"#utility.yul\":3720:4040   */\n          swap2\n          swap1\n          pop\n          jump\t// out\n            /* \"#utility.yul\":4046:4187   */\n        tag_28:\n            /* \"#utility.yul\":4095:4099   */\n          0x00\n            /* \"#utility.yul\":4118:4121   */\n          dup2\n            /* \"#utility.yul\":4110:4121   */\n          swap1\n          pop\n            /* \"#utility.yul\":4141:4144   */\n          dup2\n            /* \"#utility.yul\":4138:4139   */\n          0x00\n            /* \"#utility.yul\":4131:4145   */\n          mstore\n            /* \"#utility.yul\":4175:4179   */\n          0x20\n            /* \"#utility.yul\":4172:4173   */\n          0x00\n            /* \"#utility.yul\":4162:4180   */\n          keccak256\n            /* \"#utility.yul\":4154:4180   */\n          swap1\n          pop\n            /* \"#utility.yul\":4046:4187   */\n          swap2\n          swap1\n          pop\n          jump\t// out\n            /* \"#utility.yul\":4193:4286   */\n        tag_29:\n            /* \"#utility.yul\":4230:4236   */\n          0x00\n            /* \"#utility.yul\":4277:4279   */\n          0x20\n            /* \"#utility.yul\":4272:4274   */\n          0x1f\n            /* \"#utility.yul\":4265:4270   */\n          dup4\n            /* \"#utility.yul\":4261:4275   */\n          add\n            /* \"#utility.yul\":4257:4280   */\n          div\n            /* \"#utility.yul\":4247:4280   */\n          swap1\n          pop\n            /* \"#utility.yul\":4193:4286   */\n          swap2\n          swap1\n          pop\n          jump\t// out\n            /* \"#utility.yul\":4292:4399   */\n        tag_30:\n            /* \"#utility.yul\":4336:4344   */\n          0x00\n            /* \"#utility.yul\":4386:4391   */\n          dup3\n            /* \"#utility.yul\":4380:4384   */\n          dup3\n            /* \"#utility.yul\":4376:4392   */\n          shl\n            /* \"#utility.yul\":4355:4392   */\n          swap1\n          pop\n            /* \"#utility.yul\":4292:4399   */\n          swap3\n          swap2\n          pop\n          pop\n          jump\t// out\n            /* \"#utility.yul\":4405:4798   */\n        tag_31:\n            /* \"#utility.yul\":4474:4480   */\n          0x00\n            /* \"#utility.yul\":4524:4525   */\n          0x08\n            /* \"#utility.yul\":4512:4522   */\n          dup4\n            /* \"#utility.yul\":4508:4526   */\n          mul\n            /* \"#utility.yul\":4547:4644   */\n          tag_93\n            /* \"#utility.yul\":4577:4643   */\n          0xffffffffffffffffffffffffffffffffffffffffffffffffffffffffffffffff\n            /* \"#utility.yul\":4566:4575   */\n          dup3\n            /* \"#utility.yul\":4547:4644   */\n          tag_30\n          jump\t// in\n        tag_93:\n            /* \"#utility.yul\":4665:4704   */\n          tag_94\n            /* \"#utility.yul\":4695:4703   */\n          dup7\n            /* \"#utility.yul\":4684:4693   */\n          dup4\n            /* \"#utility.yul\":4665:4704   */\n          tag_30\n          jump\t// in\n        tag_94:\n            /* \"#utility.yul\":4653:4704   */\n          swap6\n          pop\n            /* \"#utility.yul\":4737:4741   */\n          dup1\n            /* \"#utility.yul\":4733:4742   */\n          not\n            /* \"#utility.yul\":4726:4731   */\n          dup5\n            /* \"#utility.yul\":4722:4743   */\n          and\n            /* \"#utility.yul\":4713:4743   */\n          swap4\n          pop\n            /* \"#utility.yul\":4786:4790   */\n          dup1\n            /* \"#utility.yul\":4776:4784   */\n          dup7\n            /* \"#utility.yul\":4772:4791   */\n          and\n            /* \"#utility.yul\":4765:4770   */\n          dup5\n            /* \"#utility.yul\":4762:4792   */\n          or\n            /* \"#utility.yul\":4752:4792   */\n          swap3\n          pop\n            /* \"#utility.yul\":4481:4798   */\n          pop\n          pop\n            /* \"#utility.yul\":4405:4798   */\n          swap4\n          swap3\n          pop\n          pop\n          pop\n          jump\t// out\n            /* \"#utility.yul\":4804:4881   */\n        tag_32:\n            /* \"#utility.yul\":4841:4848   */\n          0x00\n            /* \"#utility.yul\":4870:4875   */\n          dup2\n            /* \"#utility.yul\":4859:4875   */\n          swap1\n          pop\n            /* \"#utility.yul\":4804:4881   */\n          swap2\n          swap1\n          pop\n          jump\t// out\n            /* \"#utility.yul\":4887:4947   */\n        tag_33:\n            /* \"#utility.yul\":4915:4918   */\n          0x00\n            /* \"#utility.yul\":4936:4941   */\n          dup2\n            /* \"#utility.yul\":4929:4941   */\n          swap1\n          pop\n            /* \"#utility.yul\":4887:4947   */\n          swap2\n          swap1\n          pop\n          jump\t// out\n            /* \"#utility.yul\":4953:5095   */\n        tag_34:\n            /* \"#utility.yul\":5003:5012   */\n          0x00\n            /* \"#utility.yul\":5036:5089   */\n          tag_98\n            /* \"#utility.yul\":5054:5088   */\n          tag_99\n            /* \"#utility.yul\":5063:5087   */\n          tag_100\n            /* \"#utility.yul\":5081:5086   */\n          dup5\n            /* \"#utility.yul\":5063:5087   */\n          tag_32\n          jump\t// in\n        tag_100:\n            /* \"#utility.yul\":5054:5088   */\n          tag_33\n          jump\t// in\n        tag_99:\n            /* \"#utility.yul\":5036:5089   */\n          tag_32\n          jump\t// in\n        tag_98:\n            /* \"#utility.yul\":5023:5089   */\n          swap1\n          pop\n            /* \"#utility.yul\":4953:5095   */\n          swap2\n          swap1\n          pop\n          jump\t// out\n            /* \"#utility.yul\":5101:5176   */\n        tag_35:\n            /* \"#utility.yul\":5144:5147   */\n          0x00\n            /* \"#utility.yul\":5165:5170   */\n          dup2\n            /* \"#utility.yul\":5158:5170   */\n          swap1\n          pop\n            /* \"#utility.yul\":5101:5176   */\n          swap2\n          swap1\n          pop\n          jump\t// out\n            /* \"#utility.yul\":5182:5451   */\n        tag_36:\n            /* \"#utility.yul\":5292:5331   */\n          tag_103\n            /* \"#utility.yul\":5323:5330   */\n          dup4\n            /* \"#utility.yul\":5292:5331   */\n          tag_34\n          jump\t// in\n        tag_103:\n            /* \"#utility.yul\":5353:5444   */\n          tag_104\n            /* \"#utility.yul\":5402:5443   */\n          tag_105\n            /* \"#utility.yul\":5426:5442   */\n          dup3\n            /* \"#utility.yul\":5402:5443   */\n          tag_35\n          jump\t// in\n        tag_105:\n            /* \"#utility.yul\":5394:5400   */\n          dup5\n            /* \"#utility.yul\":5387:5391   */\n          dup5\n            /* \"#utility.yul\":5381:5392   */\n          sload\n            /* \"#utility.yul\":5353:5444   */\n          tag_31\n          jump\t// in\n        tag_104:\n            /* \"#utility.yul\":5347:5351   */\n          dup3\n            /* \"#utility.yul\":5340:5445   */\n          sstore\n            /* \"#utility.yul\":5258:5451   */\n          pop\n            /* \"#utility.yul\":5182:5451   */\n          pop\n          pop\n          pop\n          jump\t// out\n            /* \"#utility.yul\":5457:5530   */\n        tag_37:\n            /* \"#utility.yul\":5502:5505   */\n          0x00\n            /* \"#utility.yul\":5457:5530   */\n          swap1\n          jump\t// out\n            /* \"#utility.yul\":5536:5725   */\n        tag_38:\n            /* \"#utility.yul\":5613:5645   */\n          tag_108\n          tag_37\n          jump\t// in\n        tag_108:\n            /* \"#utility.yul\":5654:5719   */\n          tag_109\n            /* \"#utility.yul\":5712:5718   */\n          dup2\n            /* \"#utility.yul\":5704:5710   */\n          dup5\n            /* \"#utility.yul\":5698:5702   */\n          dup5\n            /* \"#utility.yul\":5654:5719   */\n          tag_36\n          jump\t// in\n        tag_109:\n            /* \"#utility.yul\":5589:5725   */\n          pop\n            /* \"#utility.yul\":5536:5725   */\n          pop\n          pop\n          jump\t// out\n            /* \"#utility.yul\":5731:5917   */\n        tag_39:\n            /* \"#utility.yul\":5791:5911   */\n        tag_111:\n            /* \"#utility.yul\":5808:5811   */\n          dup2\n            /* \"#utility.yul\":5801:5806   */\n          dup2\n            /* \"#utility.yul\":5798:5812   */\n          lt\n            /* \"#utility.yul\":5791:5911   */\n          iszero\n          tag_113\n          jumpi\n            /* \"#utility.yul\":5862:5901   */\n          tag_114\n            /* \"#utility.yul\":5899:5900   */\n          0x00\n            /* \"#utility.yul\":5892:5897   */\n          dup3\n            /* \"#utility.yul\":5862:5901   */\n          tag_38\n          jump\t// in\n        tag_114:\n            /* \"#utility.yul\":5835:5836   */\n          0x01\n            /* \"#utility.yul\":5828:5833   */\n          dup2\n            /* \"#utility.yul\":5824:5837   */\n          add\n            /* \"#utility.yul\":5815:5837   */\n          swap1\n          pop\n            /* \"#utility.yul\":5791:5911   */\n          jump(tag_111)\n        tag_113:\n            /* \"#utility.yul\":5731:5917   */\n          pop\n          pop\n          jump\t// out\n            /* \"#utility.yul\":5923:6466   */\n        tag_40:\n            /* \"#utility.yul\":6024:6026   */\n          0x1f\n            /* \"#utility.yul\":6019:6022   */\n          dup3\n            /* \"#utility.yul\":6016:6027   */\n          gt\n            /* \"#utility.yul\":6013:6459   */\n          iszero\n          tag_116\n          jumpi\n            /* \"#utility.yul\":6058:6096   */\n          tag_117\n            /* \"#utility.yul\":6090:6095   */\n          dup2\n            /* \"#utility.yul\":6058:6096   */\n          tag_28\n          jump\t// in\n        tag_117:\n            /* \"#utility.yul\":6142:6171   */\n          tag_118\n            /* \"#utility.yul\":6160:6170   */\n          dup5\n            /* \"#utility.yul\":6142:6171   */\n          tag_29\n          jump\t// in\n        tag_118:\n            /* \"#utility.yul\":6132:6140   */\n          dup2\n            /* \"#utility.yul\":6128:6172   */\n          add\n            /* \"#utility.yul\":6325:6327   */\n          0x20\n            /* \"#utility.yul\":6313:6323   */\n          dup6\n            /* \"#utility.yul\":6310:6328   */\n          lt\n            /* \"#utility.yul\":6307:6356   */\n          iszero\n          tag_119\n          jumpi\n            /* \"#utility.yul\":6346:6354   */\n          dup2\n            /* \"#utility.yul\":6331:6354   */\n          swap1\n          pop\n            /* \"#utility.yul\":6307:6356   */\n        tag_119:\n            /* \"#utility.yul\":6369:6449   */\n          tag_120\n            /* \"#utility.yul\":6425:6447   */\n          tag_121\n            /* \"#utility.yul\":6443:6446   */\n          dup6\n            /* \"#utility.yul\":6425:6447   */\n          tag_29\n          jump\t// in\n        tag_121:\n            /* \"#utility.yul\":6415:6423   */\n          dup4\n            /* \"#utility.yul\":6411:6448   */\n          add\n            /* \"#utility.yul\":6398:6409   */\n          dup3\n            /* \"#utility.yul\":6369:6449   */\n          tag_39\n          jump\t// in\n        tag_120:\n            /* \"#utility.yul\":6028:6459   */\n          pop\n          pop\n            /* \"#utility.yul\":6013:6459   */\n        tag_116:\n            /* \"#utility.yul\":5923:6466   */\n          pop\n          pop\n          pop\n          jump\t// out\n            /* \"#utility.yul\":6472:6589   */\n        tag_41:\n            /* \"#utility.yul\":6526:6534   */\n          0x00\n            /* \"#utility.yul\":6576:6581   */\n          dup3\n            /* \"#utility.yul\":6570:6574   */\n          dup3\n            /* \"#utility.yul\":6566:6582   */\n          shr\n            /* \"#utility.yul\":6545:6582   */\n          swap1\n          pop\n            /* \"#utility.yul\":6472:6589   */\n          swap3\n          swap2\n          pop\n          pop\n          jump\t// out\n            /* \"#utility.yul\":6595:6764   */\n        tag_42:\n            /* \"#utility.yul\":6639:6645   */\n          0x00\n            /* \"#utility.yul\":6672:6723   */\n          tag_124\n            /* \"#utility.yul\":6720:6721   */\n          0x00\n            /* \"#utility.yul\":6716:6722   */\n          not\n            /* \"#utility.yul\":6708:6713   */\n          dup5\n            /* \"#utility.yul\":6705:6706   */\n          0x08\n            /* \"#utility.yul\":6701:6714   */\n          mul\n            /* \"#utility.yul\":6672:6723   */\n          tag_41\n          jump\t// in\n        tag_124:\n            /* \"#utility.yul\":6668:6724   */\n          not\n            /* \"#utility.yul\":6753:6757   */\n          dup1\n            /* \"#utility.yul\":6747:6751   */\n          dup4\n            /* \"#utility.yul\":6743:6758   */\n          and\n            /* \"#utility.yul\":6733:6758   */\n          swap2\n          pop\n            /* \"#utility.yul\":6646:6764   */\n          pop\n            /* \"#utility.yul\":6595:6764   */\n          swap3\n          swap2\n          pop\n          pop\n          jump\t// out\n            /* \"#utility.yul\":6769:7064   */\n        tag_43:\n            /* \"#utility.yul\":6845:6849   */\n          0x00\n            /* \"#utility.yul\":6991:7020   */\n          tag_126\n            /* \"#utility.yul\":7016:7019   */\n          dup4\n            /* \"#utility.yul\":7010:7014   */\n          dup4\n            /* \"#utility.yul\":6991:7020   */\n          tag_42\n          jump\t// in\n        tag_126:\n            /* \"#utility.yul\":6983:7020   */\n          swap2\n          pop\n            /* \"#utility.yul\":7053:7056   */\n          dup3\n            /* \"#utility.yul\":7050:7051   */\n          0x02\n            /* \"#utility.yul\":7046:7057   */\n          mul\n            /* \"#utility.yul\":7040:7044   */\n          dup3\n            /* \"#utility.yul\":7037:7058   */\n          or\n            /* \"#utility.yul\":7029:7058   */\n          swap1\n          pop\n            /* \"#utility.yul\":6769:7064   */\n          swap3\n          swap2\n          pop\n          pop\n          jump\t// out\n            /* \"#utility.yul\":7069:8464   */\n        tag_8:\n            /* \"#utility.yul\":7186:7223   */\n          tag_128\n            /* \"#utility.yul\":7219:7222   */\n          dup3\n            /* \"#utility.yul\":7186:7223   */\n          tag_25\n          jump\t// in\n        tag_128:\n            /* \"#utility.yul\":7288:7306   */\n          0xffffffffffffffff\n            /* \"#utility.yul\":7280:7286   */\n          dup2\n            /* \"#utility.yul\":7277:7307   */\n          gt\n            /* \"#utility.yul\":7274:7330   */\n          iszero\n          tag_129\n          jumpi\n            /* \"#utility.yul\":7310:7328   */\n          tag_130\n          tag_18\n          jump\t// in\n        tag_130:\n            /* \"#utility.yul\":7274:7330   */\n        tag_129:\n            /* \"#utility.yul\":7354:7392   */\n          tag_131\n            /* \"#utility.yul\":7386:7390   */\n          dup3\n            /* \"#utility.yul\":7380:7391   */\n          sload\n            /* \"#utility.yul\":7354:7392   */\n          tag_27\n          jump\t// in\n        tag_131:\n            /* \"#utility.yul\":7439:7506   */\n          tag_132\n            /* \"#utility.yul\":7499:7505   */\n          dup3\n            /* \"#utility.yul\":7491:7497   */\n          dup3\n            /* \"#utility.yul\":7485:7489   */\n          dup6\n            /* \"#utility.yul\":7439:7506   */\n          tag_40\n          jump\t// in\n        tag_132:\n            /* \"#utility.yul\":7533:7534   */\n          0x00\n            /* \"#utility.yul\":7557:7561   */\n          0x20\n            /* \"#utility.yul\":7544:7561   */\n          swap1\n          pop\n            /* \"#utility.yul\":7589:7591   */\n          0x1f\n            /* \"#utility.yul\":7581:7587   */\n          dup4\n            /* \"#utility.yul\":7578:7592   */\n          gt\n            /* \"#utility.yul\":7606:7607   */\n          0x01\n            /* \"#utility.yul\":7601:8219   */\n          dup2\n          eq\n          tag_134\n          jumpi\n            /* \"#utility.yul\":8263:8264   */\n          0x00\n            /* \"#utility.yul\":8280:8286   */\n          dup5\n            /* \"#utility.yul\":8277:8354   */\n          iszero\n          tag_135\n          jumpi\n            /* \"#utility.yul\":8329:8338   */\n          dup3\n            /* \"#utility.yul\":8324:8327   */\n          dup8\n            /* \"#utility.yul\":8320:8339   */\n          add\n            /* \"#utility.yul\":8314:8340   */\n          mload\n            /* \"#utility.yul\":8305:8340   */\n          swap1\n          pop\n            /* \"#utility.yul\":8277:8354   */\n        tag_135:\n            /* \"#utility.yul\":8380:8447   */\n          tag_136\n            /* \"#utility.yul\":8440:8446   */\n          dup6\n            /* \"#utility.yul\":8433:8438   */\n          dup3\n            /* \"#utility.yul\":8380:8447   */\n          tag_43\n          jump\t// in\n        tag_136:\n            /* \"#utility.yul\":8374:8378   */\n          dup7\n            /* \"#utility.yul\":8367:8448   */\n          sstore\n            /* \"#utility.yul\":8236:8458   */\n          pop\n            /* \"#utility.yul\":7571:8458   */\n          jump(tag_133)\n            /* \"#utility.yul\":7601:8219   */\n        tag_134:\n            /* \"#utility.yul\":7653:7657   */\n          0x1f\n            /* \"#utility.yul\":7649:7658   */\n          not\n            /* \"#utility.yul\":7641:7647   */\n          dup5\n            /* \"#utility.yul\":7637:7659   */\n          and\n            /* \"#utility.yul\":7687:7724   */\n          tag_137\n            /* \"#utility.yul\":7719:7723   */\n          dup7\n            /* \"#utility.yul\":7687:7724   */\n          tag_28\n          jump\t// in\n        tag_137:\n            /* \"#utility.yul\":7746:7747   */\n          0x00\n            /* \"#utility.yul\":7760:7968   */\n        tag_138:\n            /* \"#utility.yul\":7774:7781   */\n          dup3\n            /* \"#utility.yul\":7771:7772   */\n          dup2\n            /* \"#utility.yul\":7768:7782   */\n          lt\n            /* \"#utility.yul\":7760:7968   */\n          iszero\n          tag_140\n          jumpi\n            /* \"#utility.yul\":7853:7862   */\n          dup5\n            /* \"#utility.yul\":7848:7851   */\n          dup10\n            /* \"#utility.yul\":7844:7863   */\n          add\n            /* \"#utility.yul\":7838:7864   */\n          mload\n            /* \"#utility.yul\":7830:7836   */\n          dup3\n            /* \"#utility.yul\":7823:7865   */\n          sstore\n            /* \"#utility.yul\":7904:7905   */\n          0x01\n            /* \"#utility.yul\":7896:7902   */\n          dup3\n            /* \"#utility.yul\":7892:7906   */\n          add\n            /* \"#utility.yul\":7882:7906   */\n          swap2\n          pop\n            /* \"#utility.yul\":7951:7953   */\n          0x20\n            /* \"#utility.yul\":7940:7949   */\n          dup6\n            /* \"#utility.yul\":7936:7954   */\n          add\n            /* \"#utility.yul\":7923:7954   */\n          swap5\n          pop\n            /* \"#utility.yul\":7797:7801   */\n          0x20\n            /* \"#utility.yul\":7794:7795   */\n          dup2\n            /* \"#utility.yul\":7790:7802   */\n          add\n            /* \"#utility.yul\":7785:7802   */\n          swap1\n          pop\n            /* \"#utility.yul\":7760:7968   */\n          jump(tag_138)\n        tag_140:\n            /* \"#utility.yul\":7996:8002   */\n          dup7\n            /* \"#utility.yul\":7987:7994   */\n          dup4\n            /* \"#utility.yul\":7984:8003   */\n          lt\n            /* \"#utility.yul\":7981:8160   */\n          iszero\n          tag_141\n          jumpi\n            /* \"#utility.yul\":8054:8063   */\n          dup5\n            /* \"#utility.yul\":8049:8052   */\n          dup10\n            /* \"#utility.yul\":8045:8064   */\n          add\n            /* \"#utility.yul\":8039:8065   */\n          mload\n            /* \"#utility.yul\":8097:8145   */\n          tag_142\n            /* \"#utility.yul\":8139:8143   */\n          0x1f\n            /* \"#utility.yul\":8131:8137   */\n          dup10\n            /* \"#utility.yul\":8127:8144   */\n          and\n            /* \"#utility.yul\":8116:8125   */\n          dup3\n            /* \"#utility.yul\":8097:8145   */\n          tag_42\n          jump\t// in\n        tag_142:\n            /* \"#utility.yul\":8089:8095   */\n          dup4\n            /* \"#utility.yul\":8082:8146   */\n          sstore\n            /* \"#utility.yul\":8004:8160   */\n          pop\n            /* \"#utility.yul\":7981:8160   */\n        tag_141:\n            /* \"#utility.yul\":8206:8207   */\n          0x01\n            /* \"#utility.yul\":8202:8203   */\n          0x02\n            /* \"#utility.yul\":8194:8200   */\n          dup9\n            /* \"#utility.yul\":8190:8204   */\n          mul\n            /* \"#utility.yul\":8186:8208   */\n          add\n            /* \"#utility.yul\":8180:8184   */\n          dup9\n            /* \"#utility.yul\":8173:8209   */\n          sstore\n            /* \"#utility.yul\":7608:8219   */\n          pop\n          pop\n          pop\n            /* \"#utility.yul\":7571:8458   */\n        tag_133:\n          pop\n            /* \"#utility.yul\":7161:8464   */\n          pop\n          pop\n          pop\n            /* \"#utility.yul\":7069:8464   */\n          pop\n          pop\n          jump\t// out\n            /* \"contracts/CampaignToken.sol\":115:382  contract CampaignToken is ERC20 {... */\n        tag_11:\n          dataSize(sub_0)\n          dup1\n          dataOffset(sub_0)\n          0x00\n          codecopy\n          0x00\n          return\n        stop\n\n        sub_0: assembly {\n                /* \"contracts/CampaignToken.sol\":115:382  contract CampaignToken is ERC20 {... */\n              mstore(0x40, 0x80)\n              callvalue\n              dup1\n              iszero\n              tag_1\n              jumpi\n              0x00\n              dup1\n              revert\n            tag_1:\n              pop\n              jumpi(tag_2, lt(calldatasize, 0x04))\n              shr(0xe0, calldataload(0x00))\n              dup1\n              0x40c10f19\n              gt\n              tag_13\n              jumpi\n              dup1\n              0x40c10f19\n              eq\n              tag_8\n              jumpi\n              dup1\n              0x70a08231\n              eq\n              tag_9\n              jumpi\n              dup1\n              0x95d89b41\n              eq\n              tag_10\n              jumpi\n              dup1\n              0xa9059cbb\n              eq\n              tag_11\n              jumpi\n              dup1\n              0xdd62ed3e\n              eq\n              tag_12\n              jumpi\n              jump(tag_2)\n            tag_13:\n              dup1\n              0x06fdde03\n              eq\n              tag_3\n              jumpi\n              dup1\n              0x095ea7b3\n              eq\n              tag_4\n              jumpi\n              dup1\n              0x18160ddd\n              eq\n              tag_5\n              jumpi\n              dup1\n              0x23b872dd\n              eq\n              tag_6\n              jumpi\n              dup1\n              0x313ce567\n              eq\n              tag_7\n              jumpi\n            tag_2:\n              0x00\n              dup1\n              revert\n                /* \"@openzeppelin/contracts/token/ERC20/ERC20.sol\":2074:2163  function name() public view virtual returns (string memory) {... */\n            tag_3:\n              tag_14\n              tag_15\n              jump\t// in\n            tag_14:\n              mload(0x40)\n              tag_16\n              swap2\n              swap1\n              tag_17\n              jump\t// in\n            tag_16:\n              mload(0x40)\n              dup1\n              swap2\n              sub\n              swap1\n              return\n                /* \"@openzeppelin/contracts/token/ERC20/ERC20.sol\":4293:4479  function approve(address spender, uint256 value) public virtual returns (bool) {... */\n            tag_4:\n              tag_18\n              0x04\n              dup1\n              calldatasize\n              sub\n              dup2\n              add\n              swap1\n              tag_19\n              swap2\n              swap1\n              tag_20\n              jump\t// in\n            tag_19:\n              tag_21\n              jump\t// in\n            tag_18:\n              mload(0x40)\n              tag_22\n              swap2\n              swap1\n              tag_23\n              jump\t// in\n            tag_22:\n              mload(0x40)\n              dup1\n              swap2\n              sub\n              swap1\n              return\n                /* \"@openzeppelin/contracts/token/ERC20/ERC20.sol\":3144:3241  function totalSupply() public view virtual returns (uint256) {... */\n            tag_5:\n              tag_24\n              tag_25\n              jump\t// in\n            tag_24:\n              mload(0x40)\n              tag_26\n              swap2\n              swap1\n              tag_27\n              jump\t// in\n            tag_26:\n              mload(0x40)\n              dup1\n              swap2\n              sub\n              swap1\n              return\n                /* \"@openzeppelin/contracts/token/ERC20/ERC20.sol\":5039:5283  function transferFrom(address from, address to, uint256 value) public virtual returns (bool) {... */\n            tag_6:\n              tag_28\n              0x04\n              dup1\n              calldatasize\n              sub\n              dup2\n              add\n              swap1\n              tag_29\n              swap2\n              swap1\n              tag_30\n              jump\t// in\n            tag_29:\n              tag_31\n              jump\t// in\n            tag_28:\n              mload(0x40)\n              tag_32\n              swap2\n              swap1\n              tag_23\n              jump\t// in\n            tag_32:\n              mload(0x40)\n              dup1\n              swap2\n              sub\n              swap1\n              return\n                /* \"@openzeppelin/contracts/token/ERC20/ERC20.sol\":3002:3084  function decimals() public view virtual returns (uint8) {... */\n            tag_7:\n              tag_33\n              tag_34\n              jump\t// in\n            tag_33:\n              mload(0x40)\n              tag_35\n              swap2\n              swap1\n              tag_36\n              jump\t// in\n            tag_35:\n              mload(0x40)\n              dup1\n              swap2\n              sub\n              swap1\n              return\n                /* \"contracts/CampaignToken.sol\":295:380  function mint(address to, uint256 amount) external {... */\n            tag_8:\n              tag_37\n              0x04\n              dup1\n              calldatasize\n              sub\n              dup2\n              add\n              swap1\n              tag_38\n              swap2\n              swap1\n              tag_20\n              jump\t// in\n            tag_38:\n              tag_39\n              jump\t// in\n            tag_37:\n              stop\n                /* \"@openzeppelin/contracts/token/ERC20/ERC20.sol\":3299:3415  function balanceOf(address account) public view virtual returns (uint256) {... */\n            tag_9:\n              tag_40\n              0x04\n              dup1\n              calldatasize\n              sub\n              dup2\n              add\n              swap1\n              tag_41\n              swap2\n              swap1\n              tag_42\n              jump\t// in\n            tag_41:\n              tag_43\n              jump\t// in\n            tag_40:\n              mload(0x40)\n              tag_44\n              swap2\n              swap1\n              tag_27\n              jump\t// in\n            tag_44:\n              mload(0x40)\n              dup1\n              swap2\n              sub\n              swap1\n              return\n                /* \"@openzeppelin/contracts/token/ERC20/ERC20.sol\":2276:2369  function symbol() public view virtual returns (string memory) {... */\n            tag_10:\n              tag_45\n              tag_46\n              jump\t// in\n            tag_45:\n              mload(0x40)\n              tag_47\n              swap2\n              swap1\n              tag_17\n              jump\t// in\n            tag_47:\n              mload(0x40)\n              dup1\n              swap2\n              sub\n              swap1\n              return\n                /* \"@openzeppelin/contracts/token/ERC20/ERC20.sol\":3610:3788  function transfer(address to, uint256 value) public virtual returns (bool) {... */\n            tag_11:\n              tag_48\n              0x04\n              dup1\n              calldatasize\n              sub\n              dup2\n              add\n              swap1\n              tag_49\n              swap2\n              swap1\n              tag_20\n              jump\t// in\n            tag_49:\n              tag_50\n              jump\t// in\n            tag_48:\n              mload(0x40)\n              tag_51\n              swap2\n              swap1\n              tag_23\n              jump\t// in\n            tag_51:\n              mload(0x40)\n              dup1\n              swap2\n              sub\n              swap1\n              return\n                /* \"@openzeppelin/contracts/token/ERC20/ERC20.sol\":3846:3986  function allowance(address owner, address spender) public view virtual returns (uint256) {... */\n            tag_12:\n              tag_52\n              0x04\n              dup1\n              calldatasize\n              sub\n              dup2\n              add\n              swap1\n              tag_53\n              swap2\n              swap1\n              tag_54\n              jump\t// in\n            tag_53:\n              tag_55\n              jump\t// in\n            tag_52:\n              mload(0x40)\n              tag_56\n              swap2\n              swap1\n              tag_27\n              jump\t// in\n            tag_56:\n              mload(0x40)\n              dup1\n              swap2\n              sub\n              swap1\n              return\n                /* \"@openzeppelin/contracts/token/ERC20/ERC20.sol\":2074:2163  function name() public view virtual returns (string memory) {... */\n            tag_15:\n                /* \"@openzeppelin/contracts/token/ERC20/ERC20.sol\":2119:2132  string memory */\n              0x60\n                /* \"@openzeppelin/contracts/token/ERC20/ERC20.sol\":2151:2156  _name */\n              0x03\n                /* \"@openzeppelin/contracts/token/ERC20/ERC20.sol\":2144:2156  return _name */\n              dup1\n              sload\n              tag_58\n              swap1\n              tag_59\n              jump\t// in\n            tag_58:\n              dup1\n              0x1f\n              add\n              0x20\n              dup1\n              swap2\n              div\n              mul\n              0x20\n              add\n              mload(0x40)\n              swap1\n              dup2\n              add\n              0x40\n              mstore\n              dup1\n              swap3\n              swap2\n              swap1\n              dup2\n              dup2\n              mstore\n              0x20\n              add\n              dup3\n              dup1\n              sload\n              tag_60\n              swap1\n              tag_59\n              jump\t// in\n            tag_60:\n              dup1\n              iszero\n              tag_61\n              jumpi\n              dup1\n              0x1f\n              lt\n              tag_62\n              jumpi\n              0x0100\n              dup1\n              dup4\n              sload\n              div\n              mul\n              dup4\n              mstore\n              swap2\n              0x20\n              add\n              swap2\n              jump(tag_61)\n            tag_62:\n              dup3\n              add\n              swap2\n              swap1\n              0x00\n              mstore\n              keccak256(0x00, 0x20)\n              swap1\n            tag_63:\n              dup2\n              sload\n              dup2\n              mstore\n              swap1\n              0x01\n              add\n              swap1\n              0x20\n              add\n              dup1\n              dup4\n              gt\n              tag_63\n              jumpi\n              dup3\n              swap1\n              sub\n              0x1f\n              and\n              dup3\n              add\n              swap2\n            tag_61:\n              pop\n              pop\n              pop\n              pop\n              pop\n              swap1\n              pop\n                /* \"@openzeppelin/contracts/token/ERC20/ERC20.sol\":2074:2163  function name() public view virtual returns (string memory) {... */\n              swap1\n              jump\t// out\n                /* \"@openzeppelin/contracts/token/ERC20/ERC20.sol\":4293:4479  function approve(address spender, uint256 value) public virtual returns (bool) {... */\n            tag_21:\n                /* \"@openzeppelin/contracts/token/ERC20/ERC20.sol\":4366:4370  bool */\n              0x00\n                /* \"@openzeppelin/contracts/token/ERC20/ERC20.sol\":4382:4395  address owner */\n              dup1\n                /* \"@openzeppelin/contracts/token/ERC20/ERC20.sol\":4398:4410  _msgSender() */\n              tag_65\n                /* \"@openzeppelin/contracts/token/ERC20/ERC20.sol\":4398:4408  _msgSender */\n              tag_66\n                /* \"@openzeppelin/contracts/token/ERC20/ERC20.sol\":4398:4410  _msgSender() */\n              jump\t// in\n            tag_65:\n                /* \"@openzeppelin/contracts/token/ERC20/ERC20.sol\":4382:4410  address owner = _msgSender() */\n              swap1\n              pop\n                /* \"@openzeppelin/contracts/token/ERC20/ERC20.sol\":4420:4451  _approve(owner, spender, value) */\n              tag_67\n                /* \"@openzeppelin/contracts/token/ERC20/ERC20.sol\":4429:4434  owner */\n              dup2\n                /* \"@openzeppelin/contracts/token/ERC20/ERC20.sol\":4436:4443  spender */\n              dup6\n                /* \"@openzeppelin/contracts/token/ERC20/ERC20.sol\":4445:4450  value */\n              dup6\n                /* \"@openzeppelin/contracts/token/ERC20/ERC20.sol\":4420:4428  _approve */\n              tag_68\n                /* \"@openzeppelin/contracts/token/ERC20/ERC20.sol\":4420:4451  _approve(owner, spender, value) */\n              jump\t// in\n            tag_67:\n                /* \"@openzeppelin/contracts/token/ERC20/ERC20.sol\":4468:4472  true */\n              0x01\n                /* \"@openzeppelin/contracts/token/ERC20/ERC20.sol\":4461:4472  return true */\n              swap2\n              pop\n              pop\n                /* \"@openzeppelin/contracts/token/ERC20/ERC20.sol\":4293:4479  function approve(address spender, uint256 value) public virtual returns (bool) {... */\n              swap3\n              swap2\n              pop\n              pop\n              jump\t// out\n                /* \"@openzeppelin/contracts/token/ERC20/ERC20.sol\":3144:3241  function totalSupply() public view virtual returns (uint256) {... */\n            tag_25:\n                /* \"@openzeppelin/contracts/token/ERC20/ERC20.sol\":3196:3203  uint256 */\n              0x00\n                /* \"@openzeppelin/contracts/token/ERC20/ERC20.sol\":3222:3234  _totalSupply */\n              sload(0x02)\n                /* \"@openzeppelin/contracts/token/ERC20/ERC20.sol\":3215:3234  return _totalSupply */\n              swap1\n              pop\n                /* \"@openzeppelin/contracts/token/ERC20/ERC20.sol\":3144:3241  function totalSupply() public view virtual returns (uint256) {... */\n              swap1\n              jump\t// out\n                /* \"@openzeppelin/contracts/token/ERC20/ERC20.sol\":5039:5283  function transferFrom(address from, address to, uint256 value) public virtual returns (bool) {... */\n            tag_31:\n                /* \"@openzeppelin/contracts/token/ERC20/ERC20.sol\":5126:5130  bool */\n              0x00\n                /* \"@openzeppelin/contracts/token/ERC20/ERC20.sol\":5142:5157  address spender */\n              dup1\n                /* \"@openzeppelin/contracts/token/ERC20/ERC20.sol\":5160:5172  _msgSender() */\n              tag_71\n                /* \"@openzeppelin/contracts/token/ERC20/ERC20.sol\":5160:5170  _msgSender */\n              tag_66\n                /* \"@openzeppelin/contracts/token/ERC20/ERC20.sol\":5160:5172  _msgSender() */\n              jump\t// in\n            tag_71:\n                /* \"@openzeppelin/contracts/token/ERC20/ERC20.sol\":5142:5172  address spender = _msgSender() */\n              swap1\n              pop\n                /* \"@openzeppelin/contracts/token/ERC20/ERC20.sol\":5182:5219  _spendAllowance(from, spender, value) */\n              tag_72\n                /* \"@openzeppelin/contracts/token/ERC20/ERC20.sol\":5198:5202  from */\n              dup6\n                /* \"@openzeppelin/contracts/token/ERC20/ERC20.sol\":5204:5211  spender */\n              dup3\n                /* \"@openzeppelin/contracts/token/ERC20/ERC20.sol\":5213:5218  value */\n              dup6\n                /* \"@openzeppelin/contracts/token/ERC20/ERC20.sol\":5182:5197  _spendAllowance */\n              tag_73\n                /* \"@openzeppelin/contracts/token/ERC20/ERC20.sol\":5182:5219  _spendAllowance(from, spender, value) */\n              jump\t// in\n            tag_72:\n                /* \"@openzeppelin/contracts/token/ERC20/ERC20.sol\":5229:5255  _transfer(from, to, value) */\n              tag_74\n                /* \"@openzeppelin/contracts/token/ERC20/ERC20.sol\":5239:5243  from */\n              dup6\n                /* \"@openzeppelin/contracts/token/ERC20/ERC20.sol\":5245:5247  to */\n              dup6\n                /* \"@openzeppelin/contracts/token/ERC20/ERC20.sol\":5249:5254  value */\n              dup6\n                /* \"@openzeppelin/contracts/token/ERC20/ERC20.sol\":5229:5238  _transfer */\n              tag_75\n                /* \"@openzeppelin/contracts/token/ERC20/ERC20.sol\":5229:5255  _transfer(from, to, value) */\n              jump\t// in\n            tag_74:\n                /* \"@openzeppelin/contracts/token/ERC20/ERC20.sol\":5272:5276  true */\n              0x01\n                /* \"@openzeppelin/contracts/token/ERC20/ERC20.sol\":5265:5276  return true */\n              swap2\n              pop\n              pop\n                /* \"@openzeppelin/contracts/token/ERC20/ERC20.sol\":5039:5283  function transferFrom(address from, address to, uint256 value) public virtual returns (bool) {... */\n              swap4\n              swap3\n              pop\n              pop\n              pop\n              jump\t// out\n                /* \"@openzeppelin/contracts/token/ERC20/ERC20.sol\":3002:3084  function decimals() public view virtual returns (uint8) {... */\n            tag_34:\n                /* \"@openzeppelin/contracts/token/ERC20/ERC20.sol\":3051:3056  uint8 */\n              0x00\n                /* \"@openzeppelin/contracts/token/ERC20/ERC20.sol\":3075:3077  18 */\n              0x12\n                /* \"@openzeppelin/contracts/token/ERC20/ERC20.sol\":3068:3077  return 18 */\n              swap1\n              pop\n                /* \"@openzeppelin/contracts/token/ERC20/ERC20.sol\":3002:3084  function decimals() public view virtual returns (uint8) {... */\n              swap1\n              jump\t// out\n                /* \"contracts/CampaignToken.sol\":295:380  function mint(address to, uint256 amount) external {... */\n            tag_39:\n                /* \"contracts/CampaignToken.sol\":356:373  _mint(to, amount) */\n              tag_78\n                /* \"contracts/CampaignToken.sol\":362:364  to */\n              dup3\n                /* \"contracts/CampaignToken.sol\":366:372  amount */\n              dup3\n                /* \"contracts/CampaignToken.sol\":356:361  _mint */\n              tag_79\n                /* \"contracts/CampaignToken.sol\":356:373  _mint(to, amount) */\n              jump\t// in\n            tag_78:\n                /* \"contracts/CampaignToken.sol\":295:380  function mint(address to, uint256 amount) external {... */\n              pop\n              pop\n              jump\t// out\n                /* \"@openzeppelin/contracts/token/ERC20/ERC20.sol\":3299:3415  function balanceOf(address account) public view virtual returns (uint256) {... */\n            tag_43:\n                /* \"@openzeppelin/contracts/token/ERC20/ERC20.sol\":3364:3371  uint256 */\n              0x00\n                /* \"@openzeppelin/contracts/token/ERC20/ERC20.sol\":3390:3399  _balances */\n              dup1\n                /* \"@openzeppelin/contracts/token/ERC20/ERC20.sol\":3390:3408  _balances[account] */\n              0x00\n                /* \"@openzeppelin/contracts/token/ERC20/ERC20.sol\":3400:3407  account */\n              dup4\n                /* \"@openzeppelin/contracts/token/ERC20/ERC20.sol\":3390:3408  _balances[account] */\n              0xffffffffffffffffffffffffffffffffffffffff\n              and\n              0xffffffffffffffffffffffffffffffffffffffff\n              and\n              dup2\n              mstore\n              0x20\n              add\n              swap1\n              dup2\n              mstore\n              0x20\n              add\n              0x00\n              keccak256\n              sload\n                /* \"@openzeppelin/contracts/token/ERC20/ERC20.sol\":3383:3408  return _balances[account] */\n              swap1\n              pop\n                /* \"@openzeppelin/contracts/token/ERC20/ERC20.sol\":3299:3415  function balanceOf(address account) public view virtual returns (uint256) {... */\n              swap2\n              swap1\n              pop\n              jump\t// out\n                /* \"@openzeppelin/contracts/token/ERC20/ERC20.sol\":2276:2369  function symbol() public view virtual returns (string memory) {... */\n            tag_46:\n                /* \"@openzeppelin/contracts/token/ERC20/ERC20.sol\":2323:2336  string memory */\n              0x60\n                /* \"@openzeppelin/contracts/token/ERC20/ERC20.sol\":2355:2362  _symbol */\n              0x04\n                /* \"@openzeppelin/contracts/token/ERC20/ERC20.sol\":2348:2362  return _symbol */\n              dup1\n              sload\n              tag_82\n              swap1\n              tag_59\n              jump\t// in\n            tag_82:\n              dup1\n              0x1f\n              add\n              0x20\n              dup1\n              swap2\n              div\n              mul\n              0x20\n              add\n              mload(0x40)\n              swap1\n              dup2\n              add\n              0x40\n              mstore\n              dup1\n              swap3\n              swap2\n              swap1\n              dup2\n              dup2\n              mstore\n              0x20\n              add\n              dup3\n              dup1\n              sload\n              tag_83\n              swap1\n              tag_59\n              jump\t// in\n            tag_83:\n              dup1\n              iszero\n              tag_84\n              jumpi\n              dup1\n              0x1f\n              lt\n              tag_85\n              jumpi\n              0x0100\n              dup1\n              dup4\n              sload\n              div\n              mul\n              dup4\n              mstore\n              swap2\n              0x20\n              add\n              swap2\n              jump(tag_84)\n            tag_85:\n              dup3\n              add\n              swap2\n              swap1\n              0x00\n              mstore\n              keccak256(0x00, 0x20)\n              swap1\n            tag_86:\n              dup2\n              sload\n              dup2\n              mstore\n              swap1\n              0x01\n              add\n              swap1\n              0x20\n              add\n              dup1\n              dup4\n              gt\n              tag_86\n              jumpi\n              dup3\n              swap1\n              sub\n              0x1f\n              and\n              dup3\n              add\n              swap2\n            tag_84:\n              pop\n              pop\n              pop\n              pop\n              pop\n              swap1\n              pop\n                /* \"@openzeppelin/contracts/token/ERC20/ERC20.sol\":2276:2369  function symbol() public view virtual returns (string memory) {... */\n              swap1\n              jump\t// out\n                /* \"@openzeppelin/contracts/token/ERC20/ERC20.sol\":3610:3788  function transfer(address to, uint256 value) public virtual returns (bool) {... */\n            tag_50:\n                /* \"@openzeppelin/contracts/token/ERC20/ERC20.sol\":3679:3683  bool */\n              0x00\n                /* \"@openzeppelin/contracts/token/ERC20/ERC20.sol\":3695:3708  address owner */\n              dup1\n                /* \"@openzeppelin/contracts/token/ERC20/ERC20.sol\":3711:3723  _msgSender() */\n              tag_88\n                /* \"@openzeppelin/contracts/token/ERC20/ERC20.sol\":3711:3721  _msgSender */\n              tag_66\n                /* \"@openzeppelin/contracts/token/ERC20/ERC20.sol\":3711:3723  _msgSender() */\n              jump\t// in\n            tag_88:\n                /* \"@openzeppelin/contracts/token/ERC20/ERC20.sol\":3695:3723  address owner = _msgSender() */\n              swap1\n              pop\n                /* \"@openzeppelin/contracts/token/ERC20/ERC20.sol\":3733:3760  _transfer(owner, to, value) */\n              tag_89\n                /* \"@openzeppelin/contracts/token/ERC20/ERC20.sol\":3743:3748  owner */\n              dup2\n                /* \"@openzeppelin/contracts/token/ERC20/ERC20.sol\":3750:3752  to */\n              dup6\n                /* \"@openzeppelin/contracts/token/ERC20/ERC20.sol\":3754:3759  value */\n              dup6\n                /* \"@openzeppelin/contracts/token/ERC20/ERC20.sol\":3733:3742  _transfer */\n              tag_75\n                /* \"@openzeppelin/contracts/token/ERC20/ERC20.sol\":3733:3760  _transfer(owner, to, value) */\n              jump\t// in\n            tag_89:\n                /* \"@openzeppelin/contracts/token/ERC20/ERC20.sol\":3777:3781  true */\n              0x01\n                /* \"@openzeppelin/contracts/token/ERC20/ERC20.sol\":3770:3781  return true */\n              swap2\n              pop\n              pop\n                /* \"@openzeppelin/contracts/token/ERC20/ERC20.sol\":3610:3788  function transfer(address to, uint256 value) public virtual returns (bool) {... */\n              swap3\n              swap2\n              pop\n              pop\n              jump\t// out\n                /* \"@openzeppelin/contracts/token/ERC20/ERC20.sol\":3846:3986  function allowance(address owner, address spender) public view virtual returns (uint256) {... */\n            tag_55:\n                /* \"@openzeppelin/contracts/token/ERC20/ERC20.sol\":3926:3933  uint256 */\n              0x00\n                /* \"@openzeppelin/contracts/token/ERC20/ERC20.sol\":3952:3963  _allowances */\n              0x01\n                /* \"@openzeppelin/contracts/token/ERC20/ERC20.sol\":3952:3970  _allowances[owner] */\n              0x00\n                /* \"@openzeppelin/contracts/token/ERC20/ERC20.sol\":3964:3969  owner */\n              dup5\n                /* \"@openzeppelin/contracts/token/ERC20/ERC20.sol\":3952:3970  _allowances[owner] */\n              0xffffffffffffffffffffffffffffffffffffffff\n              and\n              0xffffffffffffffffffffffffffffffffffffffff\n              and\n              dup2\n              mstore\n              0x20\n              add\n              swap1\n              dup2\n              mstore\n              0x20\n              add\n              0x00\n              keccak256\n                /* \"@openzeppelin/contracts/token/ERC20/ERC20.sol\":3952:3979  _allowances[owner][spender] */\n              0x00\n                /* \"@openzeppelin/contracts/token/ERC20/ERC20.sol\":3971:3978  spender */\n              dup4\n                /* \"@openzeppelin/contracts/token/ERC20/ERC20.sol\":3952:3979  _allowances[owner][spender] */\n              0xffffffffffffffffffffffffffffffffffffffff\n              and\n              0xffffffffffffffffffffffffffffffffffffffff\n              and\n              dup2\n              mstore\n              0x20\n              add\n              swap1\n              dup2\n              mstore\n              0x20\n              add\n              0x00\n              keccak256\n              sload\n                /* \"@openzeppelin/contracts/token/ERC20/ERC20.sol\":3945:3979  return _allowances[owner][spender] */\n              swap1\n              pop\n                /* \"@openzeppelin/contracts/token/ERC20/ERC20.sol\":3846:3986  function allowance(address owner, address spender) public view virtual returns (uint256) {... */\n              swap3\n              swap2\n              pop\n              pop\n              jump\t// out\n                /* \"@openzeppelin/contracts/utils/Context.sol\":656:752  function _msgSender() internal view virtual returns (address) {... */\n            tag_66:\n                /* \"@openzeppelin/contracts/utils/Context.sol\":709:716  address */\n              0x00\n                /* \"@openzeppelin/contracts/utils/Context.sol\":735:745  msg.sender */\n              caller\n                /* \"@openzeppelin/contracts/utils/Context.sol\":728:745  return msg.sender */\n              swap1\n              pop\n                /* \"@openzeppelin/contracts/utils/Context.sol\":656:752  function _msgSender() internal view virtual returns (address) {... */\n              swap1\n              jump\t// out\n                /* \"@openzeppelin/contracts/token/ERC20/ERC20.sol\":8989:9117  function _approve(address owner, address spender, uint256 value) internal {... */\n            tag_68:\n                /* \"@openzeppelin/contracts/token/ERC20/ERC20.sol\":9073:9110  _approve(owner, spender, value, true) */\n              tag_93\n                /* \"@openzeppelin/contracts/token/ERC20/ERC20.sol\":9082:9087  owner */\n              dup4\n                /* \"@openzeppelin/contracts/token/ERC20/ERC20.sol\":9089:9096  spender */\n              dup4\n                /* \"@openzeppelin/contracts/token/ERC20/ERC20.sol\":9098:9103  value */\n              dup4\n                /* \"@openzeppelin/contracts/token/ERC20/ERC20.sol\":9105:9109  true */\n              0x01\n                /* \"@openzeppelin/contracts/token/ERC20/ERC20.sol\":9073:9081  _approve */\n              tag_94\n                /* \"@openzeppelin/contracts/token/ERC20/ERC20.sol\":9073:9110  _approve(owner, spender, value, true) */\n              jump\t// in\n            tag_93:\n                /* \"@openzeppelin/contracts/token/ERC20/ERC20.sol\":8989:9117  function _approve(address owner, address spender, uint256 value) internal {... */\n              pop\n              pop\n              pop\n              jump\t// out\n                /* \"@openzeppelin/contracts/token/ERC20/ERC20.sol\":10663:11140  function _spendAllowance(address owner, address spender, uint256 value) internal virtual {... */\n            tag_73:\n                /* \"@openzeppelin/contracts/token/ERC20/ERC20.sol\":10762:10786  uint256 currentAllowance */\n              0x00\n                /* \"@openzeppelin/contracts/token/ERC20/ERC20.sol\":10789:10814  allowance(owner, spender) */\n              tag_96\n                /* \"@openzeppelin/contracts/token/ERC20/ERC20.sol\":10799:10804  owner */\n              dup5\n                /* \"@openzeppelin/contracts/token/ERC20/ERC20.sol\":10806:10813  spender */\n              dup5\n                /* \"@openzeppelin/contracts/token/ERC20/ERC20.sol\":10789:10798  allowance */\n              tag_55\n                /* \"@openzeppelin/contracts/token/ERC20/ERC20.sol\":10789:10814  allowance(owner, spender) */\n              jump\t// in\n            tag_96:\n                /* \"@openzeppelin/contracts/token/ERC20/ERC20.sol\":10762:10814  uint256 currentAllowance = allowance(owner, spender) */\n              swap1\n              pop\n                /* \"@openzeppelin/contracts/token/ERC20/ERC20.sol\":10848:10865  type(uint256).max */\n              0xffffffffffffffffffffffffffffffffffffffffffffffffffffffffffffffff\n                /* \"@openzeppelin/contracts/token/ERC20/ERC20.sol\":10828:10844  currentAllowance */\n              dup2\n                /* \"@openzeppelin/contracts/token/ERC20/ERC20.sol\":10828:10865  currentAllowance != type(uint256).max */\n              eq\n                /* \"@openzeppelin/contracts/token/ERC20/ERC20.sol\":10824:11134  if (currentAllowance != type(uint256).max) {... */\n              tag_97\n              jumpi\n                /* \"@openzeppelin/contracts/token/ERC20/ERC20.sol\":10904:10909  value */\n              dup2\n                /* \"@openzeppelin/contracts/token/ERC20/ERC20.sol\":10885:10901  currentAllowance */\n              dup2\n                /* \"@openzeppelin/contracts/token/ERC20/ERC20.sol\":10885:10909  currentAllowance < value */\n              lt\n                /* \"@openzeppelin/contracts/token/ERC20/ERC20.sol\":10881:11011  if (currentAllowance < value) {... */\n              iszero\n              tag_98\n              jumpi\n                /* \"@openzeppelin/contracts/token/ERC20/ERC20.sol\":10963:10970  spender */\n              dup3\n                /* \"@openzeppelin/contracts/token/ERC20/ERC20.sol\":10972:10988  currentAllowance */\n              dup2\n                /* \"@openzeppelin/contracts/token/ERC20/ERC20.sol\":10990:10995  value */\n              dup4\n                /* \"@openzeppelin/contracts/token/ERC20/ERC20.sol\":10936:10996  ERC20InsufficientAllowance(spender, currentAllowance, value) */\n              mload(0x40)\n              0xfb8f41b200000000000000000000000000000000000000000000000000000000\n              dup2\n              mstore\n              0x04\n              add\n              tag_99\n              swap4\n              swap3\n              swap2\n              swap1\n              tag_100\n              jump\t// in\n            tag_99:\n              mload(0x40)\n              dup1\n              swap2\n              sub\n              swap1\n              revert\n                /* \"@openzeppelin/contracts/token/ERC20/ERC20.sol\":10881:11011  if (currentAllowance < value) {... */\n            tag_98:\n                /* \"@openzeppelin/contracts/token/ERC20/ERC20.sol\":11052:11109  _approve(owner, spender, currentAllowance - value, false) */\n              tag_101\n                /* \"@openzeppelin/contracts/token/ERC20/ERC20.sol\":11061:11066  owner */\n              dup5\n                /* \"@openzeppelin/contracts/token/ERC20/ERC20.sol\":11068:11075  spender */\n              dup5\n                /* \"@openzeppelin/contracts/token/ERC20/ERC20.sol\":11096:11101  value */\n              dup5\n                /* \"@openzeppelin/contracts/token/ERC20/ERC20.sol\":11077:11093  currentAllowance */\n              dup5\n                /* \"@openzeppelin/contracts/token/ERC20/ERC20.sol\":11077:11101  currentAllowance - value */\n              sub\n                /* \"@openzeppelin/contracts/token/ERC20/ERC20.sol\":11103:11108  false */\n              0x00\n                /* \"@openzeppelin/contracts/token/ERC20/ERC20.sol\":11052:11060  _approve */\n              tag_94\n                /* \"@openzeppelin/contracts/token/ERC20/ERC20.sol\":11052:11109  _approve(owner, spender, currentAllowance - value, false) */\n              jump\t// in\n            tag_101:\n                /* \"@openzeppelin/contracts/token/ERC20/ERC20.sol\":10824:11134  if (currentAllowance != type(uint256).max) {... */\n            tag_97:\n                /* \"@openzeppelin/contracts/token/ERC20/ERC20.sol\":10752:11140  {... */\n              pop\n                /* \"@openzeppelin/contracts/token/ERC20/ERC20.sol\":10663:11140  function _spendAllowance(address owner, address spender, uint256 value) internal virtual {... */\n              pop\n              pop\n              pop\n              jump\t// out\n                /* \"@openzeppelin/contracts/token/ERC20/ERC20.sol\":5656:5956  function _transfer(address from, address to, uint256 value) internal {... */\n            tag_75:\n                /* \"@openzeppelin/contracts/token/ERC20/ERC20.sol\":5755:5756  0 */\n              0x00\n                /* \"@openzeppelin/contracts/token/ERC20/ERC20.sol\":5739:5757  from == address(0) */\n              0xffffffffffffffffffffffffffffffffffffffff\n              and\n                /* \"@openzeppelin/contracts/token/ERC20/ERC20.sol\":5739:5743  from */\n              dup4\n                /* \"@openzeppelin/contracts/token/ERC20/ERC20.sol\":5739:5757  from == address(0) */\n              0xffffffffffffffffffffffffffffffffffffffff\n              and\n              sub\n                /* \"@openzeppelin/contracts/token/ERC20/ERC20.sol\":5735:5821  if (from == address(0)) {... */\n              tag_103\n              jumpi\n                /* \"@openzeppelin/contracts/token/ERC20/ERC20.sol\":5807:5808  0 */\n              0x00\n                /* \"@openzeppelin/contracts/token/ERC20/ERC20.sol\":5780:5810  ERC20InvalidSender(address(0)) */\n              mload(0x40)\n              0x96c6fd1e00000000000000000000000000000000000000000000000000000000\n              dup2\n              mstore\n              0x04\n              add\n              tag_104\n              swap2\n              swap1\n              tag_105\n              jump\t// in\n            tag_104:\n              mload(0x40)\n              dup1\n              swap2\n              sub\n              swap1\n              revert\n                /* \"@openzeppelin/contracts/token/ERC20/ERC20.sol\":5735:5821  if (from == address(0)) {... */\n            tag_103:\n                /* \"@openzeppelin/contracts/token/ERC20/ERC20.sol\":5848:5849  0 */\n              0x00\n                /* \"@openzeppelin/contracts/token/ERC20/ERC20.sol\":5834:5850  to == address(0) */\n              0xffffffffffffffffffffffffffffffffffffffff\n              and\n                /* \"@openzeppelin/contracts/token/ERC20/ERC20.sol\":5834:5836  to */\n              dup3\n                /* \"@openzeppelin/contracts/token/ERC20/ERC20.sol\":5834:5850  to == address(0) */\n              0xffffffffffffffffffffffffffffffffffffffff\n              and\n              sub\n                /* \"@openzeppelin/contracts/token/ERC20/ERC20.sol\":5830:5916  if (to == address(0)) {... */\n              tag_106\n              jumpi\n                /* \"@openzeppelin/contracts/token/ERC20/ERC20.sol\":5902:5903  0 */\n              0x00\n                /* \"@openzeppelin/contracts/token/ERC20/ERC20.sol\":5873:5905  ERC20InvalidReceiver(address(0)) */\n              mload(0x40)\n              0xec442f0500000000000000000000000000000000000000000000000000000000\n              dup2\n              mstore\n              0x04\n              add\n              tag_107\n              swap2\n              swap1\n              tag_105\n              jump\t// in\n            tag_107:\n              mload(0x40)\n              dup1\n              swap2\n              sub\n              swap1\n              revert\n                /* \"@openzeppelin/contracts/token/ERC20/ERC20.sol\":5830:5916  if (to == address(0)) {... */\n            tag_106:\n                /* \"@openzeppelin/contracts/token/ERC20/ERC20.sol\":5925:5949  _update(from, to, value) */\n              tag_108\n                /* \"@openzeppelin/contracts/token/ERC20/ERC20.sol\":5933:5937  from */\n              dup4\n                /* \"@openzeppelin/contracts/token/ERC20/ERC20.sol\":5939:5941  to */\n              dup4\n                /* \"@openzeppelin/contracts/token/ERC20/ERC20.sol\":5943:5948  value */\n              dup4\n                /* \"@openzeppelin/contracts/token/ERC20/ERC20.sol\":5925:5932  _update */\n              tag_109\n                /* \"@openzeppelin/contracts/token/ERC20/ERC20.sol\":5925:5949  _update(from, to, value) */\n              jump\t// in\n            tag_108:\n                /* \"@openzeppelin/contracts/token/ERC20/ERC20.sol\":5656:5956  function _transfer(address from, address to, uint256 value) internal {... */\n              pop\n              pop\n              pop\n              jump\t// out\n                /* \"@openzeppelin/contracts/token/ERC20/ERC20.sol\":7721:7929  function _mint(address account, uint256 value) internal {... */\n            tag_79:\n                /* \"@openzeppelin/contracts/token/ERC20/ERC20.sol\":7810:7811  0 */\n              0x00\n                /* \"@openzeppelin/contracts/token/ERC20/ERC20.sol\":7791:7812  account == address(0) */\n              0xffffffffffffffffffffffffffffffffffffffff\n              and\n                /* \"@openzeppelin/contracts/token/ERC20/ERC20.sol\":7791:7798  account */\n              dup3\n                /* \"@openzeppelin/contracts/token/ERC20/ERC20.sol\":7791:7812  account == address(0) */\n              0xffffffffffffffffffffffffffffffffffffffff\n              and\n              sub\n                /* \"@openzeppelin/contracts/token/ERC20/ERC20.sol\":7787:7878  if (account == address(0)) {... */\n              tag_111\n              jumpi\n                /* \"@openzeppelin/contracts/token/ERC20/ERC20.sol\":7864:7865  0 */\n              0x00\n                /* \"@openzeppelin/contracts/token/ERC20/ERC20.sol\":7835:7867  ERC20InvalidReceiver(address(0)) */\n              mload(0x40)\n              0xec442f0500000000000000000000000000000000000000000000000000000000\n              dup2\n              mstore\n              0x04\n              add\n              tag_112\n              swap2\n              swap1\n              tag_105\n              jump\t// in\n            tag_112:\n              mload(0x40)\n              dup1\n              swap2\n              sub\n              swap1\n              revert\n                /* \"@openzeppelin/contracts/token/ERC20/ERC20.sol\":7787:7878  if (account == address(0)) {... */\n            tag_111:\n                /* \"@openzeppelin/contracts/token/ERC20/ERC20.sol\":7887:7922  _update(address(0), account, value) */\n              tag_113\n                /* \"@openzeppelin/contracts/token/ERC20/ERC20.sol\":7903:7904  0 */\n              0x00\n                /* \"@openzeppelin/contracts/token/ERC20/ERC20.sol\":7907:7914  account */\n              dup4\n                /* \"@openzeppelin/contracts/token/ERC20/ERC20.sol\":7916:7921  value */\n              dup4\n                /* \"@openzeppelin/contracts/token/ERC20/ERC20.sol\":7887:7894  _update */\n              tag_109\n                /* \"@openzeppelin/contracts/token/ERC20/ERC20.sol\":7887:7922  _update(address(0), account, value) */\n              jump\t// in\n            tag_113:\n                /* \"@openzeppelin/contracts/token/ERC20/ERC20.sol\":7721:7929  function _mint(address account, uint256 value) internal {... */\n              pop\n              pop\n              jump\t// out\n                /* \"@openzeppelin/contracts/token/ERC20/ERC20.sol\":9949:10381  function _approve(address owner, address spender, uint256 value, bool emitEvent) internal virtual {... */\n            tag_94:\n                /* \"@openzeppelin/contracts/token/ERC20/ERC20.sol\":10078:10079  0 */\n              0x00\n                /* \"@openzeppelin/contracts/token/ERC20/ERC20.sol\":10061:10080  owner == address(0) */\n              0xffffffffffffffffffffffffffffffffffffffff\n              and\n                /* \"@openzeppelin/contracts/token/ERC20/ERC20.sol\":10061:10066  owner */\n              dup5\n                /* \"@openzeppelin/contracts/token/ERC20/ERC20.sol\":10061:10080  owner == address(0) */\n              0xffffffffffffffffffffffffffffffffffffffff\n              and\n              sub\n                /* \"@openzeppelin/contracts/token/ERC20/ERC20.sol\":10057:10146  if (owner == address(0)) {... */\n              tag_115\n              jumpi\n                /* \"@openzeppelin/contracts/token/ERC20/ERC20.sol\":10132:10133  0 */\n              0x00\n                /* \"@openzeppelin/contracts/token/ERC20/ERC20.sol\":10103:10135  ERC20InvalidApprover(address(0)) */\n              mload(0x40)\n              0xe602df0500000000000000000000000000000000000000000000000000000000\n              dup2\n              mstore\n              0x04\n              add\n              tag_116\n              swap2\n              swap1\n              tag_105\n              jump\t// in\n            tag_116:\n              mload(0x40)\n              dup1\n              swap2\n              sub\n              swap1\n              revert\n                /* \"@openzeppelin/contracts/token/ERC20/ERC20.sol\":10057:10146  if (owner == address(0)) {... */\n            tag_115:\n                /* \"@openzeppelin/contracts/token/ERC20/ERC20.sol\":10178:10179  0 */\n              0x00\n                /* \"@openzeppelin/contracts/token/ERC20/ERC20.sol\":10159:10180  spender == address(0) */\n              0xffffffffffffffffffffffffffffffffffffffff\n              and\n                /* \"@openzeppelin/contracts/token/ERC20/ERC20.sol\":10159:10166  spender */\n              dup4\n                /* \"@openzeppelin/contracts/token/ERC20/ERC20.sol\":10159:10180  spender == address(0) */\n              0xffffffffffffffffffffffffffffffffffffffff\n              and\n              sub\n                /* \"@openzeppelin/contracts/token/ERC20/ERC20.sol\":10155:10245  if (spender == address(0)) {... */\n              tag_117\n              jumpi\n                /* \"@openzeppelin/contracts/token/ERC20/ERC20.sol\":10231:10232  0 */\n              0x00\n                /* \"@openzeppelin/contracts/token/ERC20/ERC20.sol\":10203:10234  ERC20InvalidSpender(address(0)) */\n              mload(0x40)\n              0x94280d6200000000000000000000000000000000000000000000000000000000\n              dup2\n              mstore\n              0x04\n              add\n              tag_118\n              swap2\n              swap1\n              tag_105\n              jump\t// in\n            tag_118:\n              mload(0x40)\n              dup1\n              swap2\n              sub\n              swap1\n              revert\n                /* \"@openzeppelin/contracts/token/ERC20/ERC20.sol\":10155:10245  if (spender == address(0)) {... */\n            tag_117:\n                /* \"@openzeppelin/contracts/token/ERC20/ERC20.sol\":10284:10289  value */\n              dup2\n                /* \"@openzeppelin/contracts/token/ERC20/ERC20.sol\":10254:10265  _allowances */\n              0x01\n                /* \"@openzeppelin/contracts/token/ERC20/ERC20.sol\":10254:10272  _allowances[owner] */\n              0x00\n                /* \"@openzeppelin/contracts/token/ERC20/ERC20.sol\":10266:10271  owner */\n              dup7\n                /* \"@openzeppelin/contracts/token/ERC20/ERC20.sol\":10254:10272  _allowances[owner] */\n              0xffffffffffffffffffffffffffffffffffffffff\n              and\n              0xffffffffffffffffffffffffffffffffffffffff\n              and\n              dup2\n              mstore\n              0x20\n              add\n              swap1\n              dup2\n              mstore\n              0x20\n              add\n              0x00\n              keccak256\n                /* \"@openzeppelin/contracts/token/ERC20/ERC20.sol\":10254:10281  _allowances[owner][spender] */\n              0x00\n                /* \"@openzeppelin/contracts/token/ERC20/ERC20.sol\":10273:10280  spender */\n              dup6\n                /* \"@openzeppelin/contracts/token/ERC20/ERC20.sol\":10254:10281  _allowances[owner][spender] */\n              0xffffffffffffffffffffffffffffffffffffffff\n              and\n              0xffffffffffffffffffffffffffffffffffffffff\n              and\n              dup2\n              mstore\n              0x20\n              add\n              swap1\n              dup2\n              mstore\n              0x20\n              add\n              0x00\n              keccak256\n                /* \"@openzeppelin/contracts/token/ERC20/ERC20.sol\":10254:10289  _allowances[owner][spender] = value */\n              dup2\n              swap1\n              sstore\n              pop\n                /* \"@openzeppelin/contracts/token/ERC20/ERC20.sol\":10303:10312  emitEvent */\n              dup1\n                /* \"@openzeppelin/contracts/token/ERC20/ERC20.sol\":10299:10375  if (emitEvent) {... */\n              iszero\n              tag_119\n              jumpi\n                /* \"@openzeppelin/contracts/token/ERC20/ERC20.sol\":10349:10356  spender */\n              dup3\n                /* \"@openzeppelin/contracts/token/ERC20/ERC20.sol\":10333:10364  Approval(owner, spender, value) */\n              0xffffffffffffffffffffffffffffffffffffffff\n              and\n                /* \"@openzeppelin/contracts/token/ERC20/ERC20.sol\":10342:10347  owner */\n              dup5\n                /* \"@openzeppelin/contracts/token/ERC20/ERC20.sol\":10333:10364  Approval(owner, spender, value) */\n              0xffffffffffffffffffffffffffffffffffffffff\n              and\n              0x8c5be1e5ebec7d5bd14f71427d1e84f3dd0314c0f7b2291e5b200ac8c7c3b925\n                /* \"@openzeppelin/contracts/token/ERC20/ERC20.sol\":10358:10363  value */\n              dup5\n                /* \"@openzeppelin/contracts/token/ERC20/ERC20.sol\":10333:10364  Approval(owner, spender, value) */\n              mload(0x40)\n              tag_120\n              swap2\n              swap1\n              tag_27\n              jump\t// in\n            tag_120:\n              mload(0x40)\n              dup1\n              swap2\n              sub\n              swap1\n              log3\n                /* \"@openzeppelin/contracts/token/ERC20/ERC20.sol\":10299:10375  if (emitEvent) {... */\n            tag_119:\n                /* \"@openzeppelin/contracts/token/ERC20/ERC20.sol\":9949:10381  function _approve(address owner, address spender, uint256 value, bool emitEvent) internal virtual {... */\n              pop\n              pop\n              pop\n              pop\n              jump\t// out\n                /* \"@openzeppelin/contracts/token/ERC20/ERC20.sol\":6271:7378  function _update(address from, address to, uint256 value) internal virtual {... */\n            tag_109:\n                /* \"@openzeppelin/contracts/token/ERC20/ERC20.sol\":6376:6377  0 */\n              0x00\n                /* \"@openzeppelin/contracts/token/ERC20/ERC20.sol\":6360:6378  from == address(0) */\n              0xffffffffffffffffffffffffffffffffffffffff\n              and\n                /* \"@openzeppelin/contracts/token/ERC20/ERC20.sol\":6360:6364  from */\n              dup4\n                /* \"@openzeppelin/contracts/token/ERC20/ERC20.sol\":6360:6378  from == address(0) */\n              0xffffffffffffffffffffffffffffffffffffffff\n              and\n              sub\n                /* \"@openzeppelin/contracts/token/ERC20/ERC20.sol\":6356:6896  if (from == address(0)) {... */\n              tag_122\n              jumpi\n                /* \"@openzeppelin/contracts/token/ERC20/ERC20.sol\":6512:6517  value */\n              dup1\n                /* \"@openzeppelin/contracts/token/ERC20/ERC20.sol\":6496:6508  _totalSupply */\n              0x02\n              0x00\n                /* \"@openzeppelin/contracts/token/ERC20/ERC20.sol\":6496:6517  _totalSupply += value */\n              dup3\n              dup3\n              sload\n              tag_123\n              swap2\n              swap1\n              tag_124\n              jump\t// in\n            tag_123:\n              swap3\n              pop\n              pop\n              dup2\n              swap1\n              sstore\n              pop\n                /* \"@openzeppelin/contracts/token/ERC20/ERC20.sol\":6356:6896  if (from == address(0)) {... */\n              jump(tag_125)\n            tag_122:\n                /* \"@openzeppelin/contracts/token/ERC20/ERC20.sol\":6548:6567  uint256 fromBalance */\n              0x00\n                /* \"@openzeppelin/contracts/token/ERC20/ERC20.sol\":6570:6579  _balances */\n              dup1\n                /* \"@openzeppelin/contracts/token/ERC20/ERC20.sol\":6570:6585  _balances[from] */\n              0x00\n                /* \"@openzeppelin/contracts/token/ERC20/ERC20.sol\":6580:6584  from */\n              dup6\n                /* \"@openzeppelin/contracts/token/ERC20/ERC20.sol\":6570:6585  _balances[from] */\n              0xffffffffffffffffffffffffffffffffffffffff\n              and\n              0xffffffffffffffffffffffffffffffffffffffff\n              and\n              dup2\n              mstore\n              0x20\n              add\n              swap1\n              dup2\n              mstore\n              0x20\n              add\n              0x00\n              keccak256\n              sload\n                /* \"@openzeppelin/contracts/token/ERC20/ERC20.sol\":6548:6585  uint256 fromBalance = _balances[from] */\n              swap1\n              pop\n                /* \"@openzeppelin/contracts/token/ERC20/ERC20.sol\":6617:6622  value */\n              dup2\n                /* \"@openzeppelin/contracts/token/ERC20/ERC20.sol\":6603:6614  fromBalance */\n              dup2\n                /* \"@openzeppelin/contracts/token/ERC20/ERC20.sol\":6603:6622  fromBalance < value */\n              lt\n                /* \"@openzeppelin/contracts/token/ERC20/ERC20.sol\":6599:6714  if (fromBalance < value) {... */\n              iszero\n              tag_126\n              jumpi\n                /* \"@openzeppelin/contracts/token/ERC20/ERC20.sol\":6674:6678  from */\n              dup4\n                /* \"@openzeppelin/contracts/token/ERC20/ERC20.sol\":6680:6691  fromBalance */\n              dup2\n                /* \"@openzeppelin/contracts/token/ERC20/ERC20.sol\":6693:6698  value */\n              dup4\n                /* \"@openzeppelin/contracts/token/ERC20/ERC20.sol\":6649:6699  ERC20InsufficientBalance(from, fromBalance, value) */\n              mload(0x40)\n              0xe450d38c00000000000000000000000000000000000000000000000000000000\n              dup2\n              mstore\n              0x04\n              add\n              tag_127\n              swap4\n              swap3\n              swap2\n              swap1\n              tag_100\n              jump\t// in\n            tag_127:\n              mload(0x40)\n              dup1\n              swap2\n              sub\n              swap1\n              revert\n                /* \"@openzeppelin/contracts/token/ERC20/ERC20.sol\":6599:6714  if (fromBalance < value) {... */\n            tag_126:\n                /* \"@openzeppelin/contracts/token/ERC20/ERC20.sol\":6866:6871  value */\n              dup2\n                /* \"@openzeppelin/contracts/token/ERC20/ERC20.sol\":6852:6863  fromBalance */\n              dup2\n                /* \"@openzeppelin/contracts/token/ERC20/ERC20.sol\":6852:6871  fromBalance - value */\n              sub\n                /* \"@openzeppelin/contracts/token/ERC20/ERC20.sol\":6834:6843  _balances */\n              0x00\n                /* \"@openzeppelin/contracts/token/ERC20/ERC20.sol\":6834:6849  _balances[from] */\n              dup1\n                /* \"@openzeppelin/contracts/token/ERC20/ERC20.sol\":6844:6848  from */\n              dup7\n                /* \"@openzeppelin/contracts/token/ERC20/ERC20.sol\":6834:6849  _balances[from] */\n              0xffffffffffffffffffffffffffffffffffffffff\n              and\n              0xffffffffffffffffffffffffffffffffffffffff\n              and\n              dup2\n              mstore\n              0x20\n              add\n              swap1\n              dup2\n              mstore\n              0x20\n              add\n              0x00\n              keccak256\n                /* \"@openzeppelin/contracts/token/ERC20/ERC20.sol\":6834:6871  _balances[from] = fromBalance - value */\n              dup2\n              swap1\n              sstore\n              pop\n                /* \"@openzeppelin/contracts/token/ERC20/ERC20.sol\":6534:6896  {... */\n              pop\n                /* \"@openzeppelin/contracts/token/ERC20/ERC20.sol\":6356:6896  if (from == address(0)) {... */\n            tag_125:\n                /* \"@openzeppelin/contracts/token/ERC20/ERC20.sol\":6924:6925  0 */\n              0x00\n                /* \"@openzeppelin/contracts/token/ERC20/ERC20.sol\":6910:6926  to == address(0) */\n              0xffffffffffffffffffffffffffffffffffffffff\n              and\n                /* \"@openzeppelin/contracts/token/ERC20/ERC20.sol\":6910:6912  to */\n              dup3\n                /* \"@openzeppelin/contracts/token/ERC20/ERC20.sol\":6910:6926  to == address(0) */\n              0xffffffffffffffffffffffffffffffffffffffff\n              and\n              sub\n                /* \"@openzeppelin/contracts/token/ERC20/ERC20.sol\":6906:7331  if (to == address(0)) {... */\n              tag_128\n              jumpi\n                /* \"@openzeppelin/contracts/token/ERC20/ERC20.sol\":7089:7094  value */\n              dup1\n                /* \"@openzeppelin/contracts/token/ERC20/ERC20.sol\":7073:7085  _totalSupply */\n              0x02\n              0x00\n                /* \"@openzeppelin/contracts/token/ERC20/ERC20.sol\":7073:7094  _totalSupply -= value */\n              dup3\n              dup3\n              sload\n              sub\n              swap3\n              pop\n              pop\n              dup2\n              swap1\n              sstore\n              pop\n                /* \"@openzeppelin/contracts/token/ERC20/ERC20.sol\":6906:7331  if (to == address(0)) {... */\n              jump(tag_129)\n            tag_128:\n                /* \"@openzeppelin/contracts/token/ERC20/ERC20.sol\":7301:7306  value */\n              dup1\n                /* \"@openzeppelin/contracts/token/ERC20/ERC20.sol\":7284:7293  _balances */\n              0x00\n                /* \"@openzeppelin/contracts/token/ERC20/ERC20.sol\":7284:7297  _balances[to] */\n              dup1\n                /* \"@openzeppelin/contracts/token/ERC20/ERC20.sol\":7294:7296  to */\n              dup5\n                /* \"@openzeppelin/contracts/token/ERC20/ERC20.sol\":7284:7297  _balances[to] */\n              0xffffffffffffffffffffffffffffffffffffffff\n              and\n              0xffffffffffffffffffffffffffffffffffffffff\n              and\n              dup2\n              mstore\n              0x20\n              add\n              swap1\n              dup2\n              mstore\n              0x20\n              add\n              0x00\n              keccak256\n              0x00\n                /* \"@openzeppelin/contracts/token/ERC20/ERC20.sol\":7284:7306  _balances[to] += value */\n              dup3\n              dup3\n              sload\n              add\n              swap3\n              pop\n              pop\n              dup2\n              swap1\n              sstore\n              pop\n                /* \"@openzeppelin/contracts/token/ERC20/ERC20.sol\":6906:7331  if (to == address(0)) {... */\n            tag_129:\n                /* \"@openzeppelin/contracts/token/ERC20/ERC20.sol\":7361:7363  to */\n              dup2\n                /* \"@openzeppelin/contracts/token/ERC20/ERC20.sol\":7346:7371  Transfer(from, to, value) */\n              0xffffffffffffffffffffffffffffffffffffffff\n              and\n                /* \"@openzeppelin/contracts/token/ERC20/ERC20.sol\":7355:7359  from */\n              dup4\n                /* \"@openzeppelin/contracts/token/ERC20/ERC20.sol\":7346:7371  Transfer(from, to, value) */\n              0xffffffffffffffffffffffffffffffffffffffff\n              and\n              0xddf252ad1be2c89b69c2b068fc378daa952ba7f163c4a11628f55a4df523b3ef\n                /* \"@openzeppelin/contracts/token/ERC20/ERC20.sol\":7365:7370  value */\n              dup4\n                /* \"@openzeppelin/contracts/token/ERC20/ERC20.sol\":7346:7371  Transfer(from, to, value) */\n              mload(0x40)\n              tag_130\n              swap2\n              swap1\n              tag_27\n              jump\t// in\n            tag_130:\n              mload(0x40)\n              dup1\n              swap2\n              sub\n              swap1\n              log3\n                /* \"@openzeppelin/contracts/token/ERC20/ERC20.sol\":6271:7378  function _update(address from, address to, uint256 value) internal virtual {... */\n              pop\n              pop\n              pop\n              jump\t// out\n                /* \"#utility.yul\":7:106   */\n            tag_131:\n                /* \"#utility.yul\":59:65   */\n              0x00\n                /* \"#utility.yul\":93:98   */\n              dup2\n                /* \"#utility.yul\":87:99   */\n              mload\n                /* \"#utility.yul\":77:99   */\n              swap1\n              pop\n                /* \"#utility.yul\":7:106   */\n              swap2\n              swap1\n              pop\n              jump\t// out\n                /* \"#utility.yul\":112:281   */\n            tag_132:\n                /* \"#utility.yul\":196:207   */\n              0x00\n                /* \"#utility.yul\":230:236   */\n              dup3\n                /* \"#utility.yul\":225:228   */\n              dup3\n                /* \"#utility.yul\":218:237   */\n              mstore\n                /* \"#utility.yul\":270:274   */\n              0x20\n                /* \"#utility.yul\":265:268   */\n              dup3\n                /* \"#utility.yul\":261:275   */\n              add\n                /* \"#utility.yul\":246:275   */\n              swap1\n              pop\n                /* \"#utility.yul\":112:281   */\n              swap3\n              swap2\n              pop\n              pop\n              jump\t// out\n                /* \"#utility.yul\":287:426   */\n            tag_133:\n                /* \"#utility.yul\":376:382   */\n              dup3\n                /* \"#utility.yul\":371:374   */\n              dup2\n                /* \"#utility.yul\":366:369   */\n              dup4\n                /* \"#utility.yul\":360:383   */\n              mcopy\n                /* \"#utility.yul\":417:418   */\n              0x00\n                /* \"#utility.yul\":408:414   */\n              dup4\n                /* \"#utility.yul\":403:406   */\n              dup4\n                /* \"#utility.yul\":399:415   */\n              add\n                /* \"#utility.yul\":392:419   */\n              mstore\n                /* \"#utility.yul\":287:426   */\n              pop\n              pop\n              pop\n              jump\t// out\n                /* \"#utility.yul\":432:534   */\n            tag_134:\n                /* \"#utility.yul\":473:479   */\n              0x00\n                /* \"#utility.yul\":524:526   */\n              0x1f\n                /* \"#utility.yul\":520:527   */\n              not\n                /* \"#utility.yul\":515:517   */\n              0x1f\n                /* \"#utility.yul\":508:513   */\n              dup4\n                /* \"#utility.yul\":504:518   */\n              add\n                /* \"#utility.yul\":500:528   */\n              and\n                /* \"#utility.yul\":490:528   */\n              swap1\n              pop\n                /* \"#utility.yul\":432:534   */\n              swap2\n              swap1\n              pop\n              jump\t// out\n                /* \"#utility.yul\":540:917   */\n            tag_135:\n                /* \"#utility.yul\":628:631   */\n              0x00\n                /* \"#utility.yul\":656:695   */\n              tag_160\n                /* \"#utility.yul\":689:694   */\n              dup3\n                /* \"#utility.yul\":656:695   */\n              tag_131\n              jump\t// in\n            tag_160:\n                /* \"#utility.yul\":711:782   */\n              tag_161\n                /* \"#utility.yul\":775:781   */\n              dup2\n                /* \"#utility.yul\":770:773   */\n              dup6\n                /* \"#utility.yul\":711:782   */\n              tag_132\n              jump\t// in\n            tag_161:\n                /* \"#utility.yul\":704:782   */\n              swap4\n              pop\n                /* \"#utility.yul\":791:856   */\n              tag_162\n                /* \"#utility.yul\":849:855   */\n              dup2\n                /* \"#utility.yul\":844:847   */\n              dup6\n                /* \"#utility.yul\":837:841   */\n              0x20\n                /* \"#utility.yul\":830:835   */\n              dup7\n                /* \"#utility.yul\":826:842   */\n              add\n                /* \"#utility.yul\":791:856   */\n              tag_133\n              jump\t// in\n            tag_162:\n                /* \"#utility.yul\":881:910   */\n              tag_163\n                /* \"#utility.yul\":903:909   */\n              dup2\n                /* \"#utility.yul\":881:910   */\n              tag_134\n              jump\t// in\n            tag_163:\n                /* \"#utility.yul\":876:879   */\n              dup5\n                /* \"#utility.yul\":872:911   */\n              add\n                /* \"#utility.yul\":865:911   */\n              swap2\n              pop\n                /* \"#utility.yul\":632:917   */\n              pop\n                /* \"#utility.yul\":540:917   */\n              swap3\n              swap2\n              pop\n              pop\n              jump\t// out\n                /* \"#utility.yul\":923:1236   */\n            tag_17:\n                /* \"#utility.yul\":1036:1040   */\n              0x00\n                /* \"#utility.yul\":1074:1076   */\n              0x20\n                /* \"#utility.yul\":1063:1072   */\n              dup3\n                /* \"#utility.yul\":1059:1077   */\n              add\n                /* \"#utility.yul\":1051:1077   */\n              swap1\n              pop\n                /* \"#utility.yul\":1123:1132   */\n              dup2\n                /* \"#utility.yul\":1117:1121   */\n              dup2\n                /* \"#utility.yul\":1113:1133   */\n              sub\n                /* \"#utility.yul\":1109:1110   */\n              0x00\n                /* \"#utility.yul\":1098:1107   */\n              dup4\n                /* \"#utility.yul\":1094:1111   */\n              add\n                /* \"#utility.yul\":1087:1134   */\n              mstore\n                /* \"#utility.yul\":1151:1229   */\n              tag_165\n                /* \"#utility.yul\":1224:1228   */\n              dup2\n                /* \"#utility.yul\":1215:1221   */\n              dup5\n                /* \"#utility.yul\":1151:1229   */\n              tag_135\n              jump\t// in\n            tag_165:\n                /* \"#utility.yul\":1143:1229   */\n              swap1\n              pop\n                /* \"#utility.yul\":923:1236   */\n              swap3\n              swap2\n              pop\n              pop\n              jump\t// out\n                /* \"#utility.yul\":1323:1440   */\n            tag_137:\n                /* \"#utility.yul\":1432:1433   */\n              0x00\n                /* \"#utility.yul\":1429:1430   */\n              dup1\n                /* \"#utility.yul\":1422:1434   */\n              revert\n                /* \"#utility.yul\":1569:1695   */\n            tag_139:\n                /* \"#utility.yul\":1606:1613   */\n              0x00\n                /* \"#utility.yul\":1646:1688   */\n              0xffffffffffffffffffffffffffffffffffffffff\n                /* \"#utility.yul\":1639:1644   */\n              dup3\n                /* \"#utility.yul\":1635:1689   */\n              and\n                /* \"#utility.yul\":1624:1689   */\n              swap1\n              pop\n                /* \"#utility.yul\":1569:1695   */\n              swap2\n              swap1\n              pop\n              jump\t// out\n                /* \"#utility.yul\":1701:1797   */\n            tag_140:\n                /* \"#utility.yul\":1738:1745   */\n              0x00\n                /* \"#utility.yul\":1767:1791   */\n              tag_171\n                /* \"#utility.yul\":1785:1790   */\n              dup3\n                /* \"#utility.yul\":1767:1791   */\n              tag_139\n              jump\t// in\n            tag_171:\n                /* \"#utility.yul\":1756:1791   */\n              swap1\n              pop\n                /* \"#utility.yul\":1701:1797   */\n              swap2\n              swap1\n              pop\n              jump\t// out\n                /* \"#utility.yul\":1803:1925   */\n            tag_141:\n                /* \"#utility.yul\":1876:1900   */\n              tag_173\n                /* \"#utility.yul\":1894:1899   */\n              dup2\n                /* \"#utility.yul\":1876:1900   */\n              tag_140\n              jump\t// in\n            tag_173:\n                /* \"#utility.yul\":1869:1874   */\n              dup2\n                /* \"#utility.yul\":1866:1901   */\n              eq\n                /* \"#utility.yul\":1856:1919   */\n              tag_174\n              jumpi\n                /* \"#utility.yul\":1915:1916   */\n              0x00\n                /* \"#utility.yul\":1912:1913   */\n              dup1\n                /* \"#utility.yul\":1905:1917   */\n              revert\n                /* \"#utility.yul\":1856:1919   */\n            tag_174:\n                /* \"#utility.yul\":1803:1925   */\n              pop\n              jump\t// out\n                /* \"#utility.yul\":1931:2070   */\n            tag_142:\n                /* \"#utility.yul\":1977:1982   */\n              0x00\n                /* \"#utility.yul\":2015:2021   */\n              dup2\n                /* \"#utility.yul\":2002:2022   */\n              calldataload\n                /* \"#utility.yul\":1993:2022   */\n              swap1\n              pop\n                /* \"#utility.yul\":2031:2064   */\n              tag_176\n                /* \"#utility.yul\":2058:2063   */\n              dup2\n                /* \"#utility.yul\":2031:2064   */\n              tag_141\n              jump\t// in\n            tag_176:\n                /* \"#utility.yul\":1931:2070   */\n              swap3\n              swap2\n              pop\n              pop\n              jump\t// out\n                /* \"#utility.yul\":2076:2153   */\n            tag_143:\n                /* \"#utility.yul\":2113:2120   */\n              0x00\n                /* \"#utility.yul\":2142:2147   */\n              dup2\n                /* \"#utility.yul\":2131:2147   */\n              swap1\n              pop\n                /* \"#utility.yul\":2076:2153   */\n              swap2\n              swap1\n              pop\n              jump\t// out\n                /* \"#utility.yul\":2159:2281   */\n            tag_144:\n                /* \"#utility.yul\":2232:2256   */\n              tag_179\n                /* \"#utility.yul\":2250:2255   */\n              dup2\n                /* \"#utility.yul\":2232:2256   */\n              tag_143\n              jump\t// in\n            tag_179:\n                /* \"#utility.yul\":2225:2230   */\n              dup2\n                /* \"#utility.yul\":2222:2257   */\n              eq\n                /* \"#utility.yul\":2212:2275   */\n              tag_180\n              jumpi\n                /* \"#utility.yul\":2271:2272   */\n              0x00\n                /* \"#utility.yul\":2268:2269   */\n              dup1\n                /* \"#utility.yul\":2261:2273   */\n              revert\n                /* \"#utility.yul\":2212:2275   */\n            tag_180:\n                /* \"#utility.yul\":2159:2281   */\n              pop\n              jump\t// out\n                /* \"#utility.yul\":2287:2426   */\n            tag_145:\n                /* \"#utility.yul\":2333:2338   */\n              0x00\n                /* \"#utility.yul\":2371:2377   */\n              dup2\n                /* \"#utility.yul\":2358:2378   */\n              calldataload\n                /* \"#utility.yul\":2349:2378   */\n              swap1\n              pop\n                /* \"#utility.yul\":2387:2420   */\n              tag_182\n                /* \"#utility.yul\":2414:2419   */\n              dup2\n                /* \"#utility.yul\":2387:2420   */\n              tag_144\n              jump\t// in\n            tag_182:\n                /* \"#utility.yul\":2287:2426   */\n              swap3\n              swap2\n              pop\n              pop\n              jump\t// out\n                /* \"#utility.yul\":2432:2906   */\n            tag_20:\n                /* \"#utility.yul\":2500:2506   */\n              0x00\n                /* \"#utility.yul\":2508:2514   */\n              dup1\n                /* \"#utility.yul\":2557:2559   */\n              0x40\n                /* \"#utility.yul\":2545:2554   */\n              dup4\n                /* \"#utility.yul\":2536:2543   */\n              dup6\n                /* \"#utility.yul\":2532:2555   */\n              sub\n                /* \"#utility.yul\":2528:2560   */\n              slt\n                /* \"#utility.yul\":2525:2644   */\n              iszero\n              tag_184\n              jumpi\n                /* \"#utility.yul\":2563:2642   */\n              tag_185\n              tag_137\n              jump\t// in\n            tag_185:\n                /* \"#utility.yul\":2525:2644   */\n            tag_184:\n                /* \"#utility.yul\":2683:2684   */\n              0x00\n                /* \"#utility.yul\":2708:2761   */\n              tag_186\n                /* \"#utility.yul\":2753:2760   */\n              dup6\n                /* \"#utility.yul\":2744:2750   */\n              dup3\n                /* \"#utility.yul\":2733:2742   */\n              dup7\n                /* \"#utility.yul\":2729:2751   */\n              add\n                /* \"#utility.yul\":2708:2761   */\n              tag_142\n              jump\t// in\n            tag_186:\n                /* \"#utility.yul\":2698:2761   */\n              swap3\n              pop\n                /* \"#utility.yul\":2654:2771   */\n              pop\n                /* \"#utility.yul\":2810:2812   */\n              0x20\n                /* \"#utility.yul\":2836:2889   */\n              tag_187\n                /* \"#utility.yul\":2881:2888   */\n              dup6\n                /* \"#utility.yul\":2872:2878   */\n              dup3\n                /* \"#utility.yul\":2861:2870   */\n              dup7\n                /* \"#utility.yul\":2857:2879   */\n              add\n                /* \"#utility.yul\":2836:2889   */\n              tag_145\n              jump\t// in\n            tag_187:\n                /* \"#utility.yul\":2826:2889   */\n              swap2\n              pop\n                /* \"#utility.yul\":2781:2899   */\n              pop\n                /* \"#utility.yul\":2432:2906   */\n              swap3\n              pop\n              swap3\n              swap1\n              pop\n              jump\t// out\n                /* \"#utility.yul\":2912:3002   */\n            tag_146:\n                /* \"#utility.yul\":2946:2953   */\n              0x00\n                /* \"#utility.yul\":2989:2994   */\n              dup2\n                /* \"#utility.yul\":2982:2995   */\n              iszero\n                /* \"#utility.yul\":2975:2996   */\n              iszero\n                /* \"#utility.yul\":2964:2996   */\n              swap1\n              pop\n                /* \"#utility.yul\":2912:3002   */\n              swap2\n              swap1\n              pop\n              jump\t// out\n                /* \"#utility.yul\":3008:3117   */\n            tag_147:\n                /* \"#utility.yul\":3089:3110   */\n              tag_190\n                /* \"#utility.yul\":3104:3109   */\n              dup2\n                /* \"#utility.yul\":3089:3110   */\n              tag_146\n              jump\t// in\n            tag_190:\n                /* \"#utility.yul\":3084:3087   */\n              dup3\n                /* \"#utility.yul\":3077:3111   */\n              mstore\n                /* \"#utility.yul\":3008:3117   */\n              pop\n              pop\n              jump\t// out\n                /* \"#utility.yul\":3123:3333   */\n            tag_23:\n                /* \"#utility.yul\":3210:3214   */\n              0x00\n                /* \"#utility.yul\":3248:3250   */\n              0x20\n                /* \"#utility.yul\":3237:3246   */\n              dup3\n                /* \"#utility.yul\":3233:3251   */\n              add\n                /* \"#utility.yul\":3225:3251   */\n              swap1\n              pop\n                /* \"#utility.yul\":3261:3326   */\n              tag_192\n                /* \"#utility.yul\":3323:3324   */\n              0x00\n                /* \"#utility.yul\":3312:3321   */\n              dup4\n                /* \"#utility.yul\":3308:3325   */\n              add\n                /* \"#utility.yul\":3299:3305   */\n              dup5\n                /* \"#utility.yul\":3261:3326   */\n              tag_147\n              jump\t// in\n            tag_192:\n                /* \"#utility.yul\":3123:3333   */\n              swap3\n              swap2\n              pop\n              pop\n              jump\t// out\n                /* \"#utility.yul\":3339:3457   */\n            tag_148:\n                /* \"#utility.yul\":3426:3450   */\n              tag_194\n                /* \"#utility.yul\":3444:3449   */\n              dup2\n                /* \"#utility.yul\":3426:3450   */\n              tag_143\n              jump\t// in\n            tag_194:\n                /* \"#utility.yul\":3421:3424   */\n              dup3\n                /* \"#utility.yul\":3414:3451   */\n              mstore\n                /* \"#utility.yul\":3339:3457   */\n              pop\n              pop\n              jump\t// out\n                /* \"#utility.yul\":3463:3685   */\n            tag_27:\n                /* \"#utility.yul\":3556:3560   */\n              0x00\n                /* \"#utility.yul\":3594:3596   */\n              0x20\n                /* \"#utility.yul\":3583:3592   */\n              dup3\n                /* \"#utility.yul\":3579:3597   */\n              add\n                /* \"#utility.yul\":3571:3597   */\n              swap1\n              pop\n                /* \"#utility.yul\":3607:3678   */\n              tag_196\n                /* \"#utility.yul\":3675:3676   */\n              0x00\n                /* \"#utility.yul\":3664:3673   */\n              dup4\n                /* \"#utility.yul\":3660:3677   */\n              add\n                /* \"#utility.yul\":3651:3657   */\n              dup5\n                /* \"#utility.yul\":3607:3678   */\n              tag_148\n              jump\t// in\n            tag_196:\n                /* \"#utility.yul\":3463:3685   */\n              swap3\n              swap2\n              pop\n              pop\n              jump\t// out\n                /* \"#utility.yul\":3691:4310   */\n            tag_30:\n                /* \"#utility.yul\":3768:3774   */\n              0x00\n                /* \"#utility.yul\":3776:3782   */\n              dup1\n                /* \"#utility.yul\":3784:3790   */\n              0x00\n                /* \"#utility.yul\":3833:3835   */\n              0x60\n                /* \"#utility.yul\":3821:3830   */\n              dup5\n                /* \"#utility.yul\":3812:3819   */\n              dup7\n                /* \"#utility.yul\":3808:3831   */\n              sub\n                /* \"#utility.yul\":3804:3836   */\n              slt\n                /* \"#utility.yul\":3801:3920   */\n              iszero\n              tag_198\n              jumpi\n                /* \"#utility.yul\":3839:3918   */\n              tag_199\n              tag_137\n              jump\t// in\n            tag_199:\n                /* \"#utility.yul\":3801:3920   */\n            tag_198:\n                /* \"#utility.yul\":3959:3960   */\n              0x00\n                /* \"#utility.yul\":3984:4037   */\n              tag_200\n                /* \"#utility.yul\":4029:4036   */\n              dup7\n                /* \"#utility.yul\":4020:4026   */\n              dup3\n                /* \"#utility.yul\":4009:4018   */\n              dup8\n                /* \"#utility.yul\":4005:4027   */\n              add\n                /* \"#utility.yul\":3984:4037   */\n              tag_142\n              jump\t// in\n            tag_200:\n                /* \"#utility.yul\":3974:4037   */\n              swap4\n              pop\n                /* \"#utility.yul\":3930:4047   */\n              pop\n                /* \"#utility.yul\":4086:4088   */\n              0x20\n                /* \"#utility.yul\":4112:4165   */\n              tag_201\n                /* \"#utility.yul\":4157:4164   */\n              dup7\n                /* \"#utility.yul\":4148:4154   */\n              dup3\n                /* \"#utility.yul\":4137:4146   */\n              dup8\n                /* \"#utility.yul\":4133:4155   */\n              add\n                /* \"#utility.yul\":4112:4165   */\n              tag_142\n              jump\t// in\n            tag_201:\n                /* \"#utility.yul\":4102:4165   */\n              swap3\n              pop\n                /* \"#utility.yul\":4057:4175   */\n              pop\n                /* \"#utility.yul\":4214:4216   */\n              0x40\n                /* \"#utility.yul\":4240:4293   */\n              tag_202\n                /* \"#utility.yul\":4285:4292   */\n              dup7\n                /* \"#utility.yul\":4276:4282   */\n              dup3\n                /* \"#utility.yul\":4265:4274   */\n              dup8\n                /* \"#utility.yul\":4261:4283   */\n              add\n                /* \"#utility.yul\":4240:4293   */\n              tag_145\n              jump\t// in\n            tag_202:\n                /* \"#utility.yul\":4230:4293   */\n              swap2\n              pop\n                /* \"#utility.yul\":4185:4303   */\n              pop\n                /* \"#utility.yul\":3691:4310   */\n              swap3\n              pop\n              swap3\n              pop\n              swap3\n              jump\t// out\n                /* \"#utility.yul\":4316:4402   */\n            tag_149:\n                /* \"#utility.yul\":4351:4358   */\n              0x00\n                /* \"#utility.yul\":4391:4395   */\n              0xff\n                /* \"#utility.yul\":4384:4389   */\n              dup3\n                /* \"#utility.yul\":4380:4396   */\n              and\n                /* \"#utility.yul\":4369:4396   */\n              swap1\n              pop\n                /* \"#utility.yul\":4316:4402   */\n              swap2\n              swap1\n              pop\n              jump\t// out\n                /* \"#utility.yul\":4408:4520   */\n            tag_150:\n                /* \"#utility.yul\":4491:4513   */\n              tag_205\n                /* \"#utility.yul\":4507:4512   */\n              dup2\n                /* \"#utility.yul\":4491:4513   */\n              tag_149\n              jump\t// in\n            tag_205:\n                /* \"#utility.yul\":4486:4489   */\n              dup3\n                /* \"#utility.yul\":4479:4514   */\n              mstore\n                /* \"#utility.yul\":4408:4520   */\n              pop\n              pop\n              jump\t// out\n                /* \"#utility.yul\":4526:4740   */\n            tag_36:\n                /* \"#utility.yul\":4615:4619   */\n              0x00\n                /* \"#utility.yul\":4653:4655   */\n              0x20\n                /* \"#utility.yul\":4642:4651   */\n              dup3\n                /* \"#utility.yul\":4638:4656   */\n              add\n                /* \"#utility.yul\":4630:4656   */\n              swap1\n              pop\n                /* \"#utility.yul\":4666:4733   */\n              tag_207\n                /* \"#utility.yul\":4730:4731   */\n              0x00\n                /* \"#utility.yul\":4719:4728   */\n              dup4\n                /* \"#utility.yul\":4715:4732   */\n              add\n                /* \"#utility.yul\":4706:4712   */\n              dup5\n                /* \"#utility.yul\":4666:4733   */\n              tag_150\n              jump\t// in\n            tag_207:\n                /* \"#utility.yul\":4526:4740   */\n              swap3\n              swap2\n              pop\n              pop\n              jump\t// out\n                /* \"#utility.yul\":4746:5075   */\n            tag_42:\n                /* \"#utility.yul\":4805:4811   */\n              0x00\n                /* \"#utility.yul\":4854:4856   */\n              0x20\n                /* \"#utility.yul\":4842:4851   */\n              dup3\n                /* \"#utility.yul\":4833:4840   */\n              dup5\n                /* \"#utility.yul\":4829:4852   */\n              sub\n                /* \"#utility.yul\":4825:4857   */\n              slt\n                /* \"#utility.yul\":4822:4941   */\n              iszero\n              tag_209\n              jumpi\n                /* \"#utility.yul\":4860:4939   */\n              tag_210\n              tag_137\n              jump\t// in\n            tag_210:\n                /* \"#utility.yul\":4822:4941   */\n            tag_209:\n                /* \"#utility.yul\":4980:4981   */\n              0x00\n                /* \"#utility.yul\":5005:5058   */\n              tag_211\n                /* \"#utility.yul\":5050:5057   */\n              dup5\n                /* \"#utility.yul\":5041:5047   */\n              dup3\n                /* \"#utility.yul\":5030:5039   */\n              dup6\n                /* \"#utility.yul\":5026:5048   */\n              add\n                /* \"#utility.yul\":5005:5058   */\n              tag_142\n              jump\t// in\n            tag_211:\n                /* \"#utility.yul\":4995:5058   */\n              swap2\n              pop\n                /* \"#utility.yul\":4951:5068   */\n              pop\n                /* \"#utility.yul\":4746:5075   */\n              swap3\n              swap2\n              pop\n              pop\n              jump\t// out\n                /* \"#utility.yul\":5081:5555   */\n            tag_54:\n                /* \"#utility.yul\":5149:5155   */\n              0x00\n                /* \"#utility.yul\":5157:5163   */\n              dup1\n                /* \"#utility.yul\":5206:5208   */\n              0x40\n                /* \"#utility.yul\":5194:5203   */\n              dup4\n                /* \"#utility.yul\":5185:5192   */\n              dup6\n                /* \"#utility.yul\":5181:5204   */\n              sub\n                /* \"#utility.yul\":5177:5209   */\n              slt\n                /* \"#utility.yul\":5174:5293   */\n              iszero\n              tag_213\n              jumpi\n                /* \"#utility.yul\":5212:5291   */\n              tag_214\n              tag_137\n              jump\t// in\n            tag_214:\n                /* \"#utility.yul\":5174:5293   */\n            tag_213:\n                /* \"#utility.yul\":5332:5333   */\n              0x00\n                /* \"#utility.yul\":5357:5410   */\n              tag_215\n                /* \"#utility.yul\":5402:5409   */\n              dup6\n                /* \"#utility.yul\":5393:5399   */\n              dup3\n                /* \"#utility.yul\":5382:5391   */\n              dup7\n                /* \"#utility.yul\":5378:5400   */\n              add\n                /* \"#utility.yul\":5357:5410   */\n              tag_142\n              jump\t// in\n            tag_215:\n                /* \"#utility.yul\":5347:5410   */\n              swap3\n              pop\n                /* \"#utility.yul\":5303:5420   */\n              pop\n                /* \"#utility.yul\":5459:5461   */\n              0x20\n                /* \"#utility.yul\":5485:5538   */\n              tag_216\n                /* \"#utility.yul\":5530:5537   */\n              dup6\n                /* \"#utility.yul\":5521:5527   */\n              dup3\n                /* \"#utility.yul\":5510:5519   */\n              dup7\n                /* \"#utility.yul\":5506:5528   */\n              add\n                /* \"#utility.yul\":5485:5538   */\n              tag_142\n              jump\t// in\n            tag_216:\n                /* \"#utility.yul\":5475:5538   */\n              swap2\n              pop\n                /* \"#utility.yul\":5430:5548   */\n              pop\n                /* \"#utility.yul\":5081:5555   */\n              swap3\n              pop\n              swap3\n              swap1\n              pop\n              jump\t// out\n                /* \"#utility.yul\":5561:5741   */\n            tag_151:\n                /* \"#utility.yul\":5609:5686   */\n              0x4e487b7100000000000000000000000000000000000000000000000000000000\n                /* \"#utility.yul\":5606:5607   */\n              0x00\n                /* \"#utility.yul\":5599:5687   */\n              mstore\n                /* \"#utility.yul\":5706:5710   */\n              0x22\n                /* \"#utility.yul\":5703:5704   */\n              0x04\n                /* \"#utility.yul\":5696:5711   */\n              mstore\n                /* \"#utility.yul\":5730:5734   */\n              0x24\n                /* \"#utility.yul\":5727:5728   */\n              0x00\n                /* \"#utility.yul\":5720:5735   */\n              revert\n                /* \"#utility.yul\":5747:6067   */\n            tag_59:\n                /* \"#utility.yul\":5791:5797   */\n              0x00\n                /* \"#utility.yul\":5828:5829   */\n              0x02\n                /* \"#utility.yul\":5822:5826   */\n              dup3\n                /* \"#utility.yul\":5818:5830   */\n              div\n                /* \"#utility.yul\":5808:5830   */\n              swap1\n              pop\n                /* \"#utility.yul\":5875:5876   */\n              0x01\n                /* \"#utility.yul\":5869:5873   */\n              dup3\n                /* \"#utility.yul\":5865:5877   */\n              and\n                /* \"#utility.yul\":5896:5914   */\n              dup1\n                /* \"#utility.yul\":5886:5967   */\n              tag_219\n              jumpi\n                /* \"#utility.yul\":5952:5956   */\n              0x7f\n                /* \"#utility.yul\":5944:5950   */\n              dup3\n                /* \"#utility.yul\":5940:5957   */\n              and\n                /* \"#utility.yul\":5930:5957   */\n              swap2\n              pop\n                /* \"#utility.yul\":5886:5967   */\n            tag_219:\n                /* \"#utility.yul\":6014:6016   */\n              0x20\n                /* \"#utility.yul\":6006:6012   */\n              dup3\n                /* \"#utility.yul\":6003:6017   */\n              lt\n                /* \"#utility.yul\":5983:6001   */\n              dup2\n                /* \"#utility.yul\":5980:6018   */\n              sub\n                /* \"#utility.yul\":5977:6061   */\n              tag_220\n              jumpi\n                /* \"#utility.yul\":6033:6051   */\n              tag_221\n              tag_151\n              jump\t// in\n            tag_221:\n                /* \"#utility.yul\":5977:6061   */\n            tag_220:\n                /* \"#utility.yul\":5798:6067   */\n              pop\n                /* \"#utility.yul\":5747:6067   */\n              swap2\n              swap1\n              pop\n              jump\t// out\n                /* \"#utility.yul\":6073:6191   */\n            tag_152:\n                /* \"#utility.yul\":6160:6184   */\n              tag_223\n                /* \"#utility.yul\":6178:6183   */\n              dup2\n                /* \"#utility.yul\":6160:6184   */\n              tag_140\n              jump\t// in\n            tag_223:\n                /* \"#utility.yul\":6155:6158   */\n              dup3\n                /* \"#utility.yul\":6148:6185   */\n              mstore\n                /* \"#utility.yul\":6073:6191   */\n              pop\n              pop\n              jump\t// out\n                /* \"#utility.yul\":6197:6639   */\n            tag_100:\n                /* \"#utility.yul\":6346:6350   */\n              0x00\n                /* \"#utility.yul\":6384:6386   */\n              0x60\n                /* \"#utility.yul\":6373:6382   */\n              dup3\n                /* \"#utility.yul\":6369:6387   */\n              add\n                /* \"#utility.yul\":6361:6387   */\n              swap1\n              pop\n                /* \"#utility.yul\":6397:6468   */\n              tag_225\n                /* \"#utility.yul\":6465:6466   */\n              0x00\n                /* \"#utility.yul\":6454:6463   */\n              dup4\n                /* \"#utility.yul\":6450:6467   */\n              add\n                /* \"#utility.yul\":6441:6447   */\n              dup7\n                /* \"#utility.yul\":6397:6468   */\n              tag_152\n              jump\t// in\n            tag_225:\n                /* \"#utility.yul\":6478:6550   */\n              tag_226\n                /* \"#utility.yul\":6546:6548   */\n              0x20\n                /* \"#utility.yul\":6535:6544   */\n              dup4\n                /* \"#utility.yul\":6531:6549   */\n              add\n                /* \"#utility.yul\":6522:6528   */\n              dup6\n                /* \"#utility.yul\":6478:6550   */\n              tag_148\n              jump\t// in\n            tag_226:\n                /* \"#utility.yul\":6560:6632   */\n              tag_227\n                /* \"#utility.yul\":6628:6630   */\n              0x40\n                /* \"#utility.yul\":6617:6626   */\n              dup4\n                /* \"#utility.yul\":6613:6631   */\n              add\n                /* \"#utility.yul\":6604:6610   */\n              dup5\n                /* \"#utility.yul\":6560:6632   */\n              tag_148\n              jump\t// in\n            tag_227:\n                /* \"#utility.yul\":6197:6639   */\n              swap5\n              swap4\n              pop\n              pop\n              pop\n              pop\n              jump\t// out\n                /* \"#utility.yul\":6645:6867   */\n            tag_105:\n                /* \"#utility.yul\":6738:6742   */\n              0x00\n                /* \"#utility.yul\":6776:6778   */\n              0x20\n                /* \"#utility.yul\":6765:6774   */\n              dup3\n                /* \"#utility.yul\":6761:6779   */\n              add\n                /* \"#utility.yul\":6753:6779   */\n              swap1\n              pop\n                /* \"#utility.yul\":6789:6860   */\n              tag_229\n                /* \"#utility.yul\":6857:6858   */\n              0x00\n                /* \"#utility.yul\":6846:6855   */\n              dup4\n                /* \"#utility.yul\":6842:6859   */\n              add\n                /* \"#utility.yul\":6833:6839   */\n              dup5\n                /* \"#utility.yul\":6789:6860   */\n              tag_152\n              jump\t// in\n            tag_229:\n                /* \"#utility.yul\":6645:6867   */\n              swap3\n              swap2\n              pop\n              pop\n              jump\t// out\n                /* \"#utility.yul\":6873:7053   */\n            tag_153:\n                /* \"#utility.yul\":6921:6998   */\n              0x4e487b7100000000000000000000000000000000000000000000000000000000\n                /* \"#utility.yul\":6918:6919   */\n              0x00\n                /* \"#utility.yul\":6911:6999   */\n              mstore\n                /* \"#utility.yul\":7018:7022   */\n              0x11\n                /* \"#utility.yul\":7015:7016   */\n              0x04\n                /* \"#utility.yul\":7008:7023   */\n              mstore\n                /* \"#utility.yul\":7042:7046   */\n              0x24\n                /* \"#utility.yul\":7039:7040   */\n              0x00\n                /* \"#utility.yul\":7032:7047   */\n              revert\n                /* \"#utility.yul\":7059:7250   */\n            tag_124:\n                /* \"#utility.yul\":7099:7102   */\n              0x00\n                /* \"#utility.yul\":7118:7138   */\n              tag_232\n                /* \"#utility.yul\":7136:7137   */\n              dup3\n                /* \"#utility.yul\":7118:7138   */\n              tag_143\n              jump\t// in\n            tag_232:\n                /* \"#utility.yul\":7113:7138   */\n              swap2\n              pop\n                /* \"#utility.yul\":7152:7172   */\n              tag_233\n                /* \"#utility.yul\":7170:7171   */\n              dup4\n                /* \"#utility.yul\":7152:7172   */\n              tag_143\n              jump\t// in\n            tag_233:\n                /* \"#utility.yul\":7147:7172   */\n              swap3\n              pop\n                /* \"#utility.yul\":7195:7196   */\n              dup3\n                /* \"#utility.yul\":7192:7193   */\n              dup3\n                /* \"#utility.yul\":7188:7197   */\n              add\n                /* \"#utility.yul\":7181:7197   */\n              swap1\n              pop\n                /* \"#utility.yul\":7216:7219   */\n              dup1\n                /* \"#utility.yul\":7213:7214   */\n              dup3\n                /* \"#utility.yul\":7210:7220   */\n              gt\n                /* \"#utility.yul\":7207:7243   */\n              iszero\n              tag_234\n              jumpi\n                /* \"#utility.yul\":7223:7241   */\n              tag_235\n              tag_153\n              jump\t// in\n            tag_235:\n                /* \"#utility.yul\":7207:7243   */\n            tag_234:\n                /* \"#utility.yul\":7059:7250   */\n              swap3\n              swap2\n              pop\n              pop\n              jump\t// out\n\n            auxdata: 0xa26469706673582212200c09db8ef098faaa744931ed2122839dbc72d66281b11b3b13243d48289ab75264736f6c634300081a0033\n        }\n    }\n\n    auxdata: 0xa26469706673582212207241d952ee91f7bd0e94a161419b5e03d8e360f3d2d345a3ed64e1fa3d27787564736f6c634300081a0033\n}\n",
				"bytecode": {
					"linkReferences": {},
					"object": "6080604052348015600e575f80fd5b5061353b8061001c5f395ff3fe60806040526004361061007a575f3560e01c80637355729a1161004d5780637355729a14610132578063854b78a31461015a578063a56a275914610196578063b6201a87146101d25761007a565b8063141961bc1461007e578063155dd5ee146100c45780632e618676146100ec5780632ee4811f14610116575b5f80fd5b348015610089575f80fd5b506100a4600480360381019061009f919061111c565b61020e565b6040516100bb9b9a9998979695949392919061121f565b60405180910390f35b3480156100cf575f80fd5b506100ea60048036038101906100e5919061111c565b6104c6565b005b3480156100f7575f80fd5b506101006105e7565b60405161010d91906112e4565b60405180910390f35b610130600480360381019061012b91906112fd565b6105ed565b005b34801561013d575f80fd5b506101586004803603810190610153919061111c565b61088c565b005b348015610165575f80fd5b50610180600480360381019061017b9190611609565b610b95565b60405161018d91906112e4565b60405180910390f35b3480156101a1575f80fd5b506101bc60048036038101906101b791906117ec565b610e70565b6040516101c991906112e4565b60405180910390f35b3480156101dd575f80fd5b506101f860048036038101906101f3919061111c565b610e9b565b604051610205919061182a565b60405180910390f35b5f602052805f5260405f205f91509050805f01805461022c90611877565b80601f016020809104026020016040519081016040528092919081815260200182805461025890611877565b80156102a35780601f1061027a576101008083540402835291602001916102a3565b820191905f5260205f20905b81548152906001019060200180831161028657829003601f168201915b5050505050908060010180546102b890611877565b80601f01602080910402602001604051908101604052809291908181526020018280546102e490611877565b801561032f5780601f106103065761010080835404028352916020019161032f565b820191905f5260205f20905b81548152906001019060200180831161031257829003601f168201915b50505050509080600201805461034490611877565b80601f016020809104026020016040519081016040528092919081815260200182805461037090611877565b80156103bb5780601f10610392576101008083540402835291602001916103bb565b820191905f5260205f20905b81548152906001019060200180831161039e57829003601f168201915b5050505050908060030180546103d090611877565b80601f01602080910402602001604051908101604052809291908181526020018280546103fc90611877565b80156104475780601f1061041e57610100808354040283529160200191610447565b820191905f5260205f20905b81548152906001019060200180831161042a57829003601f168201915b50505050509080600601549080600701549080600a015f9054906101000a900473ffffffffffffffffffffffffffffffffffffffff169080600a0160149054906101000a900460ff169080600b01549080600c01549080600d015f9054906101000a900473ffffffffffffffffffffffffffffffffffffffff1690508b565b5f805f8381526020019081526020015f20905080600a015f9054906101000a900473ffffffffffffffffffffffffffffffffffffffff1673ffffffffffffffffffffffffffffffffffffffff163373ffffffffffffffffffffffffffffffffffffffff161461056a576040517f08c379a000000000000000000000000000000000000000000000000000000000815260040161056190611917565b60405180910390fd5b5f81600b015490505f82600b018190555081600a015f9054906101000a900473ffffffffffffffffffffffffffffffffffffffff1673ffffffffffffffffffffffffffffffffffffffff166108fc8290811502906040515f60405180830381858888f193505050501580156105e1573d5f803e3d5ffd5b50505050565b60025481565b5f805f8481526020019081526020015f20905080600a0160149054906101000a900460ff16610651576040517f08c379a00000000000000000000000000000000000000000000000000000000081526004016106489061197f565b60405180910390fd5b5f8211610693576040517f08c379a000000000000000000000000000000000000000000000000000000000815260040161068a90611a0d565b60405180910390fd5b8134146106d5576040517f08c379a00000000000000000000000000000000000000000000000000000000081526004016106cc90611a9b565b60405180910390fd5b5f81600e015f3373ffffffffffffffffffffffffffffffffffffffff1673ffffffffffffffffffffffffffffffffffffffff1681526020019081526020015f20540361077e5780600f0133908060018154018082558091505060019003905f5260205f20015f9091909190916101000a81548173ffffffffffffffffffffffffffffffffffffffff021916908373ffffffffffffffffffffffffffffffffffffffff1602179055505b8181600e015f3373ffffffffffffffffffffffffffffffffffffffff1673ffffffffffffffffffffffffffffffffffffffff1681526020019081526020015f205f8282546107cc9190611ae6565b925050819055508181600b015f8282546107e69190611ae6565b92505081905550806006015481600b01541115610838576040517f08c379a000000000000000000000000000000000000000000000000000000000815260040161082f90611b89565b60405180910390fd5b3373ffffffffffffffffffffffffffffffffffffffff16837f89728d542d77fad9fe42c7d1f032c2b85f64cf938d754183b0e95359fbfac8a18460405161087f91906112e4565b60405180910390a3505050565b5f805f8381526020019081526020015f2090503373ffffffffffffffffffffffffffffffffffffffff1681600a015f9054906101000a900473ffffffffffffffffffffffffffffffffffffffff1673ffffffffffffffffffffffffffffffffffffffff1614610930576040517f08c379a000000000000000000000000000000000000000000000000000000000815260040161092790611c17565b60405180910390fd5b806008018054905081600c01541061097d576040517f08c379a000000000000000000000000000000000000000000000000000000000815260040161097490611c7f565b60405180910390fd5b5f8160080182600c01548154811061099857610997611c9d565b5b905f5260205f20015490508082600b015410156109ea576040517f08c379a00000000000000000000000000000000000000000000000000000000081526004016109e190611d3a565b60405180910390fd5b5f82600d015f9054906101000a900473ffffffffffffffffffffffffffffffffffffffff1690505f5b83600f0180549050811015610b22575f84600f018281548110610a3957610a38611c9d565b5b905f5260205f20015f9054906101000a900473ffffffffffffffffffffffffffffffffffffffff1690505f85600e015f8373ffffffffffffffffffffffffffffffffffffffff1673ffffffffffffffffffffffffffffffffffffffff1681526020019081526020015f205490505f8190508473ffffffffffffffffffffffffffffffffffffffff166340c10f1984836040518363ffffffff1660e01b8152600401610ae5929190611d58565b5f604051808303815f87803b158015610afc575f80fd5b505af1158015610b0e573d5f803e3d5ffd5b505050505050508080600101915050610a13565b5082600c015f815480929190610b3790611d7f565b9190505550610b45846104c6565b837ff2c6aa1869e2b78837827508a071dd6030476bb3d9e3d851cc681054121949c7600185600c0154610b789190611dc6565b84604051610b87929190611df9565b60405180910390a250505050565b5f808351118015610ba857506005835111155b610be7576040517f08c379a0000000000000000000000000000000000000000000000000000000008152600401610bde90611e90565b60405180910390fd5b60025f815480929190610bf990611d7f565b91905055505f8889604051610c0d90610fae565b610c18929190611eae565b604051809103905ff080158015610c31573d5f803e3d5ffd5b5090505f805f60025481526020019081526020015f2090508c815f019081610c599190612080565b508b816001019081610c6b9190612080565b508a816002019081610c7d9190612080565b5089816003019081610c8f9190612080565b5088816004019080519060200190610ca8929190610fbb565b5087816005019080519060200190610cc1929190610fbb565b5086816006018190555085816007018190555084816008019080519060200190610cec929190611012565b5083816009019080519060200190610d05929190610fbb565b503381600a015f6101000a81548173ffffffffffffffffffffffffffffffffffffffff021916908373ffffffffffffffffffffffffffffffffffffffff160217905550600181600a0160146101000a81548160ff0219169083151502179055508181600d015f6101000a81548173ffffffffffffffffffffffffffffffffffffffff021916908373ffffffffffffffffffffffffffffffffffffffff16021790555060015f3373ffffffffffffffffffffffffffffffffffffffff1673ffffffffffffffffffffffffffffffffffffffff1681526020019081526020015f20600254908060018154018082558091505060019003905f5260205f20015f90919091909150553373ffffffffffffffffffffffffffffffffffffffff166002547f0ef2bf7802c393948d08caf4d04a02be072741662e1757a4b7c941f583cdf9f784604051610e53919061214f565b60405180910390a3600254925050509a9950505050505050505050565b6001602052815f5260405f208181548110610e89575f80fd5b905f5260205f20015f91509150505481565b60605f805f8481526020019081526020015f209050806008018054905081600c015410610efd576040517f08c379a0000000000000000000000000000000000000000000000000000000008152600401610ef490611c7f565b60405180910390fd5b8060090181600c015481548110610f1757610f16611c9d565b5b905f5260205f20018054610f2a90611877565b80601f0160208091040260200160405190810160405280929190818152602001828054610f5690611877565b8015610fa15780601f10610f7857610100808354040283529160200191610fa1565b820191905f5260205f20905b815481529060010190602001808311610f8457829003601f168201915b5050505050915050919050565b61139d8061216983390190565b828054828255905f5260205f20908101928215611001579160200282015b82811115611000578251829081610ff09190612080565b5091602001919060010190610fd9565b5b50905061100e919061105d565b5090565b828054828255905f5260205f2090810192821561104c579160200282015b8281111561104b578251825591602001919060010190611030565b5b5090506110599190611080565b5090565b5b8082111561107c575f8181611073919061109b565b5060010161105e565b5090565b5b80821115611097575f815f905550600101611081565b5090565b5080546110a790611877565b5f825580601f106110b857506110d5565b601f0160209004905f5260205f20908101906110d49190611080565b5b50565b5f604051905090565b5f80fd5b5f80fd5b5f819050919050565b6110fb816110e9565b8114611105575f80fd5b50565b5f81359050611116816110f2565b92915050565b5f60208284031215611131576111306110e1565b5b5f61113e84828501611108565b91505092915050565b5f81519050919050565b5f82825260208201905092915050565b8281835e5f83830152505050565b5f601f19601f8301169050919050565b5f61118982611147565b6111938185611151565b93506111a3818560208601611161565b6111ac8161116f565b840191505092915050565b6111c0816110e9565b82525050565b5f73ffffffffffffffffffffffffffffffffffffffff82169050919050565b5f6111ef826111c6565b9050919050565b6111ff816111e5565b82525050565b5f8115159050919050565b61121981611205565b82525050565b5f610160820190508181035f830152611238818e61117f565b9050818103602083015261124c818d61117f565b90508181036040830152611260818c61117f565b90508181036060830152611274818b61117f565b9050611283608083018a6111b7565b61129060a08301896111b7565b61129d60c08301886111f6565b6112aa60e0830187611210565b6112b86101008301866111b7565b6112c66101208301856111b7565b6112d46101408301846111f6565b9c9b505050505050505050505050565b5f6020820190506112f75f8301846111b7565b92915050565b5f8060408385031215611313576113126110e1565b5b5f61132085828601611108565b925050602061133185828601611108565b9150509250929050565b5f80fd5b5f80fd5b7f4e487b71000000000000000000000000000000000000000000000000000000005f52604160045260245ffd5b6113798261116f565b810181811067ffffffffffffffff8211171561139857611397611343565b5b80604052505050565b5f6113aa6110d8565b90506113b68282611370565b919050565b5f67ffffffffffffffff8211156113d5576113d4611343565b5b6113de8261116f565b9050602081019050919050565b828183375f83830152505050565b5f61140b611406846113bb565b6113a1565b9050828152602081018484840111156114275761142661133f565b5b6114328482856113eb565b509392505050565b5f82601f83011261144e5761144d61133b565b5b813561145e8482602086016113f9565b91505092915050565b5f67ffffffffffffffff82111561148157611480611343565b5b602082029050602081019050919050565b5f80fd5b5f6114a86114a384611467565b6113a1565b905080838252602082019050602084028301858111156114cb576114ca611492565b5b835b8181101561151257803567ffffffffffffffff8111156114f0576114ef61133b565b5b8086016114fd898261143a565b855260208501945050506020810190506114cd565b5050509392505050565b5f82601f8301126115305761152f61133b565b5b8135611540848260208601611496565b91505092915050565b5f67ffffffffffffffff82111561156357611562611343565b5b602082029050602081019050919050565b5f61158661158184611549565b6113a1565b905080838252602082019050602084028301858111156115a9576115a8611492565b5b835b818110156115d257806115be8882611108565b8452602084019350506020810190506115ab565b5050509392505050565b5f82601f8301126115f0576115ef61133b565b5b8135611600848260208601611574565b91505092915050565b5f805f805f805f805f806101408b8d031215611628576116276110e1565b5b5f8b013567ffffffffffffffff811115611645576116446110e5565b5b6116518d828e0161143a565b9a505060208b013567ffffffffffffffff811115611672576116716110e5565b5b61167e8d828e0161143a565b99505060408b013567ffffffffffffffff81111561169f5761169e6110e5565b5b6116ab8d828e0161143a565b98505060608b013567ffffffffffffffff8111156116cc576116cb6110e5565b5b6116d88d828e0161143a565b97505060808b013567ffffffffffffffff8111156116f9576116f86110e5565b5b6117058d828e0161151c565b96505060a08b013567ffffffffffffffff811115611726576117256110e5565b5b6117328d828e0161151c565b95505060c06117438d828e01611108565b94505060e06117548d828e01611108565b9350506101008b013567ffffffffffffffff811115611776576117756110e5565b5b6117828d828e016115dc565b9250506101208b013567ffffffffffffffff8111156117a4576117a36110e5565b5b6117b08d828e0161151c565b9150509295989b9194979a5092959850565b6117cb816111e5565b81146117d5575f80fd5b50565b5f813590506117e6816117c2565b92915050565b5f8060408385031215611802576118016110e1565b5b5f61180f858286016117d8565b925050602061182085828601611108565b9150509250929050565b5f6020820190508181035f830152611842818461117f565b905092915050565b7f4e487b71000000000000000000000000000000000000000000000000000000005f52602260045260245ffd5b5f600282049050600182168061188e57607f821691505b6020821081036118a1576118a061184a565b5b50919050565b7f4f6e6c7920746865206f776e65722063616e2077697468647261772066756e645f8201527f7300000000000000000000000000000000000000000000000000000000000000602082015250565b5f611901602183611151565b915061190c826118a7565b604082019050919050565b5f6020820190508181035f83015261192e816118f5565b9050919050565b7f43616d706169676e206973206e6f7420616374697665000000000000000000005f82015250565b5f611969601683611151565b915061197482611935565b602082019050919050565b5f6020820190508181035f8301526119968161195d565b9050919050565b7f496e766573746d656e74206d7573742062652067726561746572207468616e205f8201527f3000000000000000000000000000000000000000000000000000000000000000602082015250565b5f6119f7602183611151565b9150611a028261199d565b604082019050919050565b5f6020820190508181035f830152611a24816119eb565b9050919050565b7f53656e742076616c756520646f6573206e6f74206d6174636820696e766573745f8201527f6d656e7420616d6f756e74000000000000000000000000000000000000000000602082015250565b5f611a85602b83611151565b9150611a9082611a2b565b604082019050919050565b5f6020820190508181035f830152611ab281611a79565b9050919050565b7f4e487b71000000000000000000000000000000000000000000000000000000005f52601160045260245ffd5b5f611af0826110e9565b9150611afb836110e9565b9250828201905080821115611b1357611b12611ab9565b5b92915050565b7f496e766573746d656e74206578636565647320746f74616c20616d6f756e74205f8201527f746f207261697365000000000000000000000000000000000000000000000000602082015250565b5f611b73602883611151565b9150611b7e82611b19565b604082019050919050565b5f6020820190508181035f830152611ba081611b67565b9050919050565b7f4f6e6c7920746865206f776e65722063616e2072657175657374206e657874205f8201527f7374616765000000000000000000000000000000000000000000000000000000602082015250565b5f611c01602583611151565b9150611c0c82611ba7565b604082019050919050565b5f6020820190508181035f830152611c2e81611bf5565b9050919050565b7f4e6f206d6f72652073746167657320746f2072657175657374000000000000005f82015250565b5f611c69601983611151565b9150611c7482611c35565b602082019050919050565b5f6020820190508181035f830152611c9681611c5d565b9050919050565b7f4e487b71000000000000000000000000000000000000000000000000000000005f52603260045260245ffd5b7f496e73756666696369656e742066756e64732072616973656420666f722074685f8201527f6973207374616765000000000000000000000000000000000000000000000000602082015250565b5f611d24602883611151565b9150611d2f82611cca565b604082019050919050565b5f6020820190508181035f830152611d5181611d18565b9050919050565b5f604082019050611d6b5f8301856111f6565b611d7860208301846111b7565b9392505050565b5f611d89826110e9565b91507fffffffffffffffffffffffffffffffffffffffffffffffffffffffffffffffff8203611dbb57611dba611ab9565b5b600182019050919050565b5f611dd0826110e9565b9150611ddb836110e9565b9250828203905081811115611df357611df2611ab9565b5b92915050565b5f604082019050611e0c5f8301856111b7565b611e1960208301846111b7565b9392505050565b7f53746167657320636f756e74206d757374206265206265747765656e203120615f8201527f6e64203500000000000000000000000000000000000000000000000000000000602082015250565b5f611e7a602483611151565b9150611e8582611e20565b604082019050919050565b5f6020820190508181035f830152611ea781611e6e565b9050919050565b5f6040820190508181035f830152611ec6818561117f565b90508181036020830152611eda818461117f565b90509392505050565b5f819050815f5260205f209050919050565b5f6020601f8301049050919050565b5f82821b905092915050565b5f60088302611f3f7fffffffffffffffffffffffffffffffffffffffffffffffffffffffffffffffff82611f04565b611f498683611f04565b95508019841693508086168417925050509392505050565b5f819050919050565b5f611f84611f7f611f7a846110e9565b611f61565b6110e9565b9050919050565b5f819050919050565b611f9d83611f6a565b611fb1611fa982611f8b565b848454611f10565b825550505050565b5f90565b611fc5611fb9565b611fd0818484611f94565b505050565b5b81811015611ff357611fe85f82611fbd565b600181019050611fd6565b5050565b601f8211156120385761200981611ee3565b61201284611ef5565b81016020851015612021578190505b61203561202d85611ef5565b830182611fd5565b50505b505050565b5f82821c905092915050565b5f6120585f198460080261203d565b1980831691505092915050565b5f6120708383612049565b9150826002028217905092915050565b61208982611147565b67ffffffffffffffff8111156120a2576120a1611343565b5b6120ac8254611877565b6120b7828285611ff7565b5f60209050601f8311600181146120e8575f84156120d6578287015190505b6120e08582612065565b865550612147565b601f1984166120f686611ee3565b5f5b8281101561211d578489015182556001820191506020850194506020810190506120f8565b8683101561213a5784890151612136601f891682612049565b8355505b6001600288020188555050505b505050505050565b5f6020820190506121625f8301846111f6565b9291505056fe608060405234801561000f575f80fd5b5060405161139d38038061139d833981810160405281019061003191906101a9565b81818160039081610042919061042c565b508060049081610052919061042c565b50505050506104fb565b5f604051905090565b5f80fd5b5f80fd5b5f80fd5b5f80fd5b5f601f19601f8301169050919050565b7f4e487b71000000000000000000000000000000000000000000000000000000005f52604160045260245ffd5b6100bb82610075565b810181811067ffffffffffffffff821117156100da576100d9610085565b5b80604052505050565b5f6100ec61005c565b90506100f882826100b2565b919050565b5f67ffffffffffffffff82111561011757610116610085565b5b61012082610075565b9050602081019050919050565b8281835e5f83830152505050565b5f61014d610148846100fd565b6100e3565b90508281526020810184848401111561016957610168610071565b5b61017484828561012d565b509392505050565b5f82601f8301126101905761018f61006d565b5b81516101a084826020860161013b565b91505092915050565b5f80604083850312156101bf576101be610065565b5b5f83015167ffffffffffffffff8111156101dc576101db610069565b5b6101e88582860161017c565b925050602083015167ffffffffffffffff81111561020957610208610069565b5b6102158582860161017c565b9150509250929050565b5f81519050919050565b7f4e487b71000000000000000000000000000000000000000000000000000000005f52602260045260245ffd5b5f600282049050600182168061026d57607f821691505b6020821081036102805761027f610229565b5b50919050565b5f819050815f5260205f209050919050565b5f6020601f8301049050919050565b5f82821b905092915050565b5f600883026102e27fffffffffffffffffffffffffffffffffffffffffffffffffffffffffffffffff826102a7565b6102ec86836102a7565b95508019841693508086168417925050509392505050565b5f819050919050565b5f819050919050565b5f61033061032b61032684610304565b61030d565b610304565b9050919050565b5f819050919050565b61034983610316565b61035d61035582610337565b8484546102b3565b825550505050565b5f90565b610371610365565b61037c818484610340565b505050565b5b8181101561039f576103945f82610369565b600181019050610382565b5050565b601f8211156103e4576103b581610286565b6103be84610298565b810160208510156103cd578190505b6103e16103d985610298565b830182610381565b50505b505050565b5f82821c905092915050565b5f6104045f19846008026103e9565b1980831691505092915050565b5f61041c83836103f5565b9150826002028217905092915050565b6104358261021f565b67ffffffffffffffff81111561044e5761044d610085565b5b6104588254610256565b6104638282856103a3565b5f60209050601f831160018114610494575f8415610482578287015190505b61048c8582610411565b8655506104f3565b601f1984166104a286610286565b5f5b828110156104c9578489015182556001820191506020850194506020810190506104a4565b868310156104e657848901516104e2601f8916826103f5565b8355505b6001600288020188555050505b505050505050565b610e95806105085f395ff3fe608060405234801561000f575f80fd5b506004361061009c575f3560e01c806340c10f191161006457806340c10f191461015a57806370a082311461017657806395d89b41146101a6578063a9059cbb146101c4578063dd62ed3e146101f45761009c565b806306fdde03146100a0578063095ea7b3146100be57806318160ddd146100ee57806323b872dd1461010c578063313ce5671461013c575b5f80fd5b6100a8610224565b6040516100b59190610b0e565b60405180910390f35b6100d860048036038101906100d39190610bbf565b6102b4565b6040516100e59190610c17565b60405180910390f35b6100f66102d6565b6040516101039190610c3f565b60405180910390f35b61012660048036038101906101219190610c58565b6102df565b6040516101339190610c17565b60405180910390f35b61014461030d565b6040516101519190610cc3565b60405180910390f35b610174600480360381019061016f9190610bbf565b610315565b005b610190600480360381019061018b9190610cdc565b610323565b60405161019d9190610c3f565b60405180910390f35b6101ae610368565b6040516101bb9190610b0e565b60405180910390f35b6101de60048036038101906101d99190610bbf565b6103f8565b6040516101eb9190610c17565b60405180910390f35b61020e60048036038101906102099190610d07565b61041a565b60405161021b9190610c3f565b60405180910390f35b60606003805461023390610d72565b80601f016020809104026020016040519081016040528092919081815260200182805461025f90610d72565b80156102aa5780601f10610281576101008083540402835291602001916102aa565b820191905f5260205f20905b81548152906001019060200180831161028d57829003601f168201915b5050505050905090565b5f806102be61049c565b90506102cb8185856104a3565b600191505092915050565b5f600254905090565b5f806102e961049c565b90506102f68582856104b5565b610301858585610547565b60019150509392505050565b5f6012905090565b61031f8282610637565b5050565b5f805f8373ffffffffffffffffffffffffffffffffffffffff1673ffffffffffffffffffffffffffffffffffffffff1681526020019081526020015f20549050919050565b60606004805461037790610d72565b80601f01602080910402602001604051908101604052809291908181526020018280546103a390610d72565b80156103ee5780601f106103c5576101008083540402835291602001916103ee565b820191905f5260205f20905b8154815290600101906020018083116103d157829003601f168201915b5050505050905090565b5f8061040261049c565b905061040f818585610547565b600191505092915050565b5f60015f8473ffffffffffffffffffffffffffffffffffffffff1673ffffffffffffffffffffffffffffffffffffffff1681526020019081526020015f205f8373ffffffffffffffffffffffffffffffffffffffff1673ffffffffffffffffffffffffffffffffffffffff1681526020019081526020015f2054905092915050565b5f33905090565b6104b083838360016106b6565b505050565b5f6104c0848461041a565b90507fffffffffffffffffffffffffffffffffffffffffffffffffffffffffffffffff81146105415781811015610532578281836040517ffb8f41b200000000000000000000000000000000000000000000000000000000815260040161052993929190610db1565b60405180910390fd5b61054084848484035f6106b6565b5b50505050565b5f73ffffffffffffffffffffffffffffffffffffffff168373ffffffffffffffffffffffffffffffffffffffff16036105b7575f6040517f96c6fd1e0000000000000000000000000000000000000000000000000000000081526004016105ae9190610de6565b60405180910390fd5b5f73ffffffffffffffffffffffffffffffffffffffff168273ffffffffffffffffffffffffffffffffffffffff1603610627575f6040517fec442f0500000000000000000000000000000000000000000000000000000000815260040161061e9190610de6565b60405180910390fd5b610632838383610885565b505050565b5f73ffffffffffffffffffffffffffffffffffffffff168273ffffffffffffffffffffffffffffffffffffffff16036106a7575f6040517fec442f0500000000000000000000000000000000000000000000000000000000815260040161069e9190610de6565b60405180910390fd5b6106b25f8383610885565b5050565b5f73ffffffffffffffffffffffffffffffffffffffff168473ffffffffffffffffffffffffffffffffffffffff1603610726575f6040517fe602df0500000000000000000000000000000000000000000000000000000000815260040161071d9190610de6565b60405180910390fd5b5f73ffffffffffffffffffffffffffffffffffffffff168373ffffffffffffffffffffffffffffffffffffffff1603610796575f6040517f94280d6200000000000000000000000000000000000000000000000000000000815260040161078d9190610de6565b60405180910390fd5b8160015f8673ffffffffffffffffffffffffffffffffffffffff1673ffffffffffffffffffffffffffffffffffffffff1681526020019081526020015f205f8573ffffffffffffffffffffffffffffffffffffffff1673ffffffffffffffffffffffffffffffffffffffff1681526020019081526020015f2081905550801561087f578273ffffffffffffffffffffffffffffffffffffffff168473ffffffffffffffffffffffffffffffffffffffff167f8c5be1e5ebec7d5bd14f71427d1e84f3dd0314c0f7b2291e5b200ac8c7c3b925846040516108769190610c3f565b60405180910390a35b50505050565b5f73ffffffffffffffffffffffffffffffffffffffff168373ffffffffffffffffffffffffffffffffffffffff16036108d5578060025f8282546108c99190610e2c565b925050819055506109a3565b5f805f8573ffffffffffffffffffffffffffffffffffffffff1673ffffffffffffffffffffffffffffffffffffffff1681526020019081526020015f205490508181101561095e578381836040517fe450d38c00000000000000000000000000000000000000000000000000000000815260040161095593929190610db1565b60405180910390fd5b8181035f808673ffffffffffffffffffffffffffffffffffffffff1673ffffffffffffffffffffffffffffffffffffffff1681526020019081526020015f2081905550505b5f73ffffffffffffffffffffffffffffffffffffffff168273ffffffffffffffffffffffffffffffffffffffff16036109ea578060025f8282540392505081905550610a34565b805f808473ffffffffffffffffffffffffffffffffffffffff1673ffffffffffffffffffffffffffffffffffffffff1681526020019081526020015f205f82825401925050819055505b8173ffffffffffffffffffffffffffffffffffffffff168373ffffffffffffffffffffffffffffffffffffffff167fddf252ad1be2c89b69c2b068fc378daa952ba7f163c4a11628f55a4df523b3ef83604051610a919190610c3f565b60405180910390a3505050565b5f81519050919050565b5f82825260208201905092915050565b8281835e5f83830152505050565b5f601f19601f8301169050919050565b5f610ae082610a9e565b610aea8185610aa8565b9350610afa818560208601610ab8565b610b0381610ac6565b840191505092915050565b5f6020820190508181035f830152610b268184610ad6565b905092915050565b5f80fd5b5f73ffffffffffffffffffffffffffffffffffffffff82169050919050565b5f610b5b82610b32565b9050919050565b610b6b81610b51565b8114610b75575f80fd5b50565b5f81359050610b8681610b62565b92915050565b5f819050919050565b610b9e81610b8c565b8114610ba8575f80fd5b50565b5f81359050610bb981610b95565b92915050565b5f8060408385031215610bd557610bd4610b2e565b5b5f610be285828601610b78565b9250506020610bf385828601610bab565b9150509250929050565b5f8115159050919050565b610c1181610bfd565b82525050565b5f602082019050610c2a5f830184610c08565b92915050565b610c3981610b8c565b82525050565b5f602082019050610c525f830184610c30565b92915050565b5f805f60608486031215610c6f57610c6e610b2e565b5b5f610c7c86828701610b78565b9350506020610c8d86828701610b78565b9250506040610c9e86828701610bab565b9150509250925092565b5f60ff82169050919050565b610cbd81610ca8565b82525050565b5f602082019050610cd65f830184610cb4565b92915050565b5f60208284031215610cf157610cf0610b2e565b5b5f610cfe84828501610b78565b91505092915050565b5f8060408385031215610d1d57610d1c610b2e565b5b5f610d2a85828601610b78565b9250506020610d3b85828601610b78565b9150509250929050565b7f4e487b71000000000000000000000000000000000000000000000000000000005f52602260045260245ffd5b5f6002820490506001821680610d8957607f821691505b602082108103610d9c57610d9b610d45565b5b50919050565b610dab81610b51565b82525050565b5f606082019050610dc45f830186610da2565b610dd16020830185610c30565b610dde6040830184610c30565b949350505050565b5f602082019050610df95f830184610da2565b92915050565b7f4e487b71000000000000000000000000000000000000000000000000000000005f52601160045260245ffd5b5f610e3682610b8c565b9150610e4183610b8c565b9250828201905080821115610e5957610e58610dff565b5b9291505056fea26469706673582212200c09db8ef098faaa744931ed2122839dbc72d66281b11b3b13243d48289ab75264736f6c634300081a0033a26469706673582212207241d952ee91f7bd0e94a161419b5e03d8e360f3d2d345a3ed64e1fa3d27787564736f6c634300081a0033",
					"opcodes": "PUSH1 0x80 PUSH1 0x40 MSTORE CALLVALUE DUP1 ISZERO PUSH1 0xE JUMPI PUSH0 DUP1 REVERT JUMPDEST POP PUSH2 0x353B DUP1 PUSH2 0x1C PUSH0 CODECOPY PUSH0 RETURN INVALID PUSH1 0x80 PUSH1 0x40 MSTORE PUSH1 0x4 CALLDATASIZE LT PUSH2 0x7A JUMPI PUSH0 CALLDATALOAD PUSH1 0xE0 SHR DUP1 PUSH4 0x7355729A GT PUSH2 0x4D JUMPI DUP1 PUSH4 0x7355729A EQ PUSH2 0x132 JUMPI DUP1 PUSH4 0x854B78A3 EQ PUSH2 0x15A JUMPI DUP1 PUSH4 0xA56A2759 EQ PUSH2 0x196 JUMPI DUP1 PUSH4 0xB6201A87 EQ PUSH2 0x1D2 JUMPI PUSH2 0x7A JUMP JUMPDEST DUP1 PUSH4 0x141961BC EQ PUSH2 0x7E JUMPI DUP1 PUSH4 0x155DD5EE EQ PUSH2 0xC4 JUMPI DUP1 PUSH4 0x2E618676 EQ PUSH2 0xEC JUMPI DUP1 PUSH4 0x2EE4811F EQ PUSH2 0x116 JUMPI JUMPDEST PUSH0 DUP1 REVERT JUMPDEST CALLVALUE DUP1 ISZERO PUSH2 0x89 JUMPI PUSH0 DUP1 REVERT JUMPDEST POP PUSH2 0xA4 PUSH1 0x4 DUP1 CALLDATASIZE SUB DUP2 ADD SWAP1 PUSH2 0x9F SWAP2 SWAP1 PUSH2 0x111C JUMP JUMPDEST PUSH2 0x20E JUMP JUMPDEST PUSH1 0x40 MLOAD PUSH2 0xBB SWAP12 SWAP11 SWAP10 SWAP9 SWAP8 SWAP7 SWAP6 SWAP5 SWAP4 SWAP3 SWAP2 SWAP1 PUSH2 0x121F JUMP JUMPDEST PUSH1 0x40 MLOAD DUP1 SWAP2 SUB SWAP1 RETURN JUMPDEST CALLVALUE DUP1 ISZERO PUSH2 0xCF JUMPI PUSH0 DUP1 REVERT JUMPDEST POP PUSH2 0xEA PUSH1 0x4 DUP1 CALLDATASIZE SUB DUP2 ADD SWAP1 PUSH2 0xE5 SWAP2 SWAP1 PUSH2 0x111C JUMP JUMPDEST PUSH2 0x4C6 JUMP JUMPDEST STOP JUMPDEST CALLVALUE DUP1 ISZERO PUSH2 0xF7 JUMPI PUSH0 DUP1 REVERT JUMPDEST POP PUSH2 0x100 PUSH2 0x5E7 JUMP JUMPDEST PUSH1 0x40 MLOAD PUSH2 0x10D SWAP2 SWAP1 PUSH2 0x12E4 JUMP JUMPDEST PUSH1 0x40 MLOAD DUP1 SWAP2 SUB SWAP1 RETURN JUMPDEST PUSH2 0x130 PUSH1 0x4 DUP1 CALLDATASIZE SUB DUP2 ADD SWAP1 PUSH2 0x12B SWAP2 SWAP1 PUSH2 0x12FD JUMP JUMPDEST PUSH2 0x5ED JUMP JUMPDEST STOP JUMPDEST CALLVALUE DUP1 ISZERO PUSH2 0x13D JUMPI PUSH0 DUP1 REVERT JUMPDEST POP PUSH2 0x158 PUSH1 0x4 DUP1 CALLDATASIZE SUB DUP2 ADD SWAP1 PUSH2 0x153 SWAP2 SWAP1 PUSH2 0x111C JUMP JUMPDEST PUSH2 0x88C JUMP JUMPDEST STOP JUMPDEST CALLVALUE DUP1 ISZERO PUSH2 0x165 JUMPI PUSH0 DUP1 REVERT JUMPDEST POP PUSH2 0x180 PUSH1 0x4 DUP1 CALLDATASIZE SUB DUP2 ADD SWAP1 PUSH2 0x17B SWAP2 SWAP1 PUSH2 0x1609 JUMP JUMPDEST PUSH2 0xB95 JUMP JUMPDEST PUSH1 0x40 MLOAD PUSH2 0x18D SWAP2 SWAP1 PUSH2 0x12E4 JUMP JUMPDEST PUSH1 0x40 MLOAD DUP1 SWAP2 SUB SWAP1 RETURN JUMPDEST CALLVALUE DUP1 ISZERO PUSH2 0x1A1 JUMPI PUSH0 DUP1 REVERT JUMPDEST POP PUSH2 0x1BC PUSH1 0x4 DUP1 CALLDATASIZE SUB DUP2 ADD SWAP1 PUSH2 0x1B7 SWAP2 SWAP1 PUSH2 0x17EC JUMP JUMPDEST PUSH2 0xE70 JUMP JUMPDEST PUSH1 0x40 MLOAD PUSH2 0x1C9 SWAP2 SWAP1 PUSH2 0x12E4 JUMP JUMPDEST PUSH1 0x40 MLOAD DUP1 SWAP2 SUB SWAP1 RETURN JUMPDEST CALLVALUE DUP1 ISZERO PUSH2 0x1DD JUMPI PUSH0 DUP1 REVERT JUMPDEST POP PUSH2 0x1F8 PUSH1 0x4 DUP1 CALLDATASIZE SUB DUP2 ADD SWAP1 PUSH2 0x1F3 SWAP2 SWAP1 PUSH2 0x111C JUMP JUMPDEST PUSH2 0xE9B JUMP JUMPDEST PUSH1 0x40 MLOAD PUSH2 0x205 SWAP2 SWAP1 PUSH2 0x182A JUMP JUMPDEST PUSH1 0x40 MLOAD DUP1 SWAP2 SUB SWAP1 RETURN JUMPDEST PUSH0 PUSH1 0x20 MSTORE DUP1 PUSH0 MSTORE PUSH1 0x40 PUSH0 KECCAK256 PUSH0 SWAP2 POP SWAP1 POP DUP1 PUSH0 ADD DUP1 SLOAD PUSH2 0x22C SWAP1 PUSH2 0x1877 JUMP JUMPDEST DUP1 PUSH1 0x1F ADD PUSH1 0x20 DUP1 SWAP2 DIV MUL PUSH1 0x20 ADD PUSH1 0x40 MLOAD SWAP1 DUP2 ADD PUSH1 0x40 MSTORE DUP1 SWAP3 SWAP2 SWAP1 DUP2 DUP2 MSTORE PUSH1 0x20 ADD DUP3 DUP1 SLOAD PUSH2 0x258 SWAP1 PUSH2 0x1877 JUMP JUMPDEST DUP1 ISZERO PUSH2 0x2A3 JUMPI DUP1 PUSH1 0x1F LT PUSH2 0x27A JUMPI PUSH2 0x100 DUP1 DUP4 SLOAD DIV MUL DUP4 MSTORE SWAP2 PUSH1 0x20 ADD SWAP2 PUSH2 0x2A3 JUMP JUMPDEST DUP3 ADD SWAP2 SWAP1 PUSH0 MSTORE PUSH1 0x20 PUSH0 KECCAK256 SWAP1 JUMPDEST DUP2 SLOAD DUP2 MSTORE SWAP1 PUSH1 0x1 ADD SWAP1 PUSH1 0x20 ADD DUP1 DUP4 GT PUSH2 0x286 JUMPI DUP3 SWAP1 SUB PUSH1 0x1F AND DUP3 ADD SWAP2 JUMPDEST POP POP POP POP POP SWAP1 DUP1 PUSH1 0x1 ADD DUP1 SLOAD PUSH2 0x2B8 SWAP1 PUSH2 0x1877 JUMP JUMPDEST DUP1 PUSH1 0x1F ADD PUSH1 0x20 DUP1 SWAP2 DIV MUL PUSH1 0x20 ADD PUSH1 0x40 MLOAD SWAP1 DUP2 ADD PUSH1 0x40 MSTORE DUP1 SWAP3 SWAP2 SWAP1 DUP2 DUP2 MSTORE PUSH1 0x20 ADD DUP3 DUP1 SLOAD PUSH2 0x2E4 SWAP1 PUSH2 0x1877 JUMP JUMPDEST DUP1 ISZERO PUSH2 0x32F JUMPI DUP1 PUSH1 0x1F LT PUSH2 0x306 JUMPI PUSH2 0x100 DUP1 DUP4 SLOAD DIV MUL DUP4 MSTORE SWAP2 PUSH1 0x20 ADD SWAP2 PUSH2 0x32F JUMP JUMPDEST DUP3 ADD SWAP2 SWAP1 PUSH0 MSTORE PUSH1 0x20 PUSH0 KECCAK256 SWAP1 JUMPDEST DUP2 SLOAD DUP2 MSTORE SWAP1 PUSH1 0x1 ADD SWAP1 PUSH1 0x20 ADD DUP1 DUP4 GT PUSH2 0x312 JUMPI DUP3 SWAP1 SUB PUSH1 0x1F AND DUP3 ADD SWAP2 JUMPDEST POP POP POP POP POP SWAP1 DUP1 PUSH1 0x2 ADD DUP1 SLOAD PUSH2 0x344 SWAP1 PUSH2 0x1877 JUMP JUMPDEST DUP1 PUSH1 0x1F ADD PUSH1 0x20 DUP1 SWAP2 DIV MUL PUSH1 0x20 ADD PUSH1 0x40 MLOAD SWAP1 DUP2 ADD PUSH1 0x40 MSTORE DUP1 SWAP3 SWAP2 SWAP1 DUP2 DUP2 MSTORE PUSH1 0x20 ADD DUP3 DUP1 SLOAD PUSH2 0x370 SWAP1 PUSH2 0x1877 JUMP JUMPDEST DUP1 ISZERO PUSH2 0x3BB JUMPI DUP1 PUSH1 0x1F LT PUSH2 0x392 JUMPI PUSH2 0x100 DUP1 DUP4 SLOAD DIV MUL DUP4 MSTORE SWAP2 PUSH1 0x20 ADD SWAP2 PUSH2 0x3BB JUMP JUMPDEST DUP3 ADD SWAP2 SWAP1 PUSH0 MSTORE PUSH1 0x20 PUSH0 KECCAK256 SWAP1 JUMPDEST DUP2 SLOAD DUP2 MSTORE SWAP1 PUSH1 0x1 ADD SWAP1 PUSH1 0x20 ADD DUP1 DUP4 GT PUSH2 0x39E JUMPI DUP3 SWAP1 SUB PUSH1 0x1F AND DUP3 ADD SWAP2 JUMPDEST POP POP POP POP POP SWAP1 DUP1 PUSH1 0x3 ADD DUP1 SLOAD PUSH2 0x3D0 SWAP1 PUSH2 0x1877 JUMP JUMPDEST DUP1 PUSH1 0x1F ADD PUSH1 0x20 DUP1 SWAP2 DIV MUL PUSH1 0x20 ADD PUSH1 0x40 MLOAD SWAP1 DUP2 ADD PUSH1 0x40 MSTORE DUP1 SWAP3 SWAP2 SWAP1 DUP2 DUP2 MSTORE PUSH1 0x20 ADD DUP3 DUP1 SLOAD PUSH2 0x3FC SWAP1 PUSH2 0x1877 JUMP JUMPDEST DUP1 ISZERO PUSH2 0x447 JUMPI DUP1 PUSH1 0x1F LT PUSH2 0x41E JUMPI PUSH2 0x100 DUP1 DUP4 SLOAD DIV MUL DUP4 MSTORE SWAP2 PUSH1 0x20 ADD SWAP2 PUSH2 0x447 JUMP JUMPDEST DUP3 ADD SWAP2 SWAP1 PUSH0 MSTORE PUSH1 0x20 PUSH0 KECCAK256 SWAP1 JUMPDEST DUP2 SLOAD DUP2 MSTORE SWAP1 PUSH1 0x1 ADD SWAP1 PUSH1 0x20 ADD DUP1 DUP4 GT PUSH2 0x42A JUMPI DUP3 SWAP1 SUB PUSH1 0x1F AND DUP3 ADD SWAP2 JUMPDEST POP POP POP POP POP SWAP1 DUP1 PUSH1 0x6 ADD SLOAD SWAP1 DUP1 PUSH1 0x7 ADD SLOAD SWAP1 DUP1 PUSH1 0xA ADD PUSH0 SWAP1 SLOAD SWAP1 PUSH2 0x100 EXP SWAP1 DIV PUSH20 0xFFFFFFFFFFFFFFFFFFFFFFFFFFFFFFFFFFFFFFFF AND SWAP1 DUP1 PUSH1 0xA ADD PUSH1 0x14 SWAP1 SLOAD SWAP1 PUSH2 0x100 EXP SWAP1 DIV PUSH1 0xFF AND SWAP1 DUP1 PUSH1 0xB ADD SLOAD SWAP1 DUP1 PUSH1 0xC ADD SLOAD SWAP1 DUP1 PUSH1 0xD ADD PUSH0 SWAP1 SLOAD SWAP1 PUSH2 0x100 EXP SWAP1 DIV PUSH20 0xFFFFFFFFFFFFFFFFFFFFFFFFFFFFFFFFFFFFFFFF AND SWAP1 POP DUP12 JUMP JUMPDEST PUSH0 DUP1 PUSH0 DUP4 DUP2 MSTORE PUSH1 0x20 ADD SWAP1 DUP2 MSTORE PUSH1 0x20 ADD PUSH0 KECCAK256 SWAP1 POP DUP1 PUSH1 0xA ADD PUSH0 SWAP1 SLOAD SWAP1 PUSH2 0x100 EXP SWAP1 DIV PUSH20 0xFFFFFFFFFFFFFFFFFFFFFFFFFFFFFFFFFFFFFFFF AND PUSH20 0xFFFFFFFFFFFFFFFFFFFFFFFFFFFFFFFFFFFFFFFF AND CALLER PUSH20 0xFFFFFFFFFFFFFFFFFFFFFFFFFFFFFFFFFFFFFFFF AND EQ PUSH2 0x56A JUMPI PUSH1 0x40 MLOAD PUSH32 0x8C379A000000000000000000000000000000000000000000000000000000000 DUP2 MSTORE PUSH1 0x4 ADD PUSH2 0x561 SWAP1 PUSH2 0x1917 JUMP JUMPDEST PUSH1 0x40 MLOAD DUP1 SWAP2 SUB SWAP1 REVERT JUMPDEST PUSH0 DUP2 PUSH1 0xB ADD SLOAD SWAP1 POP PUSH0 DUP3 PUSH1 0xB ADD DUP2 SWAP1 SSTORE POP DUP2 PUSH1 0xA ADD PUSH0 SWAP1 SLOAD SWAP1 PUSH2 0x100 EXP SWAP1 DIV PUSH20 0xFFFFFFFFFFFFFFFFFFFFFFFFFFFFFFFFFFFFFFFF AND PUSH20 0xFFFFFFFFFFFFFFFFFFFFFFFFFFFFFFFFFFFFFFFF AND PUSH2 0x8FC DUP3 SWAP1 DUP2 ISZERO MUL SWAP1 PUSH1 0x40 MLOAD PUSH0 PUSH1 0x40 MLOAD DUP1 DUP4 SUB DUP2 DUP6 DUP9 DUP9 CALL SWAP4 POP POP POP POP ISZERO DUP1 ISZERO PUSH2 0x5E1 JUMPI RETURNDATASIZE PUSH0 DUP1 RETURNDATACOPY RETURNDATASIZE PUSH0 REVERT JUMPDEST POP POP POP POP JUMP JUMPDEST PUSH1 0x2 SLOAD DUP2 JUMP JUMPDEST PUSH0 DUP1 PUSH0 DUP5 DUP2 MSTORE PUSH1 0x20 ADD SWAP1 DUP2 MSTORE PUSH1 0x20 ADD PUSH0 KECCAK256 SWAP1 POP DUP1 PUSH1 0xA ADD PUSH1 0x14 SWAP1 SLOAD SWAP1 PUSH2 0x100 EXP SWAP1 DIV PUSH1 0xFF AND PUSH2 0x651 JUMPI PUSH1 0x40 MLOAD PUSH32 0x8C379A000000000000000000000000000000000000000000000000000000000 DUP2 MSTORE PUSH1 0x4 ADD PUSH2 0x648 SWAP1 PUSH2 0x197F JUMP JUMPDEST PUSH1 0x40 MLOAD DUP1 SWAP2 SUB SWAP1 REVERT JUMPDEST PUSH0 DUP3 GT PUSH2 0x693 JUMPI PUSH1 0x40 MLOAD PUSH32 0x8C379A000000000000000000000000000000000000000000000000000000000 DUP2 MSTORE PUSH1 0x4 ADD PUSH2 0x68A SWAP1 PUSH2 0x1A0D JUMP JUMPDEST PUSH1 0x40 MLOAD DUP1 SWAP2 SUB SWAP1 REVERT JUMPDEST DUP2 CALLVALUE EQ PUSH2 0x6D5 JUMPI PUSH1 0x40 MLOAD PUSH32 0x8C379A000000000000000000000000000000000000000000000000000000000 DUP2 MSTORE PUSH1 0x4 ADD PUSH2 0x6CC SWAP1 PUSH2 0x1A9B JUMP JUMPDEST PUSH1 0x40 MLOAD DUP1 SWAP2 SUB SWAP1 REVERT JUMPDEST PUSH0 DUP2 PUSH1 0xE ADD PUSH0 CALLER PUSH20 0xFFFFFFFFFFFFFFFFFFFFFFFFFFFFFFFFFFFFFFFF AND PUSH20 0xFFFFFFFFFFFFFFFFFFFFFFFFFFFFFFFFFFFFFFFF AND DUP2 MSTORE PUSH1 0x20 ADD SWAP1 DUP2 MSTORE PUSH1 0x20 ADD PUSH0 KECCAK256 SLOAD SUB PUSH2 0x77E JUMPI DUP1 PUSH1 0xF ADD CALLER SWAP1 DUP1 PUSH1 0x1 DUP2 SLOAD ADD DUP1 DUP3 SSTORE DUP1 SWAP2 POP POP PUSH1 0x1 SWAP1 SUB SWAP1 PUSH0 MSTORE PUSH1 0x20 PUSH0 KECCAK256 ADD PUSH0 SWAP1 SWAP2 SWAP1 SWAP2 SWAP1 SWAP2 PUSH2 0x100 EXP DUP2 SLOAD DUP2 PUSH20 0xFFFFFFFFFFFFFFFFFFFFFFFFFFFFFFFFFFFFFFFF MUL NOT AND SWAP1 DUP4 PUSH20 0xFFFFFFFFFFFFFFFFFFFFFFFFFFFFFFFFFFFFFFFF AND MUL OR SWAP1 SSTORE POP JUMPDEST DUP2 DUP2 PUSH1 0xE ADD PUSH0 CALLER PUSH20 0xFFFFFFFFFFFFFFFFFFFFFFFFFFFFFFFFFFFFFFFF AND PUSH20 0xFFFFFFFFFFFFFFFFFFFFFFFFFFFFFFFFFFFFFFFF AND DUP2 MSTORE PUSH1 0x20 ADD SWAP1 DUP2 MSTORE PUSH1 0x20 ADD PUSH0 KECCAK256 PUSH0 DUP3 DUP3 SLOAD PUSH2 0x7CC SWAP2 SWAP1 PUSH2 0x1AE6 JUMP JUMPDEST SWAP3 POP POP DUP2 SWAP1 SSTORE POP DUP2 DUP2 PUSH1 0xB ADD PUSH0 DUP3 DUP3 SLOAD PUSH2 0x7E6 SWAP2 SWAP1 PUSH2 0x1AE6 JUMP JUMPDEST SWAP3 POP POP DUP2 SWAP1 SSTORE POP DUP1 PUSH1 0x6 ADD SLOAD DUP2 PUSH1 0xB ADD SLOAD GT ISZERO PUSH2 0x838 JUMPI PUSH1 0x40 MLOAD PUSH32 0x8C379A000000000000000000000000000000000000000000000000000000000 DUP2 MSTORE PUSH1 0x4 ADD PUSH2 0x82F SWAP1 PUSH2 0x1B89 JUMP JUMPDEST PUSH1 0x40 MLOAD DUP1 SWAP2 SUB SWAP1 REVERT JUMPDEST CALLER PUSH20 0xFFFFFFFFFFFFFFFFFFFFFFFFFFFFFFFFFFFFFFFF AND DUP4 PUSH32 0x89728D542D77FAD9FE42C7D1F032C2B85F64CF938D754183B0E95359FBFAC8A1 DUP5 PUSH1 0x40 MLOAD PUSH2 0x87F SWAP2 SWAP1 PUSH2 0x12E4 JUMP JUMPDEST PUSH1 0x40 MLOAD DUP1 SWAP2 SUB SWAP1 LOG3 POP POP POP JUMP JUMPDEST PUSH0 DUP1 PUSH0 DUP4 DUP2 MSTORE PUSH1 0x20 ADD SWAP1 DUP2 MSTORE PUSH1 0x20 ADD PUSH0 KECCAK256 SWAP1 POP CALLER PUSH20 0xFFFFFFFFFFFFFFFFFFFFFFFFFFFFFFFFFFFFFFFF AND DUP2 PUSH1 0xA ADD PUSH0 SWAP1 SLOAD SWAP1 PUSH2 0x100 EXP SWAP1 DIV PUSH20 0xFFFFFFFFFFFFFFFFFFFFFFFFFFFFFFFFFFFFFFFF AND PUSH20 0xFFFFFFFFFFFFFFFFFFFFFFFFFFFFFFFFFFFFFFFF AND EQ PUSH2 0x930 JUMPI PUSH1 0x40 MLOAD PUSH32 0x8C379A000000000000000000000000000000000000000000000000000000000 DUP2 MSTORE PUSH1 0x4 ADD PUSH2 0x927 SWAP1 PUSH2 0x1C17 JUMP JUMPDEST PUSH1 0x40 MLOAD DUP1 SWAP2 SUB SWAP1 REVERT JUMPDEST DUP1 PUSH1 0x8 ADD DUP1 SLOAD SWAP1 POP DUP2 PUSH1 0xC ADD SLOAD LT PUSH2 0x97D JUMPI PUSH1 0x40 MLOAD PUSH32 0x8C379A000000000000000000000000000000000000000000000000000000000 DUP2 MSTORE PUSH1 0x4 ADD PUSH2 0x974 SWAP1 PUSH2 0x1C7F JUMP JUMPDEST PUSH1 0x40 MLOAD DUP1 SWAP2 SUB SWAP1 REVERT JUMPDEST PUSH0 DUP2 PUSH1 0x8 ADD DUP3 PUSH1 0xC ADD SLOAD DUP2 SLOAD DUP2 LT PUSH2 0x998 JUMPI PUSH2 0x997 PUSH2 0x1C9D JUMP JUMPDEST JUMPDEST SWAP1 PUSH0 MSTORE PUSH1 0x20 PUSH0 KECCAK256 ADD SLOAD SWAP1 POP DUP1 DUP3 PUSH1 0xB ADD SLOAD LT ISZERO PUSH2 0x9EA JUMPI PUSH1 0x40 MLOAD PUSH32 0x8C379A000000000000000000000000000000000000000000000000000000000 DUP2 MSTORE PUSH1 0x4 ADD PUSH2 0x9E1 SWAP1 PUSH2 0x1D3A JUMP JUMPDEST PUSH1 0x40 MLOAD DUP1 SWAP2 SUB SWAP1 REVERT JUMPDEST PUSH0 DUP3 PUSH1 0xD ADD PUSH0 SWAP1 SLOAD SWAP1 PUSH2 0x100 EXP SWAP1 DIV PUSH20 0xFFFFFFFFFFFFFFFFFFFFFFFFFFFFFFFFFFFFFFFF AND SWAP1 POP PUSH0 JUMPDEST DUP4 PUSH1 0xF ADD DUP1 SLOAD SWAP1 POP DUP2 LT ISZERO PUSH2 0xB22 JUMPI PUSH0 DUP5 PUSH1 0xF ADD DUP3 DUP2 SLOAD DUP2 LT PUSH2 0xA39 JUMPI PUSH2 0xA38 PUSH2 0x1C9D JUMP JUMPDEST JUMPDEST SWAP1 PUSH0 MSTORE PUSH1 0x20 PUSH0 KECCAK256 ADD PUSH0 SWAP1 SLOAD SWAP1 PUSH2 0x100 EXP SWAP1 DIV PUSH20 0xFFFFFFFFFFFFFFFFFFFFFFFFFFFFFFFFFFFFFFFF AND SWAP1 POP PUSH0 DUP6 PUSH1 0xE ADD PUSH0 DUP4 PUSH20 0xFFFFFFFFFFFFFFFFFFFFFFFFFFFFFFFFFFFFFFFF AND PUSH20 0xFFFFFFFFFFFFFFFFFFFFFFFFFFFFFFFFFFFFFFFF AND DUP2 MSTORE PUSH1 0x20 ADD SWAP1 DUP2 MSTORE PUSH1 0x20 ADD PUSH0 KECCAK256 SLOAD SWAP1 POP PUSH0 DUP2 SWAP1 POP DUP5 PUSH20 0xFFFFFFFFFFFFFFFFFFFFFFFFFFFFFFFFFFFFFFFF AND PUSH4 0x40C10F19 DUP5 DUP4 PUSH1 0x40 MLOAD DUP4 PUSH4 0xFFFFFFFF AND PUSH1 0xE0 SHL DUP2 MSTORE PUSH1 0x4 ADD PUSH2 0xAE5 SWAP3 SWAP2 SWAP1 PUSH2 0x1D58 JUMP JUMPDEST PUSH0 PUSH1 0x40 MLOAD DUP1 DUP4 SUB DUP2 PUSH0 DUP8 DUP1 EXTCODESIZE ISZERO DUP1 ISZERO PUSH2 0xAFC JUMPI PUSH0 DUP1 REVERT JUMPDEST POP GAS CALL ISZERO DUP1 ISZERO PUSH2 0xB0E JUMPI RETURNDATASIZE PUSH0 DUP1 RETURNDATACOPY RETURNDATASIZE PUSH0 REVERT JUMPDEST POP POP POP POP POP POP POP DUP1 DUP1 PUSH1 0x1 ADD SWAP2 POP POP PUSH2 0xA13 JUMP JUMPDEST POP DUP3 PUSH1 0xC ADD PUSH0 DUP2 SLOAD DUP1 SWAP3 SWAP2 SWAP1 PUSH2 0xB37 SWAP1 PUSH2 0x1D7F JUMP JUMPDEST SWAP2 SWAP1 POP SSTORE POP PUSH2 0xB45 DUP5 PUSH2 0x4C6 JUMP JUMPDEST DUP4 PUSH32 0xF2C6AA1869E2B78837827508A071DD6030476BB3D9E3D851CC681054121949C7 PUSH1 0x1 DUP6 PUSH1 0xC ADD SLOAD PUSH2 0xB78 SWAP2 SWAP1 PUSH2 0x1DC6 JUMP JUMPDEST DUP5 PUSH1 0x40 MLOAD PUSH2 0xB87 SWAP3 SWAP2 SWAP1 PUSH2 0x1DF9 JUMP JUMPDEST PUSH1 0x40 MLOAD DUP1 SWAP2 SUB SWAP1 LOG2 POP POP POP POP JUMP JUMPDEST PUSH0 DUP1 DUP4 MLOAD GT DUP1 ISZERO PUSH2 0xBA8 JUMPI POP PUSH1 0x5 DUP4 MLOAD GT ISZERO JUMPDEST PUSH2 0xBE7 JUMPI PUSH1 0x40 MLOAD PUSH32 0x8C379A000000000000000000000000000000000000000000000000000000000 DUP2 MSTORE PUSH1 0x4 ADD PUSH2 0xBDE SWAP1 PUSH2 0x1E90 JUMP JUMPDEST PUSH1 0x40 MLOAD DUP1 SWAP2 SUB SWAP1 REVERT JUMPDEST PUSH1 0x2 PUSH0 DUP2 SLOAD DUP1 SWAP3 SWAP2 SWAP1 PUSH2 0xBF9 SWAP1 PUSH2 0x1D7F JUMP JUMPDEST SWAP2 SWAP1 POP SSTORE POP PUSH0 DUP9 DUP10 PUSH1 0x40 MLOAD PUSH2 0xC0D SWAP1 PUSH2 0xFAE JUMP JUMPDEST PUSH2 0xC18 SWAP3 SWAP2 SWAP1 PUSH2 0x1EAE JUMP JUMPDEST PUSH1 0x40 MLOAD DUP1 SWAP2 SUB SWAP1 PUSH0 CREATE DUP1 ISZERO DUP1 ISZERO PUSH2 0xC31 JUMPI RETURNDATASIZE PUSH0 DUP1 RETURNDATACOPY RETURNDATASIZE PUSH0 REVERT JUMPDEST POP SWAP1 POP PUSH0 DUP1 PUSH0 PUSH1 0x2 SLOAD DUP2 MSTORE PUSH1 0x20 ADD SWAP1 DUP2 MSTORE PUSH1 0x20 ADD PUSH0 KECCAK256 SWAP1 POP DUP13 DUP2 PUSH0 ADD SWAP1 DUP2 PUSH2 0xC59 SWAP2 SWAP1 PUSH2 0x2080 JUMP JUMPDEST POP DUP12 DUP2 PUSH1 0x1 ADD SWAP1 DUP2 PUSH2 0xC6B SWAP2 SWAP1 PUSH2 0x2080 JUMP JUMPDEST POP DUP11 DUP2 PUSH1 0x2 ADD SWAP1 DUP2 PUSH2 0xC7D SWAP2 SWAP1 PUSH2 0x2080 JUMP JUMPDEST POP DUP10 DUP2 PUSH1 0x3 ADD SWAP1 DUP2 PUSH2 0xC8F SWAP2 SWAP1 PUSH2 0x2080 JUMP JUMPDEST POP DUP9 DUP2 PUSH1 0x4 ADD SWAP1 DUP1 MLOAD SWAP1 PUSH1 0x20 ADD SWAP1 PUSH2 0xCA8 SWAP3 SWAP2 SWAP1 PUSH2 0xFBB JUMP JUMPDEST POP DUP8 DUP2 PUSH1 0x5 ADD SWAP1 DUP1 MLOAD SWAP1 PUSH1 0x20 ADD SWAP1 PUSH2 0xCC1 SWAP3 SWAP2 SWAP1 PUSH2 0xFBB JUMP JUMPDEST POP DUP7 DUP2 PUSH1 0x6 ADD DUP2 SWAP1 SSTORE POP DUP6 DUP2 PUSH1 0x7 ADD DUP2 SWAP1 SSTORE POP DUP5 DUP2 PUSH1 0x8 ADD SWAP1 DUP1 MLOAD SWAP1 PUSH1 0x20 ADD SWAP1 PUSH2 0xCEC SWAP3 SWAP2 SWAP1 PUSH2 0x1012 JUMP JUMPDEST POP DUP4 DUP2 PUSH1 0x9 ADD SWAP1 DUP1 MLOAD SWAP1 PUSH1 0x20 ADD SWAP1 PUSH2 0xD05 SWAP3 SWAP2 SWAP1 PUSH2 0xFBB JUMP JUMPDEST POP CALLER DUP2 PUSH1 0xA ADD PUSH0 PUSH2 0x100 EXP DUP2 SLOAD DUP2 PUSH20 0xFFFFFFFFFFFFFFFFFFFFFFFFFFFFFFFFFFFFFFFF MUL NOT AND SWAP1 DUP4 PUSH20 0xFFFFFFFFFFFFFFFFFFFFFFFFFFFFFFFFFFFFFFFF AND MUL OR SWAP1 SSTORE POP PUSH1 0x1 DUP2 PUSH1 0xA ADD PUSH1 0x14 PUSH2 0x100 EXP DUP2 SLOAD DUP2 PUSH1 0xFF MUL NOT AND SWAP1 DUP4 ISZERO ISZERO MUL OR SWAP1 SSTORE POP DUP2 DUP2 PUSH1 0xD ADD PUSH0 PUSH2 0x100 EXP DUP2 SLOAD DUP2 PUSH20 0xFFFFFFFFFFFFFFFFFFFFFFFFFFFFFFFFFFFFFFFF MUL NOT AND SWAP1 DUP4 PUSH20 0xFFFFFFFFFFFFFFFFFFFFFFFFFFFFFFFFFFFFFFFF AND MUL OR SWAP1 SSTORE POP PUSH1 0x1 PUSH0 CALLER PUSH20 0xFFFFFFFFFFFFFFFFFFFFFFFFFFFFFFFFFFFFFFFF AND PUSH20 0xFFFFFFFFFFFFFFFFFFFFFFFFFFFFFFFFFFFFFFFF AND DUP2 MSTORE PUSH1 0x20 ADD SWAP1 DUP2 MSTORE PUSH1 0x20 ADD PUSH0 KECCAK256 PUSH1 0x2 SLOAD SWAP1 DUP1 PUSH1 0x1 DUP2 SLOAD ADD DUP1 DUP3 SSTORE DUP1 SWAP2 POP POP PUSH1 0x1 SWAP1 SUB SWAP1 PUSH0 MSTORE PUSH1 0x20 PUSH0 KECCAK256 ADD PUSH0 SWAP1 SWAP2 SWAP1 SWAP2 SWAP1 SWAP2 POP SSTORE CALLER PUSH20 0xFFFFFFFFFFFFFFFFFFFFFFFFFFFFFFFFFFFFFFFF AND PUSH1 0x2 SLOAD PUSH32 0xEF2BF7802C393948D08CAF4D04A02BE072741662E1757A4B7C941F583CDF9F7 DUP5 PUSH1 0x40 MLOAD PUSH2 0xE53 SWAP2 SWAP1 PUSH2 0x214F JUMP JUMPDEST PUSH1 0x40 MLOAD DUP1 SWAP2 SUB SWAP1 LOG3 PUSH1 0x2 SLOAD SWAP3 POP POP POP SWAP11 SWAP10 POP POP POP POP POP POP POP POP POP POP JUMP JUMPDEST PUSH1 0x1 PUSH1 0x20 MSTORE DUP2 PUSH0 MSTORE PUSH1 0x40 PUSH0 KECCAK256 DUP2 DUP2 SLOAD DUP2 LT PUSH2 0xE89 JUMPI PUSH0 DUP1 REVERT JUMPDEST SWAP1 PUSH0 MSTORE PUSH1 0x20 PUSH0 KECCAK256 ADD PUSH0 SWAP2 POP SWAP2 POP POP SLOAD DUP2 JUMP JUMPDEST PUSH1 0x60 PUSH0 DUP1 PUSH0 DUP5 DUP2 MSTORE PUSH1 0x20 ADD SWAP1 DUP2 MSTORE PUSH1 0x20 ADD PUSH0 KECCAK256 SWAP1 POP DUP1 PUSH1 0x8 ADD DUP1 SLOAD SWAP1 POP DUP2 PUSH1 0xC ADD SLOAD LT PUSH2 0xEFD JUMPI PUSH1 0x40 MLOAD PUSH32 0x8C379A000000000000000000000000000000000000000000000000000000000 DUP2 MSTORE PUSH1 0x4 ADD PUSH2 0xEF4 SWAP1 PUSH2 0x1C7F JUMP JUMPDEST PUSH1 0x40 MLOAD DUP1 SWAP2 SUB SWAP1 REVERT JUMPDEST DUP1 PUSH1 0x9 ADD DUP2 PUSH1 0xC ADD SLOAD DUP2 SLOAD DUP2 LT PUSH2 0xF17 JUMPI PUSH2 0xF16 PUSH2 0x1C9D JUMP JUMPDEST JUMPDEST SWAP1 PUSH0 MSTORE PUSH1 0x20 PUSH0 KECCAK256 ADD DUP1 SLOAD PUSH2 0xF2A SWAP1 PUSH2 0x1877 JUMP JUMPDEST DUP1 PUSH1 0x1F ADD PUSH1 0x20 DUP1 SWAP2 DIV MUL PUSH1 0x20 ADD PUSH1 0x40 MLOAD SWAP1 DUP2 ADD PUSH1 0x40 MSTORE DUP1 SWAP3 SWAP2 SWAP1 DUP2 DUP2 MSTORE PUSH1 0x20 ADD DUP3 DUP1 SLOAD PUSH2 0xF56 SWAP1 PUSH2 0x1877 JUMP JUMPDEST DUP1 ISZERO PUSH2 0xFA1 JUMPI DUP1 PUSH1 0x1F LT PUSH2 0xF78 JUMPI PUSH2 0x100 DUP1 DUP4 SLOAD DIV MUL DUP4 MSTORE SWAP2 PUSH1 0x20 ADD SWAP2 PUSH2 0xFA1 JUMP JUMPDEST DUP3 ADD SWAP2 SWAP1 PUSH0 MSTORE PUSH1 0x20 PUSH0 KECCAK256 SWAP1 JUMPDEST DUP2 SLOAD DUP2 MSTORE SWAP1 PUSH1 0x1 ADD SWAP1 PUSH1 0x20 ADD DUP1 DUP4 GT PUSH2 0xF84 JUMPI DUP3 SWAP1 SUB PUSH1 0x1F AND DUP3 ADD SWAP2 JUMPDEST POP POP POP POP POP SWAP2 POP POP SWAP2 SWAP1 POP JUMP JUMPDEST PUSH2 0x139D DUP1 PUSH2 0x2169 DUP4 CODECOPY ADD SWAP1 JUMP JUMPDEST DUP3 DUP1 SLOAD DUP3 DUP3 SSTORE SWAP1 PUSH0 MSTORE PUSH1 0x20 PUSH0 KECCAK256 SWAP1 DUP2 ADD SWAP3 DUP3 ISZERO PUSH2 0x1001 JUMPI SWAP2 PUSH1 0x20 MUL DUP3 ADD JUMPDEST DUP3 DUP2 GT ISZERO PUSH2 0x1000 JUMPI DUP3 MLOAD DUP3 SWAP1 DUP2 PUSH2 0xFF0 SWAP2 SWAP1 PUSH2 0x2080 JUMP JUMPDEST POP SWAP2 PUSH1 0x20 ADD SWAP2 SWAP1 PUSH1 0x1 ADD SWAP1 PUSH2 0xFD9 JUMP JUMPDEST JUMPDEST POP SWAP1 POP PUSH2 0x100E SWAP2 SWAP1 PUSH2 0x105D JUMP JUMPDEST POP SWAP1 JUMP JUMPDEST DUP3 DUP1 SLOAD DUP3 DUP3 SSTORE SWAP1 PUSH0 MSTORE PUSH1 0x20 PUSH0 KECCAK256 SWAP1 DUP2 ADD SWAP3 DUP3 ISZERO PUSH2 0x104C JUMPI SWAP2 PUSH1 0x20 MUL DUP3 ADD JUMPDEST DUP3 DUP2 GT ISZERO PUSH2 0x104B JUMPI DUP3 MLOAD DUP3 SSTORE SWAP2 PUSH1 0x20 ADD SWAP2 SWAP1 PUSH1 0x1 ADD SWAP1 PUSH2 0x1030 JUMP JUMPDEST JUMPDEST POP SWAP1 POP PUSH2 0x1059 SWAP2 SWAP1 PUSH2 0x1080 JUMP JUMPDEST POP SWAP1 JUMP JUMPDEST JUMPDEST DUP1 DUP3 GT ISZERO PUSH2 0x107C JUMPI PUSH0 DUP2 DUP2 PUSH2 0x1073 SWAP2 SWAP1 PUSH2 0x109B JUMP JUMPDEST POP PUSH1 0x1 ADD PUSH2 0x105E JUMP JUMPDEST POP SWAP1 JUMP JUMPDEST JUMPDEST DUP1 DUP3 GT ISZERO PUSH2 0x1097 JUMPI PUSH0 DUP2 PUSH0 SWAP1 SSTORE POP PUSH1 0x1 ADD PUSH2 0x1081 JUMP JUMPDEST POP SWAP1 JUMP JUMPDEST POP DUP1 SLOAD PUSH2 0x10A7 SWAP1 PUSH2 0x1877 JUMP JUMPDEST PUSH0 DUP3 SSTORE DUP1 PUSH1 0x1F LT PUSH2 0x10B8 JUMPI POP PUSH2 0x10D5 JUMP JUMPDEST PUSH1 0x1F ADD PUSH1 0x20 SWAP1 DIV SWAP1 PUSH0 MSTORE PUSH1 0x20 PUSH0 KECCAK256 SWAP1 DUP2 ADD SWAP1 PUSH2 0x10D4 SWAP2 SWAP1 PUSH2 0x1080 JUMP JUMPDEST JUMPDEST POP JUMP JUMPDEST PUSH0 PUSH1 0x40 MLOAD SWAP1 POP SWAP1 JUMP JUMPDEST PUSH0 DUP1 REVERT JUMPDEST PUSH0 DUP1 REVERT JUMPDEST PUSH0 DUP2 SWAP1 POP SWAP2 SWAP1 POP JUMP JUMPDEST PUSH2 0x10FB DUP2 PUSH2 0x10E9 JUMP JUMPDEST DUP2 EQ PUSH2 0x1105 JUMPI PUSH0 DUP1 REVERT JUMPDEST POP JUMP JUMPDEST PUSH0 DUP2 CALLDATALOAD SWAP1 POP PUSH2 0x1116 DUP2 PUSH2 0x10F2 JUMP JUMPDEST SWAP3 SWAP2 POP POP JUMP JUMPDEST PUSH0 PUSH1 0x20 DUP3 DUP5 SUB SLT ISZERO PUSH2 0x1131 JUMPI PUSH2 0x1130 PUSH2 0x10E1 JUMP JUMPDEST JUMPDEST PUSH0 PUSH2 0x113E DUP5 DUP3 DUP6 ADD PUSH2 0x1108 JUMP JUMPDEST SWAP2 POP POP SWAP3 SWAP2 POP POP JUMP JUMPDEST PUSH0 DUP2 MLOAD SWAP1 POP SWAP2 SWAP1 POP JUMP JUMPDEST PUSH0 DUP3 DUP3 MSTORE PUSH1 0x20 DUP3 ADD SWAP1 POP SWAP3 SWAP2 POP POP JUMP JUMPDEST DUP3 DUP2 DUP4 MCOPY PUSH0 DUP4 DUP4 ADD MSTORE POP POP POP JUMP JUMPDEST PUSH0 PUSH1 0x1F NOT PUSH1 0x1F DUP4 ADD AND SWAP1 POP SWAP2 SWAP1 POP JUMP JUMPDEST PUSH0 PUSH2 0x1189 DUP3 PUSH2 0x1147 JUMP JUMPDEST PUSH2 0x1193 DUP2 DUP6 PUSH2 0x1151 JUMP JUMPDEST SWAP4 POP PUSH2 0x11A3 DUP2 DUP6 PUSH1 0x20 DUP7 ADD PUSH2 0x1161 JUMP JUMPDEST PUSH2 0x11AC DUP2 PUSH2 0x116F JUMP JUMPDEST DUP5 ADD SWAP2 POP POP SWAP3 SWAP2 POP POP JUMP JUMPDEST PUSH2 0x11C0 DUP2 PUSH2 0x10E9 JUMP JUMPDEST DUP3 MSTORE POP POP JUMP JUMPDEST PUSH0 PUSH20 0xFFFFFFFFFFFFFFFFFFFFFFFFFFFFFFFFFFFFFFFF DUP3 AND SWAP1 POP SWAP2 SWAP1 POP JUMP JUMPDEST PUSH0 PUSH2 0x11EF DUP3 PUSH2 0x11C6 JUMP JUMPDEST SWAP1 POP SWAP2 SWAP1 POP JUMP JUMPDEST PUSH2 0x11FF DUP2 PUSH2 0x11E5 JUMP JUMPDEST DUP3 MSTORE POP POP JUMP JUMPDEST PUSH0 DUP2 ISZERO ISZERO SWAP1 POP SWAP2 SWAP1 POP JUMP JUMPDEST PUSH2 0x1219 DUP2 PUSH2 0x1205 JUMP JUMPDEST DUP3 MSTORE POP POP JUMP JUMPDEST PUSH0 PUSH2 0x160 DUP3 ADD SWAP1 POP DUP2 DUP2 SUB PUSH0 DUP4 ADD MSTORE PUSH2 0x1238 DUP2 DUP15 PUSH2 0x117F JUMP JUMPDEST SWAP1 POP DUP2 DUP2 SUB PUSH1 0x20 DUP4 ADD MSTORE PUSH2 0x124C DUP2 DUP14 PUSH2 0x117F JUMP JUMPDEST SWAP1 POP DUP2 DUP2 SUB PUSH1 0x40 DUP4 ADD MSTORE PUSH2 0x1260 DUP2 DUP13 PUSH2 0x117F JUMP JUMPDEST SWAP1 POP DUP2 DUP2 SUB PUSH1 0x60 DUP4 ADD MSTORE PUSH2 0x1274 DUP2 DUP12 PUSH2 0x117F JUMP JUMPDEST SWAP1 POP PUSH2 0x1283 PUSH1 0x80 DUP4 ADD DUP11 PUSH2 0x11B7 JUMP JUMPDEST PUSH2 0x1290 PUSH1 0xA0 DUP4 ADD DUP10 PUSH2 0x11B7 JUMP JUMPDEST PUSH2 0x129D PUSH1 0xC0 DUP4 ADD DUP9 PUSH2 0x11F6 JUMP JUMPDEST PUSH2 0x12AA PUSH1 0xE0 DUP4 ADD DUP8 PUSH2 0x1210 JUMP JUMPDEST PUSH2 0x12B8 PUSH2 0x100 DUP4 ADD DUP7 PUSH2 0x11B7 JUMP JUMPDEST PUSH2 0x12C6 PUSH2 0x120 DUP4 ADD DUP6 PUSH2 0x11B7 JUMP JUMPDEST PUSH2 0x12D4 PUSH2 0x140 DUP4 ADD DUP5 PUSH2 0x11F6 JUMP JUMPDEST SWAP13 SWAP12 POP POP POP POP POP POP POP POP POP POP POP POP JUMP JUMPDEST PUSH0 PUSH1 0x20 DUP3 ADD SWAP1 POP PUSH2 0x12F7 PUSH0 DUP4 ADD DUP5 PUSH2 0x11B7 JUMP JUMPDEST SWAP3 SWAP2 POP POP JUMP JUMPDEST PUSH0 DUP1 PUSH1 0x40 DUP4 DUP6 SUB SLT ISZERO PUSH2 0x1313 JUMPI PUSH2 0x1312 PUSH2 0x10E1 JUMP JUMPDEST JUMPDEST PUSH0 PUSH2 0x1320 DUP6 DUP3 DUP7 ADD PUSH2 0x1108 JUMP JUMPDEST SWAP3 POP POP PUSH1 0x20 PUSH2 0x1331 DUP6 DUP3 DUP7 ADD PUSH2 0x1108 JUMP JUMPDEST SWAP2 POP POP SWAP3 POP SWAP3 SWAP1 POP JUMP JUMPDEST PUSH0 DUP1 REVERT JUMPDEST PUSH0 DUP1 REVERT JUMPDEST PUSH32 0x4E487B7100000000000000000000000000000000000000000000000000000000 PUSH0 MSTORE PUSH1 0x41 PUSH1 0x4 MSTORE PUSH1 0x24 PUSH0 REVERT JUMPDEST PUSH2 0x1379 DUP3 PUSH2 0x116F JUMP JUMPDEST DUP2 ADD DUP2 DUP2 LT PUSH8 0xFFFFFFFFFFFFFFFF DUP3 GT OR ISZERO PUSH2 0x1398 JUMPI PUSH2 0x1397 PUSH2 0x1343 JUMP JUMPDEST JUMPDEST DUP1 PUSH1 0x40 MSTORE POP POP POP JUMP JUMPDEST PUSH0 PUSH2 0x13AA PUSH2 0x10D8 JUMP JUMPDEST SWAP1 POP PUSH2 0x13B6 DUP3 DUP3 PUSH2 0x1370 JUMP JUMPDEST SWAP2 SWAP1 POP JUMP JUMPDEST PUSH0 PUSH8 0xFFFFFFFFFFFFFFFF DUP3 GT ISZERO PUSH2 0x13D5 JUMPI PUSH2 0x13D4 PUSH2 0x1343 JUMP JUMPDEST JUMPDEST PUSH2 0x13DE DUP3 PUSH2 0x116F JUMP JUMPDEST SWAP1 POP PUSH1 0x20 DUP2 ADD SWAP1 POP SWAP2 SWAP1 POP JUMP JUMPDEST DUP3 DUP2 DUP4 CALLDATACOPY PUSH0 DUP4 DUP4 ADD MSTORE POP POP POP JUMP JUMPDEST PUSH0 PUSH2 0x140B PUSH2 0x1406 DUP5 PUSH2 0x13BB JUMP JUMPDEST PUSH2 0x13A1 JUMP JUMPDEST SWAP1 POP DUP3 DUP2 MSTORE PUSH1 0x20 DUP2 ADD DUP5 DUP5 DUP5 ADD GT ISZERO PUSH2 0x1427 JUMPI PUSH2 0x1426 PUSH2 0x133F JUMP JUMPDEST JUMPDEST PUSH2 0x1432 DUP5 DUP3 DUP6 PUSH2 0x13EB JUMP JUMPDEST POP SWAP4 SWAP3 POP POP POP JUMP JUMPDEST PUSH0 DUP3 PUSH1 0x1F DUP4 ADD SLT PUSH2 0x144E JUMPI PUSH2 0x144D PUSH2 0x133B JUMP JUMPDEST JUMPDEST DUP2 CALLDATALOAD PUSH2 0x145E DUP5 DUP3 PUSH1 0x20 DUP7 ADD PUSH2 0x13F9 JUMP JUMPDEST SWAP2 POP POP SWAP3 SWAP2 POP POP JUMP JUMPDEST PUSH0 PUSH8 0xFFFFFFFFFFFFFFFF DUP3 GT ISZERO PUSH2 0x1481 JUMPI PUSH2 0x1480 PUSH2 0x1343 JUMP JUMPDEST JUMPDEST PUSH1 0x20 DUP3 MUL SWAP1 POP PUSH1 0x20 DUP2 ADD SWAP1 POP SWAP2 SWAP1 POP JUMP JUMPDEST PUSH0 DUP1 REVERT JUMPDEST PUSH0 PUSH2 0x14A8 PUSH2 0x14A3 DUP5 PUSH2 0x1467 JUMP JUMPDEST PUSH2 0x13A1 JUMP JUMPDEST SWAP1 POP DUP1 DUP4 DUP3 MSTORE PUSH1 0x20 DUP3 ADD SWAP1 POP PUSH1 0x20 DUP5 MUL DUP4 ADD DUP6 DUP2 GT ISZERO PUSH2 0x14CB JUMPI PUSH2 0x14CA PUSH2 0x1492 JUMP JUMPDEST JUMPDEST DUP4 JUMPDEST DUP2 DUP2 LT ISZERO PUSH2 0x1512 JUMPI DUP1 CALLDATALOAD PUSH8 0xFFFFFFFFFFFFFFFF DUP2 GT ISZERO PUSH2 0x14F0 JUMPI PUSH2 0x14EF PUSH2 0x133B JUMP JUMPDEST JUMPDEST DUP1 DUP7 ADD PUSH2 0x14FD DUP10 DUP3 PUSH2 0x143A JUMP JUMPDEST DUP6 MSTORE PUSH1 0x20 DUP6 ADD SWAP5 POP POP POP PUSH1 0x20 DUP2 ADD SWAP1 POP PUSH2 0x14CD JUMP JUMPDEST POP POP POP SWAP4 SWAP3 POP POP POP JUMP JUMPDEST PUSH0 DUP3 PUSH1 0x1F DUP4 ADD SLT PUSH2 0x1530 JUMPI PUSH2 0x152F PUSH2 0x133B JUMP JUMPDEST JUMPDEST DUP2 CALLDATALOAD PUSH2 0x1540 DUP5 DUP3 PUSH1 0x20 DUP7 ADD PUSH2 0x1496 JUMP JUMPDEST SWAP2 POP POP SWAP3 SWAP2 POP POP JUMP JUMPDEST PUSH0 PUSH8 0xFFFFFFFFFFFFFFFF DUP3 GT ISZERO PUSH2 0x1563 JUMPI PUSH2 0x1562 PUSH2 0x1343 JUMP JUMPDEST JUMPDEST PUSH1 0x20 DUP3 MUL SWAP1 POP PUSH1 0x20 DUP2 ADD SWAP1 POP SWAP2 SWAP1 POP JUMP JUMPDEST PUSH0 PUSH2 0x1586 PUSH2 0x1581 DUP5 PUSH2 0x1549 JUMP JUMPDEST PUSH2 0x13A1 JUMP JUMPDEST SWAP1 POP DUP1 DUP4 DUP3 MSTORE PUSH1 0x20 DUP3 ADD SWAP1 POP PUSH1 0x20 DUP5 MUL DUP4 ADD DUP6 DUP2 GT ISZERO PUSH2 0x15A9 JUMPI PUSH2 0x15A8 PUSH2 0x1492 JUMP JUMPDEST JUMPDEST DUP4 JUMPDEST DUP2 DUP2 LT ISZERO PUSH2 0x15D2 JUMPI DUP1 PUSH2 0x15BE DUP9 DUP3 PUSH2 0x1108 JUMP JUMPDEST DUP5 MSTORE PUSH1 0x20 DUP5 ADD SWAP4 POP POP PUSH1 0x20 DUP2 ADD SWAP1 POP PUSH2 0x15AB JUMP JUMPDEST POP POP POP SWAP4 SWAP3 POP POP POP JUMP JUMPDEST PUSH0 DUP3 PUSH1 0x1F DUP4 ADD SLT PUSH2 0x15F0 JUMPI PUSH2 0x15EF PUSH2 0x133B JUMP JUMPDEST JUMPDEST DUP2 CALLDATALOAD PUSH2 0x1600 DUP5 DUP3 PUSH1 0x20 DUP7 ADD PUSH2 0x1574 JUMP JUMPDEST SWAP2 POP POP SWAP3 SWAP2 POP POP JUMP JUMPDEST PUSH0 DUP1 PUSH0 DUP1 PUSH0 DUP1 PUSH0 DUP1 PUSH0 DUP1 PUSH2 0x140 DUP12 DUP14 SUB SLT ISZERO PUSH2 0x1628 JUMPI PUSH2 0x1627 PUSH2 0x10E1 JUMP JUMPDEST JUMPDEST PUSH0 DUP12 ADD CALLDATALOAD PUSH8 0xFFFFFFFFFFFFFFFF DUP2 GT ISZERO PUSH2 0x1645 JUMPI PUSH2 0x1644 PUSH2 0x10E5 JUMP JUMPDEST JUMPDEST PUSH2 0x1651 DUP14 DUP3 DUP15 ADD PUSH2 0x143A JUMP JUMPDEST SWAP11 POP POP PUSH1 0x20 DUP12 ADD CALLDATALOAD PUSH8 0xFFFFFFFFFFFFFFFF DUP2 GT ISZERO PUSH2 0x1672 JUMPI PUSH2 0x1671 PUSH2 0x10E5 JUMP JUMPDEST JUMPDEST PUSH2 0x167E DUP14 DUP3 DUP15 ADD PUSH2 0x143A JUMP JUMPDEST SWAP10 POP POP PUSH1 0x40 DUP12 ADD CALLDATALOAD PUSH8 0xFFFFFFFFFFFFFFFF DUP2 GT ISZERO PUSH2 0x169F JUMPI PUSH2 0x169E PUSH2 0x10E5 JUMP JUMPDEST JUMPDEST PUSH2 0x16AB DUP14 DUP3 DUP15 ADD PUSH2 0x143A JUMP JUMPDEST SWAP9 POP POP PUSH1 0x60 DUP12 ADD CALLDATALOAD PUSH8 0xFFFFFFFFFFFFFFFF DUP2 GT ISZERO PUSH2 0x16CC JUMPI PUSH2 0x16CB PUSH2 0x10E5 JUMP JUMPDEST JUMPDEST PUSH2 0x16D8 DUP14 DUP3 DUP15 ADD PUSH2 0x143A JUMP JUMPDEST SWAP8 POP POP PUSH1 0x80 DUP12 ADD CALLDATALOAD PUSH8 0xFFFFFFFFFFFFFFFF DUP2 GT ISZERO PUSH2 0x16F9 JUMPI PUSH2 0x16F8 PUSH2 0x10E5 JUMP JUMPDEST JUMPDEST PUSH2 0x1705 DUP14 DUP3 DUP15 ADD PUSH2 0x151C JUMP JUMPDEST SWAP7 POP POP PUSH1 0xA0 DUP12 ADD CALLDATALOAD PUSH8 0xFFFFFFFFFFFFFFFF DUP2 GT ISZERO PUSH2 0x1726 JUMPI PUSH2 0x1725 PUSH2 0x10E5 JUMP JUMPDEST JUMPDEST PUSH2 0x1732 DUP14 DUP3 DUP15 ADD PUSH2 0x151C JUMP JUMPDEST SWAP6 POP POP PUSH1 0xC0 PUSH2 0x1743 DUP14 DUP3 DUP15 ADD PUSH2 0x1108 JUMP JUMPDEST SWAP5 POP POP PUSH1 0xE0 PUSH2 0x1754 DUP14 DUP3 DUP15 ADD PUSH2 0x1108 JUMP JUMPDEST SWAP4 POP POP PUSH2 0x100 DUP12 ADD CALLDATALOAD PUSH8 0xFFFFFFFFFFFFFFFF DUP2 GT ISZERO PUSH2 0x1776 JUMPI PUSH2 0x1775 PUSH2 0x10E5 JUMP JUMPDEST JUMPDEST PUSH2 0x1782 DUP14 DUP3 DUP15 ADD PUSH2 0x15DC JUMP JUMPDEST SWAP3 POP POP PUSH2 0x120 DUP12 ADD CALLDATALOAD PUSH8 0xFFFFFFFFFFFFFFFF DUP2 GT ISZERO PUSH2 0x17A4 JUMPI PUSH2 0x17A3 PUSH2 0x10E5 JUMP JUMPDEST JUMPDEST PUSH2 0x17B0 DUP14 DUP3 DUP15 ADD PUSH2 0x151C JUMP JUMPDEST SWAP2 POP POP SWAP3 SWAP6 SWAP9 SWAP12 SWAP2 SWAP5 SWAP8 SWAP11 POP SWAP3 SWAP6 SWAP9 POP JUMP JUMPDEST PUSH2 0x17CB DUP2 PUSH2 0x11E5 JUMP JUMPDEST DUP2 EQ PUSH2 0x17D5 JUMPI PUSH0 DUP1 REVERT JUMPDEST POP JUMP JUMPDEST PUSH0 DUP2 CALLDATALOAD SWAP1 POP PUSH2 0x17E6 DUP2 PUSH2 0x17C2 JUMP JUMPDEST SWAP3 SWAP2 POP POP JUMP JUMPDEST PUSH0 DUP1 PUSH1 0x40 DUP4 DUP6 SUB SLT ISZERO PUSH2 0x1802 JUMPI PUSH2 0x1801 PUSH2 0x10E1 JUMP JUMPDEST JUMPDEST PUSH0 PUSH2 0x180F DUP6 DUP3 DUP7 ADD PUSH2 0x17D8 JUMP JUMPDEST SWAP3 POP POP PUSH1 0x20 PUSH2 0x1820 DUP6 DUP3 DUP7 ADD PUSH2 0x1108 JUMP JUMPDEST SWAP2 POP POP SWAP3 POP SWAP3 SWAP1 POP JUMP JUMPDEST PUSH0 PUSH1 0x20 DUP3 ADD SWAP1 POP DUP2 DUP2 SUB PUSH0 DUP4 ADD MSTORE PUSH2 0x1842 DUP2 DUP5 PUSH2 0x117F JUMP JUMPDEST SWAP1 POP SWAP3 SWAP2 POP POP JUMP JUMPDEST PUSH32 0x4E487B7100000000000000000000000000000000000000000000000000000000 PUSH0 MSTORE PUSH1 0x22 PUSH1 0x4 MSTORE PUSH1 0x24 PUSH0 REVERT JUMPDEST PUSH0 PUSH1 0x2 DUP3 DIV SWAP1 POP PUSH1 0x1 DUP3 AND DUP1 PUSH2 0x188E JUMPI PUSH1 0x7F DUP3 AND SWAP2 POP JUMPDEST PUSH1 0x20 DUP3 LT DUP2 SUB PUSH2 0x18A1 JUMPI PUSH2 0x18A0 PUSH2 0x184A JUMP JUMPDEST JUMPDEST POP SWAP2 SWAP1 POP JUMP JUMPDEST PUSH32 0x4F6E6C7920746865206F776E65722063616E2077697468647261772066756E64 PUSH0 DUP3 ADD MSTORE PUSH32 0x7300000000000000000000000000000000000000000000000000000000000000 PUSH1 0x20 DUP3 ADD MSTORE POP JUMP JUMPDEST PUSH0 PUSH2 0x1901 PUSH1 0x21 DUP4 PUSH2 0x1151 JUMP JUMPDEST SWAP2 POP PUSH2 0x190C DUP3 PUSH2 0x18A7 JUMP JUMPDEST PUSH1 0x40 DUP3 ADD SWAP1 POP SWAP2 SWAP1 POP JUMP JUMPDEST PUSH0 PUSH1 0x20 DUP3 ADD SWAP1 POP DUP2 DUP2 SUB PUSH0 DUP4 ADD MSTORE PUSH2 0x192E DUP2 PUSH2 0x18F5 JUMP JUMPDEST SWAP1 POP SWAP2 SWAP1 POP JUMP JUMPDEST PUSH32 0x43616D706169676E206973206E6F742061637469766500000000000000000000 PUSH0 DUP3 ADD MSTORE POP JUMP JUMPDEST PUSH0 PUSH2 0x1969 PUSH1 0x16 DUP4 PUSH2 0x1151 JUMP JUMPDEST SWAP2 POP PUSH2 0x1974 DUP3 PUSH2 0x1935 JUMP JUMPDEST PUSH1 0x20 DUP3 ADD SWAP1 POP SWAP2 SWAP1 POP JUMP JUMPDEST PUSH0 PUSH1 0x20 DUP3 ADD SWAP1 POP DUP2 DUP2 SUB PUSH0 DUP4 ADD MSTORE PUSH2 0x1996 DUP2 PUSH2 0x195D JUMP JUMPDEST SWAP1 POP SWAP2 SWAP1 POP JUMP JUMPDEST PUSH32 0x496E766573746D656E74206D7573742062652067726561746572207468616E20 PUSH0 DUP3 ADD MSTORE PUSH32 0x3000000000000000000000000000000000000000000000000000000000000000 PUSH1 0x20 DUP3 ADD MSTORE POP JUMP JUMPDEST PUSH0 PUSH2 0x19F7 PUSH1 0x21 DUP4 PUSH2 0x1151 JUMP JUMPDEST SWAP2 POP PUSH2 0x1A02 DUP3 PUSH2 0x199D JUMP JUMPDEST PUSH1 0x40 DUP3 ADD SWAP1 POP SWAP2 SWAP1 POP JUMP JUMPDEST PUSH0 PUSH1 0x20 DUP3 ADD SWAP1 POP DUP2 DUP2 SUB PUSH0 DUP4 ADD MSTORE PUSH2 0x1A24 DUP2 PUSH2 0x19EB JUMP JUMPDEST SWAP1 POP SWAP2 SWAP1 POP JUMP JUMPDEST PUSH32 0x53656E742076616C756520646F6573206E6F74206D6174636820696E76657374 PUSH0 DUP3 ADD MSTORE PUSH32 0x6D656E7420616D6F756E74000000000000000000000000000000000000000000 PUSH1 0x20 DUP3 ADD MSTORE POP JUMP JUMPDEST PUSH0 PUSH2 0x1A85 PUSH1 0x2B DUP4 PUSH2 0x1151 JUMP JUMPDEST SWAP2 POP PUSH2 0x1A90 DUP3 PUSH2 0x1A2B JUMP JUMPDEST PUSH1 0x40 DUP3 ADD SWAP1 POP SWAP2 SWAP1 POP JUMP JUMPDEST PUSH0 PUSH1 0x20 DUP3 ADD SWAP1 POP DUP2 DUP2 SUB PUSH0 DUP4 ADD MSTORE PUSH2 0x1AB2 DUP2 PUSH2 0x1A79 JUMP JUMPDEST SWAP1 POP SWAP2 SWAP1 POP JUMP JUMPDEST PUSH32 0x4E487B7100000000000000000000000000000000000000000000000000000000 PUSH0 MSTORE PUSH1 0x11 PUSH1 0x4 MSTORE PUSH1 0x24 PUSH0 REVERT JUMPDEST PUSH0 PUSH2 0x1AF0 DUP3 PUSH2 0x10E9 JUMP JUMPDEST SWAP2 POP PUSH2 0x1AFB DUP4 PUSH2 0x10E9 JUMP JUMPDEST SWAP3 POP DUP3 DUP3 ADD SWAP1 POP DUP1 DUP3 GT ISZERO PUSH2 0x1B13 JUMPI PUSH2 0x1B12 PUSH2 0x1AB9 JUMP JUMPDEST JUMPDEST SWAP3 SWAP2 POP POP JUMP JUMPDEST PUSH32 0x496E766573746D656E74206578636565647320746F74616C20616D6F756E7420 PUSH0 DUP3 ADD MSTORE PUSH32 0x746F207261697365000000000000000000000000000000000000000000000000 PUSH1 0x20 DUP3 ADD MSTORE POP JUMP JUMPDEST PUSH0 PUSH2 0x1B73 PUSH1 0x28 DUP4 PUSH2 0x1151 JUMP JUMPDEST SWAP2 POP PUSH2 0x1B7E DUP3 PUSH2 0x1B19 JUMP JUMPDEST PUSH1 0x40 DUP3 ADD SWAP1 POP SWAP2 SWAP1 POP JUMP JUMPDEST PUSH0 PUSH1 0x20 DUP3 ADD SWAP1 POP DUP2 DUP2 SUB PUSH0 DUP4 ADD MSTORE PUSH2 0x1BA0 DUP2 PUSH2 0x1B67 JUMP JUMPDEST SWAP1 POP SWAP2 SWAP1 POP JUMP JUMPDEST PUSH32 0x4F6E6C7920746865206F776E65722063616E2072657175657374206E65787420 PUSH0 DUP3 ADD MSTORE PUSH32 0x7374616765000000000000000000000000000000000000000000000000000000 PUSH1 0x20 DUP3 ADD MSTORE POP JUMP JUMPDEST PUSH0 PUSH2 0x1C01 PUSH1 0x25 DUP4 PUSH2 0x1151 JUMP JUMPDEST SWAP2 POP PUSH2 0x1C0C DUP3 PUSH2 0x1BA7 JUMP JUMPDEST PUSH1 0x40 DUP3 ADD SWAP1 POP SWAP2 SWAP1 POP JUMP JUMPDEST PUSH0 PUSH1 0x20 DUP3 ADD SWAP1 POP DUP2 DUP2 SUB PUSH0 DUP4 ADD MSTORE PUSH2 0x1C2E DUP2 PUSH2 0x1BF5 JUMP JUMPDEST SWAP1 POP SWAP2 SWAP1 POP JUMP JUMPDEST PUSH32 0x4E6F206D6F72652073746167657320746F207265717565737400000000000000 PUSH0 DUP3 ADD MSTORE POP JUMP JUMPDEST PUSH0 PUSH2 0x1C69 PUSH1 0x19 DUP4 PUSH2 0x1151 JUMP JUMPDEST SWAP2 POP PUSH2 0x1C74 DUP3 PUSH2 0x1C35 JUMP JUMPDEST PUSH1 0x20 DUP3 ADD SWAP1 POP SWAP2 SWAP1 POP JUMP JUMPDEST PUSH0 PUSH1 0x20 DUP3 ADD SWAP1 POP DUP2 DUP2 SUB PUSH0 DUP4 ADD MSTORE PUSH2 0x1C96 DUP2 PUSH2 0x1C5D JUMP JUMPDEST SWAP1 POP SWAP2 SWAP1 POP JUMP JUMPDEST PUSH32 0x4E487B7100000000000000000000000000000000000000000000000000000000 PUSH0 MSTORE PUSH1 0x32 PUSH1 0x4 MSTORE PUSH1 0x24 PUSH0 REVERT JUMPDEST PUSH32 0x496E73756666696369656E742066756E64732072616973656420666F72207468 PUSH0 DUP3 ADD MSTORE PUSH32 0x6973207374616765000000000000000000000000000000000000000000000000 PUSH1 0x20 DUP3 ADD MSTORE POP JUMP JUMPDEST PUSH0 PUSH2 0x1D24 PUSH1 0x28 DUP4 PUSH2 0x1151 JUMP JUMPDEST SWAP2 POP PUSH2 0x1D2F DUP3 PUSH2 0x1CCA JUMP JUMPDEST PUSH1 0x40 DUP3 ADD SWAP1 POP SWAP2 SWAP1 POP JUMP JUMPDEST PUSH0 PUSH1 0x20 DUP3 ADD SWAP1 POP DUP2 DUP2 SUB PUSH0 DUP4 ADD MSTORE PUSH2 0x1D51 DUP2 PUSH2 0x1D18 JUMP JUMPDEST SWAP1 POP SWAP2 SWAP1 POP JUMP JUMPDEST PUSH0 PUSH1 0x40 DUP3 ADD SWAP1 POP PUSH2 0x1D6B PUSH0 DUP4 ADD DUP6 PUSH2 0x11F6 JUMP JUMPDEST PUSH2 0x1D78 PUSH1 0x20 DUP4 ADD DUP5 PUSH2 0x11B7 JUMP JUMPDEST SWAP4 SWAP3 POP POP POP JUMP JUMPDEST PUSH0 PUSH2 0x1D89 DUP3 PUSH2 0x10E9 JUMP JUMPDEST SWAP2 POP PUSH32 0xFFFFFFFFFFFFFFFFFFFFFFFFFFFFFFFFFFFFFFFFFFFFFFFFFFFFFFFFFFFFFFFF DUP3 SUB PUSH2 0x1DBB JUMPI PUSH2 0x1DBA PUSH2 0x1AB9 JUMP JUMPDEST JUMPDEST PUSH1 0x1 DUP3 ADD SWAP1 POP SWAP2 SWAP1 POP JUMP JUMPDEST PUSH0 PUSH2 0x1DD0 DUP3 PUSH2 0x10E9 JUMP JUMPDEST SWAP2 POP PUSH2 0x1DDB DUP4 PUSH2 0x10E9 JUMP JUMPDEST SWAP3 POP DUP3 DUP3 SUB SWAP1 POP DUP2 DUP2 GT ISZERO PUSH2 0x1DF3 JUMPI PUSH2 0x1DF2 PUSH2 0x1AB9 JUMP JUMPDEST JUMPDEST SWAP3 SWAP2 POP POP JUMP JUMPDEST PUSH0 PUSH1 0x40 DUP3 ADD SWAP1 POP PUSH2 0x1E0C PUSH0 DUP4 ADD DUP6 PUSH2 0x11B7 JUMP JUMPDEST PUSH2 0x1E19 PUSH1 0x20 DUP4 ADD DUP5 PUSH2 0x11B7 JUMP JUMPDEST SWAP4 SWAP3 POP POP POP JUMP JUMPDEST PUSH32 0x53746167657320636F756E74206D757374206265206265747765656E20312061 PUSH0 DUP3 ADD MSTORE PUSH32 0x6E64203500000000000000000000000000000000000000000000000000000000 PUSH1 0x20 DUP3 ADD MSTORE POP JUMP JUMPDEST PUSH0 PUSH2 0x1E7A PUSH1 0x24 DUP4 PUSH2 0x1151 JUMP JUMPDEST SWAP2 POP PUSH2 0x1E85 DUP3 PUSH2 0x1E20 JUMP JUMPDEST PUSH1 0x40 DUP3 ADD SWAP1 POP SWAP2 SWAP1 POP JUMP JUMPDEST PUSH0 PUSH1 0x20 DUP3 ADD SWAP1 POP DUP2 DUP2 SUB PUSH0 DUP4 ADD MSTORE PUSH2 0x1EA7 DUP2 PUSH2 0x1E6E JUMP JUMPDEST SWAP1 POP SWAP2 SWAP1 POP JUMP JUMPDEST PUSH0 PUSH1 0x40 DUP3 ADD SWAP1 POP DUP2 DUP2 SUB PUSH0 DUP4 ADD MSTORE PUSH2 0x1EC6 DUP2 DUP6 PUSH2 0x117F JUMP JUMPDEST SWAP1 POP DUP2 DUP2 SUB PUSH1 0x20 DUP4 ADD MSTORE PUSH2 0x1EDA DUP2 DUP5 PUSH2 0x117F JUMP JUMPDEST SWAP1 POP SWAP4 SWAP3 POP POP POP JUMP JUMPDEST PUSH0 DUP2 SWAP1 POP DUP2 PUSH0 MSTORE PUSH1 0x20 PUSH0 KECCAK256 SWAP1 POP SWAP2 SWAP1 POP JUMP JUMPDEST PUSH0 PUSH1 0x20 PUSH1 0x1F DUP4 ADD DIV SWAP1 POP SWAP2 SWAP1 POP JUMP JUMPDEST PUSH0 DUP3 DUP3 SHL SWAP1 POP SWAP3 SWAP2 POP POP JUMP JUMPDEST PUSH0 PUSH1 0x8 DUP4 MUL PUSH2 0x1F3F PUSH32 0xFFFFFFFFFFFFFFFFFFFFFFFFFFFFFFFFFFFFFFFFFFFFFFFFFFFFFFFFFFFFFFFF DUP3 PUSH2 0x1F04 JUMP JUMPDEST PUSH2 0x1F49 DUP7 DUP4 PUSH2 0x1F04 JUMP JUMPDEST SWAP6 POP DUP1 NOT DUP5 AND SWAP4 POP DUP1 DUP7 AND DUP5 OR SWAP3 POP POP POP SWAP4 SWAP3 POP POP POP JUMP JUMPDEST PUSH0 DUP2 SWAP1 POP SWAP2 SWAP1 POP JUMP JUMPDEST PUSH0 PUSH2 0x1F84 PUSH2 0x1F7F PUSH2 0x1F7A DUP5 PUSH2 0x10E9 JUMP JUMPDEST PUSH2 0x1F61 JUMP JUMPDEST PUSH2 0x10E9 JUMP JUMPDEST SWAP1 POP SWAP2 SWAP1 POP JUMP JUMPDEST PUSH0 DUP2 SWAP1 POP SWAP2 SWAP1 POP JUMP JUMPDEST PUSH2 0x1F9D DUP4 PUSH2 0x1F6A JUMP JUMPDEST PUSH2 0x1FB1 PUSH2 0x1FA9 DUP3 PUSH2 0x1F8B JUMP JUMPDEST DUP5 DUP5 SLOAD PUSH2 0x1F10 JUMP JUMPDEST DUP3 SSTORE POP POP POP POP JUMP JUMPDEST PUSH0 SWAP1 JUMP JUMPDEST PUSH2 0x1FC5 PUSH2 0x1FB9 JUMP JUMPDEST PUSH2 0x1FD0 DUP2 DUP5 DUP5 PUSH2 0x1F94 JUMP JUMPDEST POP POP POP JUMP JUMPDEST JUMPDEST DUP2 DUP2 LT ISZERO PUSH2 0x1FF3 JUMPI PUSH2 0x1FE8 PUSH0 DUP3 PUSH2 0x1FBD JUMP JUMPDEST PUSH1 0x1 DUP2 ADD SWAP1 POP PUSH2 0x1FD6 JUMP JUMPDEST POP POP JUMP JUMPDEST PUSH1 0x1F DUP3 GT ISZERO PUSH2 0x2038 JUMPI PUSH2 0x2009 DUP2 PUSH2 0x1EE3 JUMP JUMPDEST PUSH2 0x2012 DUP5 PUSH2 0x1EF5 JUMP JUMPDEST DUP2 ADD PUSH1 0x20 DUP6 LT ISZERO PUSH2 0x2021 JUMPI DUP2 SWAP1 POP JUMPDEST PUSH2 0x2035 PUSH2 0x202D DUP6 PUSH2 0x1EF5 JUMP JUMPDEST DUP4 ADD DUP3 PUSH2 0x1FD5 JUMP JUMPDEST POP POP JUMPDEST POP POP POP JUMP JUMPDEST PUSH0 DUP3 DUP3 SHR SWAP1 POP SWAP3 SWAP2 POP POP JUMP JUMPDEST PUSH0 PUSH2 0x2058 PUSH0 NOT DUP5 PUSH1 0x8 MUL PUSH2 0x203D JUMP JUMPDEST NOT DUP1 DUP4 AND SWAP2 POP POP SWAP3 SWAP2 POP POP JUMP JUMPDEST PUSH0 PUSH2 0x2070 DUP4 DUP4 PUSH2 0x2049 JUMP JUMPDEST SWAP2 POP DUP3 PUSH1 0x2 MUL DUP3 OR SWAP1 POP SWAP3 SWAP2 POP POP JUMP JUMPDEST PUSH2 0x2089 DUP3 PUSH2 0x1147 JUMP JUMPDEST PUSH8 0xFFFFFFFFFFFFFFFF DUP2 GT ISZERO PUSH2 0x20A2 JUMPI PUSH2 0x20A1 PUSH2 0x1343 JUMP JUMPDEST JUMPDEST PUSH2 0x20AC DUP3 SLOAD PUSH2 0x1877 JUMP JUMPDEST PUSH2 0x20B7 DUP3 DUP3 DUP6 PUSH2 0x1FF7 JUMP JUMPDEST PUSH0 PUSH1 0x20 SWAP1 POP PUSH1 0x1F DUP4 GT PUSH1 0x1 DUP2 EQ PUSH2 0x20E8 JUMPI PUSH0 DUP5 ISZERO PUSH2 0x20D6 JUMPI DUP3 DUP8 ADD MLOAD SWAP1 POP JUMPDEST PUSH2 0x20E0 DUP6 DUP3 PUSH2 0x2065 JUMP JUMPDEST DUP7 SSTORE POP PUSH2 0x2147 JUMP JUMPDEST PUSH1 0x1F NOT DUP5 AND PUSH2 0x20F6 DUP7 PUSH2 0x1EE3 JUMP JUMPDEST PUSH0 JUMPDEST DUP3 DUP2 LT ISZERO PUSH2 0x211D JUMPI DUP5 DUP10 ADD MLOAD DUP3 SSTORE PUSH1 0x1 DUP3 ADD SWAP2 POP PUSH1 0x20 DUP6 ADD SWAP5 POP PUSH1 0x20 DUP2 ADD SWAP1 POP PUSH2 0x20F8 JUMP JUMPDEST DUP7 DUP4 LT ISZERO PUSH2 0x213A JUMPI DUP5 DUP10 ADD MLOAD PUSH2 0x2136 PUSH1 0x1F DUP10 AND DUP3 PUSH2 0x2049 JUMP JUMPDEST DUP4 SSTORE POP JUMPDEST PUSH1 0x1 PUSH1 0x2 DUP9 MUL ADD DUP9 SSTORE POP POP POP JUMPDEST POP POP POP POP POP POP JUMP JUMPDEST PUSH0 PUSH1 0x20 DUP3 ADD SWAP1 POP PUSH2 0x2162 PUSH0 DUP4 ADD DUP5 PUSH2 0x11F6 JUMP JUMPDEST SWAP3 SWAP2 POP POP JUMP INVALID PUSH1 0x80 PUSH1 0x40 MSTORE CALLVALUE DUP1 ISZERO PUSH2 0xF JUMPI PUSH0 DUP1 REVERT JUMPDEST POP PUSH1 0x40 MLOAD PUSH2 0x139D CODESIZE SUB DUP1 PUSH2 0x139D DUP4 CODECOPY DUP2 DUP2 ADD PUSH1 0x40 MSTORE DUP2 ADD SWAP1 PUSH2 0x31 SWAP2 SWAP1 PUSH2 0x1A9 JUMP JUMPDEST DUP2 DUP2 DUP2 PUSH1 0x3 SWAP1 DUP2 PUSH2 0x42 SWAP2 SWAP1 PUSH2 0x42C JUMP JUMPDEST POP DUP1 PUSH1 0x4 SWAP1 DUP2 PUSH2 0x52 SWAP2 SWAP1 PUSH2 0x42C JUMP JUMPDEST POP POP POP POP POP PUSH2 0x4FB JUMP JUMPDEST PUSH0 PUSH1 0x40 MLOAD SWAP1 POP SWAP1 JUMP JUMPDEST PUSH0 DUP1 REVERT JUMPDEST PUSH0 DUP1 REVERT JUMPDEST PUSH0 DUP1 REVERT JUMPDEST PUSH0 DUP1 REVERT JUMPDEST PUSH0 PUSH1 0x1F NOT PUSH1 0x1F DUP4 ADD AND SWAP1 POP SWAP2 SWAP1 POP JUMP JUMPDEST PUSH32 0x4E487B7100000000000000000000000000000000000000000000000000000000 PUSH0 MSTORE PUSH1 0x41 PUSH1 0x4 MSTORE PUSH1 0x24 PUSH0 REVERT JUMPDEST PUSH2 0xBB DUP3 PUSH2 0x75 JUMP JUMPDEST DUP2 ADD DUP2 DUP2 LT PUSH8 0xFFFFFFFFFFFFFFFF DUP3 GT OR ISZERO PUSH2 0xDA JUMPI PUSH2 0xD9 PUSH2 0x85 JUMP JUMPDEST JUMPDEST DUP1 PUSH1 0x40 MSTORE POP POP POP JUMP JUMPDEST PUSH0 PUSH2 0xEC PUSH2 0x5C JUMP JUMPDEST SWAP1 POP PUSH2 0xF8 DUP3 DUP3 PUSH2 0xB2 JUMP JUMPDEST SWAP2 SWAP1 POP JUMP JUMPDEST PUSH0 PUSH8 0xFFFFFFFFFFFFFFFF DUP3 GT ISZERO PUSH2 0x117 JUMPI PUSH2 0x116 PUSH2 0x85 JUMP JUMPDEST JUMPDEST PUSH2 0x120 DUP3 PUSH2 0x75 JUMP JUMPDEST SWAP1 POP PUSH1 0x20 DUP2 ADD SWAP1 POP SWAP2 SWAP1 POP JUMP JUMPDEST DUP3 DUP2 DUP4 MCOPY PUSH0 DUP4 DUP4 ADD MSTORE POP POP POP JUMP JUMPDEST PUSH0 PUSH2 0x14D PUSH2 0x148 DUP5 PUSH2 0xFD JUMP JUMPDEST PUSH2 0xE3 JUMP JUMPDEST SWAP1 POP DUP3 DUP2 MSTORE PUSH1 0x20 DUP2 ADD DUP5 DUP5 DUP5 ADD GT ISZERO PUSH2 0x169 JUMPI PUSH2 0x168 PUSH2 0x71 JUMP JUMPDEST JUMPDEST PUSH2 0x174 DUP5 DUP3 DUP6 PUSH2 0x12D JUMP JUMPDEST POP SWAP4 SWAP3 POP POP POP JUMP JUMPDEST PUSH0 DUP3 PUSH1 0x1F DUP4 ADD SLT PUSH2 0x190 JUMPI PUSH2 0x18F PUSH2 0x6D JUMP JUMPDEST JUMPDEST DUP2 MLOAD PUSH2 0x1A0 DUP5 DUP3 PUSH1 0x20 DUP7 ADD PUSH2 0x13B JUMP JUMPDEST SWAP2 POP POP SWAP3 SWAP2 POP POP JUMP JUMPDEST PUSH0 DUP1 PUSH1 0x40 DUP4 DUP6 SUB SLT ISZERO PUSH2 0x1BF JUMPI PUSH2 0x1BE PUSH2 0x65 JUMP JUMPDEST JUMPDEST PUSH0 DUP4 ADD MLOAD PUSH8 0xFFFFFFFFFFFFFFFF DUP2 GT ISZERO PUSH2 0x1DC JUMPI PUSH2 0x1DB PUSH2 0x69 JUMP JUMPDEST JUMPDEST PUSH2 0x1E8 DUP6 DUP3 DUP7 ADD PUSH2 0x17C JUMP JUMPDEST SWAP3 POP POP PUSH1 0x20 DUP4 ADD MLOAD PUSH8 0xFFFFFFFFFFFFFFFF DUP2 GT ISZERO PUSH2 0x209 JUMPI PUSH2 0x208 PUSH2 0x69 JUMP JUMPDEST JUMPDEST PUSH2 0x215 DUP6 DUP3 DUP7 ADD PUSH2 0x17C JUMP JUMPDEST SWAP2 POP POP SWAP3 POP SWAP3 SWAP1 POP JUMP JUMPDEST PUSH0 DUP2 MLOAD SWAP1 POP SWAP2 SWAP1 POP JUMP JUMPDEST PUSH32 0x4E487B7100000000000000000000000000000000000000000000000000000000 PUSH0 MSTORE PUSH1 0x22 PUSH1 0x4 MSTORE PUSH1 0x24 PUSH0 REVERT JUMPDEST PUSH0 PUSH1 0x2 DUP3 DIV SWAP1 POP PUSH1 0x1 DUP3 AND DUP1 PUSH2 0x26D JUMPI PUSH1 0x7F DUP3 AND SWAP2 POP JUMPDEST PUSH1 0x20 DUP3 LT DUP2 SUB PUSH2 0x280 JUMPI PUSH2 0x27F PUSH2 0x229 JUMP JUMPDEST JUMPDEST POP SWAP2 SWAP1 POP JUMP JUMPDEST PUSH0 DUP2 SWAP1 POP DUP2 PUSH0 MSTORE PUSH1 0x20 PUSH0 KECCAK256 SWAP1 POP SWAP2 SWAP1 POP JUMP JUMPDEST PUSH0 PUSH1 0x20 PUSH1 0x1F DUP4 ADD DIV SWAP1 POP SWAP2 SWAP1 POP JUMP JUMPDEST PUSH0 DUP3 DUP3 SHL SWAP1 POP SWAP3 SWAP2 POP POP JUMP JUMPDEST PUSH0 PUSH1 0x8 DUP4 MUL PUSH2 0x2E2 PUSH32 0xFFFFFFFFFFFFFFFFFFFFFFFFFFFFFFFFFFFFFFFFFFFFFFFFFFFFFFFFFFFFFFFF DUP3 PUSH2 0x2A7 JUMP JUMPDEST PUSH2 0x2EC DUP7 DUP4 PUSH2 0x2A7 JUMP JUMPDEST SWAP6 POP DUP1 NOT DUP5 AND SWAP4 POP DUP1 DUP7 AND DUP5 OR SWAP3 POP POP POP SWAP4 SWAP3 POP POP POP JUMP JUMPDEST PUSH0 DUP2 SWAP1 POP SWAP2 SWAP1 POP JUMP JUMPDEST PUSH0 DUP2 SWAP1 POP SWAP2 SWAP1 POP JUMP JUMPDEST PUSH0 PUSH2 0x330 PUSH2 0x32B PUSH2 0x326 DUP5 PUSH2 0x304 JUMP JUMPDEST PUSH2 0x30D JUMP JUMPDEST PUSH2 0x304 JUMP JUMPDEST SWAP1 POP SWAP2 SWAP1 POP JUMP JUMPDEST PUSH0 DUP2 SWAP1 POP SWAP2 SWAP1 POP JUMP JUMPDEST PUSH2 0x349 DUP4 PUSH2 0x316 JUMP JUMPDEST PUSH2 0x35D PUSH2 0x355 DUP3 PUSH2 0x337 JUMP JUMPDEST DUP5 DUP5 SLOAD PUSH2 0x2B3 JUMP JUMPDEST DUP3 SSTORE POP POP POP POP JUMP JUMPDEST PUSH0 SWAP1 JUMP JUMPDEST PUSH2 0x371 PUSH2 0x365 JUMP JUMPDEST PUSH2 0x37C DUP2 DUP5 DUP5 PUSH2 0x340 JUMP JUMPDEST POP POP POP JUMP JUMPDEST JUMPDEST DUP2 DUP2 LT ISZERO PUSH2 0x39F JUMPI PUSH2 0x394 PUSH0 DUP3 PUSH2 0x369 JUMP JUMPDEST PUSH1 0x1 DUP2 ADD SWAP1 POP PUSH2 0x382 JUMP JUMPDEST POP POP JUMP JUMPDEST PUSH1 0x1F DUP3 GT ISZERO PUSH2 0x3E4 JUMPI PUSH2 0x3B5 DUP2 PUSH2 0x286 JUMP JUMPDEST PUSH2 0x3BE DUP5 PUSH2 0x298 JUMP JUMPDEST DUP2 ADD PUSH1 0x20 DUP6 LT ISZERO PUSH2 0x3CD JUMPI DUP2 SWAP1 POP JUMPDEST PUSH2 0x3E1 PUSH2 0x3D9 DUP6 PUSH2 0x298 JUMP JUMPDEST DUP4 ADD DUP3 PUSH2 0x381 JUMP JUMPDEST POP POP JUMPDEST POP POP POP JUMP JUMPDEST PUSH0 DUP3 DUP3 SHR SWAP1 POP SWAP3 SWAP2 POP POP JUMP JUMPDEST PUSH0 PUSH2 0x404 PUSH0 NOT DUP5 PUSH1 0x8 MUL PUSH2 0x3E9 JUMP JUMPDEST NOT DUP1 DUP4 AND SWAP2 POP POP SWAP3 SWAP2 POP POP JUMP JUMPDEST PUSH0 PUSH2 0x41C DUP4 DUP4 PUSH2 0x3F5 JUMP JUMPDEST SWAP2 POP DUP3 PUSH1 0x2 MUL DUP3 OR SWAP1 POP SWAP3 SWAP2 POP POP JUMP JUMPDEST PUSH2 0x435 DUP3 PUSH2 0x21F JUMP JUMPDEST PUSH8 0xFFFFFFFFFFFFFFFF DUP2 GT ISZERO PUSH2 0x44E JUMPI PUSH2 0x44D PUSH2 0x85 JUMP JUMPDEST JUMPDEST PUSH2 0x458 DUP3 SLOAD PUSH2 0x256 JUMP JUMPDEST PUSH2 0x463 DUP3 DUP3 DUP6 PUSH2 0x3A3 JUMP JUMPDEST PUSH0 PUSH1 0x20 SWAP1 POP PUSH1 0x1F DUP4 GT PUSH1 0x1 DUP2 EQ PUSH2 0x494 JUMPI PUSH0 DUP5 ISZERO PUSH2 0x482 JUMPI DUP3 DUP8 ADD MLOAD SWAP1 POP JUMPDEST PUSH2 0x48C DUP6 DUP3 PUSH2 0x411 JUMP JUMPDEST DUP7 SSTORE POP PUSH2 0x4F3 JUMP JUMPDEST PUSH1 0x1F NOT DUP5 AND PUSH2 0x4A2 DUP7 PUSH2 0x286 JUMP JUMPDEST PUSH0 JUMPDEST DUP3 DUP2 LT ISZERO PUSH2 0x4C9 JUMPI DUP5 DUP10 ADD MLOAD DUP3 SSTORE PUSH1 0x1 DUP3 ADD SWAP2 POP PUSH1 0x20 DUP6 ADD SWAP5 POP PUSH1 0x20 DUP2 ADD SWAP1 POP PUSH2 0x4A4 JUMP JUMPDEST DUP7 DUP4 LT ISZERO PUSH2 0x4E6 JUMPI DUP5 DUP10 ADD MLOAD PUSH2 0x4E2 PUSH1 0x1F DUP10 AND DUP3 PUSH2 0x3F5 JUMP JUMPDEST DUP4 SSTORE POP JUMPDEST PUSH1 0x1 PUSH1 0x2 DUP9 MUL ADD DUP9 SSTORE POP POP POP JUMPDEST POP POP POP POP POP POP JUMP JUMPDEST PUSH2 0xE95 DUP1 PUSH2 0x508 PUSH0 CODECOPY PUSH0 RETURN INVALID PUSH1 0x80 PUSH1 0x40 MSTORE CALLVALUE DUP1 ISZERO PUSH2 0xF JUMPI PUSH0 DUP1 REVERT JUMPDEST POP PUSH1 0x4 CALLDATASIZE LT PUSH2 0x9C JUMPI PUSH0 CALLDATALOAD PUSH1 0xE0 SHR DUP1 PUSH4 0x40C10F19 GT PUSH2 0x64 JUMPI DUP1 PUSH4 0x40C10F19 EQ PUSH2 0x15A JUMPI DUP1 PUSH4 0x70A08231 EQ PUSH2 0x176 JUMPI DUP1 PUSH4 0x95D89B41 EQ PUSH2 0x1A6 JUMPI DUP1 PUSH4 0xA9059CBB EQ PUSH2 0x1C4 JUMPI DUP1 PUSH4 0xDD62ED3E EQ PUSH2 0x1F4 JUMPI PUSH2 0x9C JUMP JUMPDEST DUP1 PUSH4 0x6FDDE03 EQ PUSH2 0xA0 JUMPI DUP1 PUSH4 0x95EA7B3 EQ PUSH2 0xBE JUMPI DUP1 PUSH4 0x18160DDD EQ PUSH2 0xEE JUMPI DUP1 PUSH4 0x23B872DD EQ PUSH2 0x10C JUMPI DUP1 PUSH4 0x313CE567 EQ PUSH2 0x13C JUMPI JUMPDEST PUSH0 DUP1 REVERT JUMPDEST PUSH2 0xA8 PUSH2 0x224 JUMP JUMPDEST PUSH1 0x40 MLOAD PUSH2 0xB5 SWAP2 SWAP1 PUSH2 0xB0E JUMP JUMPDEST PUSH1 0x40 MLOAD DUP1 SWAP2 SUB SWAP1 RETURN JUMPDEST PUSH2 0xD8 PUSH1 0x4 DUP1 CALLDATASIZE SUB DUP2 ADD SWAP1 PUSH2 0xD3 SWAP2 SWAP1 PUSH2 0xBBF JUMP JUMPDEST PUSH2 0x2B4 JUMP JUMPDEST PUSH1 0x40 MLOAD PUSH2 0xE5 SWAP2 SWAP1 PUSH2 0xC17 JUMP JUMPDEST PUSH1 0x40 MLOAD DUP1 SWAP2 SUB SWAP1 RETURN JUMPDEST PUSH2 0xF6 PUSH2 0x2D6 JUMP JUMPDEST PUSH1 0x40 MLOAD PUSH2 0x103 SWAP2 SWAP1 PUSH2 0xC3F JUMP JUMPDEST PUSH1 0x40 MLOAD DUP1 SWAP2 SUB SWAP1 RETURN JUMPDEST PUSH2 0x126 PUSH1 0x4 DUP1 CALLDATASIZE SUB DUP2 ADD SWAP1 PUSH2 0x121 SWAP2 SWAP1 PUSH2 0xC58 JUMP JUMPDEST PUSH2 0x2DF JUMP JUMPDEST PUSH1 0x40 MLOAD PUSH2 0x133 SWAP2 SWAP1 PUSH2 0xC17 JUMP JUMPDEST PUSH1 0x40 MLOAD DUP1 SWAP2 SUB SWAP1 RETURN JUMPDEST PUSH2 0x144 PUSH2 0x30D JUMP JUMPDEST PUSH1 0x40 MLOAD PUSH2 0x151 SWAP2 SWAP1 PUSH2 0xCC3 JUMP JUMPDEST PUSH1 0x40 MLOAD DUP1 SWAP2 SUB SWAP1 RETURN JUMPDEST PUSH2 0x174 PUSH1 0x4 DUP1 CALLDATASIZE SUB DUP2 ADD SWAP1 PUSH2 0x16F SWAP2 SWAP1 PUSH2 0xBBF JUMP JUMPDEST PUSH2 0x315 JUMP JUMPDEST STOP JUMPDEST PUSH2 0x190 PUSH1 0x4 DUP1 CALLDATASIZE SUB DUP2 ADD SWAP1 PUSH2 0x18B SWAP2 SWAP1 PUSH2 0xCDC JUMP JUMPDEST PUSH2 0x323 JUMP JUMPDEST PUSH1 0x40 MLOAD PUSH2 0x19D SWAP2 SWAP1 PUSH2 0xC3F JUMP JUMPDEST PUSH1 0x40 MLOAD DUP1 SWAP2 SUB SWAP1 RETURN JUMPDEST PUSH2 0x1AE PUSH2 0x368 JUMP JUMPDEST PUSH1 0x40 MLOAD PUSH2 0x1BB SWAP2 SWAP1 PUSH2 0xB0E JUMP JUMPDEST PUSH1 0x40 MLOAD DUP1 SWAP2 SUB SWAP1 RETURN JUMPDEST PUSH2 0x1DE PUSH1 0x4 DUP1 CALLDATASIZE SUB DUP2 ADD SWAP1 PUSH2 0x1D9 SWAP2 SWAP1 PUSH2 0xBBF JUMP JUMPDEST PUSH2 0x3F8 JUMP JUMPDEST PUSH1 0x40 MLOAD PUSH2 0x1EB SWAP2 SWAP1 PUSH2 0xC17 JUMP JUMPDEST PUSH1 0x40 MLOAD DUP1 SWAP2 SUB SWAP1 RETURN JUMPDEST PUSH2 0x20E PUSH1 0x4 DUP1 CALLDATASIZE SUB DUP2 ADD SWAP1 PUSH2 0x209 SWAP2 SWAP1 PUSH2 0xD07 JUMP JUMPDEST PUSH2 0x41A JUMP JUMPDEST PUSH1 0x40 MLOAD PUSH2 0x21B SWAP2 SWAP1 PUSH2 0xC3F JUMP JUMPDEST PUSH1 0x40 MLOAD DUP1 SWAP2 SUB SWAP1 RETURN JUMPDEST PUSH1 0x60 PUSH1 0x3 DUP1 SLOAD PUSH2 0x233 SWAP1 PUSH2 0xD72 JUMP JUMPDEST DUP1 PUSH1 0x1F ADD PUSH1 0x20 DUP1 SWAP2 DIV MUL PUSH1 0x20 ADD PUSH1 0x40 MLOAD SWAP1 DUP2 ADD PUSH1 0x40 MSTORE DUP1 SWAP3 SWAP2 SWAP1 DUP2 DUP2 MSTORE PUSH1 0x20 ADD DUP3 DUP1 SLOAD PUSH2 0x25F SWAP1 PUSH2 0xD72 JUMP JUMPDEST DUP1 ISZERO PUSH2 0x2AA JUMPI DUP1 PUSH1 0x1F LT PUSH2 0x281 JUMPI PUSH2 0x100 DUP1 DUP4 SLOAD DIV MUL DUP4 MSTORE SWAP2 PUSH1 0x20 ADD SWAP2 PUSH2 0x2AA JUMP JUMPDEST DUP3 ADD SWAP2 SWAP1 PUSH0 MSTORE PUSH1 0x20 PUSH0 KECCAK256 SWAP1 JUMPDEST DUP2 SLOAD DUP2 MSTORE SWAP1 PUSH1 0x1 ADD SWAP1 PUSH1 0x20 ADD DUP1 DUP4 GT PUSH2 0x28D JUMPI DUP3 SWAP1 SUB PUSH1 0x1F AND DUP3 ADD SWAP2 JUMPDEST POP POP POP POP POP SWAP1 POP SWAP1 JUMP JUMPDEST PUSH0 DUP1 PUSH2 0x2BE PUSH2 0x49C JUMP JUMPDEST SWAP1 POP PUSH2 0x2CB DUP2 DUP6 DUP6 PUSH2 0x4A3 JUMP JUMPDEST PUSH1 0x1 SWAP2 POP POP SWAP3 SWAP2 POP POP JUMP JUMPDEST PUSH0 PUSH1 0x2 SLOAD SWAP1 POP SWAP1 JUMP JUMPDEST PUSH0 DUP1 PUSH2 0x2E9 PUSH2 0x49C JUMP JUMPDEST SWAP1 POP PUSH2 0x2F6 DUP6 DUP3 DUP6 PUSH2 0x4B5 JUMP JUMPDEST PUSH2 0x301 DUP6 DUP6 DUP6 PUSH2 0x547 JUMP JUMPDEST PUSH1 0x1 SWAP2 POP POP SWAP4 SWAP3 POP POP POP JUMP JUMPDEST PUSH0 PUSH1 0x12 SWAP1 POP SWAP1 JUMP JUMPDEST PUSH2 0x31F DUP3 DUP3 PUSH2 0x637 JUMP JUMPDEST POP POP JUMP JUMPDEST PUSH0 DUP1 PUSH0 DUP4 PUSH20 0xFFFFFFFFFFFFFFFFFFFFFFFFFFFFFFFFFFFFFFFF AND PUSH20 0xFFFFFFFFFFFFFFFFFFFFFFFFFFFFFFFFFFFFFFFF AND DUP2 MSTORE PUSH1 0x20 ADD SWAP1 DUP2 MSTORE PUSH1 0x20 ADD PUSH0 KECCAK256 SLOAD SWAP1 POP SWAP2 SWAP1 POP JUMP JUMPDEST PUSH1 0x60 PUSH1 0x4 DUP1 SLOAD PUSH2 0x377 SWAP1 PUSH2 0xD72 JUMP JUMPDEST DUP1 PUSH1 0x1F ADD PUSH1 0x20 DUP1 SWAP2 DIV MUL PUSH1 0x20 ADD PUSH1 0x40 MLOAD SWAP1 DUP2 ADD PUSH1 0x40 MSTORE DUP1 SWAP3 SWAP2 SWAP1 DUP2 DUP2 MSTORE PUSH1 0x20 ADD DUP3 DUP1 SLOAD PUSH2 0x3A3 SWAP1 PUSH2 0xD72 JUMP JUMPDEST DUP1 ISZERO PUSH2 0x3EE JUMPI DUP1 PUSH1 0x1F LT PUSH2 0x3C5 JUMPI PUSH2 0x100 DUP1 DUP4 SLOAD DIV MUL DUP4 MSTORE SWAP2 PUSH1 0x20 ADD SWAP2 PUSH2 0x3EE JUMP JUMPDEST DUP3 ADD SWAP2 SWAP1 PUSH0 MSTORE PUSH1 0x20 PUSH0 KECCAK256 SWAP1 JUMPDEST DUP2 SLOAD DUP2 MSTORE SWAP1 PUSH1 0x1 ADD SWAP1 PUSH1 0x20 ADD DUP1 DUP4 GT PUSH2 0x3D1 JUMPI DUP3 SWAP1 SUB PUSH1 0x1F AND DUP3 ADD SWAP2 JUMPDEST POP POP POP POP POP SWAP1 POP SWAP1 JUMP JUMPDEST PUSH0 DUP1 PUSH2 0x402 PUSH2 0x49C JUMP JUMPDEST SWAP1 POP PUSH2 0x40F DUP2 DUP6 DUP6 PUSH2 0x547 JUMP JUMPDEST PUSH1 0x1 SWAP2 POP POP SWAP3 SWAP2 POP POP JUMP JUMPDEST PUSH0 PUSH1 0x1 PUSH0 DUP5 PUSH20 0xFFFFFFFFFFFFFFFFFFFFFFFFFFFFFFFFFFFFFFFF AND PUSH20 0xFFFFFFFFFFFFFFFFFFFFFFFFFFFFFFFFFFFFFFFF AND DUP2 MSTORE PUSH1 0x20 ADD SWAP1 DUP2 MSTORE PUSH1 0x20 ADD PUSH0 KECCAK256 PUSH0 DUP4 PUSH20 0xFFFFFFFFFFFFFFFFFFFFFFFFFFFFFFFFFFFFFFFF AND PUSH20 0xFFFFFFFFFFFFFFFFFFFFFFFFFFFFFFFFFFFFFFFF AND DUP2 MSTORE PUSH1 0x20 ADD SWAP1 DUP2 MSTORE PUSH1 0x20 ADD PUSH0 KECCAK256 SLOAD SWAP1 POP SWAP3 SWAP2 POP POP JUMP JUMPDEST PUSH0 CALLER SWAP1 POP SWAP1 JUMP JUMPDEST PUSH2 0x4B0 DUP4 DUP4 DUP4 PUSH1 0x1 PUSH2 0x6B6 JUMP JUMPDEST POP POP POP JUMP JUMPDEST PUSH0 PUSH2 0x4C0 DUP5 DUP5 PUSH2 0x41A JUMP JUMPDEST SWAP1 POP PUSH32 0xFFFFFFFFFFFFFFFFFFFFFFFFFFFFFFFFFFFFFFFFFFFFFFFFFFFFFFFFFFFFFFFF DUP2 EQ PUSH2 0x541 JUMPI DUP2 DUP2 LT ISZERO PUSH2 0x532 JUMPI DUP3 DUP2 DUP4 PUSH1 0x40 MLOAD PUSH32 0xFB8F41B200000000000000000000000000000000000000000000000000000000 DUP2 MSTORE PUSH1 0x4 ADD PUSH2 0x529 SWAP4 SWAP3 SWAP2 SWAP1 PUSH2 0xDB1 JUMP JUMPDEST PUSH1 0x40 MLOAD DUP1 SWAP2 SUB SWAP1 REVERT JUMPDEST PUSH2 0x540 DUP5 DUP5 DUP5 DUP5 SUB PUSH0 PUSH2 0x6B6 JUMP JUMPDEST JUMPDEST POP POP POP POP JUMP JUMPDEST PUSH0 PUSH20 0xFFFFFFFFFFFFFFFFFFFFFFFFFFFFFFFFFFFFFFFF AND DUP4 PUSH20 0xFFFFFFFFFFFFFFFFFFFFFFFFFFFFFFFFFFFFFFFF AND SUB PUSH2 0x5B7 JUMPI PUSH0 PUSH1 0x40 MLOAD PUSH32 0x96C6FD1E00000000000000000000000000000000000000000000000000000000 DUP2 MSTORE PUSH1 0x4 ADD PUSH2 0x5AE SWAP2 SWAP1 PUSH2 0xDE6 JUMP JUMPDEST PUSH1 0x40 MLOAD DUP1 SWAP2 SUB SWAP1 REVERT JUMPDEST PUSH0 PUSH20 0xFFFFFFFFFFFFFFFFFFFFFFFFFFFFFFFFFFFFFFFF AND DUP3 PUSH20 0xFFFFFFFFFFFFFFFFFFFFFFFFFFFFFFFFFFFFFFFF AND SUB PUSH2 0x627 JUMPI PUSH0 PUSH1 0x40 MLOAD PUSH32 0xEC442F0500000000000000000000000000000000000000000000000000000000 DUP2 MSTORE PUSH1 0x4 ADD PUSH2 0x61E SWAP2 SWAP1 PUSH2 0xDE6 JUMP JUMPDEST PUSH1 0x40 MLOAD DUP1 SWAP2 SUB SWAP1 REVERT JUMPDEST PUSH2 0x632 DUP4 DUP4 DUP4 PUSH2 0x885 JUMP JUMPDEST POP POP POP JUMP JUMPDEST PUSH0 PUSH20 0xFFFFFFFFFFFFFFFFFFFFFFFFFFFFFFFFFFFFFFFF AND DUP3 PUSH20 0xFFFFFFFFFFFFFFFFFFFFFFFFFFFFFFFFFFFFFFFF AND SUB PUSH2 0x6A7 JUMPI PUSH0 PUSH1 0x40 MLOAD PUSH32 0xEC442F0500000000000000000000000000000000000000000000000000000000 DUP2 MSTORE PUSH1 0x4 ADD PUSH2 0x69E SWAP2 SWAP1 PUSH2 0xDE6 JUMP JUMPDEST PUSH1 0x40 MLOAD DUP1 SWAP2 SUB SWAP1 REVERT JUMPDEST PUSH2 0x6B2 PUSH0 DUP4 DUP4 PUSH2 0x885 JUMP JUMPDEST POP POP JUMP JUMPDEST PUSH0 PUSH20 0xFFFFFFFFFFFFFFFFFFFFFFFFFFFFFFFFFFFFFFFF AND DUP5 PUSH20 0xFFFFFFFFFFFFFFFFFFFFFFFFFFFFFFFFFFFFFFFF AND SUB PUSH2 0x726 JUMPI PUSH0 PUSH1 0x40 MLOAD PUSH32 0xE602DF0500000000000000000000000000000000000000000000000000000000 DUP2 MSTORE PUSH1 0x4 ADD PUSH2 0x71D SWAP2 SWAP1 PUSH2 0xDE6 JUMP JUMPDEST PUSH1 0x40 MLOAD DUP1 SWAP2 SUB SWAP1 REVERT JUMPDEST PUSH0 PUSH20 0xFFFFFFFFFFFFFFFFFFFFFFFFFFFFFFFFFFFFFFFF AND DUP4 PUSH20 0xFFFFFFFFFFFFFFFFFFFFFFFFFFFFFFFFFFFFFFFF AND SUB PUSH2 0x796 JUMPI PUSH0 PUSH1 0x40 MLOAD PUSH32 0x94280D6200000000000000000000000000000000000000000000000000000000 DUP2 MSTORE PUSH1 0x4 ADD PUSH2 0x78D SWAP2 SWAP1 PUSH2 0xDE6 JUMP JUMPDEST PUSH1 0x40 MLOAD DUP1 SWAP2 SUB SWAP1 REVERT JUMPDEST DUP2 PUSH1 0x1 PUSH0 DUP7 PUSH20 0xFFFFFFFFFFFFFFFFFFFFFFFFFFFFFFFFFFFFFFFF AND PUSH20 0xFFFFFFFFFFFFFFFFFFFFFFFFFFFFFFFFFFFFFFFF AND DUP2 MSTORE PUSH1 0x20 ADD SWAP1 DUP2 MSTORE PUSH1 0x20 ADD PUSH0 KECCAK256 PUSH0 DUP6 PUSH20 0xFFFFFFFFFFFFFFFFFFFFFFFFFFFFFFFFFFFFFFFF AND PUSH20 0xFFFFFFFFFFFFFFFFFFFFFFFFFFFFFFFFFFFFFFFF AND DUP2 MSTORE PUSH1 0x20 ADD SWAP1 DUP2 MSTORE PUSH1 0x20 ADD PUSH0 KECCAK256 DUP2 SWAP1 SSTORE POP DUP1 ISZERO PUSH2 0x87F JUMPI DUP3 PUSH20 0xFFFFFFFFFFFFFFFFFFFFFFFFFFFFFFFFFFFFFFFF AND DUP5 PUSH20 0xFFFFFFFFFFFFFFFFFFFFFFFFFFFFFFFFFFFFFFFF AND PUSH32 0x8C5BE1E5EBEC7D5BD14F71427D1E84F3DD0314C0F7B2291E5B200AC8C7C3B925 DUP5 PUSH1 0x40 MLOAD PUSH2 0x876 SWAP2 SWAP1 PUSH2 0xC3F JUMP JUMPDEST PUSH1 0x40 MLOAD DUP1 SWAP2 SUB SWAP1 LOG3 JUMPDEST POP POP POP POP JUMP JUMPDEST PUSH0 PUSH20 0xFFFFFFFFFFFFFFFFFFFFFFFFFFFFFFFFFFFFFFFF AND DUP4 PUSH20 0xFFFFFFFFFFFFFFFFFFFFFFFFFFFFFFFFFFFFFFFF AND SUB PUSH2 0x8D5 JUMPI DUP1 PUSH1 0x2 PUSH0 DUP3 DUP3 SLOAD PUSH2 0x8C9 SWAP2 SWAP1 PUSH2 0xE2C JUMP JUMPDEST SWAP3 POP POP DUP2 SWAP1 SSTORE POP PUSH2 0x9A3 JUMP JUMPDEST PUSH0 DUP1 PUSH0 DUP6 PUSH20 0xFFFFFFFFFFFFFFFFFFFFFFFFFFFFFFFFFFFFFFFF AND PUSH20 0xFFFFFFFFFFFFFFFFFFFFFFFFFFFFFFFFFFFFFFFF AND DUP2 MSTORE PUSH1 0x20 ADD SWAP1 DUP2 MSTORE PUSH1 0x20 ADD PUSH0 KECCAK256 SLOAD SWAP1 POP DUP2 DUP2 LT ISZERO PUSH2 0x95E JUMPI DUP4 DUP2 DUP4 PUSH1 0x40 MLOAD PUSH32 0xE450D38C00000000000000000000000000000000000000000000000000000000 DUP2 MSTORE PUSH1 0x4 ADD PUSH2 0x955 SWAP4 SWAP3 SWAP2 SWAP1 PUSH2 0xDB1 JUMP JUMPDEST PUSH1 0x40 MLOAD DUP1 SWAP2 SUB SWAP1 REVERT JUMPDEST DUP2 DUP2 SUB PUSH0 DUP1 DUP7 PUSH20 0xFFFFFFFFFFFFFFFFFFFFFFFFFFFFFFFFFFFFFFFF AND PUSH20 0xFFFFFFFFFFFFFFFFFFFFFFFFFFFFFFFFFFFFFFFF AND DUP2 MSTORE PUSH1 0x20 ADD SWAP1 DUP2 MSTORE PUSH1 0x20 ADD PUSH0 KECCAK256 DUP2 SWAP1 SSTORE POP POP JUMPDEST PUSH0 PUSH20 0xFFFFFFFFFFFFFFFFFFFFFFFFFFFFFFFFFFFFFFFF AND DUP3 PUSH20 0xFFFFFFFFFFFFFFFFFFFFFFFFFFFFFFFFFFFFFFFF AND SUB PUSH2 0x9EA JUMPI DUP1 PUSH1 0x2 PUSH0 DUP3 DUP3 SLOAD SUB SWAP3 POP POP DUP2 SWAP1 SSTORE POP PUSH2 0xA34 JUMP JUMPDEST DUP1 PUSH0 DUP1 DUP5 PUSH20 0xFFFFFFFFFFFFFFFFFFFFFFFFFFFFFFFFFFFFFFFF AND PUSH20 0xFFFFFFFFFFFFFFFFFFFFFFFFFFFFFFFFFFFFFFFF AND DUP2 MSTORE PUSH1 0x20 ADD SWAP1 DUP2 MSTORE PUSH1 0x20 ADD PUSH0 KECCAK256 PUSH0 DUP3 DUP3 SLOAD ADD SWAP3 POP POP DUP2 SWAP1 SSTORE POP JUMPDEST DUP2 PUSH20 0xFFFFFFFFFFFFFFFFFFFFFFFFFFFFFFFFFFFFFFFF AND DUP4 PUSH20 0xFFFFFFFFFFFFFFFFFFFFFFFFFFFFFFFFFFFFFFFF AND PUSH32 0xDDF252AD1BE2C89B69C2B068FC378DAA952BA7F163C4A11628F55A4DF523B3EF DUP4 PUSH1 0x40 MLOAD PUSH2 0xA91 SWAP2 SWAP1 PUSH2 0xC3F JUMP JUMPDEST PUSH1 0x40 MLOAD DUP1 SWAP2 SUB SWAP1 LOG3 POP POP POP JUMP JUMPDEST PUSH0 DUP2 MLOAD SWAP1 POP SWAP2 SWAP1 POP JUMP JUMPDEST PUSH0 DUP3 DUP3 MSTORE PUSH1 0x20 DUP3 ADD SWAP1 POP SWAP3 SWAP2 POP POP JUMP JUMPDEST DUP3 DUP2 DUP4 MCOPY PUSH0 DUP4 DUP4 ADD MSTORE POP POP POP JUMP JUMPDEST PUSH0 PUSH1 0x1F NOT PUSH1 0x1F DUP4 ADD AND SWAP1 POP SWAP2 SWAP1 POP JUMP JUMPDEST PUSH0 PUSH2 0xAE0 DUP3 PUSH2 0xA9E JUMP JUMPDEST PUSH2 0xAEA DUP2 DUP6 PUSH2 0xAA8 JUMP JUMPDEST SWAP4 POP PUSH2 0xAFA DUP2 DUP6 PUSH1 0x20 DUP7 ADD PUSH2 0xAB8 JUMP JUMPDEST PUSH2 0xB03 DUP2 PUSH2 0xAC6 JUMP JUMPDEST DUP5 ADD SWAP2 POP POP SWAP3 SWAP2 POP POP JUMP JUMPDEST PUSH0 PUSH1 0x20 DUP3 ADD SWAP1 POP DUP2 DUP2 SUB PUSH0 DUP4 ADD MSTORE PUSH2 0xB26 DUP2 DUP5 PUSH2 0xAD6 JUMP JUMPDEST SWAP1 POP SWAP3 SWAP2 POP POP JUMP JUMPDEST PUSH0 DUP1 REVERT JUMPDEST PUSH0 PUSH20 0xFFFFFFFFFFFFFFFFFFFFFFFFFFFFFFFFFFFFFFFF DUP3 AND SWAP1 POP SWAP2 SWAP1 POP JUMP JUMPDEST PUSH0 PUSH2 0xB5B DUP3 PUSH2 0xB32 JUMP JUMPDEST SWAP1 POP SWAP2 SWAP1 POP JUMP JUMPDEST PUSH2 0xB6B DUP2 PUSH2 0xB51 JUMP JUMPDEST DUP2 EQ PUSH2 0xB75 JUMPI PUSH0 DUP1 REVERT JUMPDEST POP JUMP JUMPDEST PUSH0 DUP2 CALLDATALOAD SWAP1 POP PUSH2 0xB86 DUP2 PUSH2 0xB62 JUMP JUMPDEST SWAP3 SWAP2 POP POP JUMP JUMPDEST PUSH0 DUP2 SWAP1 POP SWAP2 SWAP1 POP JUMP JUMPDEST PUSH2 0xB9E DUP2 PUSH2 0xB8C JUMP JUMPDEST DUP2 EQ PUSH2 0xBA8 JUMPI PUSH0 DUP1 REVERT JUMPDEST POP JUMP JUMPDEST PUSH0 DUP2 CALLDATALOAD SWAP1 POP PUSH2 0xBB9 DUP2 PUSH2 0xB95 JUMP JUMPDEST SWAP3 SWAP2 POP POP JUMP JUMPDEST PUSH0 DUP1 PUSH1 0x40 DUP4 DUP6 SUB SLT ISZERO PUSH2 0xBD5 JUMPI PUSH2 0xBD4 PUSH2 0xB2E JUMP JUMPDEST JUMPDEST PUSH0 PUSH2 0xBE2 DUP6 DUP3 DUP7 ADD PUSH2 0xB78 JUMP JUMPDEST SWAP3 POP POP PUSH1 0x20 PUSH2 0xBF3 DUP6 DUP3 DUP7 ADD PUSH2 0xBAB JUMP JUMPDEST SWAP2 POP POP SWAP3 POP SWAP3 SWAP1 POP JUMP JUMPDEST PUSH0 DUP2 ISZERO ISZERO SWAP1 POP SWAP2 SWAP1 POP JUMP JUMPDEST PUSH2 0xC11 DUP2 PUSH2 0xBFD JUMP JUMPDEST DUP3 MSTORE POP POP JUMP JUMPDEST PUSH0 PUSH1 0x20 DUP3 ADD SWAP1 POP PUSH2 0xC2A PUSH0 DUP4 ADD DUP5 PUSH2 0xC08 JUMP JUMPDEST SWAP3 SWAP2 POP POP JUMP JUMPDEST PUSH2 0xC39 DUP2 PUSH2 0xB8C JUMP JUMPDEST DUP3 MSTORE POP POP JUMP JUMPDEST PUSH0 PUSH1 0x20 DUP3 ADD SWAP1 POP PUSH2 0xC52 PUSH0 DUP4 ADD DUP5 PUSH2 0xC30 JUMP JUMPDEST SWAP3 SWAP2 POP POP JUMP JUMPDEST PUSH0 DUP1 PUSH0 PUSH1 0x60 DUP5 DUP7 SUB SLT ISZERO PUSH2 0xC6F JUMPI PUSH2 0xC6E PUSH2 0xB2E JUMP JUMPDEST JUMPDEST PUSH0 PUSH2 0xC7C DUP7 DUP3 DUP8 ADD PUSH2 0xB78 JUMP JUMPDEST SWAP4 POP POP PUSH1 0x20 PUSH2 0xC8D DUP7 DUP3 DUP8 ADD PUSH2 0xB78 JUMP JUMPDEST SWAP3 POP POP PUSH1 0x40 PUSH2 0xC9E DUP7 DUP3 DUP8 ADD PUSH2 0xBAB JUMP JUMPDEST SWAP2 POP POP SWAP3 POP SWAP3 POP SWAP3 JUMP JUMPDEST PUSH0 PUSH1 0xFF DUP3 AND SWAP1 POP SWAP2 SWAP1 POP JUMP JUMPDEST PUSH2 0xCBD DUP2 PUSH2 0xCA8 JUMP JUMPDEST DUP3 MSTORE POP POP JUMP JUMPDEST PUSH0 PUSH1 0x20 DUP3 ADD SWAP1 POP PUSH2 0xCD6 PUSH0 DUP4 ADD DUP5 PUSH2 0xCB4 JUMP JUMPDEST SWAP3 SWAP2 POP POP JUMP JUMPDEST PUSH0 PUSH1 0x20 DUP3 DUP5 SUB SLT ISZERO PUSH2 0xCF1 JUMPI PUSH2 0xCF0 PUSH2 0xB2E JUMP JUMPDEST JUMPDEST PUSH0 PUSH2 0xCFE DUP5 DUP3 DUP6 ADD PUSH2 0xB78 JUMP JUMPDEST SWAP2 POP POP SWAP3 SWAP2 POP POP JUMP JUMPDEST PUSH0 DUP1 PUSH1 0x40 DUP4 DUP6 SUB SLT ISZERO PUSH2 0xD1D JUMPI PUSH2 0xD1C PUSH2 0xB2E JUMP JUMPDEST JUMPDEST PUSH0 PUSH2 0xD2A DUP6 DUP3 DUP7 ADD PUSH2 0xB78 JUMP JUMPDEST SWAP3 POP POP PUSH1 0x20 PUSH2 0xD3B DUP6 DUP3 DUP7 ADD PUSH2 0xB78 JUMP JUMPDEST SWAP2 POP POP SWAP3 POP SWAP3 SWAP1 POP JUMP JUMPDEST PUSH32 0x4E487B7100000000000000000000000000000000000000000000000000000000 PUSH0 MSTORE PUSH1 0x22 PUSH1 0x4 MSTORE PUSH1 0x24 PUSH0 REVERT JUMPDEST PUSH0 PUSH1 0x2 DUP3 DIV SWAP1 POP PUSH1 0x1 DUP3 AND DUP1 PUSH2 0xD89 JUMPI PUSH1 0x7F DUP3 AND SWAP2 POP JUMPDEST PUSH1 0x20 DUP3 LT DUP2 SUB PUSH2 0xD9C JUMPI PUSH2 0xD9B PUSH2 0xD45 JUMP JUMPDEST JUMPDEST POP SWAP2 SWAP1 POP JUMP JUMPDEST PUSH2 0xDAB DUP2 PUSH2 0xB51 JUMP JUMPDEST DUP3 MSTORE POP POP JUMP JUMPDEST PUSH0 PUSH1 0x60 DUP3 ADD SWAP1 POP PUSH2 0xDC4 PUSH0 DUP4 ADD DUP7 PUSH2 0xDA2 JUMP JUMPDEST PUSH2 0xDD1 PUSH1 0x20 DUP4 ADD DUP6 PUSH2 0xC30 JUMP JUMPDEST PUSH2 0xDDE PUSH1 0x40 DUP4 ADD DUP5 PUSH2 0xC30 JUMP JUMPDEST SWAP5 SWAP4 POP POP POP POP JUMP JUMPDEST PUSH0 PUSH1 0x20 DUP3 ADD SWAP1 POP PUSH2 0xDF9 PUSH0 DUP4 ADD DUP5 PUSH2 0xDA2 JUMP JUMPDEST SWAP3 SWAP2 POP POP JUMP JUMPDEST PUSH32 0x4E487B7100000000000000000000000000000000000000000000000000000000 PUSH0 MSTORE PUSH1 0x11 PUSH1 0x4 MSTORE PUSH1 0x24 PUSH0 REVERT JUMPDEST PUSH0 PUSH2 0xE36 DUP3 PUSH2 0xB8C JUMP JUMPDEST SWAP2 POP PUSH2 0xE41 DUP4 PUSH2 0xB8C JUMP JUMPDEST SWAP3 POP DUP3 DUP3 ADD SWAP1 POP DUP1 DUP3 GT ISZERO PUSH2 0xE59 JUMPI PUSH2 0xE58 PUSH2 0xDFF JUMP JUMPDEST JUMPDEST SWAP3 SWAP2 POP POP JUMP INVALID LOG2 PUSH5 0x6970667358 0x22 SLT KECCAK256 0xC MULMOD 0xDB DUP15 CREATE SWAP9 STATICCALL 0xAA PUSH21 0x4931ED2122839DBC72D66281B11B3B13243D48289A 0xB7 MSTORE PUSH5 0x736F6C6343 STOP ADDMOD BYTE STOP CALLER LOG2 PUSH5 0x6970667358 0x22 SLT KECCAK256 PUSH19 0x41D952EE91F7BD0E94A161419B5E03D8E360F3 0xD2 0xD3 GASLIMIT LOG3 0xED PUSH5 0xE1FA3D2778 PUSH22 0x64736F6C634300081A00330000000000000000000000 "
				},
				"gasEstimates": {
					"creation": {
						"codeDepositCost": "2725400",
						"executionCost": "2959",
						"totalCost": "2728359"
					},
					"external": {
						"campaignIdCounter()": "2470",
						"campaigns(uint256)": "infinite",
						"createCampaign(string,string,string,string,string[],string[],uint256,uint256,uint256[],string[])": "infinite",
						"getNextPrompt(uint256)": "infinite",
						"investInCampaign(uint256,uint256)": "infinite",
						"ownerCampaigns(address,uint256)": "infinite",
						"requestNextStage(uint256)": "infinite",
						"withdrawFunds(uint256)": "infinite"
					}
				},
				"methodIdentifiers": {
					"campaignIdCounter()": "2e618676",
					"campaigns(uint256)": "141961bc",
					"createCampaign(string,string,string,string,string[],string[],uint256,uint256,uint256[],string[])": "854b78a3",
					"getNextPrompt(uint256)": "b6201a87",
					"investInCampaign(uint256,uint256)": "2ee4811f",
					"ownerCampaigns(address,uint256)": "a56a2759",
					"requestNextStage(uint256)": "7355729a",
					"withdrawFunds(uint256)": "155dd5ee"
				}
			},
			"storageLayout": {
				"storage": [
					{
						"astId": 836,
						"contract": "contracts/CampaignManager.sol:CampaignManager",
						"label": "campaigns",
						"offset": 0,
						"slot": "0",
						"type": "t_mapping(t_uint256,t_struct(Campaign)831_storage)"
					},
					{
						"astId": 841,
						"contract": "contracts/CampaignManager.sol:CampaignManager",
						"label": "ownerCampaigns",
						"offset": 0,
						"slot": "1",
						"type": "t_mapping(t_address,t_array(t_uint256)dyn_storage)"
					},
					{
						"astId": 843,
						"contract": "contracts/CampaignManager.sol:CampaignManager",
						"label": "campaignIdCounter",
						"offset": 0,
						"slot": "2",
						"type": "t_uint256"
					}
				],
				"types": {
					"t_address": {
						"encoding": "inplace",
						"label": "address",
						"numberOfBytes": "20"
					},
					"t_array(t_address)dyn_storage": {
						"base": "t_address",
						"encoding": "dynamic_array",
						"label": "address[]",
						"numberOfBytes": "32"
					},
					"t_array(t_string_storage)dyn_storage": {
						"base": "t_string_storage",
						"encoding": "dynamic_array",
						"label": "string[]",
						"numberOfBytes": "32"
					},
					"t_array(t_uint256)dyn_storage": {
						"base": "t_uint256",
						"encoding": "dynamic_array",
						"label": "uint256[]",
						"numberOfBytes": "32"
					},
					"t_bool": {
						"encoding": "inplace",
						"label": "bool",
						"numberOfBytes": "1"
					},
					"t_mapping(t_address,t_array(t_uint256)dyn_storage)": {
						"encoding": "mapping",
						"key": "t_address",
						"label": "mapping(address => uint256[])",
						"numberOfBytes": "32",
						"value": "t_array(t_uint256)dyn_storage"
					},
					"t_mapping(t_address,t_uint256)": {
						"encoding": "mapping",
						"key": "t_address",
						"label": "mapping(address => uint256)",
						"numberOfBytes": "32",
						"value": "t_uint256"
					},
					"t_mapping(t_uint256,t_struct(Campaign)831_storage)": {
						"encoding": "mapping",
						"key": "t_uint256",
						"label": "mapping(uint256 => struct CampaignManager.Campaign)",
						"numberOfBytes": "32",
						"value": "t_struct(Campaign)831_storage"
					},
					"t_string_storage": {
						"encoding": "bytes",
						"label": "string",
						"numberOfBytes": "32"
					},
					"t_struct(Campaign)831_storage": {
						"encoding": "inplace",
						"label": "struct CampaignManager.Campaign",
						"members": [
							{
								"astId": 791,
								"contract": "contracts/CampaignManager.sol:CampaignManager",
								"label": "projectName",
								"offset": 0,
								"slot": "0",
								"type": "t_string_storage"
							},
							{
								"astId": 793,
								"contract": "contracts/CampaignManager.sol:CampaignManager",
								"label": "projectDescription",
								"offset": 0,
								"slot": "1",
								"type": "t_string_storage"
							},
							{
								"astId": 795,
								"contract": "contracts/CampaignManager.sol:CampaignManager",
								"label": "projectTag",
								"offset": 0,
								"slot": "2",
								"type": "t_string_storage"
							},
							{
								"astId": 797,
								"contract": "contracts/CampaignManager.sol:CampaignManager",
								"label": "projectTokenTicker",
								"offset": 0,
								"slot": "3",
								"type": "t_string_storage"
							},
							{
								"astId": 800,
								"contract": "contracts/CampaignManager.sol:CampaignManager",
								"label": "socialLinks",
								"offset": 0,
								"slot": "4",
								"type": "t_array(t_string_storage)dyn_storage"
							},
							{
								"astId": 803,
								"contract": "contracts/CampaignManager.sol:CampaignManager",
								"label": "websiteLinks",
								"offset": 0,
								"slot": "5",
								"type": "t_array(t_string_storage)dyn_storage"
							},
							{
								"astId": 805,
								"contract": "contracts/CampaignManager.sol:CampaignManager",
								"label": "totalAmountToRaise",
								"offset": 0,
								"slot": "6",
								"type": "t_uint256"
							},
							{
								"astId": 807,
								"contract": "contracts/CampaignManager.sol:CampaignManager",
								"label": "timePeriod",
								"offset": 0,
								"slot": "7",
								"type": "t_uint256"
							},
							{
								"astId": 810,
								"contract": "contracts/CampaignManager.sol:CampaignManager",
								"label": "stageAmounts",
								"offset": 0,
								"slot": "8",
								"type": "t_array(t_uint256)dyn_storage"
							},
							{
								"astId": 813,
								"contract": "contracts/CampaignManager.sol:CampaignManager",
								"label": "prompts",
								"offset": 0,
								"slot": "9",
								"type": "t_array(t_string_storage)dyn_storage"
							},
							{
								"astId": 815,
								"contract": "contracts/CampaignManager.sol:CampaignManager",
								"label": "owner",
								"offset": 0,
								"slot": "10",
								"type": "t_address"
							},
							{
								"astId": 817,
								"contract": "contracts/CampaignManager.sol:CampaignManager",
								"label": "isActive",
								"offset": 20,
								"slot": "10",
								"type": "t_bool"
							},
							{
								"astId": 819,
								"contract": "contracts/CampaignManager.sol:CampaignManager",
								"label": "raisedAmount",
								"offset": 0,
								"slot": "11",
								"type": "t_uint256"
							},
							{
								"astId": 821,
								"contract": "contracts/CampaignManager.sol:CampaignManager",
								"label": "currentStage",
								"offset": 0,
								"slot": "12",
								"type": "t_uint256"
							},
							{
								"astId": 823,
								"contract": "contracts/CampaignManager.sol:CampaignManager",
								"label": "tokenAddress",
								"offset": 0,
								"slot": "13",
								"type": "t_address"
							},
							{
								"astId": 827,
								"contract": "contracts/CampaignManager.sol:CampaignManager",
								"label": "backers",
								"offset": 0,
								"slot": "14",
								"type": "t_mapping(t_address,t_uint256)"
							},
							{
								"astId": 830,
								"contract": "contracts/CampaignManager.sol:CampaignManager",
								"label": "backerAddresses",
								"offset": 0,
								"slot": "15",
								"type": "t_array(t_address)dyn_storage"
							}
						],
						"numberOfBytes": "512"
					},
					"t_uint256": {
						"encoding": "inplace",
						"label": "uint256",
						"numberOfBytes": "32"
					}
				}
			},
			"userdoc": {
				"kind": "user",
				"methods": {},
				"version": 1
			}
		}
	}
}